{
  "contractName": "Assets",
  "abi": [
    {
      "inputs": [
        {
          "name": "_schemasAddr",
          "type": "address"
        },
        {
          "name": "_erc223Addr",
          "type": "address"
        }
      ],
      "payable": false,
      "stateMutability": "nonpayable",
      "type": "constructor",
      "signature": "constructor"
    },
    {
      "constant": false,
      "inputs": [
        {
          "name": "_assetId",
          "type": "uint256"
        },
        {
          "name": "_schemaId",
          "type": "uint256"
        },
        {
          "name": "dappId",
          "type": "string"
        }
      ],
      "name": "checkOwnershipOneAsset",
      "outputs": [
        {
          "name": "",
          "type": "bool"
        }
      ],
      "payable": false,
      "stateMutability": "nonpayable",
      "type": "function",
      "signature": "0xc2a81a21"
    },
    {
      "constant": false,
      "inputs": [
        {
          "name": "_assetsIds",
          "type": "uint256[]"
        },
        {
          "name": "_schemaId",
          "type": "uint256"
        },
        {
          "name": "dappId",
          "type": "string"
        }
      ],
      "name": "checkOwnershipMultipleAssets",
      "outputs": [
        {
          "name": "",
          "type": "bool[]"
        }
      ],
      "payable": false,
      "stateMutability": "nonpayable",
      "type": "function",
      "signature": "0x8d188b63"
    },
    {
      "constant": false,
      "inputs": [
        {
          "name": "_target",
          "type": "address"
        },
        {
          "name": "_assetId",
          "type": "uint256"
        },
        {
          "name": "_schemaId",
          "type": "uint256"
        },
        {
          "name": "dappId",
          "type": "string"
        }
      ],
      "name": "checkOwnershipOneAssetForAddress",
      "outputs": [
        {
          "name": "",
          "type": "bool"
        }
      ],
      "payable": false,
      "stateMutability": "nonpayable",
      "type": "function",
      "signature": "0x25c6e6a8"
    },
    {
      "constant": false,
      "inputs": [
        {
          "name": "_target",
          "type": "address"
        },
        {
          "name": "_assetsIds",
          "type": "uint256[]"
        },
        {
          "name": "_schemaId",
          "type": "uint256"
        },
        {
          "name": "dappId",
          "type": "string"
        }
      ],
      "name": "checkOwnershipMultipleAssetsForAddress",
      "outputs": [
        {
          "name": "",
          "type": "bool[]"
        }
      ],
      "payable": false,
      "stateMutability": "nonpayable",
      "type": "function",
      "signature": "0xe02d5a03"
    },
    {
      "constant": false,
      "inputs": [
        {
          "name": "dappId",
          "type": "string"
        }
      ],
      "name": "getAssetsPageCount",
      "outputs": [
        {
          "name": "",
          "type": "uint256"
        }
      ],
      "payable": false,
      "stateMutability": "nonpayable",
      "type": "function",
      "signature": "0x9891bcf4"
    },
    {
      "constant": false,
      "inputs": [
        {
          "name": "_page",
          "type": "uint256"
        },
        {
          "name": "dappId",
          "type": "string"
        }
      ],
      "name": "getAssets",
      "outputs": [
        {
          "components": [
            {
              "name": "expirationDate",
              "type": "uint256"
            },
            {
              "name": "assetId",
              "type": "uint256"
            },
            {
              "name": "schemaId",
              "type": "uint256"
            },
            {
              "name": "dappId",
              "type": "string"
            },
            {
              "name": "description",
              "type": "string"
            }
          ],
          "name": "",
          "type": "tuple[]"
        }
      ],
      "payable": false,
      "stateMutability": "nonpayable",
      "type": "function",
      "signature": "0x3c42bf33"
    },
    {
      "constant": false,
      "inputs": [
        {
          "name": "_user",
          "type": "address"
        },
        {
          "name": "_amount",
          "type": "uint256"
        },
        {
          "name": "_data",
          "type": "bytes"
        }
      ],
      "name": "tokenFallback",
      "outputs": [],
      "payable": false,
      "stateMutability": "nonpayable",
      "type": "function",
      "signature": "0xc0ee0b8a"
    }
  ],
  "bytecode": "0x60806040523480156200001157600080fd5b50604051604080620028e38339810180604052620000339190810190620000d3565b80600360006101000a81548173ffffffffffffffffffffffffffffffffffffffff021916908373ffffffffffffffffffffffffffffffffffffffff16021790555081600260006101000a81548173ffffffffffffffffffffffffffffffffffffffff021916908373ffffffffffffffffffffffffffffffffffffffff160217905550505062000148565b6000620000cb825162000114565b905092915050565b60008060408385031215620000e757600080fd5b6000620000f785828601620000bd565b92505060206200010a85828601620000bd565b9150509250929050565b6000620001218262000128565b9050919050565b600073ffffffffffffffffffffffffffffffffffffffff82169050919050565b61278b80620001586000396000f3fe608060405234801561001057600080fd5b506004361061009a576000357c0100000000000000000000000000000000000000000000000000000000900480639891bcf4116100785780639891bcf41461012f578063c0ee0b8a1461015f578063c2a81a211461017b578063e02d5a03146101ab5761009a565b806325c6e6a81461009f5780633c42bf33146100cf5780638d188b63146100ff575b600080fd5b6100b960048036036100b49190810190611eb9565b6101db565b6040516100c6919061243e565b60405180910390f35b6100e960048036036100e4919081019061205e565b6101f3565b6040516100f6919061241c565b60405180910390f35b61011960048036036101149190810190611f34565b6104dd565b60405161012691906123fa565b60405180910390f35b61014960048036036101449190810190611fdc565b6104f4565b60405161015691906124b9565b60405180910390f35b61017960048036036101749190810190611e52565b6105c5565b005b610195600480360361019091908101906120b2565b610c63565b6040516101a2919061243e565b60405180910390f35b6101c560048036036101c09190810190611dbf565b610c7a565b6040516101d291906123fa565b60405180910390f35b60006101e985858585610c92565b9050949350505050565b6060600061020083610f8e565b90506000600a85600a0203905060608260010160003373ffffffffffffffffffffffffffffffffffffffff1673ffffffffffffffffffffffffffffffffffffffff168152602001908152602001600020600101805480602002602001604051908101604052809291908181526020016000905b8282101561040757838290600052602060002090600502016040518060a0016040529081600082015481526020016001820154815260200160028201548152602001600382018054600181600116156101000203166002900480601f01602080910402602001604051908101604052809291908181526020018280546001816001161561010002031660029004801561034d5780601f106103225761010080835404028352916020019161034d565b820191906000526020600020905b81548152906001019060200180831161033057829003601f168201915b50505050508152602001600482018054600181600116156101000203166002900480601f0160208091040260200160405190810160405280929190818152602001828054600181600116156101000203166002900480156103ef5780601f106103c4576101008083540402835291602001916103ef565b820191906000526020600020905b8154815290600101906020018083116103d257829003601f168201915b50505050508152505081526020019060010190610273565b5050505090506000815114806104205750600181510382115b15610433576060809450505050506104d7565b6060600a60405190808252806020026020018201604052801561047057816020015b61045d611862565b8152602001906001900390816104555790505b50905060008090505b87600a028410156104ce5782518410156104b95782848151811061049957fe5b60200260200101518282815181106104ad57fe5b60200260200101819052505b80806001019150508380600101945050610479565b81955050505050505b92915050565b60606104eb3385858561121b565b90509392505050565b60008061050083610f8e565b90506000600a8260010160003373ffffffffffffffffffffffffffffffffffffffff1673ffffffffffffffffffffffffffffffffffffffff168152602001908152602001600020600101805490508161055557fe5b0490506000600a8360010160003373ffffffffffffffffffffffffffffffffffffffff1673ffffffffffffffffffffffffffffffffffffffff16815260200190815260200160002060010180549050816105ab57fe5b0611156105bb5780806001019150505b8092505050919050565b6105cd611891565b6105d6826112b7565b905060606105e3826112e5565b90506000610604826000815181106105f757fe5b60200260200101516113bc565b905060006106258360018151811061061857fe5b60200260200101516113bc565b905060606106468460028151811061063957fe5b602002602001015161142d565b9050600061065382610f8e565b905060606106748660038151811061066757fe5b602002602001015161142d565b905061067e6118ab565b600260009054906101000a900473ffffffffffffffffffffffffffffffffffffffff1673ffffffffffffffffffffffffffffffffffffffff16632b26fb29866040518263ffffffff167c01000000000000000000000000000000000000000000000000000000000281526004016106f591906124b9565b60006040518083038186803b15801561070d57600080fd5b505afa158015610721573d6000803e3d6000fd5b505050506040513d6000823e3d601f19601f8201168201806040525061074a919081019061201d565b90508981606001511115610793576040517f08c379a000000000000000000000000000000000000000000000000000000000815260040161078a90612479565b60405180910390fd5b898160e0015110156107da576040517f08c379a00000000000000000000000000000000000000000000000000000000081526004016107d190612479565b60405180910390fd5b6108016107e6856114b9565b6107f383600001516114b9565b6114e790919063ffffffff16565b610840576040517f08c379a000000000000000000000000000000000000000000000000000000000815260040161083790612459565b60405180910390fd5b61084c8b878787610c92565b1561088c576040517f08c379a000000000000000000000000000000000000000000000000000000000815260040161088390612499565b60405180910390fd5b60008a905060008090505b60018360a0015151038110156109ca5760006108ce8d8560a0015184815181106108bd57fe5b6020026020010151600001516114fd565b9050600360009054906101000a900473ffffffffffffffffffffffffffffffffffffffff1673ffffffffffffffffffffffffffffffffffffffff1663a9059cbb8560a00151848151811061091e57fe5b602002602001015160200151836040518363ffffffff167c01000000000000000000000000000000000000000000000000000000000281526004016109649291906123d1565b602060405180830381600087803b15801561097e57600080fd5b505af1158015610992573d6000803e3d6000fd5b505050506040513d601f19601f820116820180604052506109b69190810190611fb3565b508083039250508080600101915050610897565b50600360009054906101000a900473ffffffffffffffffffffffffffffffffffffffff1673ffffffffffffffffffffffffffffffffffffffff1663a9059cbb8360a0015160018560a00151510381518110610a2157fe5b602002602001015160200151836040518363ffffffff167c0100000000000000000000000000000000000000000000000000000000028152600401610a679291906123d1565b602060405180830381600087803b158015610a8157600080fd5b505af1158015610a95573d6000803e3d6000fd5b505050506040513d601f19601f82011682018060405250610ab99190810190611fb3565b508360010160008d73ffffffffffffffffffffffffffffffffffffffff1673ffffffffffffffffffffffffffffffffffffffff1681526020019081526020016000206001016040518060a0016040528084608001514201815260200189815260200188815260200187815260200185815250908060018154018082558091505090600182039060005260206000209060050201600090919290919091506000820151816000015560208201518160010155604082015181600201556060820151816003019080519060200190610b909291906118f2565b506080820151816004019080519060200190610bad9291906118f2565b5050505060018460010160008e73ffffffffffffffffffffffffffffffffffffffff1673ffffffffffffffffffffffffffffffffffffffff16815260200190815260200160002060010180549050038460010160008e73ffffffffffffffffffffffffffffffffffffffff1673ffffffffffffffffffffffffffffffffffffffff168152602001908152602001600020600001600089815260200190815260200160002081905550505050505050505050505050565b6000610c7133858585610c92565b90509392505050565b6060610c888585858561121b565b9050949350505050565b600080610c9e83610f8e565b905060008160010160008873ffffffffffffffffffffffffffffffffffffffff1673ffffffffffffffffffffffffffffffffffffffff168152602001908152602001600020600101805490501415610cfa576000915050610f86565b60008160010160008873ffffffffffffffffffffffffffffffffffffffff1673ffffffffffffffffffffffffffffffffffffffff1681526020019081526020016000206000016000878152602001908152602001600020549050610d5c611972565b8260010160008973ffffffffffffffffffffffffffffffffffffffff1673ffffffffffffffffffffffffffffffffffffffff1681526020019081526020016000206001018281548110610dab57fe5b90600052602060002090600502016040518060a0016040529081600082015481526020016001820154815260200160028201548152602001600382018054600181600116156101000203166002900480601f016020809104026020016040519081016040528092919081815260200182805460018160011615610100020316600290048015610e7b5780601f10610e5057610100808354040283529160200191610e7b565b820191906000526020600020905b815481529060010190602001808311610e5e57829003601f168201915b50505050508152602001600482018054600181600116156101000203166002900480601f016020809104026020016040519081016040528092919081815260200182805460018160011615610100020316600290048015610f1d5780601f10610ef257610100808354040283529160200191610f1d565b820191906000526020600020905b815481529060010190602001808311610f0057829003601f168201915b5050505050815250509050428160000151118015610f3e5750868160200151145b8015610f6d5750610f6c610f5582606001516114b9565b610f5e876114b9565b6114e790919063ffffffff16565b5b15610f7e5760019350505050610f86565b600093505050505b949350505050565b600080828051906020012090506060600080838152602001908152602001600020805480602002602001604051908101604052809291908181526020018280548015610ff957602002820191906000526020600020905b815481526020019060010190808311610fe5575b505050505090506000815111156111515760008090505b815181101561114f576111056110ee600184848151811061102d57fe5b60200260200101518154811061103f57fe5b90600052602060002090600202016000018054600181600116156101000203166002900480601f0160208091040260200160405190810160405280929190818152602001828054600181600116156101000203166002900480156110e45780601f106110b9576101008083540402835291602001916110e4565b820191906000526020600020905b8154815290600101906020018083116110c757829003601f168201915b50505050506114b9565b6110f7876114b9565b6114e790919063ffffffff16565b1561114257600182828151811061111857fe5b60200260200101518154811061112a57fe5b90600052602060002090600202019350505050611216565b8080600101915050611010565b505b60016040518060200160405280868152509080600181540180825580915050906001820390600052602060002090600202016000909192909190915060008201518160000190805190602001906111a99291906118f2565b505050506000600180805490500390506000808481526020019081526020016000208190806001815401808255809150509060018203906000526020600020016000909192909190915055506001818154811061120257fe5b906000526020600020906002020193505050505b919050565b606080845160405190808252806020026020018201604052801561124e5781602001602082028038833980820191505090505b50905060008090505b85518110156112aa5761127f8787838151811061127057fe5b60200260200101518787610c92565b82828151811061128b57fe5b6020026020010190151590811515815250508080600101915050611257565b5080915050949350505050565b6112bf611891565b600060208301905060405180604001604052808451815260200182815250915050919050565b60606112f082611514565b6112f957600080fd5b600061130483611562565b90508060405190808252806020026020018201604052801561134057816020015b61132d6119a1565b8152602001906001900390816113255790505b509150600061135284602001516115d3565b8460200151019050600080600090505b838110156113b3576113738361165c565b915060405180604001604052808381526020018481525085828151811061139657fe5b602002602001018190525081830192508080600101915050611362565b50505050919050565b60008082600001511180156113d657506021826000015111155b6113df57600080fd5b60006113ee83602001516115d3565b9050600081846000015103905060008083866020015101905080519150602083101561142157826020036101000a820491505b81945050505050919050565b6060600082600001511161144057600080fd5b600061144f83602001516115d3565b905060008184600001510390506060816040519080825280601f01601f1916602001820160405280156114915781602001600182028038833980820191505090505b50905060008160200190506114ad84876020015101828561170f565b81945050505050919050565b6114c16119bb565b600060208301905060405180604001604052808451815260200182815250915050919050565b6000806114f48484611776565b14905092915050565b600060648284028161150b57fe5b04905092915050565b6000808260000151141561152b576000905061155d565b60008083602001519050805160001a915060c060ff168260ff1610156115565760009250505061155d565b6001925050505b919050565b6000808260000151141561157957600090506115ce565b6000809050600061158d84602001516115d3565b84602001510190506000846000015185602001510190505b808210156115c7576115b68261165c565b8201915082806001019350506115a5565b8293505050505b919050565b600080825160001a9050608060ff168110156115f3576000915050611657565b60b860ff16811080611618575060c060ff168110158015611617575060f860ff1681105b5b15611627576001915050611657565b60c060ff168110156116475760018060b80360ff16820301915050611657565b60018060f80360ff168203019150505b919050565b600080825160001a9050608060ff1681101561167c57600191505061170a565b60b860ff1681101561169a576001608060ff1682030191505061170a565b60c060ff168110156116ca5760b78103600184019350806020036101000a84510460018201810193505050611708565b60f860ff168110156116e857600160c060ff1682030191505061170a565b60f78103600184019350806020036101000a845104600182018101935050505b505b919050565b600081141561171d57611771565b5b602060ff16811061174d5782518252602060ff1683019250602060ff1682019150602060ff168103905061171e565b6000600182602060ff16036101000a03905080198451168184511681811785525050505b505050565b6000808360000151905083600001518360000151101561179857826000015190505b60008460200151905060008460200151905060008090505b8381101561184a5760008084519150835190508082146118315760007fffffffffffffffffffffffffffffffffffffffffffffffffffffffffffffffff9050602087101561180b57600184886020030160080260020a031990505b60008183168285160390506000811461182e57809850505050505050505061185c565b50505b60208501945060208401935050506020810190506117b0565b50846000015186600001510393505050505b92915050565b6040518060a0016040528060008152602001600081526020016000815260200160608152602001606081525090565b604051806040016040528060008152602001600081525090565b604051806101000160405280606081526020016000815260200160008152602001600081526020016000815260200160608152602001600015158152602001600081525090565b828054600181600116156101000203166002900490600052602060002090601f016020900481019282601f1061193357805160ff1916838001178555611961565b82800160010185558215611961579182015b82811115611960578251825591602001919060010190611945565b5b50905061196e91906119d5565b5090565b6040518060a0016040528060008152602001600081526020016000815260200160608152602001606081525090565b604051806040016040528060008152602001600081525090565b604051806040016040528060008152602001600081525090565b6119f791905b808211156119f35760008160009055506001016119db565b5090565b90565b6000611a0682356126b6565b905092915050565b6000611a1a82516126b6565b905092915050565b600082601f830112611a3357600080fd5b8151611a46611a4182612501565b6124d4565b9150818183526020840193506020810190508360005b83811015611a8c5781518601611a728882611c29565b845260208401935060208301925050600181019050611a5c565b5050505092915050565b600082601f830112611aa757600080fd5b8135611aba611ab582612529565b6124d4565b91508181835260208401935060208101905083856020840282011115611adf57600080fd5b60005b83811015611b0f5781611af58882611d97565b845260208401935060208301925050600181019050611ae2565b5050505092915050565b6000611b2582516126c8565b905092915050565b600082601f830112611b3e57600080fd5b8135611b51611b4c82612551565b6124d4565b91508082526020830160208301858383011115611b6d57600080fd5b611b788382846126fe565b50505092915050565b600082601f830112611b9257600080fd5b8151611ba5611ba08261257d565b6124d4565b91508082526020830160208301858383011115611bc157600080fd5b611bcc83828461270d565b50505092915050565b600082601f830112611be657600080fd5b8135611bf9611bf4826125a9565b6124d4565b91508082526020830160208301858383011115611c1557600080fd5b611c208382846126fe565b50505092915050565b600060608284031215611c3b57600080fd5b611c4560606124d4565b90506000611c5584828501611dab565b6000830152506020611c6984828501611a0e565b602083015250604082015167ffffffffffffffff811115611c8957600080fd5b611c9584828501611b81565b60408301525092915050565b60006101008284031215611cb457600080fd5b611cbf6101006124d4565b9050600082015167ffffffffffffffff811115611cdb57600080fd5b611ce784828501611b81565b6000830152506020611cfb84828501611dab565b6020830152506040611d0f84828501611dab565b6040830152506060611d2384828501611dab565b6060830152506080611d3784828501611dab565b60808301525060a082015167ffffffffffffffff811115611d5757600080fd5b611d6384828501611a22565b60a08301525060c0611d7784828501611b19565b60c08301525060e0611d8b84828501611dab565b60e08301525092915050565b6000611da382356126f4565b905092915050565b6000611db782516126f4565b905092915050565b60008060008060808587031215611dd557600080fd5b6000611de3878288016119fa565b945050602085013567ffffffffffffffff811115611e0057600080fd5b611e0c87828801611a96565b9350506040611e1d87828801611d97565b925050606085013567ffffffffffffffff811115611e3a57600080fd5b611e4687828801611bd5565b91505092959194509250565b600080600060608486031215611e6757600080fd5b6000611e75868287016119fa565b9350506020611e8686828701611d97565b925050604084013567ffffffffffffffff811115611ea357600080fd5b611eaf86828701611b2d565b9150509250925092565b60008060008060808587031215611ecf57600080fd5b6000611edd878288016119fa565b9450506020611eee87828801611d97565b9350506040611eff87828801611d97565b925050606085013567ffffffffffffffff811115611f1c57600080fd5b611f2887828801611bd5565b91505092959194509250565b600080600060608486031215611f4957600080fd5b600084013567ffffffffffffffff811115611f6357600080fd5b611f6f86828701611a96565b9350506020611f8086828701611d97565b925050604084013567ffffffffffffffff811115611f9d57600080fd5b611fa986828701611bd5565b9150509250925092565b600060208284031215611fc557600080fd5b6000611fd384828501611b19565b91505092915050565b600060208284031215611fee57600080fd5b600082013567ffffffffffffffff81111561200857600080fd5b61201484828501611bd5565b91505092915050565b60006020828403121561202f57600080fd5b600082015167ffffffffffffffff81111561204957600080fd5b61205584828501611ca1565b91505092915050565b6000806040838503121561207157600080fd5b600061207f85828601611d97565b925050602083013567ffffffffffffffff81111561209c57600080fd5b6120a885828601611bd5565b9150509250929050565b6000806000606084860312156120c757600080fd5b60006120d586828701611d97565b93505060206120e686828701611d97565b925050604084013567ffffffffffffffff81111561210357600080fd5b61210f86828701611bd5565b9150509250925092565b6000612125838361221f565b60208301905092915050565b600061213d8383612336565b905092915050565b61214e8161266e565b82525050565b600061215f826125ef565b612169818561262a565b9350612174836125d5565b60005b828110156121a25761218a868351612119565b955061219582612610565b9150600181019050612177565b50849250505092915050565b60006121b9826125fa565b6121c3818561263b565b9350836020820285016121d5856125e2565b60005b8481101561220e5783830388526121f0838351612131565b92506121fb8261261d565b91506020880197506001810190506121d8565b508196508694505050505092915050565b61222881612680565b82525050565b61223781612680565b82525050565b600061224882612605565b612252818561264c565b935061226281856020860161270d565b61226b81612740565b840191505092915050565b600061228360108361265d565b91507f696e636f727265637420646170704964000000000000000000000000000000006000830152602082019050919050565b60006122c360108361265d565b91507f696e636f727265637420616d6f756e74000000000000000000000000000000006000830152602082019050919050565b6000612303600a8361265d565b91507f6475706c696361746564000000000000000000000000000000000000000000006000830152602082019050919050565b600060a08301600083015161234e60008601826123b3565b50602083015161236160208601826123b3565b50604083015161237460408601826123b3565b506060830151848203606086015261238c828261223d565b915050608083015184820360808601526123a6828261223d565b9150508091505092915050565b6123bc816126ac565b82525050565b6123cb816126ac565b82525050565b60006040820190506123e66000830185612145565b6123f360208301846123c2565b9392505050565b600060208201905081810360008301526124148184612154565b905092915050565b6000602082019050818103600083015261243681846121ae565b905092915050565b6000602082019050612453600083018461222e565b92915050565b6000602082019050818103600083015261247281612276565b9050919050565b60006020820190508181036000830152612492816122b6565b9050919050565b600060208201905081810360008301526124b2816122f6565b9050919050565b60006020820190506124ce60008301846123c2565b92915050565b6000604051905081810181811067ffffffffffffffff821117156124f757600080fd5b8060405250919050565b600067ffffffffffffffff82111561251857600080fd5b602082029050602081019050919050565b600067ffffffffffffffff82111561254057600080fd5b602082029050602081019050919050565b600067ffffffffffffffff82111561256857600080fd5b601f19601f8301169050602081019050919050565b600067ffffffffffffffff82111561259457600080fd5b601f19601f8301169050602081019050919050565b600067ffffffffffffffff8211156125c057600080fd5b601f19601f8301169050602081019050919050565b6000602082019050919050565b6000602082019050919050565b600081519050919050565b600081519050919050565b600081519050919050565b6000602082019050919050565b6000602082019050919050565b600082825260208201905092915050565b600082825260208201905092915050565b600082825260208201905092915050565b600082825260208201905092915050565b60006126798261268c565b9050919050565b60008115159050919050565b600073ffffffffffffffffffffffffffffffffffffffff82169050919050565b6000819050919050565b60006126c1826126d4565b9050919050565b60008115159050919050565b600073ffffffffffffffffffffffffffffffffffffffff82169050919050565b6000819050919050565b82818337600083830152505050565b60005b8381101561272b578082015181840152602081019050612710565b8381111561273a576000848401525b50505050565b6000601f19601f830116905091905056fea265627a7a7230582038724cdde969c267012f17372611fa1320fd8d4ce2c781a5265e06654bbe02046c6578706572696d656e74616cf50037",
  "source": "pragma solidity ^0.5.2;\npragma experimental ABIEncoderV2;\n\nimport \"./Schemas.sol\";\nimport \"./token/ERC223ReceivingContract.sol\";\nimport \"./token/ERC223.sol\";\nimport \"../../node_modules/solidity-rlp/contracts/RLPReader.sol\";\nimport \"../../node_modules/openzeppelin-solidity/contracts/math/SafeMath.sol\";\nimport \"./dapp/lib/Strings.sol\";\n\ncontract  Assets is ERC223ReceivingContract{\n  \n  using Strings for *;\n  using SafeMath for uint256;\n  using RLPReader for bytes;\n  using RLPReader for uint;\n  using RLPReader for RLPReader.RLPItem;\n\n  struct DappCtx {\n    string dappID;\n    mapping (address => UserAssets)  userAssets_;    \n  }\n\n  struct UserAssets { \n    mapping (uint256 => uint) assetsIdx;  \n    Asset[] assets;\n  } \n  \n  struct Asset {   \n    uint expirationDate;\n    uint256 assetId;\n    uint256 schemaId;\n    string dappId;\n    string description;\n  }\n\n  uint256 constant private PAGE_SIZE = 10;\n\n  mapping (bytes32 => uint[]) private dappCtxhashIndexMap_;\n  DappCtx[] private dappCtxs_;\n\n  Schemas private _schemas;\n  ERC223 private _erc223;\n  \n  constructor (address _schemasAddr, address _erc223Addr) public{\n    _erc223 = ERC223(_erc223Addr);\n    _schemas = Schemas(_schemasAddr);\n  }\n\n  function checkOwnershipOneAsset(uint256 _assetId, uint256 _schemaId, string memory dappId) public  returns (bool) {\n    return _checkOwnershipOneAsset(msg.sender, _assetId, _schemaId, dappId);  \n  }\n\n  function checkOwnershipMultipleAssets(uint256[] memory _assetsIds, uint256 _schemaId, string memory dappId) public  returns (bool[] memory) {\n    return _checkOwnershipMultipleAssets(msg.sender, _assetsIds, _schemaId, dappId);  \n  }\n\n  function checkOwnershipOneAssetForAddress(address _target, uint256 _assetId, uint256 _schemaId, string memory dappId) public  returns (bool) {\n    return _checkOwnershipOneAsset(_target, _assetId, _schemaId, dappId);  \n  }\n\n  function checkOwnershipMultipleAssetsForAddress(address _target, uint256[] memory _assetsIds, uint256 _schemaId, string memory dappId) public  returns (bool[] memory) {\n    return _checkOwnershipMultipleAssets(_target, _assetsIds, _schemaId, dappId);  \n  }\n\n  function getAssetsPageCount(string memory dappId) public  returns (uint256) {  \n    DappCtx storage ctx = _getDappCtx(dappId);  \n    uint256 pages = ctx.userAssets_[msg.sender].assets.length / PAGE_SIZE;\n    if ((ctx.userAssets_[msg.sender].assets.length % PAGE_SIZE)>0) {\n      pages++;\n    }\n    return pages;\n  }\n\n  function getAssets(uint256 _page, string memory dappId) public  returns (Asset[] memory) {\n    DappCtx storage ctx = _getDappCtx(dappId);  \n    uint256 transferIndex = PAGE_SIZE * _page - PAGE_SIZE;\n    Asset[] memory assets = ctx.userAssets_[msg.sender].assets;\n\n    if (assets.length == 0 || transferIndex > assets.length - 1) {\n      Asset[] memory empty;\n      return empty ;\n    }\n\n    Asset[] memory assetsPage = new Asset[](PAGE_SIZE);  \n    uint256 returnCounter = 0;\n\n    for (transferIndex; transferIndex < PAGE_SIZE * _page; transferIndex++) {\n      if (transferIndex < assets.length) {\n        assetsPage[returnCounter] = assets[transferIndex];\n      }\n      returnCounter++;\n    }\n\n    return (assetsPage);\n  }\n\n  function tokenFallback(address _user, uint _amount, bytes memory _data) public {\n\n    RLPReader.RLPItem memory item = _data.toRlpItem();\n    RLPReader.RLPItem[] memory itemList = item.toList();\n\n    uint256 _assetId = uint256(itemList[0].toUint());\n    uint256 _schemaId = uint256(itemList[1].toUint());\n\n    string memory _dappId = string(itemList[2].toBytes());\n\n    DappCtx storage ctx = _getDappCtx(_dappId); \n\n    string memory _description = string(itemList[3].toBytes());\n\n    Schemas.Schema memory schema = _schemas.getSchema(_schemaId);\n    require(schema.amount <= _amount, \"incorrect amount\");    \n    require(schema.topPrice >= _amount, \"incorrect amount\");    \n    require(schema.dappId.toSlice().equals(_dappId.toSlice()),\"incorrect dappId\");    \n    require(!_checkOwnershipOneAsset(_user, _assetId, _schemaId,_dappId), \"duplicated\");\n    \n    uint pieValue = _amount;\n\n    for (uint i = 0; i < schema.clearingHouseRules.length-1; i++) {\n      uint tmpValue = _calculatePercentage(_amount,schema.clearingHouseRules[i].percent);\n      _erc223.transfer(schema.clearingHouseRules[i].receptor, tmpValue);\n      pieValue -= tmpValue;\n    }\n\n    _erc223.transfer(schema.clearingHouseRules[schema.clearingHouseRules.length-1].receptor, pieValue);\n    //  purchase registry\n    ctx.userAssets_[_user].assets.push(Asset(now + schema.assetLifeTime , _assetId, _schemaId, _dappId, _description));\n\n    ctx.userAssets_[_user].assetsIdx[_assetId] = ctx.userAssets_[_user].assets.length - 1 ;\n  }\n\n  function _checkOwnershipMultipleAssets(address _owner, uint256[] memory _assetsIds, uint256 _schemaId, string memory _dappId) internal  returns (bool[] memory) {\n        \n    bool[] memory assetOwnerShip  = new bool[](_assetsIds.length);    \n\n    for (uint i = 0; i < _assetsIds.length; i++) {\n     assetOwnerShip[i] = _checkOwnershipOneAsset(_owner, _assetsIds[i] ,_schemaId, _dappId);\n    }\n\n    return assetOwnerShip;\n  }\n\n  function _checkOwnershipOneAsset(address _owner, uint256 _assetId, uint256 _schemaId, string memory _dappId) internal  returns (bool) {\n    DappCtx storage ctx = _getDappCtx(_dappId);  \n    \n    if(ctx.userAssets_[_owner].assets.length == 0){\n      return false;\n    }\n\n    uint idx = ctx.userAssets_[_owner].assetsIdx[_assetId];\n    Asset memory asset = ctx.userAssets_[_owner].assets[idx];\n    \n    if ((asset.expirationDate > now) && (asset.assetId == _assetId) && (_dappId.toSlice().equals(asset.dappId.toSlice()))){\n      return true;\n    }\n    else {\n      return false;\n    } \n  }\n\n  function _calculatePercentage(uint theNumber, uint percentage) internal  returns (uint) {\n    return theNumber * percentage / 100 ;\n  }\n\n  function _getDappCtx(string memory dappId) internal returns (DappCtx storage) {\n    bytes32 dappIdHash = keccak256(bytes(dappId));\n    uint[] memory indexArray = dappCtxhashIndexMap_[dappIdHash];\n\n    if (indexArray.length > 0) {\n      // hash collision check\n      for (uint i = 0 ; i < indexArray.length ; i++) {\n        if (dappId.toSlice().equals(dappCtxs_[indexArray[i]].dappID.toSlice())) {\n          return dappCtxs_[indexArray[i]];\n        }\n      }\n    }\n\n    dappCtxs_.push(DappCtx(dappId));\n    uint dappIndex = dappCtxs_.length-1;\n\n    dappCtxhashIndexMap_[dappIdHash].push(dappIndex);\n\n    return dappCtxs_[dappIndex];\n  }\n    \n}",
  "sourcePath": "/home/jordi/ws/bloomenio/bloomen-wallet/bloomen-wallet-truffle/contracts/bloomen/Assets.sol",
  "compiler": {
    "name": "solc",
    "version": "0.5.7+commit.6da8b019.Emscripten.clang"
  },
  "schemaVersion": "3.0.6",
  "updatedAt": "2019-05-28T12:30:04.859Z",
  "devdoc": {
    "methods": {}
  },
  "userdoc": {
    "methods": {}
  }
}