{
  "contractName": "Assets",
  "abi": [
    {
      "constant": true,
      "inputs": [],
      "name": "name",
      "outputs": [
        {
          "name": "",
          "type": "string"
        }
      ],
      "payable": false,
      "stateMutability": "view",
      "type": "function"
    },
    {
      "constant": false,
      "inputs": [
        {
          "name": "_to",
          "type": "address"
        },
        {
          "name": "_value",
          "type": "uint256"
        },
        {
          "name": "_data",
          "type": "uint256"
        }
      ],
      "name": "transfer",
      "outputs": [],
      "payable": false,
      "stateMutability": "nonpayable",
      "type": "function"
    },
    {
      "constant": false,
      "inputs": [
        {
          "name": "spender",
          "type": "address"
        },
        {
          "name": "value",
          "type": "uint256"
        }
      ],
      "name": "approve",
      "outputs": [
        {
          "name": "",
          "type": "bool"
        }
      ],
      "payable": false,
      "stateMutability": "nonpayable",
      "type": "function"
    },
    {
      "constant": true,
      "inputs": [
        {
          "name": "_page",
          "type": "int256"
        }
      ],
      "name": "getMovements",
      "outputs": [
        {
          "components": [
            {
              "name": "amount",
              "type": "int256"
            },
            {
              "name": "description",
              "type": "string"
            },
            {
              "name": "date",
              "type": "uint256"
            },
            {
              "name": "to",
              "type": "address"
            }
          ],
          "name": "",
          "type": "tuple[]"
        }
      ],
      "payable": false,
      "stateMutability": "view",
      "type": "function"
    },
    {
      "constant": true,
      "inputs": [],
      "name": "totalSupply",
      "outputs": [
        {
          "name": "",
          "type": "uint256"
        }
      ],
      "payable": false,
      "stateMutability": "view",
      "type": "function"
    },
    {
      "constant": false,
      "inputs": [
        {
          "name": "from",
          "type": "address"
        },
        {
          "name": "to",
          "type": "address"
        },
        {
          "name": "value",
          "type": "uint256"
        }
      ],
      "name": "transferFrom",
      "outputs": [
        {
          "name": "",
          "type": "bool"
        }
      ],
      "payable": false,
      "stateMutability": "nonpayable",
      "type": "function"
    },
    {
      "constant": true,
      "inputs": [
        {
          "name": "_schemaId",
          "type": "uint256"
        }
      ],
      "name": "getSchema",
      "outputs": [
        {
          "components": [
            {
              "name": "expirationDate",
              "type": "uint256"
            },
            {
              "name": "schemaId",
              "type": "uint256"
            },
            {
              "name": "amount",
              "type": "uint256"
            },
            {
              "name": "assetLifeTime",
              "type": "uint256"
            },
            {
              "components": [
                {
                  "name": "percent",
                  "type": "uint256"
                },
                {
                  "name": "receptor",
                  "type": "address"
                },
                {
                  "name": "description",
                  "type": "string"
                }
              ],
              "name": "clearingHouseRules",
              "type": "tuple[]"
            },
            {
              "name": "valid",
              "type": "bool"
            }
          ],
          "name": "",
          "type": "tuple"
        }
      ],
      "payable": false,
      "stateMutability": "view",
      "type": "function"
    },
    {
      "constant": true,
      "inputs": [],
      "name": "decimals",
      "outputs": [
        {
          "name": "",
          "type": "uint8"
        }
      ],
      "payable": false,
      "stateMutability": "view",
      "type": "function"
    },
    {
      "constant": false,
      "inputs": [
        {
          "name": "spender",
          "type": "address"
        },
        {
          "name": "addedValue",
          "type": "uint256"
        }
      ],
      "name": "increaseAllowance",
      "outputs": [
        {
          "name": "",
          "type": "bool"
        }
      ],
      "payable": false,
      "stateMutability": "nonpayable",
      "type": "function"
    },
    {
      "constant": false,
      "inputs": [
        {
          "name": "_schemaId",
          "type": "uint256"
        }
      ],
      "name": "validateSchema",
      "outputs": [],
      "payable": false,
      "stateMutability": "nonpayable",
      "type": "function"
    },
    {
      "constant": false,
      "inputs": [
        {
          "name": "to",
          "type": "address"
        },
        {
          "name": "value",
          "type": "uint256"
        }
      ],
      "name": "mint",
      "outputs": [
        {
          "name": "",
          "type": "bool"
        }
      ],
      "payable": false,
      "stateMutability": "nonpayable",
      "type": "function"
    },
    {
      "constant": false,
      "inputs": [
        {
          "name": "value",
          "type": "uint256"
        }
      ],
      "name": "burn",
      "outputs": [],
      "payable": false,
      "stateMutability": "nonpayable",
      "type": "function"
    },
    {
      "constant": false,
      "inputs": [
        {
          "name": "_schemaId",
          "type": "uint256"
        }
      ],
      "name": "invalidateSchema",
      "outputs": [],
      "payable": false,
      "stateMutability": "nonpayable",
      "type": "function"
    },
    {
      "constant": true,
      "inputs": [
        {
          "name": "owner",
          "type": "address"
        }
      ],
      "name": "balanceOf",
      "outputs": [
        {
          "name": "",
          "type": "uint256"
        }
      ],
      "payable": false,
      "stateMutability": "view",
      "type": "function"
    },
    {
      "constant": false,
      "inputs": [],
      "name": "renounceOwnership",
      "outputs": [],
      "payable": false,
      "stateMutability": "nonpayable",
      "type": "function"
    },
    {
      "constant": false,
      "inputs": [
        {
          "name": "from",
          "type": "address"
        },
        {
          "name": "value",
          "type": "uint256"
        }
      ],
      "name": "burnFrom",
      "outputs": [],
      "payable": false,
      "stateMutability": "nonpayable",
      "type": "function"
    },
    {
      "constant": false,
      "inputs": [
        {
          "name": "_amount",
          "type": "int256"
        },
        {
          "name": "_description",
          "type": "string"
        },
        {
          "name": "_to",
          "type": "address"
        }
      ],
      "name": "addMovement",
      "outputs": [],
      "payable": false,
      "stateMutability": "nonpayable",
      "type": "function"
    },
    {
      "constant": true,
      "inputs": [],
      "name": "owner",
      "outputs": [
        {
          "name": "",
          "type": "address"
        }
      ],
      "payable": false,
      "stateMutability": "view",
      "type": "function"
    },
    {
      "constant": true,
      "inputs": [],
      "name": "isOwner",
      "outputs": [
        {
          "name": "",
          "type": "bool"
        }
      ],
      "payable": false,
      "stateMutability": "view",
      "type": "function"
    },
    {
      "constant": true,
      "inputs": [],
      "name": "getSchemas",
      "outputs": [
        {
          "name": "",
          "type": "uint256[]"
        }
      ],
      "payable": false,
      "stateMutability": "view",
      "type": "function"
    },
    {
      "constant": true,
      "inputs": [],
      "name": "symbol",
      "outputs": [
        {
          "name": "",
          "type": "string"
        }
      ],
      "payable": false,
      "stateMutability": "view",
      "type": "function"
    },
    {
      "constant": false,
      "inputs": [
        {
          "name": "account",
          "type": "address"
        }
      ],
      "name": "addMinter",
      "outputs": [],
      "payable": false,
      "stateMutability": "nonpayable",
      "type": "function"
    },
    {
      "constant": false,
      "inputs": [],
      "name": "renounceMinter",
      "outputs": [],
      "payable": false,
      "stateMutability": "nonpayable",
      "type": "function"
    },
    {
      "constant": false,
      "inputs": [
        {
          "name": "_schemaId",
          "type": "uint256"
        },
        {
          "name": "_data",
          "type": "bytes"
        }
      ],
      "name": "createSchema",
      "outputs": [],
      "payable": false,
      "stateMutability": "nonpayable",
      "type": "function"
    },
    {
      "constant": false,
      "inputs": [
        {
          "name": "spender",
          "type": "address"
        },
        {
          "name": "subtractedValue",
          "type": "uint256"
        }
      ],
      "name": "decreaseAllowance",
      "outputs": [
        {
          "name": "",
          "type": "bool"
        }
      ],
      "payable": false,
      "stateMutability": "nonpayable",
      "type": "function"
    },
    {
      "constant": false,
      "inputs": [
        {
          "name": "_to",
          "type": "address"
        },
        {
          "name": "_value",
          "type": "uint256"
        }
      ],
      "name": "transfer",
      "outputs": [
        {
          "name": "",
          "type": "bool"
        }
      ],
      "payable": false,
      "stateMutability": "nonpayable",
      "type": "function"
    },
    {
      "constant": true,
      "inputs": [
        {
          "name": "account",
          "type": "address"
        }
      ],
      "name": "isMinter",
      "outputs": [
        {
          "name": "",
          "type": "bool"
        }
      ],
      "payable": false,
      "stateMutability": "view",
      "type": "function"
    },
    {
      "constant": true,
      "inputs": [
        {
          "name": "owner",
          "type": "address"
        },
        {
          "name": "spender",
          "type": "address"
        }
      ],
      "name": "allowance",
      "outputs": [
        {
          "name": "",
          "type": "uint256"
        }
      ],
      "payable": false,
      "stateMutability": "view",
      "type": "function"
    },
    {
      "constant": false,
      "inputs": [
        {
          "name": "newOwner",
          "type": "address"
        }
      ],
      "name": "transferOwnership",
      "outputs": [],
      "payable": false,
      "stateMutability": "nonpayable",
      "type": "function"
    },
    {
      "anonymous": false,
      "inputs": [
        {
          "indexed": true,
          "name": "account",
          "type": "address"
        }
      ],
      "name": "MinterAdded",
      "type": "event"
    },
    {
      "anonymous": false,
      "inputs": [
        {
          "indexed": true,
          "name": "account",
          "type": "address"
        }
      ],
      "name": "MinterRemoved",
      "type": "event"
    },
    {
      "anonymous": false,
      "inputs": [
        {
          "indexed": true,
          "name": "from",
          "type": "address"
        },
        {
          "indexed": true,
          "name": "to",
          "type": "address"
        },
        {
          "indexed": false,
          "name": "value",
          "type": "uint256"
        }
      ],
      "name": "Transfer",
      "type": "event"
    },
    {
      "anonymous": false,
      "inputs": [
        {
          "indexed": true,
          "name": "owner",
          "type": "address"
        },
        {
          "indexed": true,
          "name": "spender",
          "type": "address"
        },
        {
          "indexed": false,
          "name": "value",
          "type": "uint256"
        }
      ],
      "name": "Approval",
      "type": "event"
    },
    {
      "anonymous": false,
      "inputs": [
        {
          "indexed": true,
          "name": "previousOwner",
          "type": "address"
        },
        {
          "indexed": true,
          "name": "newOwner",
          "type": "address"
        }
      ],
      "name": "OwnershipTransferred",
      "type": "event"
    },
    {
      "constant": true,
      "inputs": [
        {
          "name": "_assetId",
          "type": "uint256"
        },
        {
          "name": "_schemaId",
          "type": "uint256"
        }
      ],
      "name": "checkOwnership",
      "outputs": [
        {
          "name": "",
          "type": "bool"
        }
      ],
      "payable": false,
      "stateMutability": "view",
      "type": "function"
    },
    {
      "constant": true,
      "inputs": [
        {
          "name": "_target",
          "type": "address"
        },
        {
          "name": "_assetId",
          "type": "uint256"
        },
        {
          "name": "_schemaId",
          "type": "uint256"
        }
      ],
      "name": "checkOwnershipForAddress",
      "outputs": [
        {
          "name": "",
          "type": "bool"
        }
      ],
      "payable": false,
      "stateMutability": "view",
      "type": "function"
    },
    {
      "constant": false,
      "inputs": [
        {
          "name": "_assetId",
          "type": "uint256"
        },
        {
          "name": "_schemaId",
          "type": "uint256"
        },
        {
          "name": "_amount",
          "type": "uint256"
        },
        {
          "name": "_dappId",
          "type": "string"
        },
        {
          "name": "_description",
          "type": "string"
        }
      ],
      "name": "buy",
      "outputs": [],
      "payable": false,
      "stateMutability": "nonpayable",
      "type": "function"
    },
    {
      "constant": false,
      "inputs": [
        {
          "name": "_assetId",
          "type": "uint256"
        },
        {
          "name": "_schemaId",
          "type": "uint256"
        },
        {
          "name": "_amount",
          "type": "uint256"
        },
        {
          "name": "_dappId",
          "type": "string"
        }
      ],
      "name": "buy",
      "outputs": [],
      "payable": false,
      "stateMutability": "nonpayable",
      "type": "function"
    },
    {
      "constant": true,
      "inputs": [],
      "name": "getAssetsPageCount",
      "outputs": [
        {
          "name": "",
          "type": "uint256"
        }
      ],
      "payable": false,
      "stateMutability": "view",
      "type": "function"
    },
    {
      "constant": true,
      "inputs": [
        {
          "name": "_page",
          "type": "uint256"
        }
      ],
      "name": "getAssets",
      "outputs": [
        {
          "components": [
            {
              "name": "expirationDate",
              "type": "uint256"
            },
            {
              "name": "assetId",
              "type": "uint256"
            },
            {
              "name": "schemaId",
              "type": "uint256"
            },
            {
              "name": "dappId",
              "type": "string"
            },
            {
              "name": "description",
              "type": "string"
            }
          ],
          "name": "",
          "type": "tuple[]"
        }
      ],
      "payable": false,
      "stateMutability": "view",
      "type": "function"
    },
    {
      "constant": false,
      "inputs": [
        {
          "name": "_from",
          "type": "address"
        },
        {
          "name": "_value",
          "type": "uint256"
        },
        {
          "name": "_schemaId",
          "type": "uint256"
        }
      ],
      "name": "tokenFallback",
      "outputs": [],
      "payable": false,
      "stateMutability": "nonpayable",
      "type": "function"
    },
    {
      "constant": true,
      "inputs": [
        {
          "name": "theNumber",
          "type": "uint256"
        },
        {
          "name": "percentage",
          "type": "uint256"
        }
      ],
      "name": "calculatePercentage",
      "outputs": [
        {
          "name": "",
          "type": "uint256"
        }
      ],
      "payable": false,
      "stateMutability": "view",
      "type": "function"
    }
  ],
  "bytecode": "0x600b60809081527f426c6f6f6d656e436f696e00000000000000000000000000000000000000000060a0526101006040819052600360c09081527f424c4f000000000000000000000000000000000000000000000000000000000060e05260008054600160a060020a03191633178082559192600292859285928592600160a060020a031691907f8be0079c531659141344cd1fd0a4f28419497f9722a3daafe3b4186f6b6457e0908290a38251620000c0906006906020860190620001f0565b508151620000d6906007906020850190620001f0565b506008805460ff191660ff9290921691909117905550620001029050336401000000006200010b810204565b50505062000295565b62000126600982640100000000620023a56200015d82021704565b604051600160a060020a038216907f6ae172837ea30b801fbfcdd4108aa1d5bf8ff775444fd70256b44e6bf3dfc3f690600090a250565b600160a060020a03811615156200017357600080fd5b620001888282640100000000620001b8810204565b156200019357600080fd5b600160a060020a0316600090815260209190915260409020805460ff19166001179055565b6000600160a060020a0382161515620001d057600080fd5b50600160a060020a03166000908152602091909152604090205460ff1690565b828054600181600116156101000203166002900490600052602060002090601f016020900481019282601f106200023357805160ff191683800117855562000263565b8280016001018555821562000263579182015b828111156200026357825182559160200191906001019062000246565b506200027192915062000275565b5090565b6200029291905b808211156200027157600081556001016200027c565b90565b61352580620002a56000396000f3006080604052600436106101cc5763ffffffff7c010000000000000000000000000000000000000000000000000000000060003504166304edae0f81146101d157806306fdde0314610207578063080e688714610229578063095bcdb61461024b578063095ea7b31461026b57806317b1b4981461028b57806318160ddd146102b85780632133e3b9146102da57806323b872dd146102fa5780632b26fb291461031a578063313ce5671461034757806339509351146103695780634014d4681461038957806340c10f19146103a957806342966c68146103c95780634aa3bfeb146103e95780634f4ee353146103fe5780635a16f5c41461041e578063700651aa1461043e57806370a082311461045e578063715018a61461047e57806379cc6790146104935780637de3b0ed146104b357806386b00ad5146104d35780638da5cb5b146104f35780638f32d59b1461051557806395ba8d181461052a57806395d89b411461054c578063983b2d56146105615780639865027514610581578063a2086dab14610596578063a457c2d7146105b6578063a9059cbb146105d6578063aa271e1a146105f6578063d921216414610616578063dd62ed3e14610643578063f2fde38b14610663575b600080fd5b3480156101dd57600080fd5b506101f16101ec366004612be4565b610683565b6040516101fe919061331d565b60405180910390f35b34801561021357600080fd5b5061021c610699565b6040516101fe919061332b565b34801561023557600080fd5b50610249610244366004612c7c565b610730565b005b34801561025757600080fd5b50610249610266366004612af1565b610745565b34801561027757600080fd5b506101f1610286366004612ac1565b610761565b34801561029757600080fd5b506102ab6102a6366004612b23565b6107e3565b6040516101fe91906132fb565b3480156102c457600080fd5b506102cd610a34565b6040516101fe91906133fd565b3480156102e657600080fd5b506102cd6102f5366004612be4565b610a3a565b34801561030657600080fd5b506101f1610315366004612a74565b610a42565b34801561032657600080fd5b5061033a610335366004612b23565b610adf565b6040516101fe91906133ec565b34801561035357600080fd5b5061035c610c75565b6040516101fe919061340b565b34801561037557600080fd5b506101f1610384366004612ac1565b610c7e565b34801561039557600080fd5b506102496103a4366004612b23565b610d21565b3480156103b557600080fd5b506101f16103c4366004612ac1565b610d42565b3480156103d557600080fd5b506102496103e4366004612b23565b610d6b565b3480156103f557600080fd5b506102cd610d75565b34801561040a57600080fd5b50610249610419366004612af1565b610d8c565b34801561042a57600080fd5b50610249610439366004612b23565b610e58565b34801561044a57600080fd5b506101f1610459366004612af1565b610e76565b34801561046a57600080fd5b506102cd610479366004612a1c565b610e8b565b34801561048a57600080fd5b50610249610ea6565b34801561049f57600080fd5b506102496104ae366004612ac1565b610f10565b3480156104bf57600080fd5b506102496104ce366004612c03565b610f1e565b3480156104df57600080fd5b506102496104ee366004612b41565b610f42565b3480156104ff57600080fd5b50610508610f4e565b6040516101fe91906132b4565b34801561052157600080fd5b506101f1610f5d565b34801561053657600080fd5b5061053f610f6e565b6040516101fe919061330c565b34801561055857600080fd5b5061021c610fc5565b34801561056d57600080fd5b5061024961057c366004612a1c565b611026565b34801561058d57600080fd5b50610249611043565b3480156105a257600080fd5b506102496105b1366004612b9c565b61104e565b3480156105c257600080fd5b506101f16105d1366004612ac1565b61106b565b3480156105e257600080fd5b506101f16105f1366004612ac1565b6110b6565b34801561060257600080fd5b506101f1610611366004612a1c565b6110d0565b34801561062257600080fd5b50610636610631366004612b23565b6110e3565b6040516101fe91906132ea565b34801561064f57600080fd5b506102cd61065e366004612a3a565b611361565b34801561066f57600080fd5b5061024961067e366004612a1c565b61138c565b60006106903384846113a8565b90505b92915050565b60068054604080516020601f60026000196101006001881615020190951694909404938401819004810282018101909252828152606093909290918301828280156107255780601f106106fa57610100808354040283529160200191610725565b820191906000526020600020905b81548152906001019060200180831161070857829003601f168201915b505050505090505b90565b61073e3386868686866115b5565b5050505050565b6107503384846116e1565b61075c33848484611772565b505050565b6000600160a060020a038316151561077857600080fd5b336000818152600460209081526040808320600160a060020a03881680855292529182902085905590519091907f8c5be1e5ebec7d5bd14f71427d1e84f3dd0314c0f7b2291e5b200ac8c7c3b925906107d29086906133fd565b60405180910390a350600192915050565b606060006060806000806000871380156107fe5750600a8713155b15156108285760405160e560020a62461bcd02815260040161081f9061333c565b60405180910390fd5b336000908152600a6020818152604080842080548251818502810185019093528083526000198d019094029950909390929184015b8282101561095f57838290600052602060002090600402016080604051908101604052908160008201548152602001600182018054600181600116156101000203166002900480601f0160208091040260200160405190810160405280929190818152602001828054600181600116156101000203166002900480156109245780601f106108f957610100808354040283529160200191610924565b820191906000526020600020905b81548152906001019060200180831161090757829003601f168201915b50505091835250506002820154602080830191909152600390920154600160a060020a0316604090910152908252600192909201910161085d565b50505050935084845111151561097457610a2a565b60408051600a808252610160820190925290816020015b610993612866565b81526020019060019003908161098b579050509250600091505b600a821215610a265750336000908152600b6020526040812054859003829003908112156109eb576064845110156109e757829550610a2a565b6064015b83818151811015156109f957fe5b906020019060200201518383815181101515610a1157fe5b602090810290910101526001909101906109ad565b8295505b5050505050919050565b60055490565b606491020490565b600160a060020a0383166000908152600460209081526040808320338452909152812054821115610a7257600080fd5b600160a060020a0384166000908152600460209081526040808320338452909152902054610aa6908363ffffffff61184116565b600160a060020a0385166000908152600460209081526040808320338452909152902055610ad58484846116e1565b5060019392505050565b610ae7612898565b60008281526001602081905260408220015411610b195760405160e560020a62461bcd02815260040161081f9061336c565b6000828152600160208181526040808420815160c081018352815481529381015484840152600281015484830152600381015460608501526004810180548351818602810186019094528084529495919460808701949192909184015b82821015610c56576000848152602090819020604080516060810182526003860290920180548352600180820154600160a060020a0316848601526002808301805485516101009482161594909402600019011691909104601f8101879004870283018701855280835294959294938601939192909190830182828015610c3e5780601f10610c1357610100808354040283529160200191610c3e565b820191906000526020600020905b815481529060010190602001808311610c2157829003601f168201915b50505050508152505081526020019060010190610b76565b505050908252506005919091015460ff16151560209091015292915050565b60085460ff1690565b6000600160a060020a0383161515610c9557600080fd5b336000908152600460209081526040808320600160a060020a0387168452909152902054610cc9908363ffffffff61185816565b336000818152600460209081526040808320600160a060020a038916808552925291829020849055905190927f8c5be1e5ebec7d5bd14f71427d1e84f3dd0314c0f7b2291e5b200ac8c7c3b925916107d291906133fd565b610d29610f5d565b1515610d3457600080fd5b610d3f816001611871565b50565b6000610d4d336110d0565b1515610d5857600080fd5b610d628383611903565b50600192915050565b610d3f33826119a0565b336000908152600c6020526040902054600a900490565b610d94612898565b6000806000610da285610adf565b9350859250600091505b600184608001515103821015610e1f57610de286856080015184815181101515610dd257fe5b6020908102909101015151610a3a565b9050610e0f846080015183815181101515610df957fe5b9060200190602002015160200151826000610745565b9182900391600190910190610dac565b60808401518051610e4f91906000198101908110610e3957fe5b9060200190602002015160200151846000610745565b50505050505050565b610e60610f5d565b1515610e6b57600080fd5b610d3f816000611871565b6000610e838484846113a8565b949350505050565b600160a060020a031660009081526003602052604090205490565b610eae610f5d565b1515610eb957600080fd5b60008054604051600160a060020a03909116907f8be0079c531659141344cd1fd0a4f28419497f9722a3daafe3b4186f6b6457e0908390a36000805473ffffffffffffffffffffffffffffffffffffffff19169055565b610f1a8282611a53565b5050565b610f3c338585858560206040519081016040528060008152506115b5565b50505050565b61075c83833384611ae5565b600054600160a060020a031690565b600054600160a060020a0316331490565b6060600280548060200260200160405190810160405280929190818152602001828054801561072557602002820191906000526020600020905b815481526020019060010190808311610fa8575050505050905090565b60078054604080516020601f60026000196101006001881615020190951694909404938401819004810282018101909252828152606093909290918301828280156107255780601f106106fa57610100808354040283529160200191610725565b61102f336110d0565b151561103a57600080fd5b610d3f81611da2565b61104c33611dea565b565b611056610f5d565b151561106157600080fd5b610f1a8282611e32565b6000600160a060020a038316151561108257600080fd5b336000908152600460209081526040808320600160a060020a0387168452909152902054610cc9908363ffffffff61184116565b60006110c33384846116e1565b610d623384846000611772565b600061069360098363ffffffff6121fd16565b336000908152600c602090815260408083208054825181850281018501909352808352606094600919600a88020194869485949293909291849084015b828210156112a7578382906000526020600020906005020160a06040519081016040529081600082015481526020016001820154815260200160028201548152602001600382018054600181600116156101000203166002900480601f0160208091040260200160405190810160405280929190818152602001828054600181600116156101000203166002900480156111fb5780601f106111d0576101008083540402835291602001916111fb565b820191906000526020600020905b8154815290600101906020018083116111de57829003601f168201915b505050918352505060048201805460408051602060026001851615610100026000190190941693909304601f810184900484028201840190925281815293820193929183018282801561128f5780601f106112645761010080835404028352916020019161128f565b820191906000526020600020905b81548152906001019060200180831161127257829003601f168201915b50505050508152505081526020019060010190611120565b5050505092508251600014806112c05750600183510384115b156112ca57611358565b60408051600a808252610160820190925290816020015b6112e96128d1565b8152602001906001900390816112e1579050509150600090505b85600a0284101561135457825184101561134857828481518110151561132557fe5b90602001906020020151828281518110151561133d57fe5b602090810290910101525b60019384019301611303565b8194505b50505050919050565b600160a060020a03918216600090815260046020908152604080832093909416825291909152205490565b611394610f5d565b151561139f57600080fd5b610d3f81612234565b6000806113b36128d1565b600091505b600160a060020a0386166000908152600c60205260409020548210156115a757600160a060020a0386166000908152600c602052604090208054839081106113fc57fe5b906000526020600020906005020160a06040519081016040529081600082015481526020016001820154815260200160028201548152602001600382018054600181600116156101000203166002900480601f0160208091040260200160405190810160405280929190818152602001828054600181600116156101000203166002900480156114cd5780601f106114a2576101008083540402835291602001916114cd565b820191906000526020600020905b8154815290600101906020018083116114b057829003601f168201915b505050918352505060048201805460408051602060026001851615610100026000190190941693909304601f81018490048402820184019092528181529382019392918301828280156115615780601f1061153657610100808354040283529160200191611561565b820191906000526020600020905b81548152906001019060200180831161154457829003601f168201915b50505050508152505090508481602001511480156115825750838160400151145b801561158e5750805142105b1561159c57600192506115ac565b6001909101906113b8565b600092505b50509392505050565b6115bd612898565b6115c685610adf565b604081015190915084146115ef5760405160e560020a62461bcd02815260040161081f906133ac565b6115fa8787876113a8565b1561161a5760405160e560020a62461bcd02815260040161081f906133cc565b600084111561162e5761162e308587610745565b600160a060020a0387166000908152600c60209081526040808320815160a081018352606080870151420182528185018c81529382018b81529082018981526080830189905283546001818101808755958952978790208451600590920201908155945196850196909655516002840155935180519194936116b892600385019290910190612901565b50608082015180516116d4916004840191602090910190612901565b5050505050505050505050565b61172681600019026040805190810160405280600481526020017f73656e64000000000000000000000000000000000000000000000000000000008152508585611ae5565b611767816040805190810160405280600781526020017f72656365697665000000000000000000000000000000000000000000000000008152508486611ae5565b61075c8383836122b1565b600061177d84612396565b1561180157506040517f4f4ee3530000000000000000000000000000000000000000000000000000000081528390600160a060020a03821690634f4ee353906117ce908890879087906004016132c2565b600060405180830381600087803b1580156117e857600080fd5b505af11580156117fc573d6000803e3d6000fd5b505050505b83600160a060020a031685600160a060020a03166000805160206134cc8339815191528560405161183291906133fd565b60405180910390a35050505050565b6000808383111561185157600080fd5b5050900390565b60008282018381101561186a57600080fd5b9392505050565b6000828152600160208190526040909120015415156118a55760405160e560020a62461bcd02815260040161081f9061337c565b60008281526001602052604090206005015460ff16151581151514156118e05760405160e560020a62461bcd02815260040161081f906133bc565b600091825260016020526040909120600501805460ff1916911515919091179055565b600160a060020a038216151561191857600080fd5b60055461192b908263ffffffff61185816565b600555600160a060020a038216600090815260036020526040902054611957908263ffffffff61185816565b600160a060020a0383166000818152600360205260408082209390935591519091906000805160206134cc833981519152906119949085906133fd565b60405180910390a35050565b600160a060020a03821615156119b557600080fd5b600160a060020a0382166000908152600360205260409020548111156119da57600080fd5b6005546119ed908263ffffffff61184116565b600555600160a060020a038216600090815260036020526040902054611a19908263ffffffff61184116565b600160a060020a0383166000818152600360205260408082209390935591516000805160206134cc833981519152906119949085906133fd565b600160a060020a0382166000908152600460209081526040808320338452909152902054811115611a8357600080fd5b600160a060020a0382166000908152600460209081526040808320338452909152902054611ab7908263ffffffff61184116565b600160a060020a0383166000908152600460209081526040808320338452909152902055610f1a82826119a0565b600160a060020a0382166000908152600a602052604090205460641115611bde57600160a060020a038083166000908152600a6020908152604080832081516080810183528981528084018981524293820193909352948616606086015280546001818101808455928652948490208651600490920201908155915180519195949293611b7793850192910190612901565b5060408281015160028301556060909201516003909101805473ffffffffffffffffffffffffffffffffffffffff1916600160a060020a0392831617905584166000908152600a602090815282822054600b90915291902060001991909101905550610f3c565b600160a060020a0382166000908152600b602052604090205460631415611ccc57600160a060020a038083166000818152600b60209081526040808320839055805160808101825289815280830189905242818301529486166060860152928252600a905290812080549091908110611c5357fe5b9060005260206000209060040201600082015181600001556020820151816001019080519060200190611c87929190612901565b50604082015160028201556060909101516003909101805473ffffffffffffffffffffffffffffffffffffffff1916600160a060020a03909216919091179055610f3c565b600160a060020a038083166000818152600b6020818152604080842080546001019081905581516080810183528b81528084018b905242818401529688166060880152948452600a8252909220915280549091908110611d2857fe5b9060005260206000209060040201600082015181600001556020820151816001019080519060200190611d5c929190612901565b50604082015160028201556060909101516003909101805473ffffffffffffffffffffffffffffffffffffffff1916600160a060020a0390921691909117905550505050565b611db360098263ffffffff6123a516565b604051600160a060020a038216907f6ae172837ea30b801fbfcdd4108aa1d5bf8ff775444fd70256b44e6bf3dfc3f690600090a250565b611dfb60098263ffffffff6123f316565b604051600160a060020a038216907fe94479a9f7e1952cc78f2d6baab678adc1b772d936c6583def489e524cb6669290600090a250565b611e3a61297f565b606060008060008060606000806060600160008d8152602001908152602001600020600101546000141515611e845760405160e560020a62461bcd02815260040161081f9061339c565b611e8d8b61243f565b9950611e988a61248d565b9850611ebb896000815181101515611eac57fe5b90602001906020020151612557565b9750428811611edf5760405160e560020a62461bcd02815260040161081f9061338c565b611ef1896001815181101515611eac57fe5b9650611f05896002815181101515611eac57fe5b9550611f19896003815181101515611eac57fe5b9450611f3c896004815181101515611f2d57fe5b9060200190602002015161248d565b935083519250600091505b8282101561206a57611f608483815181101515611f2d57fe5b905060016000888152602001908152602001600020600401606060405190810160405280611f96846000815181101515611eac57fe5b8152602001611fbc846001815181101515611fad57fe5b9060200190602002015161258d565b600160a060020a03168152602001611feb846002815181101515611fdc57fe5b906020019060200201516125be565b9052815460018082018085556000948552602094859020845160039094020192835583850151918301805473ffffffffffffffffffffffffffffffffffffffff1916600160a060020a039093169290921790915560408301518051919461205a92600285019290910190612901565b505060019093019250611f479050565b61218c60016000898152602001908152602001600020600401805480602002602001604051908101604052809291908181526020016000905b82821015612183576000848152602090819020604080516060810182526003860290920180548352600180820154600160a060020a0316848601526002808301805485516101009482161594909402600019011691909104601f810187900487028301870185528083529495929493860193919290919083018282801561216b5780601f106121405761010080835404028352916020019161216b565b820191906000526020600020905b81548152906001019060200180831161214e57829003601f168201915b505050505081525050815260200190600101906120a3565b50505050612627565b5050506000848152600160208190526040822096875586810186905560028088019590955560038701939093556005909501805460ff191683179055508154908101825592527f405787fa12a823e0f2b7631cc41b3ba8828b3321ca811111fa75cd3aa3bb5ace9091015550505050565b6000600160a060020a038216151561221457600080fd5b50600160a060020a03166000908152602091909152604090205460ff1690565b600160a060020a038116151561224957600080fd5b60008054604051600160a060020a03808516939216917f8be0079c531659141344cd1fd0a4f28419497f9722a3daafe3b4186f6b6457e091a36000805473ffffffffffffffffffffffffffffffffffffffff1916600160a060020a0392909216919091179055565b600160a060020a0383166000908152600360205260409020548111156122d657600080fd5b600160a060020a03821615156122eb57600080fd5b600160a060020a038316600090815260036020526040902054612314908263ffffffff61184116565b600160a060020a038085166000908152600360205260408082209390935590841681522054612349908263ffffffff61185816565b600160a060020a0380841660008181526003602052604090819020939093559151908516906000805160206134cc833981519152906123899085906133fd565b60405180910390a3505050565b6000813b908111905b50919050565b600160a060020a03811615156123ba57600080fd5b6123c482826121fd565b156123ce57600080fd5b600160a060020a0316600090815260209190915260409020805460ff19166001179055565b600160a060020a038116151561240857600080fd5b61241282826121fd565b151561241d57600080fd5b600160a060020a0316600090815260209190915260409020805460ff19169055565b61244761297f565b600082516000141561246e576040805180820190915260008082526020820152915061239f565b5050604080518082019091528151815260209182019181019190915290565b606060008060008061249e866126ac565b15156124a957600080fd5b6124b2866126db565b9350836040519080825280602002602001820160405280156124ee57816020015b6124db61297f565b8152602001906001900390816124d35790505b5094506124fe866020015161272b565b8660200151019250600090505b838110156113585761251c8361278e565b9150604080519081016040528083815260200184815250858281518110151561254157fe5b602090810290910101529181019160010161250b565b600080600080600061256c866020015161272b565b86516020978801518201519190039096036101000a90950495945050505050565b8051600090601510156125b55760405160e560020a62461bcd02815260040161081f9061335c565b61069382612557565b6060600080606060006125d4866020015161272b565b9350838660000151039250826040519080825280601f01601f19166020018201604052801561260d578160200160208202803883390190505b50915081602001905061135484876020015101828561281f565b60008060008084511115156126515760405160e560020a62461bcd02815260040161081f9061334c565b5050815190506000805b8281101561268957838181518110151561267157fe5b6020908102909101015151919091019060010161265b565b60648214610f3c5760405160e560020a62461bcd02815260040161081f906133dc565b6020810151805160009190821a9060c060ff831610156126cf57600092506126d4565b600192505b5050919050565b600080600080600092506126f2856020015161272b565b6020860151865191810193500190505b80821015612722576127138261278e565b60019093019290910190612702565b50909392505050565b8051600090811a6080811015612744576000915061239f565b60b881108061275f575060c0811080159061275f575060f881105b1561276d576001915061239f565b60c08110156127825760b5198101915061239f565b60f5198101915061239f565b8051600090811a60808110156127a7576001915061239f565b60b88110156127bc57607e198101915061239f565b60c08110156127e95760b78103600184019350806020036101000a8451046001820181019350505061239f565b60f88110156127fe5760be198101915061239f565b60019290920151602083900360f7016101000a900490910160f51901919050565b60005b60208210612844578351835260209384019390920191601f1990910190612822565b50915181516020939093036101000a6000190180199091169216919091179052565b6080604051908101604052806000815260200160608152602001600081526020016000600160a060020a031681525090565b60c06040519081016040528060008152602001600081526020016000815260200160008152602001606081526020016000151581525090565b60a06040519081016040528060008152602001600081526020016000815260200160608152602001606081525090565b828054600181600116156101000203166002900490600052602060002090601f016020900481019282601f1061294257805160ff191683800117855561296f565b8280016001018555821561296f579182015b8281111561296f578251825591602001919060010190612954565b5061297b929150612996565b5090565b604080518082019091526000808252602082015290565b61072d91905b8082111561297b576000815560010161299c565b60006106908235613472565b6000601f820183136129cd57600080fd5b81356129e06129db82613440565b613419565b915080825260208301602083018583830111156129fc57600080fd5b612a07838284613489565b50505092915050565b6000610690823561072d565b600060208284031215612a2e57600080fd5b6000610e8384846129b0565b60008060408385031215612a4d57600080fd5b6000612a5985856129b0565b9250506020612a6a858286016129b0565b9150509250929050565b600080600060608486031215612a8957600080fd5b6000612a9586866129b0565b9350506020612aa6868287016129b0565b9250506040612ab786828701612a10565b9150509250925092565b60008060408385031215612ad457600080fd5b6000612ae085856129b0565b9250506020612a6a85828601612a10565b600080600060608486031215612b0657600080fd5b6000612b1286866129b0565b9350506020612aa686828701612a10565b600060208284031215612b3557600080fd5b6000610e838484612a10565b600080600060608486031215612b5657600080fd5b6000612b628686612a10565b935050602084013567ffffffffffffffff811115612b7f57600080fd5b612b8b868287016129bc565b9250506040612ab7868287016129b0565b60008060408385031215612baf57600080fd5b6000612bbb8585612a10565b925050602083013567ffffffffffffffff811115612bd857600080fd5b612a6a858286016129bc565b60008060408385031215612bf757600080fd5b6000612ae08585612a10565b60008060008060808587031215612c1957600080fd5b6000612c258787612a10565b9450506020612c3687828801612a10565b9350506040612c4787828801612a10565b925050606085013567ffffffffffffffff811115612c6457600080fd5b612c70878288016129bc565b91505092959194509250565b600080600080600060a08688031215612c9457600080fd5b6000612ca08888612a10565b9550506020612cb188828901612a10565b9450506040612cc288828901612a10565b935050606086013567ffffffffffffffff811115612cdf57600080fd5b612ceb888289016129bc565b925050608086013567ffffffffffffffff811115612d0857600080fd5b612d14888289016129bc565b9150509295509295909350565b612d2a81613472565b82525050565b6000612d3b8261346e565b80845260208401935083602082028501612d5485613468565b60005b84811015612d8b578383038852612d6f838351613121565b9250612d7a82613468565b602098909801979150600101612d57565b50909695505050505050565b6000612da28261346e565b80845260208401935083602082028501612dbb85613468565b60005b84811015612d8b578383038852612dd6838351613196565b9250612de182613468565b602098909801979150600101612dbe565b6000612dfd8261346e565b80845260208401935083602082028501612e1685613468565b60005b84811015612d8b578383038852612e318383516131d5565b9250612e3c82613468565b602098909801979150600101612e19565b6000612e588261346e565b808452602084019350612e6a83613468565b60005b82811015612e9a57612e80868351612ead565b612e8982613468565b602096909601959150600101612e6d565b5093949350505050565b612d2a8161347e565b612d2a8161072d565b6000612ec18261346e565b808452612ed5816020860160208601613495565b612ede816134c1565b9093016020019392505050565b600d81527f496e76616c696420706167652e00000000000000000000000000000000000000602082015260400190565b600981527f6e6f742072756c65730000000000000000000000000000000000000000000000602082015260400190565b603a81527f496e76616c696420524c504974656d2e2041646472657373657320617265206560208201527f6e636f64656420696e203230206279746573206f72206c657373000000000000604082015260600190565b600981527f6e6f745f65786973740000000000000000000000000000000000000000000000602082015260400190565b600981527f6e6f742065786973740000000000000000000000000000000000000000000000602082015260400190565b600781527f6578706972656400000000000000000000000000000000000000000000000000602082015260400190565b600581527f6578697374000000000000000000000000000000000000000000000000000000602082015260400190565b601081527f696e636f727265637420616d6f756e7400000000000000000000000000000000602082015260400190565b600b81527f73616d6520737461747573000000000000000000000000000000000000000000602082015260400190565b600a81527f6475706c69636174656400000000000000000000000000000000000000000000602082015260400190565b601681527f616c6c20616d6f756e7420646973747269627574656400000000000000000000602082015260400190565b805160009060a08401906131358582612ead565b5060208301516131486020860182612ead565b50604083015161315b6040860182612ead565b50606083015184820360608601526131738282612eb6565b9150506080830151848203608086015261318d8282612eb6565b95945050505050565b805160009060608401906131aa8582612ead565b5060208301516131bd6020860182612d21565b506040830151848203604086015261318d8282612eb6565b805160009060808401906131e98582612ead565b50602083015184820360208601526132018282612eb6565b91505060408301516132166040860182612ead565b5060608301516132296060860182612d21565b509392505050565b805160009060c08401906132458582612ead565b5060208301516132586020860182612ead565b50604083015161326b6040860182612ead565b50606083015161327e6060860182612ead565b50608083015184820360808601526132968282612d97565b91505060a083015161322960a0860182612ea4565b612d2a81613483565b602081016106938284612d21565b606081016132d08286612d21565b6132dd6020830185612ead565b610e836040830184612ead565b602080825281016106908184612d30565b602080825281016106908184612df2565b602080825281016106908184612e4d565b602081016106938284612ea4565b602080825281016106908184612eb6565b6020808252810161069381612eeb565b6020808252810161069381612f1b565b6020808252810161069381612f4b565b6020808252810161069381612fa1565b6020808252810161069381612fd1565b6020808252810161069381613001565b6020808252810161069381613031565b6020808252810161069381613061565b6020808252810161069381613091565b60208082528101610693816130c1565b60208082528101610693816130f1565b602080825281016106908184613231565b602081016106938284612ead565b6020810161069382846132ab565b60405181810167ffffffffffffffff8111828210171561343857600080fd5b604052919050565b600067ffffffffffffffff82111561345757600080fd5b506020601f91909101601f19160190565b60200190565b5190565b600160a060020a031690565b151590565b60ff1690565b82818337506000910152565b60005b838110156134b0578181015183820152602001613498565b83811115610f3c5750506000910152565b601f01601f1916905600ddf252ad1be2c89b69c2b068fc378daa952ba7f163c4a11628f55a4df523b3efa265627a7a7230582050441b150a7763621ee51d84046d93c9b49f799bda8065e3ddbbdf9db5f0f2aa6c6578706572696d656e74616cf50037",
  "source": "pragma solidity 0.4.24;\npragma experimental ABIEncoderV2;\n\nimport \"./Schemas.sol\";\nimport \"./token/ERC223ReceivingContract.sol\";\nimport \"./token/ERC223.sol\";\nimport \"../../node_modules/openzeppelin-solidity/contracts/math/SafeMath.sol\";\n\ncontract  Assets is Schemas, ERC223ReceivingContract, ERC223(\"BloomenCoin\",\"BLO\",2) {\n\n  using SafeMath for uint256;\n    \n  struct UserAssets {   \n    Asset[] assets;\n  } \n\n  struct Asset {   \n    uint expirationDate;\n    uint256 assetId;\n    uint256 schemaId;\n    string dappId;\n    string description;\n  }\n\n  uint256 constant private PAGE_SIZE = 10;\n\n  // buy://<assetId>#<schemaId>#<amount>#<dappId>#amount\n\n  mapping (address => UserAssets) private userAssets_;\n\n  function checkOwnership(uint256 _assetId, uint256 _schemaId) public view returns (bool) {\n    return _checkOwnership(msg.sender, _assetId, _schemaId);  \n  }\n\n  function checkOwnershipForAddress(address _target, uint256 _assetId, uint256 _schemaId) public view returns (bool) {\n    return _checkOwnership(_target, _assetId, _schemaId);  \n  }\n\n  function buy(uint256 _assetId, uint256 _schemaId, uint256 _amount, string _dappId) public  {\n    _buy(msg.sender, _assetId, _schemaId, _amount, _dappId, \"\");  \n  }\n\n  function buy(uint256 _assetId, uint256 _schemaId, uint256 _amount, string _dappId, string _description) public  {\n    _buy(msg.sender, _assetId, _schemaId, _amount, _dappId, _description);  \n  }\n\n  function getAssetsPageCount() public view returns (uint256) {\n    return userAssets_[msg.sender].assets.length / PAGE_SIZE;\n  }\n\n  function getAssets(uint256 _page) public view returns (Asset[] memory) {\n    \n    uint256 transferIndex = PAGE_SIZE * _page - PAGE_SIZE;\n    Asset[] memory assets = userAssets_[msg.sender].assets;\n\n    if (assets.length == 0 || transferIndex > assets.length - 1) {\n      return;\n    }\n\n    Asset[] memory assetsPage = new Asset[](PAGE_SIZE);  \n    uint256 returnCounter = 0;\n\n    for (transferIndex; transferIndex < PAGE_SIZE * _page; transferIndex++) {\n      if (transferIndex < assets.length) {\n        assetsPage[returnCounter] = assets[transferIndex];\n      }\n      returnCounter++;\n    }\n\n    return (assetsPage);\n  }\n\n  function _buy(address _user, uint256 _assetId, uint256 _schemaId, uint256 _amount, string _dappId, string _description) internal  {\n    Schema memory schema = Schemas.getSchema(_schemaId);\n    require(schema.amount == _amount, \"incorrect amount\");    \n    require(!_checkOwnership(_user, _assetId, _schemaId), \"duplicated\");\n\n    if (_amount >0 ){\n      // avoid money transfer on free assets\n      ERC223.transfer(this, _amount, _schemaId);\n    }\n  \n    // registrar la compra\n    userAssets_[_user].assets.push(Asset(now + schema.assetLifeTime , _assetId, _schemaId, _dappId, _description));\n  }\n\n  function _checkOwnership(address _owner, uint256 _assetId, uint256 _schemaId) internal view returns (bool) {\n    \n    for (uint i = 0; i < userAssets_[_owner].assets.length; i++) {\n      Asset memory asset = userAssets_[_owner].assets[i];\n\n      if ( (asset.assetId == _assetId) && (asset.schemaId == _schemaId) && (asset.expirationDate > now)){\n        return true;\n      }\n    }\n    \n    return false;\n  }\n\n  function tokenFallback(address _from, uint _value, uint256 _schemaId) public {\n    Schema memory schema = Schemas.getSchema(_schemaId);\n    uint pieValue = _value;\n\n    for (uint i = 0; i < schema.clearingHouseRules.length-1; i++) {\n      uint tmpValue = calculatePercentage(_value,schema.clearingHouseRules[i].percent);\n      ERC223.transfer(schema.clearingHouseRules[i].receptor, tmpValue, 0);\n      pieValue -= tmpValue;\n    }\n\n    ERC223.transfer(schema.clearingHouseRules[schema.clearingHouseRules.length-1].receptor, pieValue, 0);\n\n  }\n\n  function calculatePercentage(uint theNumber, uint percentage) public view returns (uint) {\n    return theNumber * percentage / 100 ;\n  }\n    \n}",
  "sourcePath": "/home/jordi/ws/bloomenApp/bloomen-wallet-truffle/contracts/bloomen/Assets.sol",
  "compiler": {
    "name": "solc",
    "version": "0.4.24+commit.e67f0147.Emscripten.clang"
  },
  "schemaVersion": "2.0.1",
  "updatedAt": "2019-04-17T13:16:01.477Z"
}