{
  "contractName": "Devices",
  "abi": [
    {
      "inputs": [
        {
          "name": "_assetsAddr",
          "type": "address"
        }
      ],
      "payable": false,
      "stateMutability": "nonpayable",
      "type": "constructor",
      "signature": "constructor"
    },
    {
      "constant": false,
      "inputs": [
        {
          "name": "_deviceHash",
          "type": "bytes32"
        },
        {
          "name": "dappId",
          "type": "string"
        }
      ],
      "name": "isAllowed",
      "outputs": [
        {
          "name": "",
          "type": "bool"
        }
      ],
      "payable": false,
      "stateMutability": "nonpayable",
      "type": "function",
      "signature": "0x18de1d87"
    },
    {
      "constant": false,
      "inputs": [
        {
          "name": "_target",
          "type": "address"
        },
        {
          "name": "_deviceHash",
          "type": "bytes32"
        },
        {
          "name": "dappId",
          "type": "string"
        }
      ],
      "name": "isAllowedForAddress",
      "outputs": [
        {
          "name": "",
          "type": "bool"
        }
      ],
      "payable": false,
      "stateMutability": "nonpayable",
      "type": "function",
      "signature": "0x12e3b03c"
    },
    {
      "constant": false,
      "inputs": [
        {
          "name": "_deviceString",
          "type": "string"
        },
        {
          "name": "_assetIds",
          "type": "uint256[]"
        },
        {
          "name": "dappId",
          "type": "string"
        }
      ],
      "name": "checkOwnershipForDeviceMultipleAssets",
      "outputs": [
        {
          "name": "",
          "type": "bool[]"
        }
      ],
      "payable": false,
      "stateMutability": "nonpayable",
      "type": "function",
      "signature": "0x672a4285"
    },
    {
      "constant": false,
      "inputs": [
        {
          "name": "_deviceString",
          "type": "string"
        },
        {
          "name": "_assetId",
          "type": "uint256"
        },
        {
          "name": "dappId",
          "type": "string"
        }
      ],
      "name": "checkOwnershipOneAssetForDevice",
      "outputs": [
        {
          "name": "",
          "type": "bool"
        }
      ],
      "payable": false,
      "stateMutability": "nonpayable",
      "type": "function",
      "signature": "0x20cccd7f"
    },
    {
      "constant": false,
      "inputs": [
        {
          "name": "dappId",
          "type": "string"
        }
      ],
      "name": "getDevicesPageCount",
      "outputs": [
        {
          "name": "",
          "type": "uint256"
        }
      ],
      "payable": false,
      "stateMutability": "nonpayable",
      "type": "function",
      "signature": "0xdce65418"
    },
    {
      "constant": false,
      "inputs": [
        {
          "name": "_page",
          "type": "uint256"
        },
        {
          "name": "dappId",
          "type": "string"
        }
      ],
      "name": "getDevices",
      "outputs": [
        {
          "components": [
            {
              "name": "expirationDate",
              "type": "uint256"
            },
            {
              "name": "assetId",
              "type": "uint256"
            },
            {
              "name": "schemaId",
              "type": "uint256"
            },
            {
              "name": "dappId",
              "type": "string"
            },
            {
              "name": "description",
              "type": "string"
            }
          ],
          "name": "",
          "type": "tuple[]"
        }
      ],
      "payable": false,
      "stateMutability": "nonpayable",
      "type": "function",
      "signature": "0x44a57ff5"
    },
    {
      "constant": false,
      "inputs": [
        {
          "name": "_deviceHash",
          "type": "bytes32"
        },
        {
          "name": "dappId",
          "type": "string"
        }
      ],
      "name": "getAddress",
      "outputs": [
        {
          "name": "",
          "type": "address"
        }
      ],
      "payable": false,
      "stateMutability": "nonpayable",
      "type": "function",
      "signature": "0x6795dbcd"
    },
    {
      "constant": false,
      "inputs": [
        {
          "name": "_deviceHash",
          "type": "bytes32"
        },
        {
          "name": "_assetId",
          "type": "uint256"
        },
        {
          "name": "_schemaId",
          "type": "uint256"
        },
        {
          "name": "_lifeTime",
          "type": "uint256"
        },
        {
          "name": "_dappId",
          "type": "string"
        }
      ],
      "name": "handshake",
      "outputs": [],
      "payable": false,
      "stateMutability": "nonpayable",
      "type": "function",
      "signature": "0x132c6aa4"
    },
    {
      "constant": false,
      "inputs": [
        {
          "name": "_deviceHash",
          "type": "bytes32"
        },
        {
          "name": "_assetId",
          "type": "uint256"
        },
        {
          "name": "_schemaId",
          "type": "uint256"
        },
        {
          "name": "_lifeTime",
          "type": "uint256"
        },
        {
          "name": "_dappId",
          "type": "string"
        },
        {
          "name": "_description",
          "type": "string"
        }
      ],
      "name": "handshake",
      "outputs": [],
      "payable": false,
      "stateMutability": "nonpayable",
      "type": "function",
      "signature": "0x42b4bed4"
    },
    {
      "constant": false,
      "inputs": [
        {
          "name": "_deviceHash",
          "type": "bytes32"
        },
        {
          "name": "_dappId",
          "type": "string"
        }
      ],
      "name": "removeDevice",
      "outputs": [],
      "payable": false,
      "stateMutability": "nonpayable",
      "type": "function",
      "signature": "0xa2da6a9a"
    }
  ],
  "bytecode": "0x60806040523480156200001157600080fd5b5060405160208062002c55833981018060405262000033919081019062000091565b80600260006101000a81548173ffffffffffffffffffffffffffffffffffffffff021916908373ffffffffffffffffffffffffffffffffffffffff16021790555050620000f1565b6000620000898251620000bd565b905092915050565b600060208284031215620000a457600080fd5b6000620000b4848285016200007b565b91505092915050565b6000620000ca82620000d1565b9050919050565b600073ffffffffffffffffffffffffffffffffffffffff82169050919050565b612b5480620001016000396000f3fe608060405234801561001057600080fd5b50600436106100bb576000357c01000000000000000000000000000000000000000000000000000000009004806344a57ff51161008357806344a57ff514610188578063672a4285146101b85780636795dbcd146101e8578063a2da6a9a14610218578063dce6541814610234576100bb565b806312e3b03c146100c0578063132c6aa4146100f057806318de1d871461010c57806320cccd7f1461013c57806342b4bed41461016c575b600080fd5b6100da60048036036100d59190810190611e15565b610264565b6040516100e791906127e2565b60405180910390f35b61010a60048036036101059190810190611f3a565b6102f8565b005b61012660048036036101219190810190611ee6565b61031d565b60405161013391906127e2565b60405180910390f35b6101566004803603610151919081019061215a565b6103ca565b60405161016391906127e2565b60405180910390f35b61018660048036036101819190810190611fc9565b6105ff565b005b6101a2600480360361019d91908101906121d9565b610616565b6040516101af91906127c0565b60405180910390f35b6101d260048036036101cd91908101906120c3565b610959565b6040516101df919061279e565b60405180910390f35b61020260048036036101fd9190810190611ee6565b610d81565b60405161020f9190612698565b60405180910390f35b610232600480360361022d9190810190611ee6565b610dea565b005b61024e60048036036102499190810190612082565b610df9565b60405161025b919061287d565b60405180910390f35b60008061027083610eca565b905060008573ffffffffffffffffffffffffffffffffffffffff1682600201600087815260200190815260200160002060009054906101000a900473ffffffffffffffffffffffffffffffffffffffff1673ffffffffffffffffffffffffffffffffffffffff161480156102ea57506102e9858561031d565b5b905080925050509392505050565b61031633868686868660405180602001604052806000815250611157565b5050505050565b60008061032983610eca565b905060004282600101600084600201600089815260200190815260200160002060009054906101000a900473ffffffffffffffffffffffffffffffffffffffff1673ffffffffffffffffffffffffffffffffffffffff1673ffffffffffffffffffffffffffffffffffffffff168152602001908152602001600020600001600087815260200190815260200160002060000154119050809250505092915050565b6000806103d683610eca565b9050600085805190602001209050600073ffffffffffffffffffffffffffffffffffffffff1682600201600083815260200190815260200160002060009054906101000a900473ffffffffffffffffffffffffffffffffffffffff1673ffffffffffffffffffffffffffffffffffffffff161415610459576000925050506105f8565b600082600101600084600201600085815260200190815260200160002060009054906101000a900473ffffffffffffffffffffffffffffffffffffffff1673ffffffffffffffffffffffffffffffffffffffff1673ffffffffffffffffffffffffffffffffffffffff16815260200190815260200160002060000160008381526020019081526020016000209050600260009054906101000a900473ffffffffffffffffffffffffffffffffffffffff1673ffffffffffffffffffffffffffffffffffffffff166325c6e6a884600201600085815260200190815260200160002060009054906101000a900473ffffffffffffffffffffffffffffffffffffffff16888460020154856003016040518563ffffffff167c01000000000000000000000000000000000000000000000000000000000281526004016105a09493929190612752565b602060405180830381600087803b1580156105ba57600080fd5b505af11580156105ce573d6000803e3d6000fd5b505050506040513d601f19601f820116820180604052506105f29190810190611ebd565b93505050505b9392505050565b61060e33878787878787611157565b505050505050565b6060600061062383610eca565b90506060600a60405190808252806020026020018201604052801561066257816020015b61064f611ab5565b8152602001906001900390816106475790505b5090506000600a86600a0203905060608360010160003373ffffffffffffffffffffffffffffffffffffffff1673ffffffffffffffffffffffffffffffffffffffff16815260200190815260200160002060010180548060200260200160405190810160405280929190818152602001828054801561070057602002820191906000526020600020905b8154815260200190600101908083116106ec575b5050505050905060008151148061071a5750600181510382115b1561072e5760608095505050505050610953565b60008090505b87600a0283101561094a578151831015610935578460010160003373ffffffffffffffffffffffffffffffffffffffff1673ffffffffffffffffffffffffffffffffffffffff168152602001908152602001600020600001600083858151811061079a57fe5b602002602001015181526020019081526020016000206040518060a0016040529081600082015481526020016001820154815260200160028201548152602001600382018054600181600116156101000203166002900480601f0160208091040260200160405190810160405280929190818152602001828054600181600116156101000203166002900480156108725780601f1061084757610100808354040283529160200191610872565b820191906000526020600020905b81548152906001019060200180831161085557829003601f168201915b50505050508152602001600482018054600181600116156101000203166002900480601f0160208091040260200160405190810160405280929190818152602001828054600181600116156101000203166002900480156109145780601f106108e957610100808354040283529160200191610914565b820191906000526020600020905b8154815290600101906020018083116108f757829003601f168201915b50505050508152505084828151811061092957fe5b60200260200101819052505b80806001019150508280600101935050610734565b83955050505050505b92915050565b6060600061096683610eca565b9050600085805190602001209050600073ffffffffffffffffffffffffffffffffffffffff1682600201600083815260200190815260200160002060009054906101000a900473ffffffffffffffffffffffffffffffffffffffff1673ffffffffffffffffffffffffffffffffffffffff161415610a1e5760606000604051908082528060200260200182016040528015610a105781602001602082028038833980820191505090505b509050809350505050610d7a565b6000855111610a62576040517f08c379a0000000000000000000000000000000000000000000000000000000008152600401610a59906127fd565b60405180910390fd5b610a6a611ae4565b82600101600084600201600085815260200190815260200160002060009054906101000a900473ffffffffffffffffffffffffffffffffffffffff1673ffffffffffffffffffffffffffffffffffffffff1673ffffffffffffffffffffffffffffffffffffffff16815260200190815260200160002060000160008381526020019081526020016000206040518060a0016040529081600082015481526020016001820154815260200160028201548152602001600382018054600181600116156101000203166002900480601f016020809104026020016040519081016040528092919081815260200182805460018160011615610100020316600290048015610bb65780601f10610b8b57610100808354040283529160200191610bb6565b820191906000526020600020905b815481529060010190602001808311610b9957829003601f168201915b50505050508152602001600482018054600181600116156101000203166002900480601f016020809104026020016040519081016040528092919081815260200182805460018160011615610100020316600290048015610c585780601f10610c2d57610100808354040283529160200191610c58565b820191906000526020600020905b815481529060010190602001808311610c3b57829003601f168201915b5050505050815250509050600260009054906101000a900473ffffffffffffffffffffffffffffffffffffffff1673ffffffffffffffffffffffffffffffffffffffff1663e02d5a0384600201600085815260200190815260200160002060009054906101000a900473ffffffffffffffffffffffffffffffffffffffff1688846040015185606001516040518563ffffffff167c0100000000000000000000000000000000000000000000000000000000028152600401610d1d94939291906126b3565b600060405180830381600087803b158015610d3757600080fd5b505af1158015610d4b573d6000803e3d6000fd5b505050506040513d6000823e3d601f19601f82011682018060405250610d749190810190611e7c565b93505050505b9392505050565b600080610d8d83610eca565b90506000610d9b858561031d565b905060008115610dde5782600201600087815260200190815260200160002060009054906101000a900473ffffffffffffffffffffffffffffffffffffffff1690505b80935050505092915050565b610df5338383611578565b5050565b600080610e0583610eca565b90506000600a8260010160003373ffffffffffffffffffffffffffffffffffffffff1673ffffffffffffffffffffffffffffffffffffffff1681526020019081526020016000206001018054905081610e5a57fe5b0490506000600a8360010160003373ffffffffffffffffffffffffffffffffffffffff1673ffffffffffffffffffffffffffffffffffffffff1681526020019081526020016000206001018054905081610eb057fe5b061115610ec05780806001019150505b8092505050919050565b600080828051906020012090506060600080838152602001908152602001600020805480602002602001604051908101604052809291908181526020018280548015610f3557602002820191906000526020600020905b815481526020019060010190808311610f21575b5050505050905060008151111561108d5760008090505b815181101561108b5761104161102a6001848481518110610f6957fe5b602002602001015181548110610f7b57fe5b90600052602060002090600302016000018054600181600116156101000203166002900480601f0160208091040260200160405190810160405280929190818152602001828054600181600116156101000203166002900480156110205780601f10610ff557610100808354040283529160200191611020565b820191906000526020600020905b81548152906001019060200180831161100357829003601f168201915b5050505050611985565b61103387611985565b6119b390919063ffffffff16565b1561107e57600182828151811061105457fe5b60200260200101518154811061106657fe5b90600052602060002090600302019350505050611152565b8080600101915050610f4c565b505b60016040518060200160405280868152509080600181540180825580915050906001820390600052602060002090600302016000909192909190915060008201518160000190805190602001906110e5929190611b13565b505050506000600180805490500390506000808481526020019081526020016000208190806001815401808255809150509060018203906000526020600020016000909192909190915055506001818154811061113e57fe5b906000526020600020906003020193505050505b919050565b600260009054906101000a900473ffffffffffffffffffffffffffffffffffffffff1673ffffffffffffffffffffffffffffffffffffffff166325c6e6a8888787866040518563ffffffff167c01000000000000000000000000000000000000000000000000000000000281526004016111d49493929190612706565b602060405180830381600087803b1580156111ee57600080fd5b505af1158015611202573d6000803e3d6000fd5b505050506040513d601f19601f820116820180604052506112269190810190611ebd565b611265576040517f08c379a000000000000000000000000000000000000000000000000000000000815260040161125c9061281d565b60405180910390fd5b600061127083610eca565b9050600073ffffffffffffffffffffffffffffffffffffffff1681600201600089815260200190815260200160002060009054906101000a900473ffffffffffffffffffffffffffffffffffffffff1673ffffffffffffffffffffffffffffffffffffffff16141580156112eb57506112e9878461031d565b155b156113315761133081600201600089815260200190815260200160002060009054906101000a900473ffffffffffffffffffffffffffffffffffffffff168885611578565b5b600073ffffffffffffffffffffffffffffffffffffffff1681600201600089815260200190815260200160002060009054906101000a900473ffffffffffffffffffffffffffffffffffffffff1673ffffffffffffffffffffffffffffffffffffffff16146113d5576040517f08c379a00000000000000000000000000000000000000000000000000000000081526004016113cc9061285d565b60405180910390fd5b8781600201600089815260200190815260200160002060006101000a81548173ffffffffffffffffffffffffffffffffffffffff021916908373ffffffffffffffffffffffffffffffffffffffff1602179055506040518060a00160405280858152602001878152602001868152602001848152602001838152508160010160008a73ffffffffffffffffffffffffffffffffffffffff1673ffffffffffffffffffffffffffffffffffffffff168152602001908152602001600020600001600089815260200190815260200160002060008201518160000155602082015181600101556040820151816002015560608201518160030190805190602001906114df929190611b13565b5060808201518160040190805190602001906114fc929190611b13565b509050508060010160008973ffffffffffffffffffffffffffffffffffffffff1673ffffffffffffffffffffffffffffffffffffffff1681526020019081526020016000206001018790806001815401808255809150509060018203906000526020600020016000909192909190915055505050505050505050565b600061158382610eca565b90508373ffffffffffffffffffffffffffffffffffffffff1681600201600085815260200190815260200160002060009054906101000a900473ffffffffffffffffffffffffffffffffffffffff1673ffffffffffffffffffffffffffffffffffffffff1614611628576040517f08c379a000000000000000000000000000000000000000000000000000000000815260040161161f9061283d565b60405180910390fd5b80600201600084815260200190815260200160002060006101000a81549073ffffffffffffffffffffffffffffffffffffffff02191690558060010160008573ffffffffffffffffffffffffffffffffffffffff1673ffffffffffffffffffffffffffffffffffffffff1681526020019081526020016000206000016000848152602001908152602001600020600080820160009055600182016000905560028201600090556003820160006116de9190611b93565b6004820160006116ee9190611b93565b5050600080905060008090505b60018360010160008873ffffffffffffffffffffffffffffffffffffffff1673ffffffffffffffffffffffffffffffffffffffff168152602001908152602001600020600101805490500381101561187e578115611812578260010160008773ffffffffffffffffffffffffffffffffffffffff1673ffffffffffffffffffffffffffffffffffffffff16815260200190815260200160002060010160018201815481106117a557fe5b90600052602060002001548360010160008873ffffffffffffffffffffffffffffffffffffffff1673ffffffffffffffffffffffffffffffffffffffff16815260200190815260200160002060010182815481106117ff57fe5b9060005260206000200181905550611871565b848360010160008873ffffffffffffffffffffffffffffffffffffffff1673ffffffffffffffffffffffffffffffffffffffff168152602001908152602001600020600101828154811061186257fe5b90600052602060002001541491505b80806001019150506116fb565b508160010160008673ffffffffffffffffffffffffffffffffffffffff1673ffffffffffffffffffffffffffffffffffffffff16815260200190815260200160002060010160018360010160008873ffffffffffffffffffffffffffffffffffffffff1673ffffffffffffffffffffffffffffffffffffffff16815260200190815260200160002060010180549050038154811061191857fe5b90600052602060002001600090558160010160008673ffffffffffffffffffffffffffffffffffffffff1673ffffffffffffffffffffffffffffffffffffffff16815260200190815260200160002060010180548091906001900361197d9190611bdb565b505050505050565b61198d611c07565b600060208301905060405180604001604052808451815260200182815250915050919050565b6000806119c084846119c9565b14905092915050565b600080836000015190508360000151836000015110156119eb57826000015190505b60008460200151905060008460200151905060008090505b83811015611a9d576000808451915083519050808214611a845760007fffffffffffffffffffffffffffffffffffffffffffffffffffffffffffffffff90506020871015611a5e57600184886020030160080260020a031990505b600081831682851603905060008114611a81578098505050505050505050611aaf565b50505b6020850194506020840193505050602081019050611a03565b50846000015186600001510393505050505b92915050565b6040518060a0016040528060008152602001600081526020016000815260200160608152602001606081525090565b6040518060a0016040528060008152602001600081526020016000815260200160608152602001606081525090565b828054600181600116156101000203166002900490600052602060002090601f016020900481019282601f10611b5457805160ff1916838001178555611b82565b82800160010185558215611b82579182015b82811115611b81578251825591602001919060010190611b66565b5b509050611b8f9190611c21565b5090565b50805460018160011615610100020316600290046000825580601f10611bb95750611bd8565b601f016020900490600052602060002090810190611bd79190611c21565b5b50565b815481835581811115611c0257818360005260206000209182019101611c019190611c46565b5b505050565b604051806040016040528060008152602001600081525090565b611c4391905b80821115611c3f576000816000905550600101611c27565b5090565b90565b611c6891905b80821115611c64576000816000905550600101611c4c565b5090565b90565b6000611c778235612a75565b905092915050565b600082601f830112611c9057600080fd5b8151611ca3611c9e826128c5565b612898565b91508181835260208401935060208101905083856020840282011115611cc857600080fd5b60005b83811015611cf85781611cde8882611d85565b845260208401935060208301925050600181019050611ccb565b5050505092915050565b600082601f830112611d1357600080fd5b8135611d26611d21826128ed565b612898565b91508181835260208401935060208101905083856020840282011115611d4b57600080fd5b60005b83811015611d7b5781611d618882611e01565b845260208401935060208301925050600181019050611d4e565b5050505092915050565b6000611d918251612a87565b905092915050565b6000611da58235612a93565b905092915050565b600082601f830112611dbe57600080fd5b8135611dd1611dcc82612915565b612898565b91508082526020830160208301858383011115611ded57600080fd5b611df8838284612ac7565b50505092915050565b6000611e0d8235612abd565b905092915050565b600080600060608486031215611e2a57600080fd5b6000611e3886828701611c6b565b9350506020611e4986828701611d99565b925050604084013567ffffffffffffffff811115611e6657600080fd5b611e7286828701611dad565b9150509250925092565b600060208284031215611e8e57600080fd5b600082015167ffffffffffffffff811115611ea857600080fd5b611eb484828501611c7f565b91505092915050565b600060208284031215611ecf57600080fd5b6000611edd84828501611d85565b91505092915050565b60008060408385031215611ef957600080fd5b6000611f0785828601611d99565b925050602083013567ffffffffffffffff811115611f2457600080fd5b611f3085828601611dad565b9150509250929050565b600080600080600060a08688031215611f5257600080fd5b6000611f6088828901611d99565b9550506020611f7188828901611e01565b9450506040611f8288828901611e01565b9350506060611f9388828901611e01565b925050608086013567ffffffffffffffff811115611fb057600080fd5b611fbc88828901611dad565b9150509295509295909350565b60008060008060008060c08789031215611fe257600080fd5b6000611ff089828a01611d99565b965050602061200189828a01611e01565b955050604061201289828a01611e01565b945050606061202389828a01611e01565b935050608087013567ffffffffffffffff81111561204057600080fd5b61204c89828a01611dad565b92505060a087013567ffffffffffffffff81111561206957600080fd5b61207589828a01611dad565b9150509295509295509295565b60006020828403121561209457600080fd5b600082013567ffffffffffffffff8111156120ae57600080fd5b6120ba84828501611dad565b91505092915050565b6000806000606084860312156120d857600080fd5b600084013567ffffffffffffffff8111156120f257600080fd5b6120fe86828701611dad565b935050602084013567ffffffffffffffff81111561211b57600080fd5b61212786828701611d02565b925050604084013567ffffffffffffffff81111561214457600080fd5b61215086828701611dad565b9150509250925092565b60008060006060848603121561216f57600080fd5b600084013567ffffffffffffffff81111561218957600080fd5b61219586828701611dad565b93505060206121a686828701611e01565b925050604084013567ffffffffffffffff8111156121c357600080fd5b6121cf86828701611dad565b9150509250925092565b600080604083850312156121ec57600080fd5b60006121fa85828601611e01565b925050602083013567ffffffffffffffff81111561221757600080fd5b61222385828601611dad565b9150509250929050565b600061223983836123a5565b60208301905092915050565b600061225183836125fd565b905092915050565b6000612265838361267a565b60208301905092915050565b61227a81612a2d565b82525050565b600061228b8261297a565b61229581856129d8565b93506122a083612941565b60005b828110156122ce576122b686835161222d565b95506122c1826129b1565b91506001810190506122a3565b50849250505092915050565b60006122e582612985565b6122ef81856129e9565b9350836020820285016123018561294e565b60005b8481101561233a57838303885261231c838351612245565b9250612327826129be565b9150602088019750600181019050612304565b508196508694505050505092915050565b600061235682612990565b61236081856129fa565b935061236b8361295b565b60005b8281101561239957612381868351612259565b955061238c826129cb565b915060018101905061236e565b50849250505092915050565b6123ae81612a3f565b82525050565b6123bd81612a3f565b82525050565b60006123ce826129a6565b6123d88185612a1c565b93506123e8818560208601612ad6565b6123f181612b09565b840191505092915050565b60006124078261299b565b6124118185612a0b565b9350612421818560208601612ad6565b61242a81612b09565b840191505092915050565b60006124408261299b565b61244a8185612a1c565b935061245a818560208601612ad6565b61246381612b09565b840191505092915050565b60008154600181166000811461248b57600181146124b1576124f5565b607f600283041661249c8187612a1c565b955060ff1983168652602086019350506124f5565b600282046124bf8187612a1c565b95506124ca85612968565b60005b828110156124ec578154818901526001820191506020810190506124cd565b80880195505050505b505092915050565b600061250a600c83612a1c565b91507f656d7074792061737365747300000000000000000000000000000000000000006000830152602082019050919050565b600061254a600b83612a1c565b91507f6e6f7420616c6c6f7765640000000000000000000000000000000000000000006000830152602082019050919050565b600061258a600a83612a1c565b91507f73616d65206f776e6572000000000000000000000000000000000000000000006000830152602082019050919050565b60006125ca600f83612a1c565b91507f6475706c696361746564206861736800000000000000000000000000000000006000830152602082019050919050565b600060a083016000830151612615600086018261267a565b506020830151612628602086018261267a565b50604083015161263b604086018261267a565b506060830151848203606086015261265382826123fc565b9150506080830151848203608086015261266d82826123fc565b9150508091505092915050565b61268381612a6b565b82525050565b61269281612a6b565b82525050565b60006020820190506126ad6000830184612271565b92915050565b60006080820190506126c86000830187612271565b81810360208301526126da818661234b565b90506126e96040830185612689565b81810360608301526126fb8184612435565b905095945050505050565b600060808201905061271b6000830187612271565b6127286020830186612689565b6127356040830185612689565b818103606083015261274781846123c3565b905095945050505050565b60006080820190506127676000830187612271565b6127746020830186612689565b6127816040830185612689565b8181036060830152612793818461246e565b905095945050505050565b600060208201905081810360008301526127b88184612280565b905092915050565b600060208201905081810360008301526127da81846122da565b905092915050565b60006020820190506127f760008301846123b4565b92915050565b60006020820190508181036000830152612816816124fd565b9050919050565b600060208201905081810360008301526128368161253d565b9050919050565b600060208201905081810360008301526128568161257d565b9050919050565b60006020820190508181036000830152612876816125bd565b9050919050565b60006020820190506128926000830184612689565b92915050565b6000604051905081810181811067ffffffffffffffff821117156128bb57600080fd5b8060405250919050565b600067ffffffffffffffff8211156128dc57600080fd5b602082029050602081019050919050565b600067ffffffffffffffff82111561290457600080fd5b602082029050602081019050919050565b600067ffffffffffffffff82111561292c57600080fd5b601f19601f8301169050602081019050919050565b6000602082019050919050565b6000602082019050919050565b6000602082019050919050565b60008160005260206000209050919050565b600081519050919050565b600081519050919050565b600081519050919050565b600081519050919050565b600081519050919050565b6000602082019050919050565b6000602082019050919050565b6000602082019050919050565b600082825260208201905092915050565b600082825260208201905092915050565b600082825260208201905092915050565b600082825260208201905092915050565b600082825260208201905092915050565b6000612a3882612a4b565b9050919050565b60008115159050919050565b600073ffffffffffffffffffffffffffffffffffffffff82169050919050565b6000819050919050565b6000612a8082612a9d565b9050919050565b60008115159050919050565b6000819050919050565b600073ffffffffffffffffffffffffffffffffffffffff82169050919050565b6000819050919050565b82818337600083830152505050565b60005b83811015612af4578082015181840152602081019050612ad9565b83811115612b03576000848401525b50505050565b6000601f19601f830116905091905056fea265627a7a7230582000f0a7733794f4e56dce64688d731cd5bca9481e646c220e0e98fa73697cc9716c6578706572696d656e74616cf50037",
  "source": "pragma solidity ^0.5.2;\npragma experimental ABIEncoderV2;\n\nimport \"./Assets.sol\";\n\ncontract Devices {\n\n  using Strings for *;\n\n  struct DappCtx {\n    string dappID;\n    mapping (address => UserDevices)  userDevices_;\n    mapping (bytes32 => address)  deviceHashes_;\n  }\n\n  struct UserDevices {   \n    mapping (bytes32 => Device) devices;\n    bytes32[] deviceArray;\n  } \n\n  struct Device {   \n    uint256 expirationDate;\n    uint256 assetId;\n    uint256 schemaId;\n    string dappId;\n    string description;\n  }\n\n  uint256 constant private PAGE_SIZE = 10;\n\n  mapping (bytes32 => uint[]) private dappCtxhashIndexMap_;\n  DappCtx[] private dappCtxs_;\n\n  Assets private _assets;\n  \n  constructor (address _assetsAddr) public{\n    _assets = Assets(_assetsAddr);    \n  }\n    \n  function isAllowed(bytes32 _deviceHash, string memory dappId) public  returns (bool) {\n    DappCtx storage ctx = _getDappCtx(dappId);\n    bool allowed = ctx.userDevices_[ctx.deviceHashes_[_deviceHash]].devices[_deviceHash].expirationDate > now ;\n    return allowed;\n  }\n\n  function isAllowedForAddress(address _target, bytes32 _deviceHash, string memory dappId) public  returns (bool) {\n    DappCtx storage ctx = _getDappCtx(dappId);\n    bool allowed =  (ctx.deviceHashes_[_deviceHash] == _target) && (isAllowed(_deviceHash,dappId));\n    return allowed;\n  }\n\n  function checkOwnershipForDeviceMultipleAssets(string memory _deviceString, uint256[] memory _assetIds, string memory dappId) public  returns (bool[] memory) {\n    DappCtx storage ctx = _getDappCtx(dappId);\n    bytes32 _deviceHash = keccak256(bytes(_deviceString));\n    //require(ctx.deviceHashes_[_deviceHash] != address(0), \"not exist\");\n    if (ctx.deviceHashes_[_deviceHash] == address(0)) {\n      bool[] memory empty  = new bool[](0); \n      return empty;\n    }\n    require(_assetIds.length > 0, \"empty assets\");\n  \n    Device memory device = ctx.userDevices_[ctx.deviceHashes_[_deviceHash]].devices[_deviceHash];\n\n    return _assets.checkOwnershipMultipleAssetsForAddress(ctx.deviceHashes_[_deviceHash],_assetIds,device.schemaId,device.dappId);\n  }\n\n  function checkOwnershipOneAssetForDevice(string memory _deviceString, uint256 _assetId, string memory dappId) public  returns (bool) {\n    DappCtx storage ctx = _getDappCtx(dappId);\n    bytes32 _deviceHash = keccak256(bytes(_deviceString));\n    //require(ctx.deviceHashes_[_deviceHash] != address(0), \"not exist\");\n    // require returns true on failured validation.\n    if (ctx.deviceHashes_[_deviceHash] == address(0)) {\n      return false;\n    }\n    \n    Device storage device = ctx.userDevices_[ctx.deviceHashes_[_deviceHash]].devices[_deviceHash];\n\n    return _assets.checkOwnershipOneAssetForAddress(ctx.deviceHashes_[_deviceHash],_assetId,device.schemaId,device.dappId);\n  }\n\n  function getDevicesPageCount(string memory dappId) public  returns (uint256) {\n    DappCtx storage ctx = _getDappCtx(dappId);    \n    uint256 pages = ctx.userDevices_[msg.sender].deviceArray.length / PAGE_SIZE;\n    if ( (ctx.userDevices_[msg.sender].deviceArray.length % PAGE_SIZE)>0) {\n      pages++;\n    }\n    return pages;\n  }\n\n  function getDevices(uint256 _page, string memory dappId) public  returns (Device[] memory) {\n    DappCtx storage ctx = _getDappCtx(dappId); \n    Device[] memory devicesPage = new Device[](PAGE_SIZE); \n    uint256 transferIndex = PAGE_SIZE * _page - PAGE_SIZE;\n    bytes32[] memory devices = ctx.userDevices_[msg.sender].deviceArray;\n\n    if (devices.length == 0 || transferIndex > devices.length - 1) {\n      Device[] memory empty;\n      return empty;\n    }\n   \n    uint256 returnCounter = 0;\n\n    for (transferIndex; transferIndex < PAGE_SIZE * _page; transferIndex++) {\n      if (transferIndex < devices.length) {\n        devicesPage[returnCounter] = ctx.userDevices_[msg.sender].devices[devices[transferIndex]];\n      }\n      returnCounter++;\n    }\n    return devicesPage;\n  }\n\n  function getAddress(bytes32 _deviceHash, string memory dappId) public  returns (address) {\n    DappCtx storage ctx = _getDappCtx(dappId);\n    bool allowed = isAllowed(_deviceHash,dappId);\n    address ownerAddress;\n    if (allowed) {\n      ownerAddress = ctx.deviceHashes_[_deviceHash];\n    } \n    return ownerAddress;\n  }\n\n  function handshake(bytes32 _deviceHash, uint256 _assetId, uint256 _schemaId, uint256 _lifeTime, string memory _dappId) public {\n    _handshake(msg.sender, _deviceHash, _assetId, _schemaId, _lifeTime, _dappId, \"\");\n  }\n\n  function handshake(bytes32 _deviceHash, uint256 _assetId, uint256 _schemaId, uint256 _lifeTime, string memory _dappId, string memory _description) public {\n    _handshake(msg.sender, _deviceHash, _assetId, _schemaId, _lifeTime, _dappId, _description);\n  }\n\n  function removeDevice(bytes32 _deviceHash, string memory _dappId) public {\n    _removeDevice(msg.sender, _deviceHash,_dappId);\n  }\n\n    \n  function _handshake(address _owner, bytes32 _deviceHash, uint256 _assetId, uint256 _schemaId, uint256 _lifeTime, string memory _dappId, string memory _description) internal {\n    require(_assets.checkOwnershipOneAssetForAddress(_owner, _assetId, _schemaId, _dappId),\"not allowed\");\n    DappCtx storage ctx = _getDappCtx(_dappId);\n\n    if ((ctx.deviceHashes_[_deviceHash] != address(0)) && (!isAllowed(_deviceHash,_dappId))) {\n      _removeDevice(ctx.deviceHashes_[_deviceHash], _deviceHash,_dappId);\n    }\n\n    require(ctx.deviceHashes_[_deviceHash] == address(0), \"duplicated hash\");\n    ctx.deviceHashes_[_deviceHash] = _owner; \n    ctx.userDevices_[_owner].devices[_deviceHash] =  Device(_lifeTime, _assetId, _schemaId, _dappId, _description);\n    ctx.userDevices_[_owner].deviceArray.push(_deviceHash);\n  }\n\n  function _removeDevice(address _owner, bytes32 _deviceHash, string memory _dappId) internal {\n    DappCtx storage ctx = _getDappCtx(_dappId);\n    require(ctx.deviceHashes_[_deviceHash] == _owner, \"same owner\");\n    delete ctx.deviceHashes_[_deviceHash];\n    delete ctx.userDevices_[_owner].devices[_deviceHash];\n    bool found=false;\n    for (uint i = 0; i < ctx.userDevices_[_owner].deviceArray.length-1;i++){\n      if(found){\n        ctx.userDevices_[_owner].deviceArray[i] = ctx.userDevices_[_owner].deviceArray[i+1];\n      } else {\n        found = ctx.userDevices_[_owner].deviceArray[i] == _deviceHash;\n      }\n    }\n    delete ctx.userDevices_[_owner].deviceArray[ctx.userDevices_[_owner].deviceArray.length-1];\n    ctx.userDevices_[_owner].deviceArray.length--;\n  }\n\n  function _getDappCtx(string memory dappId) internal returns (DappCtx storage) {\n    bytes32 dappIdHash = keccak256(bytes(dappId));\n    uint[] memory indexArray = dappCtxhashIndexMap_[dappIdHash];\n\n    if (indexArray.length > 0) {\n      // hash collision check\n      for (uint i = 0 ; i < indexArray.length ; i++) {\n        if (dappId.toSlice().equals(dappCtxs_[indexArray[i]].dappID.toSlice())) {\n          return dappCtxs_[indexArray[i]];\n        }\n      }\n    }\n\n    dappCtxs_.push(DappCtx(dappId));\n    uint dappIndex = dappCtxs_.length-1;\n\n    dappCtxhashIndexMap_[dappIdHash].push(dappIndex);\n\n    return dappCtxs_[dappIndex];\n  }\n\n}",
  "sourcePath": "/home/jordi/ws/bloomenio/bloomen-wallet/bloomen-wallet-truffle/contracts/bloomen/Devices.sol",
  "compiler": {
    "name": "solc",
    "version": "0.5.7+commit.6da8b019.Emscripten.clang"
  },
  "schemaVersion": "3.0.6",
  "updatedAt": "2019-05-28T14:42:05.024Z",
  "devdoc": {
    "methods": {}
  },
  "userdoc": {
    "methods": {}
  }
}