{
  "contractName": "Devices",
  "abi": [
    {
      "inputs": [
        {
          "name": "_assetsAddr",
          "type": "address"
        }
      ],
      "payable": false,
      "stateMutability": "nonpayable",
      "type": "constructor",
      "signature": "constructor"
    },
    {
      "constant": false,
      "inputs": [
        {
          "name": "_deviceHash",
          "type": "bytes32"
        },
        {
          "name": "dappId",
          "type": "string"
        }
      ],
      "name": "isAllowed",
      "outputs": [
        {
          "name": "",
          "type": "bool"
        }
      ],
      "payable": false,
      "stateMutability": "nonpayable",
      "type": "function",
      "signature": "0x18de1d87"
    },
    {
      "constant": false,
      "inputs": [
        {
          "name": "_target",
          "type": "address"
        },
        {
          "name": "_deviceHash",
          "type": "bytes32"
        },
        {
          "name": "dappId",
          "type": "string"
        }
      ],
      "name": "isAllowedForAddress",
      "outputs": [
        {
          "name": "",
          "type": "bool"
        }
      ],
      "payable": false,
      "stateMutability": "nonpayable",
      "type": "function",
      "signature": "0x12e3b03c"
    },
    {
      "constant": false,
      "inputs": [
        {
          "name": "_deviceHash",
          "type": "bytes32"
        },
        {
          "name": "_assetIds",
          "type": "uint256[]"
        },
        {
          "name": "dappId",
          "type": "string"
        }
      ],
      "name": "checkOwnershipMultipleAssetsForDevice",
      "outputs": [
        {
          "name": "",
          "type": "bool[]"
        }
      ],
      "payable": false,
      "stateMutability": "nonpayable",
      "type": "function",
      "signature": "0x0e1f7ed8"
    },
    {
      "constant": false,
      "inputs": [
        {
          "name": "_deviceHash",
          "type": "bytes32"
        },
        {
          "name": "_assetId",
          "type": "uint256"
        },
        {
          "name": "dappId",
          "type": "string"
        }
      ],
      "name": "checkOwnershipOneAssetForDevice",
      "outputs": [
        {
          "name": "",
          "type": "bool"
        }
      ],
      "payable": false,
      "stateMutability": "nonpayable",
      "type": "function",
      "signature": "0xf5264c52"
    },
    {
      "constant": false,
      "inputs": [
        {
          "name": "dappId",
          "type": "string"
        }
      ],
      "name": "getDevicesPageCount",
      "outputs": [
        {
          "name": "",
          "type": "uint256"
        }
      ],
      "payable": false,
      "stateMutability": "nonpayable",
      "type": "function",
      "signature": "0xdce65418"
    },
    {
      "constant": false,
      "inputs": [
        {
          "name": "_page",
          "type": "uint256"
        },
        {
          "name": "dappId",
          "type": "string"
        }
      ],
      "name": "getDevices",
      "outputs": [
        {
          "components": [
            {
              "name": "expirationDate",
              "type": "uint256"
            },
            {
              "name": "assetId",
              "type": "uint256"
            },
            {
              "name": "schemaId",
              "type": "uint256"
            },
            {
              "name": "dappId",
              "type": "string"
            },
            {
              "name": "description",
              "type": "string"
            }
          ],
          "name": "",
          "type": "tuple[]"
        }
      ],
      "payable": false,
      "stateMutability": "nonpayable",
      "type": "function",
      "signature": "0x44a57ff5"
    },
    {
      "constant": false,
      "inputs": [
        {
          "name": "_deviceHash",
          "type": "bytes32"
        },
        {
          "name": "dappId",
          "type": "string"
        }
      ],
      "name": "getAddress",
      "outputs": [
        {
          "name": "",
          "type": "address"
        }
      ],
      "payable": false,
      "stateMutability": "nonpayable",
      "type": "function",
      "signature": "0x6795dbcd"
    },
    {
      "constant": false,
      "inputs": [
        {
          "name": "_deviceHash",
          "type": "bytes32"
        },
        {
          "name": "_assetId",
          "type": "uint256"
        },
        {
          "name": "_schemaId",
          "type": "uint256"
        },
        {
          "name": "_lifeTime",
          "type": "uint256"
        },
        {
          "name": "_dappId",
          "type": "string"
        }
      ],
      "name": "handshake",
      "outputs": [],
      "payable": false,
      "stateMutability": "nonpayable",
      "type": "function",
      "signature": "0x132c6aa4"
    },
    {
      "constant": false,
      "inputs": [
        {
          "name": "_deviceHash",
          "type": "bytes32"
        },
        {
          "name": "_assetId",
          "type": "uint256"
        },
        {
          "name": "_schemaId",
          "type": "uint256"
        },
        {
          "name": "_lifeTime",
          "type": "uint256"
        },
        {
          "name": "_dappId",
          "type": "string"
        },
        {
          "name": "_description",
          "type": "string"
        }
      ],
      "name": "handshake",
      "outputs": [],
      "payable": false,
      "stateMutability": "nonpayable",
      "type": "function",
      "signature": "0x42b4bed4"
    },
    {
      "constant": false,
      "inputs": [
        {
          "name": "_deviceHash",
          "type": "bytes32"
        },
        {
          "name": "_dappId",
          "type": "string"
        }
      ],
      "name": "removeDevice",
      "outputs": [],
      "payable": false,
      "stateMutability": "nonpayable",
      "type": "function",
      "signature": "0xa2da6a9a"
    }
  ],
  "bytecode": "0x60806040523480156200001157600080fd5b5060405160208062002b66833981018060405262000033919081019062000091565b80600260006101000a81548173ffffffffffffffffffffffffffffffffffffffff021916908373ffffffffffffffffffffffffffffffffffffffff16021790555050620000f1565b6000620000898251620000bd565b905092915050565b600060208284031215620000a457600080fd5b6000620000b4848285016200007b565b91505092915050565b6000620000ca82620000d1565b9050919050565b600073ffffffffffffffffffffffffffffffffffffffff82169050919050565b612a6580620001016000396000f3fe608060405234801561001057600080fd5b50600436106100bb576000357c01000000000000000000000000000000000000000000000000000000009004806344a57ff51161008357806344a57ff5146101885780636795dbcd146101b8578063a2da6a9a146101e8578063dce6541814610204578063f5264c5214610234576100bb565b80630e1f7ed8146100c057806312e3b03c146100f0578063132c6aa41461012057806318de1d871461013c57806342b4bed41461016c575b600080fd5b6100da60048036036100d59190810190611e27565b610264565b6040516100e791906126af565b60405180910390f35b61010a60048036036101059190810190611d56565b61067e565b60405161011791906126f3565b60405180910390f35b61013a60048036036101359190810190611f61565b610712565b005b61015660048036036101519190810190611ea6565b610737565b60405161016391906126f3565b60405180910390f35b61018660048036036101819190810190611ff0565b6107e4565b005b6101a2600480360361019d91908101906120ea565b6107fb565b6040516101af91906126d1565b60405180910390f35b6101d260048036036101cd9190810190611ea6565b610b3e565b6040516101df91906125a9565b60405180910390f35b61020260048036036101fd9190810190611ea6565b610ba7565b005b61021e600480360361021991908101906120a9565b610bb6565b60405161022b919061278e565b60405180910390f35b61024e60048036036102499190810190611efa565b610c87565b60405161025b91906126f3565b60405180910390f35b6060600061027183610eae565b9050600073ffffffffffffffffffffffffffffffffffffffff1681600201600087815260200190815260200160002060009054906101000a900473ffffffffffffffffffffffffffffffffffffffff1673ffffffffffffffffffffffffffffffffffffffff16141561031c576060600060405190808252806020026020018201604052801561030f5781602001602082028038833980820191505090505b5090508092505050610677565b6000845111610360576040517f08c379a00000000000000000000000000000000000000000000000000000000081526004016103579061270e565b60405180910390fd5b6103686119f6565b81600101600083600201600089815260200190815260200160002060009054906101000a900473ffffffffffffffffffffffffffffffffffffffff1673ffffffffffffffffffffffffffffffffffffffff1673ffffffffffffffffffffffffffffffffffffffff16815260200190815260200160002060000160008781526020019081526020016000206040518060a0016040529081600082015481526020016001820154815260200160028201548152602001600382018054600181600116156101000203166002900480601f0160208091040260200160405190810160405280929190818152602001828054600181600116156101000203166002900480156104b45780601f10610489576101008083540402835291602001916104b4565b820191906000526020600020905b81548152906001019060200180831161049757829003601f168201915b50505050508152602001600482018054600181600116156101000203166002900480601f0160208091040260200160405190810160405280929190818152602001828054600181600116156101000203166002900480156105565780601f1061052b57610100808354040283529160200191610556565b820191906000526020600020905b81548152906001019060200180831161053957829003601f168201915b5050505050815250509050600260009054906101000a900473ffffffffffffffffffffffffffffffffffffffff1673ffffffffffffffffffffffffffffffffffffffff1663e02d5a0383600201600089815260200190815260200160002060009054906101000a900473ffffffffffffffffffffffffffffffffffffffff1687846040015185606001516040518563ffffffff167c010000000000000000000000000000000000000000000000000000000002815260040161061b94939291906125c4565b600060405180830381600087803b15801561063557600080fd5b505af1158015610649573d6000803e3d6000fd5b505050506040513d6000823e3d601f19601f820116820180604052506106729190810190611dbd565b925050505b9392505050565b60008061068a83610eae565b905060008573ffffffffffffffffffffffffffffffffffffffff1682600201600087815260200190815260200160002060009054906101000a900473ffffffffffffffffffffffffffffffffffffffff1673ffffffffffffffffffffffffffffffffffffffff1614801561070457506107038585610737565b5b905080925050509392505050565b6107303386868686866040518060200160405280600081525061113b565b5050505050565b60008061074383610eae565b905060004282600101600084600201600089815260200190815260200160002060009054906101000a900473ffffffffffffffffffffffffffffffffffffffff1673ffffffffffffffffffffffffffffffffffffffff1673ffffffffffffffffffffffffffffffffffffffff168152602001908152602001600020600001600087815260200190815260200160002060000154119050809250505092915050565b6107f33387878787878761113b565b505050505050565b6060600061080883610eae565b90506060600a60405190808252806020026020018201604052801561084757816020015b610834611a25565b81526020019060019003908161082c5790505b5090506000600a86600a0203905060608360010160003373ffffffffffffffffffffffffffffffffffffffff1673ffffffffffffffffffffffffffffffffffffffff1681526020019081526020016000206001018054806020026020016040519081016040528092919081815260200182805480156108e557602002820191906000526020600020905b8154815260200190600101908083116108d1575b505050505090506000815114806108ff5750600181510382115b156109135760608095505050505050610b38565b60008090505b87600a02831015610b2f578151831015610b1a578460010160003373ffffffffffffffffffffffffffffffffffffffff1673ffffffffffffffffffffffffffffffffffffffff168152602001908152602001600020600001600083858151811061097f57fe5b602002602001015181526020019081526020016000206040518060a0016040529081600082015481526020016001820154815260200160028201548152602001600382018054600181600116156101000203166002900480601f016020809104026020016040519081016040528092919081815260200182805460018160011615610100020316600290048015610a575780601f10610a2c57610100808354040283529160200191610a57565b820191906000526020600020905b815481529060010190602001808311610a3a57829003601f168201915b50505050508152602001600482018054600181600116156101000203166002900480601f016020809104026020016040519081016040528092919081815260200182805460018160011615610100020316600290048015610af95780601f10610ace57610100808354040283529160200191610af9565b820191906000526020600020905b815481529060010190602001808311610adc57829003601f168201915b505050505081525050848281518110610b0e57fe5b60200260200101819052505b80806001019150508280600101935050610919565b83955050505050505b92915050565b600080610b4a83610eae565b90506000610b588585610737565b905060008115610b9b5782600201600087815260200190815260200160002060009054906101000a900473ffffffffffffffffffffffffffffffffffffffff1690505b80935050505092915050565b610bb233838361155c565b5050565b600080610bc283610eae565b90506000600a8260010160003373ffffffffffffffffffffffffffffffffffffffff1673ffffffffffffffffffffffffffffffffffffffff1681526020019081526020016000206001018054905081610c1757fe5b0490506000600a8360010160003373ffffffffffffffffffffffffffffffffffffffff1673ffffffffffffffffffffffffffffffffffffffff1681526020019081526020016000206001018054905081610c6d57fe5b061115610c7d5780806001019150505b8092505050919050565b600080610c9383610eae565b9050600073ffffffffffffffffffffffffffffffffffffffff1681600201600087815260200190815260200160002060009054906101000a900473ffffffffffffffffffffffffffffffffffffffff1673ffffffffffffffffffffffffffffffffffffffff161415610d09576000915050610ea7565b600081600101600083600201600089815260200190815260200160002060009054906101000a900473ffffffffffffffffffffffffffffffffffffffff1673ffffffffffffffffffffffffffffffffffffffff1673ffffffffffffffffffffffffffffffffffffffff16815260200190815260200160002060000160008781526020019081526020016000209050600260009054906101000a900473ffffffffffffffffffffffffffffffffffffffff1673ffffffffffffffffffffffffffffffffffffffff166325c6e6a883600201600089815260200190815260200160002060009054906101000a900473ffffffffffffffffffffffffffffffffffffffff16878460020154856003016040518563ffffffff167c0100000000000000000000000000000000000000000000000000000000028152600401610e509493929190612663565b602060405180830381600087803b158015610e6a57600080fd5b505af1158015610e7e573d6000803e3d6000fd5b505050506040513d601f19601f82011682018060405250610ea29190810190611dfe565b925050505b9392505050565b600080828051906020012090506060600080838152602001908152602001600020805480602002602001604051908101604052809291908181526020018280548015610f1957602002820191906000526020600020905b815481526020019060010190808311610f05575b505050505090506000815111156110715760008090505b815181101561106f5761102561100e6001848481518110610f4d57fe5b602002602001015181548110610f5f57fe5b90600052602060002090600302016000018054600181600116156101000203166002900480601f0160208091040260200160405190810160405280929190818152602001828054600181600116156101000203166002900480156110045780601f10610fd957610100808354040283529160200191611004565b820191906000526020600020905b815481529060010190602001808311610fe757829003601f168201915b50505050506118c6565b611017876118c6565b6118f490919063ffffffff16565b1561106257600182828151811061103857fe5b60200260200101518154811061104a57fe5b90600052602060002090600302019350505050611136565b8080600101915050610f30565b505b60016040518060200160405280868152509080600181540180825580915050906001820390600052602060002090600302016000909192909190915060008201518160000190805190602001906110c9929190611a54565b505050506000600180805490500390506000808481526020019081526020016000208190806001815401808255809150509060018203906000526020600020016000909192909190915055506001818154811061112257fe5b906000526020600020906003020193505050505b919050565b600260009054906101000a900473ffffffffffffffffffffffffffffffffffffffff1673ffffffffffffffffffffffffffffffffffffffff166325c6e6a8888787866040518563ffffffff167c01000000000000000000000000000000000000000000000000000000000281526004016111b89493929190612617565b602060405180830381600087803b1580156111d257600080fd5b505af11580156111e6573d6000803e3d6000fd5b505050506040513d601f19601f8201168201806040525061120a9190810190611dfe565b611249576040517f08c379a00000000000000000000000000000000000000000000000000000000081526004016112409061272e565b60405180910390fd5b600061125483610eae565b9050600073ffffffffffffffffffffffffffffffffffffffff1681600201600089815260200190815260200160002060009054906101000a900473ffffffffffffffffffffffffffffffffffffffff1673ffffffffffffffffffffffffffffffffffffffff16141580156112cf57506112cd8784610737565b155b156113155761131481600201600089815260200190815260200160002060009054906101000a900473ffffffffffffffffffffffffffffffffffffffff16888561155c565b5b600073ffffffffffffffffffffffffffffffffffffffff1681600201600089815260200190815260200160002060009054906101000a900473ffffffffffffffffffffffffffffffffffffffff1673ffffffffffffffffffffffffffffffffffffffff16146113b9576040517f08c379a00000000000000000000000000000000000000000000000000000000081526004016113b09061276e565b60405180910390fd5b8781600201600089815260200190815260200160002060006101000a81548173ffffffffffffffffffffffffffffffffffffffff021916908373ffffffffffffffffffffffffffffffffffffffff1602179055506040518060a00160405280858152602001878152602001868152602001848152602001838152508160010160008a73ffffffffffffffffffffffffffffffffffffffff1673ffffffffffffffffffffffffffffffffffffffff168152602001908152602001600020600001600089815260200190815260200160002060008201518160000155602082015181600101556040820151816002015560608201518160030190805190602001906114c3929190611a54565b5060808201518160040190805190602001906114e0929190611a54565b509050508060010160008973ffffffffffffffffffffffffffffffffffffffff1673ffffffffffffffffffffffffffffffffffffffff1681526020019081526020016000206001018790806001815401808255809150509060018203906000526020600020016000909192909190915055505050505050505050565b600061156782610eae565b90508373ffffffffffffffffffffffffffffffffffffffff1681600201600085815260200190815260200160002060009054906101000a900473ffffffffffffffffffffffffffffffffffffffff1673ffffffffffffffffffffffffffffffffffffffff161461160c576040517f08c379a00000000000000000000000000000000000000000000000000000000081526004016116039061274e565b60405180910390fd5b80600201600084815260200190815260200160002060006101000a81549073ffffffffffffffffffffffffffffffffffffffff02191690558060010160008573ffffffffffffffffffffffffffffffffffffffff1673ffffffffffffffffffffffffffffffffffffffff1681526020019081526020016000206000016000848152602001908152602001600020600080820160009055600182016000905560028201600090556003820160006116c29190611ad4565b6004820160006116d29190611ad4565b5050600080905060008090505b60018360010160008873ffffffffffffffffffffffffffffffffffffffff1673ffffffffffffffffffffffffffffffffffffffff16815260200190815260200160002060010180549050038110156118665781806117955750848360010160008873ffffffffffffffffffffffffffffffffffffffff1673ffffffffffffffffffffffffffffffffffffffff168152602001908152602001600020600101828154811061178857fe5b9060005260206000200154145b1561185957600191508260010160008773ffffffffffffffffffffffffffffffffffffffff1673ffffffffffffffffffffffffffffffffffffffff16815260200190815260200160002060010160018201815481106117f057fe5b90600052602060002001548360010160008873ffffffffffffffffffffffffffffffffffffffff1673ffffffffffffffffffffffffffffffffffffffff168152602001908152602001600020600101828154811061184a57fe5b90600052602060002001819055505b80806001019150506116df565b508160010160008673ffffffffffffffffffffffffffffffffffffffff1673ffffffffffffffffffffffffffffffffffffffff1681526020019081526020016000206001018054809190600190036118be9190611b1c565b505050505050565b6118ce611b48565b600060208301905060405180604001604052808451815260200182815250915050919050565b600080611901848461190a565b14905092915050565b6000808360000151905083600001518360000151101561192c57826000015190505b60008460200151905060008460200151905060008090505b838110156119de5760008084519150835190508082146119c55760007fffffffffffffffffffffffffffffffffffffffffffffffffffffffffffffffff9050602087101561199f57600184886020030160080260020a031990505b6000818316828516039050600081146119c25780985050505050505050506119f0565b50505b6020850194506020840193505050602081019050611944565b50846000015186600001510393505050505b92915050565b6040518060a0016040528060008152602001600081526020016000815260200160608152602001606081525090565b6040518060a0016040528060008152602001600081526020016000815260200160608152602001606081525090565b828054600181600116156101000203166002900490600052602060002090601f016020900481019282601f10611a9557805160ff1916838001178555611ac3565b82800160010185558215611ac3579182015b82811115611ac2578251825591602001919060010190611aa7565b5b509050611ad09190611b62565b5090565b50805460018160011615610100020316600290046000825580601f10611afa5750611b19565b601f016020900490600052602060002090810190611b189190611b62565b5b50565b815481835581811115611b4357818360005260206000209182019101611b429190611b87565b5b505050565b604051806040016040528060008152602001600081525090565b611b8491905b80821115611b80576000816000905550600101611b68565b5090565b90565b611ba991905b80821115611ba5576000816000905550600101611b8d565b5090565b90565b6000611bb88235612986565b905092915050565b600082601f830112611bd157600080fd5b8151611be4611bdf826127d6565b6127a9565b91508181835260208401935060208101905083856020840282011115611c0957600080fd5b60005b83811015611c395781611c1f8882611cc6565b845260208401935060208301925050600181019050611c0c565b5050505092915050565b600082601f830112611c5457600080fd5b8135611c67611c62826127fe565b6127a9565b91508181835260208401935060208101905083856020840282011115611c8c57600080fd5b60005b83811015611cbc5781611ca28882611d42565b845260208401935060208301925050600181019050611c8f565b5050505092915050565b6000611cd28251612998565b905092915050565b6000611ce682356129a4565b905092915050565b600082601f830112611cff57600080fd5b8135611d12611d0d82612826565b6127a9565b91508082526020830160208301858383011115611d2e57600080fd5b611d398382846129d8565b50505092915050565b6000611d4e82356129ce565b905092915050565b600080600060608486031215611d6b57600080fd5b6000611d7986828701611bac565b9350506020611d8a86828701611cda565b925050604084013567ffffffffffffffff811115611da757600080fd5b611db386828701611cee565b9150509250925092565b600060208284031215611dcf57600080fd5b600082015167ffffffffffffffff811115611de957600080fd5b611df584828501611bc0565b91505092915050565b600060208284031215611e1057600080fd5b6000611e1e84828501611cc6565b91505092915050565b600080600060608486031215611e3c57600080fd5b6000611e4a86828701611cda565b935050602084013567ffffffffffffffff811115611e6757600080fd5b611e7386828701611c43565b925050604084013567ffffffffffffffff811115611e9057600080fd5b611e9c86828701611cee565b9150509250925092565b60008060408385031215611eb957600080fd5b6000611ec785828601611cda565b925050602083013567ffffffffffffffff811115611ee457600080fd5b611ef085828601611cee565b9150509250929050565b600080600060608486031215611f0f57600080fd5b6000611f1d86828701611cda565b9350506020611f2e86828701611d42565b925050604084013567ffffffffffffffff811115611f4b57600080fd5b611f5786828701611cee565b9150509250925092565b600080600080600060a08688031215611f7957600080fd5b6000611f8788828901611cda565b9550506020611f9888828901611d42565b9450506040611fa988828901611d42565b9350506060611fba88828901611d42565b925050608086013567ffffffffffffffff811115611fd757600080fd5b611fe388828901611cee565b9150509295509295909350565b60008060008060008060c0878903121561200957600080fd5b600061201789828a01611cda565b965050602061202889828a01611d42565b955050604061203989828a01611d42565b945050606061204a89828a01611d42565b935050608087013567ffffffffffffffff81111561206757600080fd5b61207389828a01611cee565b92505060a087013567ffffffffffffffff81111561209057600080fd5b61209c89828a01611cee565b9150509295509295509295565b6000602082840312156120bb57600080fd5b600082013567ffffffffffffffff8111156120d557600080fd5b6120e184828501611cee565b91505092915050565b600080604083850312156120fd57600080fd5b600061210b85828601611d42565b925050602083013567ffffffffffffffff81111561212857600080fd5b61213485828601611cee565b9150509250929050565b600061214a83836122b6565b60208301905092915050565b6000612162838361250e565b905092915050565b6000612176838361258b565b60208301905092915050565b61218b8161293e565b82525050565b600061219c8261288b565b6121a681856128e9565b93506121b183612852565b60005b828110156121df576121c786835161213e565b95506121d2826128c2565b91506001810190506121b4565b50849250505092915050565b60006121f682612896565b61220081856128fa565b9350836020820285016122128561285f565b60005b8481101561224b57838303885261222d838351612156565b9250612238826128cf565b9150602088019750600181019050612215565b508196508694505050505092915050565b6000612267826128a1565b612271818561290b565b935061227c8361286c565b60005b828110156122aa5761229286835161216a565b955061229d826128dc565b915060018101905061227f565b50849250505092915050565b6122bf81612950565b82525050565b6122ce81612950565b82525050565b60006122df826128b7565b6122e9818561292d565b93506122f98185602086016129e7565b61230281612a1a565b840191505092915050565b6000612318826128ac565b612322818561291c565b93506123328185602086016129e7565b61233b81612a1a565b840191505092915050565b6000612351826128ac565b61235b818561292d565b935061236b8185602086016129e7565b61237481612a1a565b840191505092915050565b60008154600181166000811461239c57600181146123c257612406565b607f60028304166123ad818761292d565b955060ff198316865260208601935050612406565b600282046123d0818761292d565b95506123db85612879565b60005b828110156123fd578154818901526001820191506020810190506123de565b80880195505050505b505092915050565b600061241b600c8361292d565b91507f656d7074792061737365747300000000000000000000000000000000000000006000830152602082019050919050565b600061245b600b8361292d565b91507f6e6f7420616c6c6f7765640000000000000000000000000000000000000000006000830152602082019050919050565b600061249b600a8361292d565b91507f73616d65206f776e6572000000000000000000000000000000000000000000006000830152602082019050919050565b60006124db600f8361292d565b91507f6475706c696361746564206861736800000000000000000000000000000000006000830152602082019050919050565b600060a083016000830151612526600086018261258b565b506020830151612539602086018261258b565b50604083015161254c604086018261258b565b5060608301518482036060860152612564828261230d565b9150506080830151848203608086015261257e828261230d565b9150508091505092915050565b6125948161297c565b82525050565b6125a38161297c565b82525050565b60006020820190506125be6000830184612182565b92915050565b60006080820190506125d96000830187612182565b81810360208301526125eb818661225c565b90506125fa604083018561259a565b818103606083015261260c8184612346565b905095945050505050565b600060808201905061262c6000830187612182565b612639602083018661259a565b612646604083018561259a565b818103606083015261265881846122d4565b905095945050505050565b60006080820190506126786000830187612182565b612685602083018661259a565b612692604083018561259a565b81810360608301526126a4818461237f565b905095945050505050565b600060208201905081810360008301526126c98184612191565b905092915050565b600060208201905081810360008301526126eb81846121eb565b905092915050565b600060208201905061270860008301846122c5565b92915050565b600060208201905081810360008301526127278161240e565b9050919050565b600060208201905081810360008301526127478161244e565b9050919050565b600060208201905081810360008301526127678161248e565b9050919050565b60006020820190508181036000830152612787816124ce565b9050919050565b60006020820190506127a3600083018461259a565b92915050565b6000604051905081810181811067ffffffffffffffff821117156127cc57600080fd5b8060405250919050565b600067ffffffffffffffff8211156127ed57600080fd5b602082029050602081019050919050565b600067ffffffffffffffff82111561281557600080fd5b602082029050602081019050919050565b600067ffffffffffffffff82111561283d57600080fd5b601f19601f8301169050602081019050919050565b6000602082019050919050565b6000602082019050919050565b6000602082019050919050565b60008160005260206000209050919050565b600081519050919050565b600081519050919050565b600081519050919050565b600081519050919050565b600081519050919050565b6000602082019050919050565b6000602082019050919050565b6000602082019050919050565b600082825260208201905092915050565b600082825260208201905092915050565b600082825260208201905092915050565b600082825260208201905092915050565b600082825260208201905092915050565b60006129498261295c565b9050919050565b60008115159050919050565b600073ffffffffffffffffffffffffffffffffffffffff82169050919050565b6000819050919050565b6000612991826129ae565b9050919050565b60008115159050919050565b6000819050919050565b600073ffffffffffffffffffffffffffffffffffffffff82169050919050565b6000819050919050565b82818337600083830152505050565b60005b83811015612a055780820151818401526020810190506129ea565b83811115612a14576000848401525b50505050565b6000601f19601f830116905091905056fea265627a7a7230582088f26066645d744e2bf9c84c846884a930e87651cea0d6ca835045b14812cbe16c6578706572696d656e74616cf50037",
  "source": "pragma solidity ^0.5.2;\npragma experimental ABIEncoderV2;\n\nimport \"./Assets.sol\";\n\ncontract Devices {\n\n  using Strings for *;\n\n  struct DappCtx {\n    string dappID;\n    mapping (address => UserDevices)  userDevices_;\n    mapping (bytes32 => address)  deviceHashes_;\n  }\n\n  struct UserDevices {   \n    mapping (bytes32 => Device) devices;\n    bytes32[] deviceArray;\n  } \n\n  struct Device {   \n    uint256 expirationDate;\n    uint256 assetId;\n    uint256 schemaId;\n    string dappId;\n    string description;\n  }\n\n  uint256 constant private PAGE_SIZE = 10;\n\n  mapping (bytes32 => uint[]) private dappCtxhashIndexMap_;\n  DappCtx[] private dappCtxs_;\n\n  Assets private _assets;\n  \n  constructor (address _assetsAddr) public{\n    _assets = Assets(_assetsAddr);    \n  }\n    \n  function isAllowed(bytes32 _deviceHash, string memory dappId) public  returns (bool) {\n    DappCtx storage ctx = _getDappCtx(dappId);\n    bool allowed = ctx.userDevices_[ctx.deviceHashes_[_deviceHash]].devices[_deviceHash].expirationDate > now ;\n    return allowed;\n  }\n\n  function isAllowedForAddress(address _target, bytes32 _deviceHash, string memory dappId) public  returns (bool) {\n    DappCtx storage ctx = _getDappCtx(dappId);\n    bool allowed =  (ctx.deviceHashes_[_deviceHash] == _target) && (isAllowed(_deviceHash,dappId));\n    return allowed;\n  }\n\n  function checkOwnershipMultipleAssetsForDevice(bytes32 _deviceHash, uint256[] memory _assetIds, string memory dappId) public  returns (bool[] memory) {\n    DappCtx storage ctx = _getDappCtx(dappId);\n    //require(ctx.deviceHashes_[_deviceHash] != address(0), \"not exist\");\n    if (ctx.deviceHashes_[_deviceHash] == address(0)) {\n      bool[] memory empty  = new bool[](0); \n      return empty;\n    }\n    require(_assetIds.length > 0, \"empty assets\");\n  \n    Device memory device = ctx.userDevices_[ctx.deviceHashes_[_deviceHash]].devices[_deviceHash];\n\n    return _assets.checkOwnershipMultipleAssetsForAddress(ctx.deviceHashes_[_deviceHash],_assetIds,device.schemaId,device.dappId);\n  }\n\n  function checkOwnershipOneAssetForDevice(bytes32 _deviceHash, uint256 _assetId, string memory dappId) public  returns (bool) {\n    DappCtx storage ctx = _getDappCtx(dappId);\n    //require(ctx.deviceHashes_[_deviceHash] != address(0), \"not exist\");\n    // require returns true on failured validation.\n    if (ctx.deviceHashes_[_deviceHash] == address(0)) {\n      return false;\n    }\n    \n    Device storage device = ctx.userDevices_[ctx.deviceHashes_[_deviceHash]].devices[_deviceHash];\n\n    return _assets.checkOwnershipOneAssetForAddress(ctx.deviceHashes_[_deviceHash],_assetId,device.schemaId,device.dappId);\n  }\n\n  function getDevicesPageCount(string memory dappId) public  returns (uint256) {\n    DappCtx storage ctx = _getDappCtx(dappId);    \n    uint256 pages = ctx.userDevices_[msg.sender].deviceArray.length / PAGE_SIZE;\n    if ( (ctx.userDevices_[msg.sender].deviceArray.length % PAGE_SIZE)>0) {\n      pages++;\n    }\n    return pages;\n  }\n\n  function getDevices(uint256 _page, string memory dappId) public  returns (Device[] memory) {\n    DappCtx storage ctx = _getDappCtx(dappId); \n    Device[] memory devicesPage = new Device[](PAGE_SIZE); \n    uint256 transferIndex = PAGE_SIZE * _page - PAGE_SIZE;\n    bytes32[] memory devices = ctx.userDevices_[msg.sender].deviceArray;\n\n    if (devices.length == 0 || transferIndex > devices.length - 1) {\n      Device[] memory empty;\n      return empty;\n    }\n   \n    uint256 returnCounter = 0;\n\n    for (transferIndex; transferIndex < PAGE_SIZE * _page; transferIndex++) {\n      if (transferIndex < devices.length) {\n        devicesPage[returnCounter] = ctx.userDevices_[msg.sender].devices[devices[transferIndex]];\n      }\n      returnCounter++;\n    }\n    return devicesPage;\n  }\n\n  function getAddress(bytes32 _deviceHash, string memory dappId) public  returns (address) {\n    DappCtx storage ctx = _getDappCtx(dappId);\n    bool allowed = isAllowed(_deviceHash,dappId);\n    address ownerAddress;\n    if (allowed) {\n      ownerAddress = ctx.deviceHashes_[_deviceHash];\n    } \n    return ownerAddress;\n  }\n\n  function handshake(bytes32 _deviceHash, uint256 _assetId, uint256 _schemaId, uint256 _lifeTime, string memory _dappId) public {\n    _handshake(msg.sender, _deviceHash, _assetId, _schemaId, _lifeTime, _dappId, \"\");\n  }\n\n  function handshake(bytes32 _deviceHash, uint256 _assetId, uint256 _schemaId, uint256 _lifeTime, string memory _dappId, string memory _description) public {\n    _handshake(msg.sender, _deviceHash, _assetId, _schemaId, _lifeTime, _dappId, _description);\n  }\n\n  function removeDevice(bytes32 _deviceHash, string memory _dappId) public {\n    _removeDevice(msg.sender, _deviceHash,_dappId);\n  }\n\n    \n  function _handshake(address _owner, bytes32 _deviceHash, uint256 _assetId, uint256 _schemaId, uint256 _lifeTime, string memory _dappId, string memory _description) internal {\n    require(_assets.checkOwnershipOneAssetForAddress(_owner, _assetId, _schemaId, _dappId),\"not allowed\");\n    DappCtx storage ctx = _getDappCtx(_dappId);\n\n    if ((ctx.deviceHashes_[_deviceHash] != address(0)) && (!isAllowed(_deviceHash,_dappId))) {\n      _removeDevice(ctx.deviceHashes_[_deviceHash], _deviceHash,_dappId);\n    }\n\n    require(ctx.deviceHashes_[_deviceHash] == address(0), \"duplicated hash\");\n    ctx.deviceHashes_[_deviceHash] = _owner; \n    ctx.userDevices_[_owner].devices[_deviceHash] =  Device(_lifeTime, _assetId, _schemaId, _dappId, _description);\n    ctx.userDevices_[_owner].deviceArray.push(_deviceHash);\n  }\n\n  function _removeDevice(address _owner, bytes32 _deviceHash, string memory _dappId) internal {\n    DappCtx storage ctx = _getDappCtx(_dappId);\n    require(ctx.deviceHashes_[_deviceHash] == _owner, \"same owner\");\n    delete ctx.deviceHashes_[_deviceHash];\n    delete ctx.userDevices_[_owner].devices[_deviceHash];\n    bool found=false;\n    for (uint i = 0; i < ctx.userDevices_[_owner].deviceArray.length-1;i++){\n      if(found || (ctx.userDevices_[_owner].deviceArray[i] == _deviceHash)){\n        found= true;\n        ctx.userDevices_[_owner].deviceArray[i] = ctx.userDevices_[_owner].deviceArray[i+1];\n      }\n    }\n    ctx.userDevices_[_owner].deviceArray.length--;\n  }\n\n  function _getDappCtx(string memory dappId) internal returns (DappCtx storage) {\n    bytes32 dappIdHash = keccak256(bytes(dappId));\n    uint[] memory indexArray = dappCtxhashIndexMap_[dappIdHash];\n\n    if (indexArray.length > 0) {\n      // hash collision check\n      for (uint i = 0 ; i < indexArray.length ; i++) {\n        if (dappId.toSlice().equals(dappCtxs_[indexArray[i]].dappID.toSlice())) {\n          return dappCtxs_[indexArray[i]];\n        }\n      }\n    }\n\n    dappCtxs_.push(DappCtx(dappId));\n    uint dappIndex = dappCtxs_.length-1;\n\n    dappCtxhashIndexMap_[dappIdHash].push(dappIndex);\n\n    return dappCtxs_[dappIndex];\n  }\n\n}",
  "sourcePath": "/home/jordi/ws/bloomenio/bloomen-wallet/bloomen-wallet-truffle/contracts/bloomen/Devices.sol",
  "compiler": {
    "name": "solc",
    "version": "0.5.7+commit.6da8b019.Emscripten.clang"
  },
  "schemaVersion": "3.0.6",
  "updatedAt": "2019-05-29T12:50:40.631Z",
  "devdoc": {
    "methods": {}
  },
  "userdoc": {
    "methods": {}
  }
}