{
  "contractName": "JsonContainer",
  "abi": [
    {
      "inputs": [],
      "payable": false,
      "stateMutability": "nonpayable",
      "type": "constructor"
    },
    {
      "constant": true,
      "inputs": [],
      "name": "isOwner",
      "outputs": [
        {
          "name": "",
          "type": "bool"
        }
      ],
      "payable": false,
      "stateMutability": "view",
      "type": "function"
    },
    {
      "constant": true,
      "inputs": [],
      "name": "getData",
      "outputs": [
        {
          "components": [
            {
              "name": "path",
              "type": "string"
            },
            {
              "name": "value",
              "type": "string"
            },
            {
              "name": "valueType",
              "type": "string"
            }
          ],
          "name": "",
          "type": "tuple[]"
        }
      ],
      "payable": false,
      "stateMutability": "view",
      "type": "function"
    },
    {
      "constant": false,
      "inputs": [
        {
          "name": "_in",
          "type": "bytes"
        }
      ],
      "name": "update",
      "outputs": [],
      "payable": false,
      "stateMutability": "nonpayable",
      "type": "function"
    },
    {
      "constant": false,
      "inputs": [
        {
          "components": [
            {
              "name": "path",
              "type": "string"
            },
            {
              "name": "value",
              "type": "string"
            },
            {
              "name": "valueType",
              "type": "string"
            }
          ],
          "name": "_data",
          "type": "tuple[]"
        }
      ],
      "name": "initialize",
      "outputs": [],
      "payable": false,
      "stateMutability": "nonpayable",
      "type": "function"
    }
  ],
  "bytecode": "0x608060405234801561001057600080fd5b5060028054600160a060020a03191632179055611893806100326000396000f3006080604052600436106100615763ffffffff7c010000000000000000000000000000000000000000000000000000000060003504166309d2213a81146100665780633bc5de30146100885780638f32d59b146100b3578063c43ed2c8146100d5575b600080fd5b34801561007257600080fd5b50610086610081366004611580565b6100f5565b005b34801561009457600080fd5b5061009d610166565b6040516100aa9190611752565b60405180910390f35b3480156100bf57600080fd5b506100c8610389565b6040516100aa919061176a565b3480156100e157600080fd5b506100866100f03660046115bd565b6103a7565b6000806101006112f1565b610108610389565b151561011357600080fd5b83519250600091505b8282101561016057838281518110151561013257fe5b906020019060200201519050610155816000015182602001518360400151610533565b60019091019061011c565b50505050565b60606001805480602002602001604051908101604052809291908181526020016000905b8282101561037f5760008481526020908190206040805160038602909201805460026001821615610100026000190190911604601f81018590049094028301608090810190925260608301848152929390928492909184918401828280156102335780601f1061020857610100808354040283529160200191610233565b820191906000526020600020905b81548152906001019060200180831161021657829003601f168201915b50505050508152602001600182018054600181600116156101000203166002900480601f0160208091040260200160405190810160405280929190818152602001828054600181600116156101000203166002900480156102d55780601f106102aa576101008083540402835291602001916102d5565b820191906000526020600020905b8154815290600101906020018083116102b857829003601f168201915b5050509183525050600282810180546040805160206001841615610100026000190190931694909404601f810183900483028501830190915280845293810193908301828280156103675780601f1061033c57610100808354040283529160200191610367565b820191906000526020600020905b81548152906001019060200180831161034a57829003601f168201915b5050505050815250508152602001906001019061018a565b5050505090505b90565b60025473ffffffffffffffffffffffffffffffffffffffff16321490565b6103af611313565b606060008060006103be610389565b15156103c957600080fd5b6103d286610980565b94506103dd856109d1565b935083519250600091505b8282101561052b5761042f610413858481518110151561040457fe5b906020019060200201516109d1565b8051600390811061042057fe5b90602001906020020151610aa4565b90508015156104b7576104b261046b61044f868581518110151561040457fe5b8051600090811061045c57fe5b90602001906020020151610ada565b61048c61047f878681518110151561040457fe5b8051600190811061045c57fe5b6104ad6104a0888781518110151561040457fe5b8051600290811061045c57fe5b610533565b610520565b80600114156104dc576104b26104d761044f868581518110151561040457fe5b610b4c565b6105206104f361044f868581518110151561040457fe5b61050761047f878681518110151561040457fe5b61051b6104a0888781518110151561040457fe5b610dab565b6001909101906103e8565b505050505050565b6000606060008060606105446112f1565b6000896040518082805190602001908083835b602083106105765780518252601f199092019160209182019101610557565b51815160209384036101000a6000190180199092169116179052604080519290940182900382206000818152808352859020805480840285018401909652858452909d5091955090935084019050828280156105f157602002820191906000526020600020905b8154815260200190600101908083116105dd575b5050505050955060008651111561073d5785519450600093505b8484101561073d576001868581518110151561062357fe5b602090810290910101518154811061063757fe5b6000918252602091829020600390910201805460408051601f60026000196101006001871615020190941693909304928301859004850281018501909152818152928301828280156106ca5780601f1061069f576101008083540402835291602001916106ca565b820191906000526020600020905b8154815290600101906020018083116106ad57829003601f168201915b505050505092506106f26106dd8b611040565b6106e685611040565b9063ffffffff61106616565b15610732576040517f08c379a000000000000000000000000000000000000000000000000000000000815260040161072990611778565b60405180910390fd5b60019093019261060b565b50506040805160608101825289815260208101899052908101879052600154600093505b808410156108c65761082061081b60018681548110151561077e57fe5b6000918252602091829020600390910201805460408051601f60026000196101006001871615020190941693909304928301859004850281018501909152818152928301828280156108115780601f106107e657610100808354040283529160200191610811565b820191906000526020600020905b8154815290600101906020018083116107f457829003601f168201915b5050505050611040565b61107c565b156108bb578160018581548110151561083557fe5b9060005260206000209060030201600082015181600001908051906020019061085f92919061132a565b506020828101518051610878926001850192019061132a565b506040820151805161089491600284019160209091019061132a565b50505060008781526020818152604082208054600181018255908352912001849055610974565b600190930192610761565b600180548082018083556000929092528351805185926003027fb10e2d527612073b26eecdfd717e6a320cf44b4afac2b0732d9fcbe2b7fa0cf601916109119183916020019061132a565b50602082810151805161092a926001850192019061132a565b506040820151805161094691600284019160209091019061132a565b5050506000888152602081815260408220600180548254918201835591845291909220600019909201910155505b50505050505050505050565b610988611313565b60008251600014156109af57604080518082019091526000808252602082015291506109cb565b5050604080518082019091528151815260208281019082018190525b50919050565b60606000806000806109e286611081565b15156109ed57600080fd5b6109f6866110b0565b935083604051908082528060200260200182016040528015610a3257816020015b610a1f611313565b815260200190600190039081610a175790505b509450610a428660200151611100565b8660200151019250600090505b83811015610a9b57610a6083611163565b91506040805190810160405280838152602001848152508582815181101515610a8557fe5b6020908102909101015291810191600101610a4f565b50505050919050565b6000806000806000610ab98660200151611100565b86516020978801518201519190039096036101000a90950495945050505050565b606060008060606000610af08660200151611100565b9350838660000151039250826040519080825280601f01601f191660200182016040528015610b29578160200160208202803883390190505b509150816020019050610b438487602001510182856111f4565b50949350505050565b600060606000806060856040518082805190602001908083835b60208310610b855780518252601f199092019160209182019101610b66565b51815160209384036101000a6000190180199092169116179052604080519290940182900382206000818152808352859020805480840285018401909652858452909b509195509093508401905082828015610c0057602002820191906000526020600020905b815481526020019060010190808311610bec575b5050505050935060008451111515610c44576040517f08c379a000000000000000000000000000000000000000000000000000000000815260040161072990611788565b83519250600091505b8282101561052b5760018483815181101515610c6557fe5b6020908102909101015181548110610c7957fe5b6000918252602091829020600390910201805460408051601f6002600019610100600187161502019094169390930492830185900485028101850190915281815292830182828015610d0c5780601f10610ce157610100808354040283529160200191610d0c565b820191906000526020600020905b815481529060010190602001808311610cef57829003601f168201915b50505050509050610d28610d1f87611040565b6106e683611040565b15610da05760018483815181101515610d3d57fe5b6020908102909101015181548110610d5157fe5b60009182526020822060039091020190610d6b82826113a8565b610d796001830160006113a8565b610d876002830160006113a8565b50506000858152602081905260408120610da0916113ef565b600190910190610c4d565b600060606000806060876040518082805190602001908083835b60208310610de45780518252601f199092019160209182019101610dc5565b51815160209384036101000a6000190180199092169116179052604080519290940182900382206000818152808352859020805480840285018401909652858452909b509195509093508401905082828015610e5f57602002820191906000526020600020905b815481526020019060010190808311610e4b575b5050505050935060008451111515610ea3576040517f08c379a000000000000000000000000000000000000000000000000000000000815260040161072990611788565b83519250600091505b828210156110365760018483815181101515610ec457fe5b6020908102909101015181548110610ed857fe5b6000918252602091829020600390910201805460408051601f6002600019610100600187161502019094169390930492830185900485028101850190915281815292830182828015610f6b5780601f10610f4057610100808354040283529160200191610f6b565b820191906000526020600020905b815481529060010190602001808311610f4e57829003601f168201915b50505050509050610f7e610d1f89611040565b1561102b576060604051908101604052808981526020018881526020018781525060018584815181101515610faf57fe5b6020908102909101015181548110610fc357fe5b90600052602060002090600302016000820151816000019080519060200190610fed92919061132a565b506020828101518051611006926001850192019061132a565b506040820151805161102291600284019160209091019061132a565b50905050611036565b600190910190610eac565b5050505050505050565b611048611313565b50604080518082019091528151815260209182019181019190915290565b6000611072838361123b565b1590505b92915050565b511590565b6020810151805160009190821a9060c060ff831610156110a457600092506110a9565b600192505b5050919050565b600080600080600092506110c78560200151611100565b6020860151865191810193500190505b808210156110f7576110e882611163565b600190930192909101906110d7565b50909392505050565b8051600090811a608081101561111957600091506109cb565b60b8811080611134575060c08110801590611134575060f881105b1561114257600191506109cb565b60c08110156111575760b519810191506109cb565b60f519810191506109cb565b8051600090811a608081101561117c57600191506109cb565b60b881101561119157607e19810191506109cb565b60c08110156111be5760b78103600184019350806020036101000a845104600182018101935050506109cb565b60f88110156111d35760be19810191506109cb565b60019290920151602083900360f7016101000a900490910160f51901919050565b60005b60208210611219578351835260209384019390920191601f19909101906111f7565b50915181516020939093036101000a6000190180199091169216919091179052565b60008060008060008060008060008a6000015197508a600001518a60000151101561126557895197505b8a60200151965089602001519550600094505b878510156112db578651865190945092508284146112c757600019915060208810156112b157600185896020030160080260020a031991505b508181168382160380156112c7578098506112e3565b602096870196958601959490940193611278565b89518b510398505b505050505050505092915050565b6060604051908101604052806060815260200160608152602001606081525090565b604080518082019091526000808252602082015290565b828054600181600116156101000203166002900490600052602060002090601f016020900481019282601f1061136b57805160ff1916838001178555611398565b82800160010185558215611398579182015b8281111561139857825182559160200191906001019061137d565b506113a4929150611409565b5090565b50805460018160011615610100020316600290046000825580601f106113ce57506113ec565b601f0160209004906000526020600020908101906113ec9190611409565b50565b50805460008255906000526020600020908101906113ec91905b61038691905b808211156113a4576000815560010161140f565b6000601f8201831361143457600080fd5b8135611447611442826117bf565b611798565b81815260209384019390925082018360005b83811015611485578135860161146f88826114de565b8452506020928301929190910190600101611459565b5050505092915050565b6000601f820183136114a057600080fd5b81356114ae611442826117e0565b915080825260208301602083018583830111156114ca57600080fd5b6114d5838284611817565b50505092915050565b6000606082840312156114f057600080fd5b6114fa6060611798565b9050813567ffffffffffffffff81111561151357600080fd5b61151f8482850161148f565b825250602082013567ffffffffffffffff81111561153c57600080fd5b6115488482850161148f565b602083015250604082013567ffffffffffffffff81111561156857600080fd5b6115748482850161148f565b60408301525092915050565b60006020828403121561159257600080fd5b813567ffffffffffffffff8111156115a957600080fd5b6115b584828501611423565b949350505050565b6000602082840312156115cf57600080fd5b813567ffffffffffffffff8111156115e657600080fd5b6115b58482850161148f565b60006115fd8261180e565b8084526020840193508360208202850161161685611808565b60005b8481101561164d5783830388526116318383516116fd565b925061163c82611808565b602098909801979150600101611619565b50909695505050505050565b61166281611812565b82525050565b60006116738261180e565b808452611687816020860160208601611823565b6116908161184f565b9093016020019392505050565b601b81527f4572726f723a207061746820616c7265616479206578697374732e0000000000602082015260400190565b601c81527f4572726f723a207061746820646f6573206e6f74206578697374732e00000000602082015260400190565b80516060808452600091908401906117158282611668565b9150506020830151848203602086015261172f8282611668565b915050604083015184820360408601526117498282611668565b95945050505050565b6020808252810161176381846115f2565b9392505050565b602081016110768284611659565b602080825281016110768161169d565b60208082528101611076816116cd565b60405181810167ffffffffffffffff811182821017156117b757600080fd5b604052919050565b600067ffffffffffffffff8211156117d657600080fd5b5060209081020190565b600067ffffffffffffffff8211156117f757600080fd5b506020601f91909101601f19160190565b60200190565b5190565b151590565b82818337506000910152565b60005b8381101561183e578181015183820152602001611826565b838111156101605750506000910152565b601f01601f1916905600a265627a7a72305820998c25ca1e723fe9b455eb109a4d0b3ce4b6749cf603ff75a98cc5f94c47b4e06c6578706572696d656e74616cf50037",
  "source": "pragma solidity 0.4.24;\npragma experimental ABIEncoderV2;\n\nimport \"./lib/Strings.sol\";\nimport \"./lib/Structs.sol\";\nimport \"../../node_modules/solidity-rlp/contracts/RLPReader.sol\";\n\n\ncontract JsonContainer is Structs {\n\n  using Strings for *;\n  using RLPReader for bytes;\n  using RLPReader for uint;\n  using RLPReader for RLPReader.RLPItem;\n\n  mapping (bytes32 => uint[]) private hashIndexMap_;\n\n  PathValue[] private data_;\n\n  address private _owner;\n\n  constructor() public {\n    _owner = tx.origin;\n  }\n\n  modifier onlyOwner() {\n    require(isOwner());\n    _;\n  }\n\n  function isOwner() public view returns(bool) {\n    return tx.origin == _owner;\n  }\n\n  function getData() public view returns (PathValue[]) {\n    return data_;\n  }\n\n  function update(bytes memory _in) onlyOwner public {\n    RLPReader.RLPItem memory item = _in.toRlpItem();\n    RLPReader.RLPItem[] memory itemList = item.toList();\n    uint listLength = itemList.length;\n    for (uint i = 0; i < listLength; i++) {\n      uint difference = itemList[i].toList()[3].toUint();\n      if (difference == 0) { //addition\n        _addPath(string(itemList[i].toList()[0].toBytes()), string(itemList[i].toList()[1].toBytes()), string(itemList[i].toList()[2].toBytes()));\n      } else if (difference == 1) { //deletion\n        _deletePath(string(itemList[i].toList()[0].toBytes()));\n      } else { //modification\n        _modifyPath(string(itemList[i].toList()[0].toBytes()), string(itemList[i].toList()[1].toBytes()), string(itemList[i].toList()[2].toBytes()));\n      }\n    }\n  }\n\n  function initialize(PathValue[] _data) onlyOwner  public {\n    uint dataLength = _data.length;\n    for (uint i = 0;i < dataLength; i++) {\n      PathValue memory pathValue = _data[i];\n      _addPath(pathValue.path, pathValue.value, pathValue.valueType);\n    }\n  }\n\n  function _addPath(string _path, string _value, string _valueType) internal {\n    bytes32 pathHash = keccak256(bytes(_path));\n    uint[] memory indexArray = hashIndexMap_[pathHash];\n    if (indexArray.length > 0) {\n      uint indexLength = indexArray.length;\n      for (uint i = 0; i < indexLength; i++) {\n        string memory storedPath = data_[indexArray[i]].path;\n        require(!storedPath.toSlice().equals(_path.toSlice()), \"Error: path already exists.\");\n      }\n    }\n    PathValue memory pathValue = PathValue(_path, _value, _valueType);\n    uint dataLength = data_.length;\n    for (i = 0; i < dataLength; i++) {\n      if (data_[i].path.toSlice().empty()) {\n        data_[i] = pathValue;\n        hashIndexMap_[pathHash].push(i);\n        return;\n      }\n    }\n    data_.push(pathValue);\n    hashIndexMap_[pathHash].push(data_.length - 1); \n  }\n\n  function _deletePath(string _path) internal {\n    bytes32 pathHash = keccak256(bytes(_path));\n    uint[] memory indexArray = hashIndexMap_[pathHash];\n    require(indexArray.length > 0, \"Error: path does not exists.\");\n    uint indexLength = indexArray.length;\n    for (uint i = 0; i < indexLength; i++) {\n      string memory storedPath = data_[indexArray[i]].path;\n      if (storedPath.toSlice().equals(_path.toSlice())) {\n        delete data_[indexArray[i]];\n        delete hashIndexMap_[pathHash];\n      }\n    }\n  }\n\n  function _modifyPath(string _path, string _value, string _valueType) internal {\n    bytes32 pathHash = keccak256(bytes(_path));\n    uint[] memory indexArray = hashIndexMap_[pathHash];\n    require(indexArray.length > 0, \"Error: path does not exists.\");\n    uint indexLength = indexArray.length;\n    for (uint i = 0; i < indexLength; i++) {\n      string memory storedPath = data_[indexArray[i]].path;\n      if (storedPath.toSlice().equals(_path.toSlice())) {\n        data_[indexArray[i]] = PathValue(_path, _value, _valueType);\n        return;\n      }\n    }\n  }\n\n}",
  "sourcePath": "/home/jordi/ws/bloomenApp/bloomen-wallet-truffle/contracts/jsw/JsonContainer.sol",
  "compiler": {
    "name": "solc",
    "version": "0.4.24+commit.e67f0147.Emscripten.clang"
  },
  "schemaVersion": "2.0.1",
  "updatedAt": "2019-04-17T13:16:01.486Z"
}