{
  "contractName": "PrepaidCardManager",
  "abi": [
    {
      "constant": false,
      "inputs": [
        {
          "name": "account",
          "type": "address"
        }
      ],
      "name": "addWhitelisted",
      "outputs": [],
      "payable": false,
      "stateMutability": "nonpayable",
      "type": "function",
      "signature": "0x10154bad"
    },
    {
      "constant": false,
      "inputs": [
        {
          "name": "account",
          "type": "address"
        }
      ],
      "name": "removeWhitelisted",
      "outputs": [],
      "payable": false,
      "stateMutability": "nonpayable",
      "type": "function",
      "signature": "0x291d9549"
    },
    {
      "constant": true,
      "inputs": [
        {
          "name": "account",
          "type": "address"
        }
      ],
      "name": "isWhitelisted",
      "outputs": [
        {
          "name": "",
          "type": "bool"
        }
      ],
      "payable": false,
      "stateMutability": "view",
      "type": "function",
      "signature": "0x3af32abf"
    },
    {
      "constant": false,
      "inputs": [],
      "name": "renounceWhitelistAdmin",
      "outputs": [],
      "payable": false,
      "stateMutability": "nonpayable",
      "type": "function",
      "signature": "0x4c5a628c"
    },
    {
      "constant": false,
      "inputs": [
        {
          "name": "account",
          "type": "address"
        }
      ],
      "name": "addWhitelistAdmin",
      "outputs": [],
      "payable": false,
      "stateMutability": "nonpayable",
      "type": "function",
      "signature": "0x7362d9c8"
    },
    {
      "constant": true,
      "inputs": [
        {
          "name": "account",
          "type": "address"
        }
      ],
      "name": "isSigner",
      "outputs": [
        {
          "name": "",
          "type": "bool"
        }
      ],
      "payable": false,
      "stateMutability": "view",
      "type": "function",
      "signature": "0x7df73e27"
    },
    {
      "constant": true,
      "inputs": [
        {
          "name": "account",
          "type": "address"
        }
      ],
      "name": "isWhitelistAdmin",
      "outputs": [
        {
          "name": "",
          "type": "bool"
        }
      ],
      "payable": false,
      "stateMutability": "view",
      "type": "function",
      "signature": "0xbb5f747b"
    },
    {
      "constant": false,
      "inputs": [],
      "name": "renounceWhitelisted",
      "outputs": [],
      "payable": false,
      "stateMutability": "nonpayable",
      "type": "function",
      "signature": "0xd6cd9473"
    },
    {
      "constant": false,
      "inputs": [],
      "name": "renounceSigner",
      "outputs": [],
      "payable": false,
      "stateMutability": "nonpayable",
      "type": "function",
      "signature": "0xe5c8b03d"
    },
    {
      "constant": false,
      "inputs": [
        {
          "name": "account",
          "type": "address"
        }
      ],
      "name": "addSigner",
      "outputs": [],
      "payable": false,
      "stateMutability": "nonpayable",
      "type": "function",
      "signature": "0xeb12d61e"
    },
    {
      "inputs": [
        {
          "name": "_erc223Addr",
          "type": "address"
        }
      ],
      "payable": false,
      "stateMutability": "nonpayable",
      "type": "constructor",
      "signature": "constructor"
    },
    {
      "anonymous": false,
      "inputs": [
        {
          "indexed": true,
          "name": "owner",
          "type": "address"
        },
        {
          "indexed": false,
          "name": "cardId",
          "type": "uint256"
        },
        {
          "indexed": true,
          "name": "user",
          "type": "address"
        }
      ],
      "name": "CardValidated",
      "type": "event",
      "signature": "0x80de5a7d3e27e32cfffc07551af7c9ee302a01b5456991722d7ef54193eab356"
    },
    {
      "anonymous": false,
      "inputs": [
        {
          "indexed": true,
          "name": "account",
          "type": "address"
        }
      ],
      "name": "WhitelistedAdded",
      "type": "event",
      "signature": "0xee1504a83b6d4a361f4c1dc78ab59bfa30d6a3b6612c403e86bb01ef2984295f"
    },
    {
      "anonymous": false,
      "inputs": [
        {
          "indexed": true,
          "name": "account",
          "type": "address"
        }
      ],
      "name": "WhitelistedRemoved",
      "type": "event",
      "signature": "0x270d9b30cf5b0793bbfd54c9d5b94aeb49462b8148399000265144a8722da6b6"
    },
    {
      "anonymous": false,
      "inputs": [
        {
          "indexed": true,
          "name": "account",
          "type": "address"
        }
      ],
      "name": "WhitelistAdminAdded",
      "type": "event",
      "signature": "0x22380c05984257a1cb900161c713dd71d39e74820f1aea43bd3f1bdd20961299"
    },
    {
      "anonymous": false,
      "inputs": [
        {
          "indexed": true,
          "name": "account",
          "type": "address"
        }
      ],
      "name": "WhitelistAdminRemoved",
      "type": "event",
      "signature": "0x0a8eb35e5ca14b3d6f28e4abf2f128dbab231a58b56e89beb5d636115001e165"
    },
    {
      "anonymous": false,
      "inputs": [
        {
          "indexed": true,
          "name": "account",
          "type": "address"
        }
      ],
      "name": "SignerAdded",
      "type": "event",
      "signature": "0x47d1c22a25bb3a5d4e481b9b1e6944c2eade3181a0a20b495ed61d35b5323f24"
    },
    {
      "anonymous": false,
      "inputs": [
        {
          "indexed": true,
          "name": "account",
          "type": "address"
        }
      ],
      "name": "SignerRemoved",
      "type": "event",
      "signature": "0x3525e22824a8a7df2c9a6029941c824cf95b6447f1e13d5128fd3826d35afe8b"
    },
    {
      "constant": true,
      "inputs": [
        {
          "name": "_cardId",
          "type": "uint256"
        }
      ],
      "name": "getCard",
      "outputs": [
        {
          "name": "cardId",
          "type": "uint256"
        },
        {
          "name": "owner",
          "type": "address"
        },
        {
          "name": "tokens",
          "type": "uint256"
        },
        {
          "name": "active",
          "type": "bool"
        }
      ],
      "payable": false,
      "stateMutability": "view",
      "type": "function",
      "signature": "0x9188d312"
    },
    {
      "constant": false,
      "inputs": [
        {
          "name": "_cardId",
          "type": "uint256"
        },
        {
          "name": "_tokens",
          "type": "uint256"
        },
        {
          "name": "_hash",
          "type": "bytes32"
        }
      ],
      "name": "addCard",
      "outputs": [],
      "payable": false,
      "stateMutability": "nonpayable",
      "type": "function",
      "signature": "0x8a984385"
    },
    {
      "constant": false,
      "inputs": [
        {
          "name": "_cardId",
          "type": "uint256"
        }
      ],
      "name": "activateCard",
      "outputs": [],
      "payable": false,
      "stateMutability": "nonpayable",
      "type": "function",
      "signature": "0x7e09ef42"
    },
    {
      "constant": false,
      "inputs": [
        {
          "name": "_secret",
          "type": "bytes"
        }
      ],
      "name": "validateCard",
      "outputs": [],
      "payable": false,
      "stateMutability": "nonpayable",
      "type": "function",
      "signature": "0xc1debea4"
    }
  ],
  "bytecode": "0x60806040523480156200001157600080fd5b5060405160208062001b608339810180604052620000339190810190620002eb565b6200004d33620000af640100000000026401000000009004565b620000673362000119640100000000026401000000009004565b80600560006101000a81548173ffffffffffffffffffffffffffffffffffffffff021916908373ffffffffffffffffffffffffffffffffffffffff160217905550506200034b565b620000d3816000620001836401000000000262000ec2179091906401000000009004565b8073ffffffffffffffffffffffffffffffffffffffff167f47d1c22a25bb3a5d4e481b9b1e6944c2eade3181a0a20b495ed61d35b5323f2460405160405180910390a250565b6200013d816001620001836401000000000262000ec2179091906401000000009004565b8073ffffffffffffffffffffffffffffffffffffffff167f22380c05984257a1cb900161c713dd71d39e74820f1aea43bd3f1bdd2096129960405160405180910390a250565b600073ffffffffffffffffffffffffffffffffffffffff168173ffffffffffffffffffffffffffffffffffffffff161415620001be57600080fd5b620001d9828262000242640100000000026401000000009004565b15620001e457600080fd5b60018260000160008373ffffffffffffffffffffffffffffffffffffffff1673ffffffffffffffffffffffffffffffffffffffff16815260200190815260200160002060006101000a81548160ff0219169083151502179055505050565b60008073ffffffffffffffffffffffffffffffffffffffff168273ffffffffffffffffffffffffffffffffffffffff1614156200027e57600080fd5b8260000160008373ffffffffffffffffffffffffffffffffffffffff1673ffffffffffffffffffffffffffffffffffffffff16815260200190815260200160002060009054906101000a900460ff16905092915050565b6000620002e3825162000317565b905092915050565b600060208284031215620002fe57600080fd5b60006200030e84828501620002d5565b91505092915050565b600062000324826200032b565b9050919050565b600073ffffffffffffffffffffffffffffffffffffffff82169050919050565b611805806200035b6000396000f3fe608060405234801561001057600080fd5b5060043610610107576000357c0100000000000000000000000000000000000000000000000000000000900480638a984385116100a9578063c1debea411610083578063c1debea414610265578063d6cd947314610281578063e5c8b03d1461028b578063eb12d61e1461029557610107565b80638a984385146101e65780639188d31214610202578063bb5f747b1461023557610107565b80634c5a628c116100e55780634c5a628c146101745780637362d9c81461017e5780637df73e271461019a5780637e09ef42146101ca57610107565b806310154bad1461010c578063291d9549146101285780633af32abf14610144575b600080fd5b6101266004803603610121919081019061110e565b6102b1565b005b610142600480360361013d919081019061110e565b6102cf565b005b61015e6004803603610159919081019061110e565b6102ed565b60405161016b91906114e7565b60405180910390f35b61017c61030a565b005b6101986004803603610193919081019061110e565b610315565b005b6101b460048036036101af919081019061110e565b610333565b6040516101c191906114e7565b60405180910390f35b6101e460048036036101df91908101906111a1565b610350565b005b61020060048036036101fb91908101906111ca565b610459565b005b61021c600480360361021791908101906111a1565b610781565b60405161022c949392919061163d565b60405180910390f35b61024f600480360361024a919081019061110e565b61087a565b60405161025c91906114e7565b60405180910390f35b61027f600480360361027a9190810190611160565b610897565b005b610289610be0565b005b610293610beb565b005b6102af60048036036102aa919081019061110e565b610bf6565b005b6102ba3361087a565b6102c357600080fd5b6102cc81610c14565b50565b6102d83361087a565b6102e157600080fd5b6102ea81610c6e565b50565b6000610303826002610cc890919063ffffffff16565b9050919050565b61031333610d5a565b565b61031e3361087a565b61032757600080fd5b61033081610db4565b50565b6000610349826000610cc890919063ffffffff16565b9050919050565b8060006003600083815260200190815260200160002060040154116103aa576040517f08c379a00000000000000000000000000000000000000000000000000000000081526004016103a190611582565b60405180910390fd5b6103b333610333565b6103bc57600080fd5b600015156003600084815260200190815260200160002060030160009054906101000a900460ff16151514610426576040517f08c379a000000000000000000000000000000000000000000000000000000000815260040161041d90611602565b60405180910390fd5b60016003600084815260200190815260200160002060030160006101000a81548160ff0219169083151502179055505050565b610462336102ed565b61046b57600080fd5b600082116104ae576040517f08c379a00000000000000000000000000000000000000000000000000000000081526004016104a5906115e2565b60405180910390fd5b600083116104f1576040517f08c379a00000000000000000000000000000000000000000000000000000000081526004016104e890611522565b60405180910390fd5b600060036000858152602001908152602001600020600401541461054a576040517f08c379a0000000000000000000000000000000000000000000000000000000008152600401610541906115c2565b60405180910390fd5b60006004600083815260200190815260200160002054146105a0576040517f08c379a000000000000000000000000000000000000000000000000000000000815260040161059790611502565b60405180910390fd5b600560009054906101000a900473ffffffffffffffffffffffffffffffffffffffff1673ffffffffffffffffffffffffffffffffffffffff166340c10f1930846040518363ffffffff167c01000000000000000000000000000000000000000000000000000000000281526004016106199291906114be565b602060405180830381600087803b15801561063357600080fd5b505af1158015610647573d6000803e3d6000fd5b505050506040513d601f19601f8201168201806040525061066b9190810190611137565b50610674611019565b6040518060c001604052808381526020018581526020018481526020016000151581526020013373ffffffffffffffffffffffffffffffffffffffff16815260200160018152509050806003600086815260200190815260200160002060008201518160000155602082015181600101556040820151816002015560608201518160030160006101000a81548160ff02191690831515021790555060808201518160030160016101000a81548173ffffffffffffffffffffffffffffffffffffffff021916908373ffffffffffffffffffffffffffffffffffffffff16021790555060a0820151816004015590505083600460008481526020019081526020016000208190555050505050565b6000806000808460006003600083815260200190815260200160002060040154116107e1576040517f08c379a00000000000000000000000000000000000000000000000000000000081526004016107d890611582565b60405180910390fd5b60036000878152602001908152602001600020600101546003600088815260200190815260200160002060030160019054906101000a900473ffffffffffffffffffffffffffffffffffffffff166003600089815260200190815260200160002060020154600360008a815260200190815260200160002060030160009054906101000a900460ff169450945094509450509193509193565b6000610890826001610cc890919063ffffffff16565b9050919050565b600081805190602001209050600060046000838152602001908152602001600020549050600081116108fe576040517f08c379a00000000000000000000000000000000000000000000000000000000081526004016108f5906115a2565b60405180910390fd5b600115156003600083815260200190815260200160002060030160009054906101000a900460ff16151514610968576040517f08c379a000000000000000000000000000000000000000000000000000000000815260040161095f90611562565b60405180910390fd5b816003600083815260200190815260200160002060000154146109c0576040517f08c379a00000000000000000000000000000000000000000000000000000000081526004016109b790611542565b60405180910390fd5b600560009054906101000a900473ffffffffffffffffffffffffffffffffffffffff1673ffffffffffffffffffffffffffffffffffffffff1663a9059cbb3360036000858152602001908152602001600020600201546040518363ffffffff167c0100000000000000000000000000000000000000000000000000000000028152600401610a4f929190611495565b602060405180830381600087803b158015610a6957600080fd5b505af1158015610a7d573d6000803e3d6000fd5b505050506040513d601f19601f82011682018060405250610aa19190810190611137565b503373ffffffffffffffffffffffffffffffffffffffff166003600083815260200190815260200160002060030160019054906101000a900473ffffffffffffffffffffffffffffffffffffffff1673ffffffffffffffffffffffffffffffffffffffff167f80de5a7d3e27e32cfffc07551af7c9ee302a01b5456991722d7ef54193eab3566003600085815260200190815260200160002060010154604051610b4b9190611622565b60405180910390a3600460008381526020019081526020016000206000905560036000828152602001908152602001600020600080820160009055600182016000905560028201600090556003820160006101000a81549060ff02191690556003820160016101000a81549073ffffffffffffffffffffffffffffffffffffffff021916905560048201600090555050505050565b610be933610c6e565b565b610bf433610e0e565b565b610bff33610333565b610c0857600080fd5b610c1181610e68565b50565b610c28816002610ec290919063ffffffff16565b8073ffffffffffffffffffffffffffffffffffffffff167fee1504a83b6d4a361f4c1dc78ab59bfa30d6a3b6612c403e86bb01ef2984295f60405160405180910390a250565b610c82816002610f6e90919063ffffffff16565b8073ffffffffffffffffffffffffffffffffffffffff167f270d9b30cf5b0793bbfd54c9d5b94aeb49462b8148399000265144a8722da6b660405160405180910390a250565b60008073ffffffffffffffffffffffffffffffffffffffff168273ffffffffffffffffffffffffffffffffffffffff161415610d0357600080fd5b8260000160008373ffffffffffffffffffffffffffffffffffffffff1673ffffffffffffffffffffffffffffffffffffffff16815260200190815260200160002060009054906101000a900460ff16905092915050565b610d6e816001610f6e90919063ffffffff16565b8073ffffffffffffffffffffffffffffffffffffffff167f0a8eb35e5ca14b3d6f28e4abf2f128dbab231a58b56e89beb5d636115001e16560405160405180910390a250565b610dc8816001610ec290919063ffffffff16565b8073ffffffffffffffffffffffffffffffffffffffff167f22380c05984257a1cb900161c713dd71d39e74820f1aea43bd3f1bdd2096129960405160405180910390a250565b610e22816000610f6e90919063ffffffff16565b8073ffffffffffffffffffffffffffffffffffffffff167f3525e22824a8a7df2c9a6029941c824cf95b6447f1e13d5128fd3826d35afe8b60405160405180910390a250565b610e7c816000610ec290919063ffffffff16565b8073ffffffffffffffffffffffffffffffffffffffff167f47d1c22a25bb3a5d4e481b9b1e6944c2eade3181a0a20b495ed61d35b5323f2460405160405180910390a250565b600073ffffffffffffffffffffffffffffffffffffffff168173ffffffffffffffffffffffffffffffffffffffff161415610efc57600080fd5b610f068282610cc8565b15610f1057600080fd5b60018260000160008373ffffffffffffffffffffffffffffffffffffffff1673ffffffffffffffffffffffffffffffffffffffff16815260200190815260200160002060006101000a81548160ff0219169083151502179055505050565b600073ffffffffffffffffffffffffffffffffffffffff168173ffffffffffffffffffffffffffffffffffffffff161415610fa857600080fd5b610fb28282610cc8565b610fbb57600080fd5b60008260000160008373ffffffffffffffffffffffffffffffffffffffff1673ffffffffffffffffffffffffffffffffffffffff16815260200190815260200160002060006101000a81548160ff0219169083151502179055505050565b6040518060c00160405280600080191681526020016000815260200160008152602001600015158152602001600073ffffffffffffffffffffffffffffffffffffffff168152602001600081525090565b60006110768235611734565b905092915050565b600061108a8251611746565b905092915050565b600061109e8235611752565b905092915050565b600082601f8301126110b757600080fd5b81356110ca6110c5826116af565b611682565b915080825260208301602083018583830111156110e657600080fd5b6110f18382846117bc565b50505092915050565b6000611106823561177c565b905092915050565b60006020828403121561112057600080fd5b600061112e8482850161106a565b91505092915050565b60006020828403121561114957600080fd5b60006111578482850161107e565b91505092915050565b60006020828403121561117257600080fd5b600082013567ffffffffffffffff81111561118c57600080fd5b611198848285016110a6565b91505092915050565b6000602082840312156111b357600080fd5b60006111c1848285016110fa565b91505092915050565b6000806000606084860312156111df57600080fd5b60006111ed868287016110fa565b93505060206111fe868287016110fa565b925050604061120f86828701611092565b9150509250925092565b61122281611786565b82525050565b611231816116ec565b82525050565b611240816116fe565b82525050565b6000611253600f836116db565b91507f6475706c6963617465645f6861736800000000000000000000000000000000006000830152602082019050919050565b60006112936010836116db565b91507f6e6f5f76616c69645f636172645f6964000000000000000000000000000000006000830152602082019050919050565b60006112d3600c836116db565b91507f77726f6e675f73656372657400000000000000000000000000000000000000006000830152602082019050919050565b6000611313600a836116db565b91507f6e6f745f616374697665000000000000000000000000000000000000000000006000830152602082019050919050565b60006113536009836116db565b91507f6e6f745f657869737400000000000000000000000000000000000000000000006000830152602082019050919050565b6000611393600e836116db565b91507f686173685f6e6f745f666f756e640000000000000000000000000000000000006000830152602082019050919050565b60006113d3600a836116db565b91507f636172645f6578697374000000000000000000000000000000000000000000006000830152602082019050919050565b6000611413600c836116db565b91507f656d7074795f746f6b656e7300000000000000000000000000000000000000006000830152602082019050919050565b6000611453600f836116db565b91507f6e6f745f6163746976617461626c6500000000000000000000000000000000006000830152602082019050919050565b61148f8161172a565b82525050565b60006040820190506114aa6000830185611219565b6114b76020830184611486565b9392505050565b60006040820190506114d36000830185611228565b6114e06020830184611486565b9392505050565b60006020820190506114fc6000830184611237565b92915050565b6000602082019050818103600083015261151b81611246565b9050919050565b6000602082019050818103600083015261153b81611286565b9050919050565b6000602082019050818103600083015261155b816112c6565b9050919050565b6000602082019050818103600083015261157b81611306565b9050919050565b6000602082019050818103600083015261159b81611346565b9050919050565b600060208201905081810360008301526115bb81611386565b9050919050565b600060208201905081810360008301526115db816113c6565b9050919050565b600060208201905081810360008301526115fb81611406565b9050919050565b6000602082019050818103600083015261161b81611446565b9050919050565b60006020820190506116376000830184611486565b92915050565b60006080820190506116526000830187611486565b61165f6020830186611228565b61166c6040830185611486565b6116796060830184611237565b95945050505050565b6000604051905081810181811067ffffffffffffffff821117156116a557600080fd5b8060405250919050565b600067ffffffffffffffff8211156116c657600080fd5b601f19601f8301169050602081019050919050565b600082825260208201905092915050565b60006116f78261170a565b9050919050565b60008115159050919050565b600073ffffffffffffffffffffffffffffffffffffffff82169050919050565b6000819050919050565b600061173f8261175c565b9050919050565b60008115159050919050565b6000819050919050565b600073ffffffffffffffffffffffffffffffffffffffff82169050919050565b6000819050919050565b600061179182611798565b9050919050565b60006117a3826117aa565b9050919050565b60006117b58261170a565b9050919050565b8281833760008383015250505056fea265627a7a72305820b006d53dcb652d51f6f65d1a6d16e4032fd8abe024e6d542a1e8aef2707b84b26c6578706572696d656e74616cf50037",
  "source": "pragma solidity ^0.5.2;\npragma experimental ABIEncoderV2;\n\nimport \"../../node_modules/openzeppelin-solidity/contracts/math/SafeMath.sol\";\nimport \"../../node_modules/openzeppelin-solidity/contracts/access/roles/SignerRole.sol\";\nimport \"../../node_modules/openzeppelin-solidity/contracts/access/roles/WhitelistedRole.sol\";\nimport \"./Devices.sol\";\nimport \"./token/ERC223.sol\";\n\ncontract PrepaidCardManager is SignerRole, WhitelistedRole {\n  using SafeMath for uint256;\n\n  event CardValidated(\n    address indexed owner,\n    uint256 cardId,\n    address indexed user\n  );\n\n  struct Card {\n    bytes32 hash;\n    uint256 cardId;  \n    uint256 tokens;\n    bool active;\n    address owner;\n    uint initialized;\n  }\n\n  mapping (uint256 => Card) private cards_;\n  mapping (bytes32 => uint256) private cardsByHash_;\n\n  modifier cardExists(uint256 _cardId) {\n    require(cards_[_cardId].initialized > 0, \"not_exist\");\n    _;\n  }\n  \n  ERC223 private _erc223;\n  \n  constructor (address _erc223Addr) public{\n    _erc223 = ERC223(_erc223Addr);    \n  }\n\n  function getCard(uint256 _cardId) cardExists(_cardId) public view returns(uint256 cardId, address owner, uint256 tokens, bool active)  {\n    return (cards_[_cardId].cardId, cards_[_cardId].owner, cards_[_cardId].tokens, cards_[_cardId].active);\n  }\n\n  function addCard(uint256 _cardId, uint256 _tokens, bytes32 _hash) onlyWhitelisted public {\n    require(_tokens > 0, \"empty_tokens\");\n    require(_cardId > 0, \"no_valid_card_id\");\n    require(cards_[_cardId].initialized == 0, \"card_exist\");\n    require(cardsByHash_[_hash] == 0, \"duplicated_hash\");\n\n    _erc223.mint(address(this),_tokens);\n    Card memory newCard = Card(_hash, _cardId, _tokens, false, msg.sender, 1);\n    cards_[_cardId] = newCard;   \n    cardsByHash_[_hash] = _cardId;\n  }\n\n  function activateCard(uint256 _cardId) cardExists(_cardId) onlySigner public {\n    require(cards_[_cardId].active == false, \"not_activatable\");\n    cards_[_cardId].active=true;    \n  }\n\n  function validateCard(bytes memory _secret) public {\n    bytes32 hash = keccak256(_secret);\n    uint256 cardId = cardsByHash_[hash];\n    require(cardId > 0, \"hash_not_found\");\n    require(cards_[cardId].active == true, \"not_active\");\n    require(cards_[cardId].hash ==  hash, \"wrong_secret\");\n  \n    _erc223.transfer( msg.sender,cards_[cardId].tokens);\n\n    emit CardValidated(cards_[cardId].owner, cards_[cardId].cardId, msg.sender);\n  \n    delete cardsByHash_[hash];\n    delete cards_[cardId];\n  }\n\n}",
  "sourcePath": "/home/jordi/ws/jordiescudero/bloomen-wallet/bloomen-wallet-truffle/contracts/bloomen/PrepaidCardManager.sol",
  "compiler": {
    "name": "solc",
    "version": "0.5.7+commit.6da8b019.Emscripten.clang"
  },
  "schemaVersion": "3.0.6",
  "updatedAt": "2019-04-24T09:22:45.851Z",
  "devdoc": {
    "methods": {}
  },
  "userdoc": {
    "methods": {}
  }
}