{
  "contractName": "Schemas",
  "abi": [
    {
      "constant": false,
      "inputs": [
        {
          "name": "account",
          "type": "address"
        }
      ],
      "name": "addWhitelisted",
      "outputs": [],
      "payable": false,
      "stateMutability": "nonpayable",
      "type": "function",
      "signature": "0x10154bad"
    },
    {
      "constant": false,
      "inputs": [
        {
          "name": "account",
          "type": "address"
        }
      ],
      "name": "removeWhitelisted",
      "outputs": [],
      "payable": false,
      "stateMutability": "nonpayable",
      "type": "function",
      "signature": "0x291d9549"
    },
    {
      "constant": true,
      "inputs": [
        {
          "name": "account",
          "type": "address"
        }
      ],
      "name": "isWhitelisted",
      "outputs": [
        {
          "name": "",
          "type": "bool"
        }
      ],
      "payable": false,
      "stateMutability": "view",
      "type": "function",
      "signature": "0x3af32abf"
    },
    {
      "constant": false,
      "inputs": [],
      "name": "renounceWhitelistAdmin",
      "outputs": [],
      "payable": false,
      "stateMutability": "nonpayable",
      "type": "function",
      "signature": "0x4c5a628c"
    },
    {
      "constant": false,
      "inputs": [
        {
          "name": "account",
          "type": "address"
        }
      ],
      "name": "addWhitelistAdmin",
      "outputs": [],
      "payable": false,
      "stateMutability": "nonpayable",
      "type": "function",
      "signature": "0x7362d9c8"
    },
    {
      "constant": true,
      "inputs": [
        {
          "name": "account",
          "type": "address"
        }
      ],
      "name": "isWhitelistAdmin",
      "outputs": [
        {
          "name": "",
          "type": "bool"
        }
      ],
      "payable": false,
      "stateMutability": "view",
      "type": "function",
      "signature": "0xbb5f747b"
    },
    {
      "constant": false,
      "inputs": [],
      "name": "renounceWhitelisted",
      "outputs": [],
      "payable": false,
      "stateMutability": "nonpayable",
      "type": "function",
      "signature": "0xd6cd9473"
    },
    {
      "anonymous": false,
      "inputs": [
        {
          "indexed": true,
          "name": "account",
          "type": "address"
        }
      ],
      "name": "WhitelistedAdded",
      "type": "event",
      "signature": "0xee1504a83b6d4a361f4c1dc78ab59bfa30d6a3b6612c403e86bb01ef2984295f"
    },
    {
      "anonymous": false,
      "inputs": [
        {
          "indexed": true,
          "name": "account",
          "type": "address"
        }
      ],
      "name": "WhitelistedRemoved",
      "type": "event",
      "signature": "0x270d9b30cf5b0793bbfd54c9d5b94aeb49462b8148399000265144a8722da6b6"
    },
    {
      "anonymous": false,
      "inputs": [
        {
          "indexed": true,
          "name": "account",
          "type": "address"
        }
      ],
      "name": "WhitelistAdminAdded",
      "type": "event",
      "signature": "0x22380c05984257a1cb900161c713dd71d39e74820f1aea43bd3f1bdd20961299"
    },
    {
      "anonymous": false,
      "inputs": [
        {
          "indexed": true,
          "name": "account",
          "type": "address"
        }
      ],
      "name": "WhitelistAdminRemoved",
      "type": "event",
      "signature": "0x0a8eb35e5ca14b3d6f28e4abf2f128dbab231a58b56e89beb5d636115001e165"
    },
    {
      "constant": true,
      "inputs": [
        {
          "name": "_schemaId",
          "type": "uint256"
        }
      ],
      "name": "getSchema",
      "outputs": [
        {
          "components": [
            {
              "name": "expirationDate",
              "type": "uint256"
            },
            {
              "name": "schemaId",
              "type": "uint256"
            },
            {
              "name": "amount",
              "type": "uint256"
            },
            {
              "name": "assetLifeTime",
              "type": "uint256"
            },
            {
              "components": [
                {
                  "name": "percent",
                  "type": "uint256"
                },
                {
                  "name": "receptor",
                  "type": "address"
                },
                {
                  "name": "description",
                  "type": "string"
                }
              ],
              "name": "clearingHouseRules",
              "type": "tuple[]"
            },
            {
              "name": "valid",
              "type": "bool"
            }
          ],
          "name": "",
          "type": "tuple"
        }
      ],
      "payable": false,
      "stateMutability": "view",
      "type": "function",
      "signature": "0x2b26fb29"
    },
    {
      "constant": true,
      "inputs": [],
      "name": "getSchemas",
      "outputs": [
        {
          "name": "",
          "type": "uint256[]"
        }
      ],
      "payable": false,
      "stateMutability": "view",
      "type": "function",
      "signature": "0x95ba8d18"
    },
    {
      "constant": false,
      "inputs": [
        {
          "name": "_schemaId",
          "type": "uint256"
        },
        {
          "name": "_data",
          "type": "bytes"
        }
      ],
      "name": "createSchema",
      "outputs": [],
      "payable": false,
      "stateMutability": "nonpayable",
      "type": "function",
      "signature": "0xa2086dab"
    },
    {
      "constant": false,
      "inputs": [
        {
          "name": "_schemaId",
          "type": "uint256"
        }
      ],
      "name": "invalidateSchema",
      "outputs": [],
      "payable": false,
      "stateMutability": "nonpayable",
      "type": "function",
      "signature": "0x5a16f5c4"
    },
    {
      "constant": false,
      "inputs": [
        {
          "name": "_schemaId",
          "type": "uint256"
        }
      ],
      "name": "validateSchema",
      "outputs": [],
      "payable": false,
      "stateMutability": "nonpayable",
      "type": "function",
      "signature": "0x4014d468"
    }
  ],
  "bytecode": "0x60806040526200001e3362000024640100000000026401000000009004565b620001e0565b620000488160006200008e6401000000000262000c87179091906401000000009004565b8073ffffffffffffffffffffffffffffffffffffffff167f22380c05984257a1cb900161c713dd71d39e74820f1aea43bd3f1bdd2096129960405160405180910390a250565b600073ffffffffffffffffffffffffffffffffffffffff168173ffffffffffffffffffffffffffffffffffffffff161415620000c957600080fd5b620000e482826200014d640100000000026401000000009004565b15620000ef57600080fd5b60018260000160008373ffffffffffffffffffffffffffffffffffffffff1673ffffffffffffffffffffffffffffffffffffffff16815260200190815260200160002060006101000a81548160ff0219169083151502179055505050565b60008073ffffffffffffffffffffffffffffffffffffffff168273ffffffffffffffffffffffffffffffffffffffff1614156200018957600080fd5b8260000160008373ffffffffffffffffffffffffffffffffffffffff1673ffffffffffffffffffffffffffffffffffffffff16815260200190815260200160002060009054906101000a900460ff16905092915050565b611cba80620001f06000396000f3fe608060405234801561001057600080fd5b50600436106100d1576000357c0100000000000000000000000000000000000000000000000000000000900480635a16f5c41161008e5780635a16f5c4146101945780637362d9c8146101b057806395ba8d18146101cc578063a2086dab146101ea578063bb5f747b14610206578063d6cd947314610236576100d1565b806310154bad146100d6578063291d9549146100f25780632b26fb291461010e5780633af32abf1461013e5780634014d4681461016e5780634c5a628c1461018a575b600080fd5b6100f060048036036100eb91908101906114cd565b610240565b005b61010c600480360361010791908101906114cd565b61025e565b005b610128600480360361012391908101906114f6565b61027c565b6040516101359190611a95565b60405180910390f35b610158600480360361015391908101906114cd565b6104a6565b604051610165919061199a565b60405180910390f35b610188600480360361018391908101906114f6565b6104c3565b005b6101926104e3565b005b6101ae60048036036101a991908101906114f6565b6104ee565b005b6101ca60048036036101c591908101906114cd565b61050e565b005b6101d461052c565b6040516101e19190611978565b60405180910390f35b61020460048036036101ff919081019061151f565b610584565b005b610220600480360361021b91908101906114cd565b6105a4565b60405161022d919061199a565b60405180910390f35b61023e6105c1565b005b610249336105a4565b61025257600080fd5b61025b816105cc565b50565b610267336105a4565b61027057600080fd5b61027981610626565b50565b610284611340565b60006002600084815260200190815260200160002060010154116102dd576040517f08c379a00000000000000000000000000000000000000000000000000000000081526004016102d4906119d5565b60405180910390fd5b600260008381526020019081526020016000206040518060c00160405290816000820154815260200160018201548152602001600282015481526020016003820154815260200160048201805480602002602001604051908101604052809291908181526020016000905b8282101561047c5783829060005260206000209060030201604051806060016040529081600082015481526020016001820160009054906101000a900473ffffffffffffffffffffffffffffffffffffffff1673ffffffffffffffffffffffffffffffffffffffff1673ffffffffffffffffffffffffffffffffffffffff168152602001600282018054600181600116156101000203166002900480601f0160208091040260200160405190810160405280929190818152602001828054600181600116156101000203166002900480156104645780601f1061043957610100808354040283529160200191610464565b820191906000526020600020905b81548152906001019060200180831161044757829003601f168201915b50505050508152505081526020019060010190610348565b5050505081526020016005820160009054906101000a900460ff1615151515815250509050919050565b60006104bc82600161068090919063ffffffff16565b9050919050565b6104cc336104a6565b6104d557600080fd5b6104e0816001610712565b50565b6104ec33610808565b565b6104f7336104a6565b61050057600080fd5b61050b816000610712565b50565b610517336105a4565b61052057600080fd5b61052981610862565b50565b6060600380548060200260200160405190810160405280929190818152602001828054801561057a57602002820191906000526020600020905b815481526020019060010190808311610566575b5050505050905090565b61058d336104a6565b61059657600080fd5b6105a082826108bc565b5050565b60006105ba82600061068090919063ffffffff16565b9050919050565b6105ca33610626565b565b6105e0816001610c8790919063ffffffff16565b8073ffffffffffffffffffffffffffffffffffffffff167fee1504a83b6d4a361f4c1dc78ab59bfa30d6a3b6612c403e86bb01ef2984295f60405160405180910390a250565b61063a816001610d3390919063ffffffff16565b8073ffffffffffffffffffffffffffffffffffffffff167f270d9b30cf5b0793bbfd54c9d5b94aeb49462b8148399000265144a8722da6b660405160405180910390a250565b60008073ffffffffffffffffffffffffffffffffffffffff168273ffffffffffffffffffffffffffffffffffffffff1614156106bb57600080fd5b8260000160008373ffffffffffffffffffffffffffffffffffffffff1673ffffffffffffffffffffffffffffffffffffffff16815260200190815260200160002060009054906101000a900460ff16905092915050565b60006002600084815260200190815260200160002060010154141561076c576040517f08c379a0000000000000000000000000000000000000000000000000000000008152600401610763906119f5565b60405180910390fd5b8015156002600084815260200190815260200160002060050160009054906101000a900460ff16151514156107d6576040517f08c379a00000000000000000000000000000000000000000000000000000000081526004016107cd90611a55565b60405180910390fd5b806002600084815260200190815260200160002060050160006101000a81548160ff0219169083151502179055505050565b61081c816000610d3390919063ffffffff16565b8073ffffffffffffffffffffffffffffffffffffffff167f0a8eb35e5ca14b3d6f28e4abf2f128dbab231a58b56e89beb5d636115001e16560405160405180910390a250565b610876816000610c8790919063ffffffff16565b8073ffffffffffffffffffffffffffffffffffffffff167f22380c05984257a1cb900161c713dd71d39e74820f1aea43bd3f1bdd2096129960405160405180910390a250565b6000600260008481526020019081526020016000206001015414610915576040517f08c379a000000000000000000000000000000000000000000000000000000000815260040161090c90611a35565b60405180910390fd5b61091d611378565b61092682610dde565b9050606061093382610e0c565b905060006109548260008151811061094757fe5b6020026020010151610ee3565b9050428111610998576040517f08c379a000000000000000000000000000000000000000000000000000000000815260040161098f90611a15565b60405180910390fd5b60006109b7836001815181106109aa57fe5b6020026020010151610ee3565b905060006109d8846002815181106109cb57fe5b6020026020010151610ee3565b905060006109f9856003815181106109ec57fe5b6020026020010151610ee3565b90506060610a1a86600481518110610a0d57fe5b6020026020010151610e0c565b905060008151905060008090505b81811015610b95576060610a4e848381518110610a4157fe5b6020026020010151610e0c565b9050600260008881526020019081526020016000206004016040518060600160405280610a8e84600081518110610a8157fe5b6020026020010151610ee3565b8152602001610ab084600181518110610aa357fe5b6020026020010151610f54565b73ffffffffffffffffffffffffffffffffffffffff168152602001610ae884600281518110610adb57fe5b6020026020010151610f77565b815250908060018154018082558091505090600182039060005260206000209060030201600090919290919091506000820151816000015560208201518160010160006101000a81548173ffffffffffffffffffffffffffffffffffffffff021916908373ffffffffffffffffffffffffffffffffffffffff1602179055506040820151816002019080519060200190610b83929190611392565b50505050508080600101915050610a28565b50610bb460026000878152602001908152602001600020600401611003565b85600260008781526020019081526020016000206000018190555084600260008781526020019081526020016000206001018190555083600260008781526020019081526020016000206002018190555082600260008781526020019081526020016000206003018190555060016002600087815260200190815260200160002060050160006101000a81548160ff021916908315150217905550600385908060018154018082558091505090600182039060005260206000200160009091929091909150555050505050505050505050565b600073ffffffffffffffffffffffffffffffffffffffff168173ffffffffffffffffffffffffffffffffffffffff161415610cc157600080fd5b610ccb8282610680565b15610cd557600080fd5b60018260000160008373ffffffffffffffffffffffffffffffffffffffff1673ffffffffffffffffffffffffffffffffffffffff16815260200190815260200160002060006101000a81548160ff0219169083151502179055505050565b600073ffffffffffffffffffffffffffffffffffffffff168173ffffffffffffffffffffffffffffffffffffffff161415610d6d57600080fd5b610d778282610680565b610d8057600080fd5b60008260000160008373ffffffffffffffffffffffffffffffffffffffff1673ffffffffffffffffffffffffffffffffffffffff16815260200190815260200160002060006101000a81548160ff0219169083151502179055505050565b610de6611378565b600060208301905060405180604001604052808451815260200182815250915050919050565b6060610e17826110de565b610e2057600080fd5b6000610e2b8361112c565b905080604051908082528060200260200182016040528015610e6757816020015b610e54611412565b815260200190600190039081610e4c5790505b5091506000610e79846020015161119d565b8460200151019050600080600090505b83811015610eda57610e9a83611226565b9150604051806040016040528083815260200184815250858281518110610ebd57fe5b602002602001018190525081830192508080600101915050610e89565b50505050919050565b6000808260000151118015610efd57506021826000015111155b610f0657600080fd5b6000610f15836020015161119d565b90506000818460000151039050600080838660200151019050805191506020831015610f4857826020036101000a820491505b81945050505050919050565b60006015826000015114610f6757600080fd5b610f7082610ee3565b9050919050565b60606000826000015111610f8a57600080fd5b6000610f99836020015161119d565b905060008184600001510390506060816040519080825280601f01601f191660200182016040528015610fdb5781602001600182028038833980820191505090505b5090506000816020019050610ff78487602001510182856112d9565b81945050505050919050565b600081805490501161104a576040517f08c379a0000000000000000000000000000000000000000000000000000000008152600401611041906119b5565b60405180910390fd5b600081805490509050600080905060008090505b828110156110955783818154811061107257fe5b90600052602060002090600302016000015482019150808060010191505061105e565b50606481146110d9576040517f08c379a00000000000000000000000000000000000000000000000000000000081526004016110d090611a75565b60405180910390fd5b505050565b600080826000015114156110f55760009050611127565b60008083602001519050805160001a915060c060ff168260ff16101561112057600092505050611127565b6001925050505b919050565b600080826000015114156111435760009050611198565b60008090506000611157846020015161119d565b84602001510190506000846000015185602001510190505b808210156111915761118082611226565b82019150828060010193505061116f565b8293505050505b919050565b600080825160001a9050608060ff168110156111bd576000915050611221565b60b860ff168110806111e2575060c060ff1681101580156111e1575060f860ff1681105b5b156111f1576001915050611221565b60c060ff168110156112115760018060b80360ff16820301915050611221565b60018060f80360ff168203019150505b919050565b600080825160001a9050608060ff168110156112465760019150506112d4565b60b860ff16811015611264576001608060ff168203019150506112d4565b60c060ff168110156112945760b78103600184019350806020036101000a845104600182018101935050506112d2565b60f860ff168110156112b257600160c060ff168203019150506112d4565b60f78103600184019350806020036101000a845104600182018101935050505b505b919050565b60008114156112e75761133b565b5b602060ff1681106113175782518252602060ff1683019250602060ff1682019150602060ff16810390506112e8565b6000600182602060ff16036101000a03905080198451168184511681811785525050505b505050565b6040518060c0016040528060008152602001600081526020016000815260200160008152602001606081526020016000151581525090565b604051806040016040528060008152602001600081525090565b828054600181600116156101000203166002900490600052602060002090601f016020900481019282601f106113d357805160ff1916838001178555611401565b82800160010185558215611401579182015b828111156114005782518255916020019190600101906113e5565b5b50905061140e919061142c565b5090565b604051806040016040528060008152602001600081525090565b61144e91905b8082111561144a576000816000905550600101611432565b5090565b90565b600061145d8235611bf1565b905092915050565b600082601f83011261147657600080fd5b813561148961148482611ae4565b611ab7565b915080825260208301602083018583830111156114a557600080fd5b6114b0838284611c2d565b50505092915050565b60006114c58235611c23565b905092915050565b6000602082840312156114df57600080fd5b60006114ed84828501611451565b91505092915050565b60006020828403121561150857600080fd5b6000611516848285016114b9565b91505092915050565b6000806040838503121561153257600080fd5b6000611540858286016114b9565b925050602083013567ffffffffffffffff81111561155d57600080fd5b61156985828601611465565b9150509250929050565b600061157f8383611890565b905092915050565b60006115938383611969565b60208301905092915050565b6115a881611ba9565b82525050565b60006115b982611b2a565b6115c38185611b65565b9350836020820285016115d585611b10565b60005b8481101561160e5783830388526115f0838351611573565b92506115fb82611b4b565b91506020880197506001810190506115d8565b508196508694505050505092915050565b600061162a82611b35565b6116348185611b76565b935061163f83611b1d565b60005b8281101561166d57611655868351611587565b955061166082611b58565b9150600181019050611642565b50849250505092915050565b61168281611bbb565b82525050565b61169181611bbb565b82525050565b60006116a282611b40565b6116ac8185611b87565b93506116bc818560208601611c3c565b6116c581611c6f565b840191505092915050565b60006116dd600983611b98565b91507f6e6f742072756c657300000000000000000000000000000000000000000000006000830152602082019050919050565b600061171d600983611b98565b91507f6e6f745f657869737400000000000000000000000000000000000000000000006000830152602082019050919050565b600061175d600983611b98565b91507f6e6f7420657869737400000000000000000000000000000000000000000000006000830152602082019050919050565b600061179d600783611b98565b91507f65787069726564000000000000000000000000000000000000000000000000006000830152602082019050919050565b60006117dd600583611b98565b91507f65786973740000000000000000000000000000000000000000000000000000006000830152602082019050919050565b600061181d600b83611b98565b91507f73616d65207374617475730000000000000000000000000000000000000000006000830152602082019050919050565b600061185d601683611b98565b91507f616c6c20616d6f756e74206469737472696275746564000000000000000000006000830152602082019050919050565b60006060830160008301516118a86000860182611969565b5060208301516118bb602086018261159f565b50604083015184820360408601526118d38282611697565b9150508091505092915050565b600060c0830160008301516118f86000860182611969565b50602083015161190b6020860182611969565b50604083015161191e6040860182611969565b5060608301516119316060860182611969565b506080830151848203608086015261194982826115ae565b91505060a083015161195e60a0860182611679565b508091505092915050565b61197281611be7565b82525050565b60006020820190508181036000830152611992818461161f565b905092915050565b60006020820190506119af6000830184611688565b92915050565b600060208201905081810360008301526119ce816116d0565b9050919050565b600060208201905081810360008301526119ee81611710565b9050919050565b60006020820190508181036000830152611a0e81611750565b9050919050565b60006020820190508181036000830152611a2e81611790565b9050919050565b60006020820190508181036000830152611a4e816117d0565b9050919050565b60006020820190508181036000830152611a6e81611810565b9050919050565b60006020820190508181036000830152611a8e81611850565b9050919050565b60006020820190508181036000830152611aaf81846118e0565b905092915050565b6000604051905081810181811067ffffffffffffffff82111715611ada57600080fd5b8060405250919050565b600067ffffffffffffffff821115611afb57600080fd5b601f19601f8301169050602081019050919050565b6000602082019050919050565b6000602082019050919050565b600081519050919050565b600081519050919050565b600081519050919050565b6000602082019050919050565b6000602082019050919050565b600082825260208201905092915050565b600082825260208201905092915050565b600082825260208201905092915050565b600082825260208201905092915050565b6000611bb482611bc7565b9050919050565b60008115159050919050565b600073ffffffffffffffffffffffffffffffffffffffff82169050919050565b6000819050919050565b6000611bfc82611c03565b9050919050565b600073ffffffffffffffffffffffffffffffffffffffff82169050919050565b6000819050919050565b82818337600083830152505050565b60005b83811015611c5a578082015181840152602081019050611c3f565b83811115611c69576000848401525b50505050565b6000601f19601f830116905091905056fea265627a7a723058204502e1425a7c846f130e1e7bbd23646b1362dba9269c48407c1714d4a83b220c6c6578706572696d656e74616cf50037",
  "source": "pragma solidity ^0.5.2;\npragma experimental ABIEncoderV2;\n\nimport \"../../node_modules/solidity-rlp/contracts/RLPReader.sol\";\nimport \"../../node_modules/openzeppelin-solidity/contracts/access/roles/WhitelistedRole.sol\";\n\ncontract Schemas is WhitelistedRole {\n\n  using RLPReader for bytes;\n  using RLPReader for uint;\n  using RLPReader for RLPReader.RLPItem;\n\n  struct Schema {   \n    uint expirationDate;\n    uint256 schemaId;\n    uint256 amount;\n    uint256 assetLifeTime;\n    ClearingHouseRule[] clearingHouseRules;\n    bool valid;\n  }\n\n  struct ClearingHouseRule {  \n    uint percent; \n    address receptor;\n    string description;\n  }\n\n  mapping (uint256 => Schema) private schemas_;\n  uint256[] private schemasArray_ ;\n\n  function getSchema(uint256 _schemaId) public view returns (Schema memory) {\n    require(schemas_[_schemaId].schemaId > 0, \"not_exist\");\n    return (schemas_[_schemaId]);\n  }\n\n  function getSchemas() public view returns (uint256[] memory) {    \n    return (schemasArray_);\n  }\n\n  function createSchema(uint256 _schemaId, bytes memory _data) public onlyWhitelisted  {\n    _createSchema(_schemaId, _data);  \n  }\n\n  function invalidateSchema(uint256 _schemaId) public  onlyWhitelisted {\n    _schemaStatus(_schemaId, false);  \n  }\n\n  function validateSchema(uint256 _schemaId) public onlyWhitelisted  {\n    _schemaStatus(_schemaId, true);  \n  }\n\n  function _createSchema(uint256 _schemaId, bytes memory _in) internal  {\n    // RLP format : [<expirationDate>,<schemaId>,<amount>,<assetLifeTime>,[ [<percent>,<address>,<description>],[<percent>,<address>,<description>]]]\n\n    require(schemas_[_schemaId].schemaId == 0, \"exist\"); \n   \n    RLPReader.RLPItem memory item = _in.toRlpItem();\n    RLPReader.RLPItem[] memory itemList = item.toList();\n\n    uint expirationDate = itemList[0].toUint();\n\n    require(expirationDate > now, \"expired\");\n\n    uint256 schemaId = uint256(itemList[1].toUint());\n    uint256 amount = uint256(itemList[2].toUint());\n    uint256 assetLifeTime = uint256(itemList[3].toUint());\n\n    \n    RLPReader.RLPItem[] memory clearingHouseRulesItemList = itemList[4].toList();\n    \n    uint listLength = clearingHouseRulesItemList.length;\n    for (uint i = 0; i < listLength; i++) {\n      RLPReader.RLPItem[] memory tempListItem = clearingHouseRulesItemList[i].toList();\n        \n      schemas_[schemaId].clearingHouseRules.push(\n        ClearingHouseRule(tempListItem[0].toUint(),tempListItem[1].toAddress(),string(tempListItem[2].toBytes()))\n      );    \n    }\n    \n    _validateClearingHouseRules(schemas_[schemaId].clearingHouseRules);\n    \n    schemas_[schemaId].expirationDate = expirationDate;\n    schemas_[schemaId].schemaId = schemaId;\n    schemas_[schemaId].amount = amount;\n    schemas_[schemaId].assetLifeTime = assetLifeTime;\n    schemas_[schemaId].valid = true;\n    schemasArray_.push(schemaId);\n  }\n\n  function _schemaStatus(uint256 _schemaId, bool _newStatus) internal  {\n    require(schemas_[_schemaId].schemaId != 0, \"not exist\"); \n    require(schemas_[_schemaId].valid != _newStatus , \"same status\");\n    schemas_[_schemaId].valid = _newStatus;\n  }\n\n  function _validateClearingHouseRules(ClearingHouseRule[] storage clearingHouseRules) internal  {\n    require(clearingHouseRules.length > 0, \"not rules\"); \n    uint listLength = clearingHouseRules.length;\n    uint total = 0;\n    for (uint i = 0; i < listLength; i++) {\n      total += clearingHouseRules[i].percent;\n    }\n    require(total == 100, \"all amount distributed\");    \n  }\n\n}",
  "sourcePath": "/home/jordi/ws/jordiescudero/bloomen-wallet/bloomen-wallet-truffle/contracts/bloomen/Schemas.sol",
  "compiler": {
    "name": "solc",
    "version": "0.5.7+commit.6da8b019.Emscripten.clang"
  },
  "schemaVersion": "3.0.6",
  "updatedAt": "2019-04-24T09:23:01.289Z",
  "devdoc": {
    "methods": {}
  },
  "userdoc": {
    "methods": {}
  }
}