{
  "contractName": "Assets",
  "abi": [
    {
      "inputs": [
        {
          "name": "_schemasAddr",
          "type": "address"
        },
        {
          "name": "_erc223Addr",
          "type": "address"
        }
      ],
      "payable": false,
      "stateMutability": "nonpayable",
      "type": "constructor",
      "signature": "constructor"
    },
    {
      "constant": false,
      "inputs": [
        {
          "name": "_assetId",
          "type": "uint256"
        },
        {
          "name": "_schemaId",
          "type": "uint256"
        },
        {
          "name": "dappId",
          "type": "string"
        }
      ],
      "name": "checkOwnershipOneAsset",
      "outputs": [
        {
          "name": "",
          "type": "bool"
        }
      ],
      "payable": false,
      "stateMutability": "nonpayable",
      "type": "function",
      "signature": "0xc2a81a21"
    },
    {
      "constant": false,
      "inputs": [
        {
          "name": "_assetsIds",
          "type": "uint256[]"
        },
        {
          "name": "_schemaId",
          "type": "uint256"
        },
        {
          "name": "dappId",
          "type": "string"
        }
      ],
      "name": "checkOwnershipMultipleAssets",
      "outputs": [
        {
          "name": "",
          "type": "bool[]"
        }
      ],
      "payable": false,
      "stateMutability": "nonpayable",
      "type": "function",
      "signature": "0x8d188b63"
    },
    {
      "constant": false,
      "inputs": [
        {
          "name": "_target",
          "type": "address"
        },
        {
          "name": "_assetId",
          "type": "uint256"
        },
        {
          "name": "_schemaId",
          "type": "uint256"
        },
        {
          "name": "dappId",
          "type": "string"
        }
      ],
      "name": "checkOwnershipOneAssetForAddress",
      "outputs": [
        {
          "name": "",
          "type": "bool"
        }
      ],
      "payable": false,
      "stateMutability": "nonpayable",
      "type": "function",
      "signature": "0x25c6e6a8"
    },
    {
      "constant": false,
      "inputs": [
        {
          "name": "_target",
          "type": "address"
        },
        {
          "name": "_assetsIds",
          "type": "uint256[]"
        },
        {
          "name": "_schemaId",
          "type": "uint256"
        },
        {
          "name": "dappId",
          "type": "string"
        }
      ],
      "name": "checkOwnershipMultipleAssetsForAddress",
      "outputs": [
        {
          "name": "",
          "type": "bool[]"
        }
      ],
      "payable": false,
      "stateMutability": "nonpayable",
      "type": "function",
      "signature": "0xe02d5a03"
    },
    {
      "constant": false,
      "inputs": [
        {
          "name": "dappId",
          "type": "string"
        }
      ],
      "name": "getAssetsPageCount",
      "outputs": [
        {
          "name": "",
          "type": "uint256"
        }
      ],
      "payable": false,
      "stateMutability": "nonpayable",
      "type": "function",
      "signature": "0x9891bcf4"
    },
    {
      "constant": false,
      "inputs": [
        {
          "name": "_page",
          "type": "uint256"
        },
        {
          "name": "dappId",
          "type": "string"
        }
      ],
      "name": "getAssets",
      "outputs": [
        {
          "components": [
            {
              "name": "expirationDate",
              "type": "uint256"
            },
            {
              "name": "assetId",
              "type": "uint256"
            },
            {
              "name": "schemaId",
              "type": "uint256"
            },
            {
              "name": "dappId",
              "type": "string"
            },
            {
              "name": "description",
              "type": "string"
            }
          ],
          "name": "",
          "type": "tuple[]"
        }
      ],
      "payable": false,
      "stateMutability": "nonpayable",
      "type": "function",
      "signature": "0x3c42bf33"
    },
    {
      "constant": false,
      "inputs": [
        {
          "name": "_user",
          "type": "address"
        },
        {
          "name": "_amount",
          "type": "uint256"
        },
        {
          "name": "_data",
          "type": "bytes"
        }
      ],
      "name": "tokenFallback",
      "outputs": [],
      "payable": false,
      "stateMutability": "nonpayable",
      "type": "function",
      "signature": "0xc0ee0b8a"
    }
  ],
  "bytecode": "0x60806040523480156200001157600080fd5b50604051604080620029058339810180604052620000339190810190620000d3565b80600360006101000a81548173ffffffffffffffffffffffffffffffffffffffff021916908373ffffffffffffffffffffffffffffffffffffffff16021790555081600260006101000a81548173ffffffffffffffffffffffffffffffffffffffff021916908373ffffffffffffffffffffffffffffffffffffffff160217905550505062000148565b6000620000cb825162000114565b905092915050565b60008060408385031215620000e757600080fd5b6000620000f785828601620000bd565b92505060206200010a85828601620000bd565b9150509250929050565b6000620001218262000128565b9050919050565b600073ffffffffffffffffffffffffffffffffffffffff82169050919050565b6127ad80620001586000396000f3fe608060405234801561001057600080fd5b506004361061009a576000357c0100000000000000000000000000000000000000000000000000000000900480639891bcf4116100785780639891bcf41461012f578063c0ee0b8a1461015f578063c2a81a211461017b578063e02d5a03146101ab5761009a565b806325c6e6a81461009f5780633c42bf33146100cf5780638d188b63146100ff575b600080fd5b6100b960048036036100b49190810190611edb565b6101db565b6040516100c69190612460565b60405180910390f35b6100e960048036036100e49190810190612080565b6101f3565b6040516100f6919061243e565b60405180910390f35b61011960048036036101149190810190611f56565b6104dd565b604051610126919061241c565b60405180910390f35b61014960048036036101449190810190611ffe565b6104f4565b60405161015691906124db565b60405180910390f35b61017960048036036101749190810190611e74565b6105c5565b005b610195600480360361019091908101906120d4565b610c85565b6040516101a29190612460565b60405180910390f35b6101c560048036036101c09190810190611de1565b610c9c565b6040516101d2919061241c565b60405180910390f35b60006101e985858585610cb4565b9050949350505050565b6060600061020083610fb0565b90506000600a85600a0203905060608260010160003373ffffffffffffffffffffffffffffffffffffffff1673ffffffffffffffffffffffffffffffffffffffff168152602001908152602001600020600101805480602002602001604051908101604052809291908181526020016000905b8282101561040757838290600052602060002090600502016040518060a0016040529081600082015481526020016001820154815260200160028201548152602001600382018054600181600116156101000203166002900480601f01602080910402602001604051908101604052809291908181526020018280546001816001161561010002031660029004801561034d5780601f106103225761010080835404028352916020019161034d565b820191906000526020600020905b81548152906001019060200180831161033057829003601f168201915b50505050508152602001600482018054600181600116156101000203166002900480601f0160208091040260200160405190810160405280929190818152602001828054600181600116156101000203166002900480156103ef5780601f106103c4576101008083540402835291602001916103ef565b820191906000526020600020905b8154815290600101906020018083116103d257829003601f168201915b50505050508152505081526020019060010190610273565b5050505090506000815114806104205750600181510382115b15610433576060809450505050506104d7565b6060600a60405190808252806020026020018201604052801561047057816020015b61045d611884565b8152602001906001900390816104555790505b50905060008090505b87600a028410156104ce5782518410156104b95782848151811061049957fe5b60200260200101518282815181106104ad57fe5b60200260200101819052505b80806001019150508380600101945050610479565b81955050505050505b92915050565b60606104eb3385858561123d565b90509392505050565b60008061050083610fb0565b90506000600a8260010160003373ffffffffffffffffffffffffffffffffffffffff1673ffffffffffffffffffffffffffffffffffffffff168152602001908152602001600020600101805490508161055557fe5b0490506000600a8360010160003373ffffffffffffffffffffffffffffffffffffffff1673ffffffffffffffffffffffffffffffffffffffff16815260200190815260200160002060010180549050816105ab57fe5b0611156105bb5780806001019150505b8092505050919050565b6105cd6118b3565b6105d6826112d9565b905060606105e382611307565b90506000610604826000815181106105f757fe5b60200260200101516113de565b905060006106258360018151811061061857fe5b60200260200101516113de565b905060606106468460028151811061063957fe5b602002602001015161144f565b9050600061065382610fb0565b905060606106748660038151811061066757fe5b602002602001015161144f565b905061067e6118cd565b600260009054906101000a900473ffffffffffffffffffffffffffffffffffffffff1673ffffffffffffffffffffffffffffffffffffffff16632b26fb29866040518263ffffffff167c01000000000000000000000000000000000000000000000000000000000281526004016106f591906124db565b60006040518083038186803b15801561070d57600080fd5b505afa158015610721573d6000803e3d6000fd5b505050506040513d6000823e3d601f19601f8201168201806040525061074a919081019061203f565b90508981606001511115610793576040517f08c379a000000000000000000000000000000000000000000000000000000000815260040161078a9061249b565b60405180910390fd5b898160e0015110156107da576040517f08c379a00000000000000000000000000000000000000000000000000000000081526004016107d19061249b565b60405180910390fd5b6108016107e6856114db565b6107f383600001516114db565b61150990919063ffffffff16565b610840576040517f08c379a00000000000000000000000000000000000000000000000000000000081526004016108379061247b565b60405180910390fd5b8060e001518160600151141561089d5761085c8b878787610cb4565b1561089c576040517f08c379a0000000000000000000000000000000000000000000000000000000008152600401610893906124bb565b60405180910390fd5b5b60008a905060008090505b60018360a0015151038110156109db5760006108df8d8560a0015184815181106108ce57fe5b60200260200101516000015161151f565b9050600360009054906101000a900473ffffffffffffffffffffffffffffffffffffffff1673ffffffffffffffffffffffffffffffffffffffff1663a9059cbb8560a00151848151811061092f57fe5b602002602001015160200151836040518363ffffffff167c01000000000000000000000000000000000000000000000000000000000281526004016109759291906123f3565b602060405180830381600087803b15801561098f57600080fd5b505af11580156109a3573d6000803e3d6000fd5b505050506040513d601f19601f820116820180604052506109c79190810190611fd5565b5080830392505080806001019150506108a8565b50600360009054906101000a900473ffffffffffffffffffffffffffffffffffffffff1673ffffffffffffffffffffffffffffffffffffffff1663a9059cbb8360a0015160018560a00151510381518110610a3257fe5b602002602001015160200151836040518363ffffffff167c0100000000000000000000000000000000000000000000000000000000028152600401610a789291906123f3565b602060405180830381600087803b158015610a9257600080fd5b505af1158015610aa6573d6000803e3d6000fd5b505050506040513d601f19601f82011682018060405250610aca9190810190611fd5565b508160e0015182606001511415610c77578360010160008d73ffffffffffffffffffffffffffffffffffffffff1673ffffffffffffffffffffffffffffffffffffffff1681526020019081526020016000206001016040518060a0016040528084608001514201815260200189815260200188815260200187815260200185815250908060018154018082558091505090600182039060005260206000209060050201600090919290919091506000820151816000015560208201518160010155604082015181600201556060820151816003019080519060200190610bb1929190611914565b506080820151816004019080519060200190610bce929190611914565b5050505060018460010160008e73ffffffffffffffffffffffffffffffffffffffff1673ffffffffffffffffffffffffffffffffffffffff16815260200190815260200160002060010180549050038460010160008e73ffffffffffffffffffffffffffffffffffffffff1673ffffffffffffffffffffffffffffffffffffffff1681526020019081526020016000206000016000898152602001908152602001600020819055505b505050505050505050505050565b6000610c9333858585610cb4565b90509392505050565b6060610caa8585858561123d565b9050949350505050565b600080610cc083610fb0565b905060008160010160008873ffffffffffffffffffffffffffffffffffffffff1673ffffffffffffffffffffffffffffffffffffffff168152602001908152602001600020600101805490501415610d1c576000915050610fa8565b60008160010160008873ffffffffffffffffffffffffffffffffffffffff1673ffffffffffffffffffffffffffffffffffffffff1681526020019081526020016000206000016000878152602001908152602001600020549050610d7e611994565b8260010160008973ffffffffffffffffffffffffffffffffffffffff1673ffffffffffffffffffffffffffffffffffffffff1681526020019081526020016000206001018281548110610dcd57fe5b90600052602060002090600502016040518060a0016040529081600082015481526020016001820154815260200160028201548152602001600382018054600181600116156101000203166002900480601f016020809104026020016040519081016040528092919081815260200182805460018160011615610100020316600290048015610e9d5780601f10610e7257610100808354040283529160200191610e9d565b820191906000526020600020905b815481529060010190602001808311610e8057829003601f168201915b50505050508152602001600482018054600181600116156101000203166002900480601f016020809104026020016040519081016040528092919081815260200182805460018160011615610100020316600290048015610f3f5780601f10610f1457610100808354040283529160200191610f3f565b820191906000526020600020905b815481529060010190602001808311610f2257829003601f168201915b5050505050815250509050428160000151118015610f605750868160200151145b8015610f8f5750610f8e610f7782606001516114db565b610f80876114db565b61150990919063ffffffff16565b5b15610fa05760019350505050610fa8565b600093505050505b949350505050565b60008082805190602001209050606060008083815260200190815260200160002080548060200260200160405190810160405280929190818152602001828054801561101b57602002820191906000526020600020905b815481526020019060010190808311611007575b505050505090506000815111156111735760008090505b815181101561117157611127611110600184848151811061104f57fe5b60200260200101518154811061106157fe5b90600052602060002090600202016000018054600181600116156101000203166002900480601f0160208091040260200160405190810160405280929190818152602001828054600181600116156101000203166002900480156111065780601f106110db57610100808354040283529160200191611106565b820191906000526020600020905b8154815290600101906020018083116110e957829003601f168201915b50505050506114db565b611119876114db565b61150990919063ffffffff16565b1561116457600182828151811061113a57fe5b60200260200101518154811061114c57fe5b90600052602060002090600202019350505050611238565b8080600101915050611032565b505b60016040518060200160405280868152509080600181540180825580915050906001820390600052602060002090600202016000909192909190915060008201518160000190805190602001906111cb929190611914565b505050506000600180805490500390506000808481526020019081526020016000208190806001815401808255809150509060018203906000526020600020016000909192909190915055506001818154811061122457fe5b906000526020600020906002020193505050505b919050565b60608084516040519080825280602002602001820160405280156112705781602001602082028038833980820191505090505b50905060008090505b85518110156112cc576112a18787838151811061129257fe5b60200260200101518787610cb4565b8282815181106112ad57fe5b6020026020010190151590811515815250508080600101915050611279565b5080915050949350505050565b6112e16118b3565b600060208301905060405180604001604052808451815260200182815250915050919050565b606061131282611536565b61131b57600080fd5b600061132683611584565b90508060405190808252806020026020018201604052801561136257816020015b61134f6119c3565b8152602001906001900390816113475790505b509150600061137484602001516115f5565b8460200151019050600080600090505b838110156113d5576113958361167e565b91506040518060400160405280838152602001848152508582815181106113b857fe5b602002602001018190525081830192508080600101915050611384565b50505050919050565b60008082600001511180156113f857506021826000015111155b61140157600080fd5b600061141083602001516115f5565b9050600081846000015103905060008083866020015101905080519150602083101561144357826020036101000a820491505b81945050505050919050565b6060600082600001511161146257600080fd5b600061147183602001516115f5565b905060008184600001510390506060816040519080825280601f01601f1916602001820160405280156114b35781602001600182028038833980820191505090505b50905060008160200190506114cf848760200151018285611731565b81945050505050919050565b6114e36119dd565b600060208301905060405180604001604052808451815260200182815250915050919050565b6000806115168484611798565b14905092915050565b600060648284028161152d57fe5b04905092915050565b6000808260000151141561154d576000905061157f565b60008083602001519050805160001a915060c060ff168260ff1610156115785760009250505061157f565b6001925050505b919050565b6000808260000151141561159b57600090506115f0565b600080905060006115af84602001516115f5565b84602001510190506000846000015185602001510190505b808210156115e9576115d88261167e565b8201915082806001019350506115c7565b8293505050505b919050565b600080825160001a9050608060ff16811015611615576000915050611679565b60b860ff1681108061163a575060c060ff168110158015611639575060f860ff1681105b5b15611649576001915050611679565b60c060ff168110156116695760018060b80360ff16820301915050611679565b60018060f80360ff168203019150505b919050565b600080825160001a9050608060ff1681101561169e57600191505061172c565b60b860ff168110156116bc576001608060ff1682030191505061172c565b60c060ff168110156116ec5760b78103600184019350806020036101000a8451046001820181019350505061172a565b60f860ff1681101561170a57600160c060ff1682030191505061172c565b60f78103600184019350806020036101000a845104600182018101935050505b505b919050565b600081141561173f57611793565b5b602060ff16811061176f5782518252602060ff1683019250602060ff1682019150602060ff1681039050611740565b6000600182602060ff16036101000a03905080198451168184511681811785525050505b505050565b600080836000015190508360000151836000015110156117ba57826000015190505b60008460200151905060008460200151905060008090505b8381101561186c5760008084519150835190508082146118535760007fffffffffffffffffffffffffffffffffffffffffffffffffffffffffffffffff9050602087101561182d57600184886020030160080260020a031990505b60008183168285160390506000811461185057809850505050505050505061187e565b50505b60208501945060208401935050506020810190506117d2565b50846000015186600001510393505050505b92915050565b6040518060a0016040528060008152602001600081526020016000815260200160608152602001606081525090565b604051806040016040528060008152602001600081525090565b604051806101000160405280606081526020016000815260200160008152602001600081526020016000815260200160608152602001600015158152602001600081525090565b828054600181600116156101000203166002900490600052602060002090601f016020900481019282601f1061195557805160ff1916838001178555611983565b82800160010185558215611983579182015b82811115611982578251825591602001919060010190611967565b5b50905061199091906119f7565b5090565b6040518060a0016040528060008152602001600081526020016000815260200160608152602001606081525090565b604051806040016040528060008152602001600081525090565b604051806040016040528060008152602001600081525090565b611a1991905b80821115611a155760008160009055506001016119fd565b5090565b90565b6000611a2882356126d8565b905092915050565b6000611a3c82516126d8565b905092915050565b600082601f830112611a5557600080fd5b8151611a68611a6382612523565b6124f6565b9150818183526020840193506020810190508360005b83811015611aae5781518601611a948882611c4b565b845260208401935060208301925050600181019050611a7e565b5050505092915050565b600082601f830112611ac957600080fd5b8135611adc611ad78261254b565b6124f6565b91508181835260208401935060208101905083856020840282011115611b0157600080fd5b60005b83811015611b315781611b178882611db9565b845260208401935060208301925050600181019050611b04565b5050505092915050565b6000611b4782516126ea565b905092915050565b600082601f830112611b6057600080fd5b8135611b73611b6e82612573565b6124f6565b91508082526020830160208301858383011115611b8f57600080fd5b611b9a838284612720565b50505092915050565b600082601f830112611bb457600080fd5b8151611bc7611bc28261259f565b6124f6565b91508082526020830160208301858383011115611be357600080fd5b611bee83828461272f565b50505092915050565b600082601f830112611c0857600080fd5b8135611c1b611c16826125cb565b6124f6565b91508082526020830160208301858383011115611c3757600080fd5b611c42838284612720565b50505092915050565b600060608284031215611c5d57600080fd5b611c6760606124f6565b90506000611c7784828501611dcd565b6000830152506020611c8b84828501611a30565b602083015250604082015167ffffffffffffffff811115611cab57600080fd5b611cb784828501611ba3565b60408301525092915050565b60006101008284031215611cd657600080fd5b611ce16101006124f6565b9050600082015167ffffffffffffffff811115611cfd57600080fd5b611d0984828501611ba3565b6000830152506020611d1d84828501611dcd565b6020830152506040611d3184828501611dcd565b6040830152506060611d4584828501611dcd565b6060830152506080611d5984828501611dcd565b60808301525060a082015167ffffffffffffffff811115611d7957600080fd5b611d8584828501611a44565b60a08301525060c0611d9984828501611b3b565b60c08301525060e0611dad84828501611dcd565b60e08301525092915050565b6000611dc58235612716565b905092915050565b6000611dd98251612716565b905092915050565b60008060008060808587031215611df757600080fd5b6000611e0587828801611a1c565b945050602085013567ffffffffffffffff811115611e2257600080fd5b611e2e87828801611ab8565b9350506040611e3f87828801611db9565b925050606085013567ffffffffffffffff811115611e5c57600080fd5b611e6887828801611bf7565b91505092959194509250565b600080600060608486031215611e8957600080fd5b6000611e9786828701611a1c565b9350506020611ea886828701611db9565b925050604084013567ffffffffffffffff811115611ec557600080fd5b611ed186828701611b4f565b9150509250925092565b60008060008060808587031215611ef157600080fd5b6000611eff87828801611a1c565b9450506020611f1087828801611db9565b9350506040611f2187828801611db9565b925050606085013567ffffffffffffffff811115611f3e57600080fd5b611f4a87828801611bf7565b91505092959194509250565b600080600060608486031215611f6b57600080fd5b600084013567ffffffffffffffff811115611f8557600080fd5b611f9186828701611ab8565b9350506020611fa286828701611db9565b925050604084013567ffffffffffffffff811115611fbf57600080fd5b611fcb86828701611bf7565b9150509250925092565b600060208284031215611fe757600080fd5b6000611ff584828501611b3b565b91505092915050565b60006020828403121561201057600080fd5b600082013567ffffffffffffffff81111561202a57600080fd5b61203684828501611bf7565b91505092915050565b60006020828403121561205157600080fd5b600082015167ffffffffffffffff81111561206b57600080fd5b61207784828501611cc3565b91505092915050565b6000806040838503121561209357600080fd5b60006120a185828601611db9565b925050602083013567ffffffffffffffff8111156120be57600080fd5b6120ca85828601611bf7565b9150509250929050565b6000806000606084860312156120e957600080fd5b60006120f786828701611db9565b935050602061210886828701611db9565b925050604084013567ffffffffffffffff81111561212557600080fd5b61213186828701611bf7565b9150509250925092565b60006121478383612241565b60208301905092915050565b600061215f8383612358565b905092915050565b61217081612690565b82525050565b600061218182612611565b61218b818561264c565b9350612196836125f7565b60005b828110156121c4576121ac86835161213b565b95506121b782612632565b9150600181019050612199565b50849250505092915050565b60006121db8261261c565b6121e5818561265d565b9350836020820285016121f785612604565b60005b84811015612230578383038852612212838351612153565b925061221d8261263f565b91506020880197506001810190506121fa565b508196508694505050505092915050565b61224a816126a2565b82525050565b612259816126a2565b82525050565b600061226a82612627565b612274818561266e565b935061228481856020860161272f565b61228d81612762565b840191505092915050565b60006122a560108361267f565b91507f696e636f727265637420646170704964000000000000000000000000000000006000830152602082019050919050565b60006122e560108361267f565b91507f696e636f727265637420616d6f756e74000000000000000000000000000000006000830152602082019050919050565b6000612325600a8361267f565b91507f6475706c696361746564000000000000000000000000000000000000000000006000830152602082019050919050565b600060a08301600083015161237060008601826123d5565b50602083015161238360208601826123d5565b50604083015161239660408601826123d5565b50606083015184820360608601526123ae828261225f565b915050608083015184820360808601526123c8828261225f565b9150508091505092915050565b6123de816126ce565b82525050565b6123ed816126ce565b82525050565b60006040820190506124086000830185612167565b61241560208301846123e4565b9392505050565b600060208201905081810360008301526124368184612176565b905092915050565b6000602082019050818103600083015261245881846121d0565b905092915050565b60006020820190506124756000830184612250565b92915050565b6000602082019050818103600083015261249481612298565b9050919050565b600060208201905081810360008301526124b4816122d8565b9050919050565b600060208201905081810360008301526124d481612318565b9050919050565b60006020820190506124f060008301846123e4565b92915050565b6000604051905081810181811067ffffffffffffffff8211171561251957600080fd5b8060405250919050565b600067ffffffffffffffff82111561253a57600080fd5b602082029050602081019050919050565b600067ffffffffffffffff82111561256257600080fd5b602082029050602081019050919050565b600067ffffffffffffffff82111561258a57600080fd5b601f19601f8301169050602081019050919050565b600067ffffffffffffffff8211156125b657600080fd5b601f19601f8301169050602081019050919050565b600067ffffffffffffffff8211156125e257600080fd5b601f19601f8301169050602081019050919050565b6000602082019050919050565b6000602082019050919050565b600081519050919050565b600081519050919050565b600081519050919050565b6000602082019050919050565b6000602082019050919050565b600082825260208201905092915050565b600082825260208201905092915050565b600082825260208201905092915050565b600082825260208201905092915050565b600061269b826126ae565b9050919050565b60008115159050919050565b600073ffffffffffffffffffffffffffffffffffffffff82169050919050565b6000819050919050565b60006126e3826126f6565b9050919050565b60008115159050919050565b600073ffffffffffffffffffffffffffffffffffffffff82169050919050565b6000819050919050565b82818337600083830152505050565b60005b8381101561274d578082015181840152602081019050612732565b8381111561275c576000848401525b50505050565b6000601f19601f830116905091905056fea265627a7a723058202fd7f08003475c5bc8abc04ad0a4bb0c78a996f1b4c1920de2f1f2619d113cc96c6578706572696d656e74616cf50037",
  "source": "pragma solidity ^0.5.2;\npragma experimental ABIEncoderV2;\n\nimport \"./Schemas.sol\";\nimport \"./token/ERC223ReceivingContract.sol\";\nimport \"./token/ERC223.sol\";\nimport \"../../node_modules/solidity-rlp/contracts/RLPReader.sol\";\nimport \"../../node_modules/openzeppelin-solidity/contracts/math/SafeMath.sol\";\nimport \"./dapp/lib/Strings.sol\";\n\ncontract  Assets is ERC223ReceivingContract{\n  \n  using Strings for *;\n  using SafeMath for uint256;\n  using RLPReader for bytes;\n  using RLPReader for uint;\n  using RLPReader for RLPReader.RLPItem;\n\n  struct DappCtx {\n    string dappID;\n    mapping (address => UserAssets)  userAssets_;    \n  }\n\n  struct UserAssets { \n    mapping (uint256 => uint) assetsIdx;  \n    Asset[] assets;\n  } \n  \n  struct Asset {   \n    uint expirationDate;\n    uint256 assetId;\n    uint256 schemaId;\n    string dappId;\n    string description;\n  }\n\n  uint256 constant private PAGE_SIZE = 10;\n\n  mapping (bytes32 => uint[]) private dappCtxhashIndexMap_;\n  DappCtx[] private dappCtxs_;\n\n  Schemas private _schemas;\n  ERC223 private _erc223;\n  \n  constructor (address _schemasAddr, address _erc223Addr) public{\n    _erc223 = ERC223(_erc223Addr);\n    _schemas = Schemas(_schemasAddr);\n  }\n\n  function checkOwnershipOneAsset(uint256 _assetId, uint256 _schemaId, string memory dappId) public  returns (bool) {\n    return _checkOwnershipOneAsset(msg.sender, _assetId, _schemaId, dappId);  \n  }\n\n  function checkOwnershipMultipleAssets(uint256[] memory _assetsIds, uint256 _schemaId, string memory dappId) public  returns (bool[] memory) {\n    return _checkOwnershipMultipleAssets(msg.sender, _assetsIds, _schemaId, dappId);  \n  }\n\n  function checkOwnershipOneAssetForAddress(address _target, uint256 _assetId, uint256 _schemaId, string memory dappId) public  returns (bool) {\n    return _checkOwnershipOneAsset(_target, _assetId, _schemaId, dappId);  \n  }\n\n  function checkOwnershipMultipleAssetsForAddress(address _target, uint256[] memory _assetsIds, uint256 _schemaId, string memory dappId) public  returns (bool[] memory) {\n    return _checkOwnershipMultipleAssets(_target, _assetsIds, _schemaId, dappId);  \n  }\n\n  function getAssetsPageCount(string memory dappId) public  returns (uint256) {  \n    DappCtx storage ctx = _getDappCtx(dappId);  \n    uint256 pages = ctx.userAssets_[msg.sender].assets.length / PAGE_SIZE;\n    if ((ctx.userAssets_[msg.sender].assets.length % PAGE_SIZE)>0) {\n      pages++;\n    }\n    return pages;\n  }\n\n  function getAssets(uint256 _page, string memory dappId) public  returns (Asset[] memory) {\n    DappCtx storage ctx = _getDappCtx(dappId);  \n    uint256 transferIndex = PAGE_SIZE * _page - PAGE_SIZE;\n    Asset[] memory assets = ctx.userAssets_[msg.sender].assets;\n\n    if (assets.length == 0 || transferIndex > assets.length - 1) {\n      Asset[] memory empty;\n      return empty ;\n    }\n\n    Asset[] memory assetsPage = new Asset[](PAGE_SIZE);  \n    uint256 returnCounter = 0;\n\n    for (transferIndex; transferIndex < PAGE_SIZE * _page; transferIndex++) {\n      if (transferIndex < assets.length) {\n        assetsPage[returnCounter] = assets[transferIndex];\n      }\n      returnCounter++;\n    }\n\n    return (assetsPage);\n  }\n\n  function tokenFallback(address _user, uint _amount, bytes memory _data) public {\n\n    RLPReader.RLPItem memory item = _data.toRlpItem();\n    RLPReader.RLPItem[] memory itemList = item.toList();\n\n    uint256 _assetId = uint256(itemList[0].toUint());\n    uint256 _schemaId = uint256(itemList[1].toUint());\n\n    string memory _dappId = string(itemList[2].toBytes());\n\n    DappCtx storage ctx = _getDappCtx(_dappId); \n\n    string memory _description = string(itemList[3].toBytes());\n\n    Schemas.Schema memory schema = _schemas.getSchema(_schemaId);\n    require(schema.amount <= _amount, \"incorrect amount\");    \n    require(schema.topPrice >= _amount, \"incorrect amount\");    \n    require(schema.dappId.toSlice().equals(_dappId.toSlice()),\"incorrect dappId\"); \n\n    if (schema.amount == schema.topPrice){\n      // is not a tip\n      require(!_checkOwnershipOneAsset(_user, _assetId, _schemaId,_dappId), \"duplicated\");\n    }\n\n    uint pieValue = _amount;\n\n    for (uint i = 0; i < schema.clearingHouseRules.length-1; i++) {\n      uint tmpValue = _calculatePercentage(_amount,schema.clearingHouseRules[i].percent);\n      _erc223.transfer(schema.clearingHouseRules[i].receptor, tmpValue);\n      pieValue -= tmpValue;\n    }\n\n    _erc223.transfer(schema.clearingHouseRules[schema.clearingHouseRules.length-1].receptor, pieValue);\n\n    if (schema.amount == schema.topPrice){\n      // is not a tip\n      //  purchase registry\n      ctx.userAssets_[_user].assets.push(Asset(now + schema.assetLifeTime , _assetId, _schemaId, _dappId, _description));\n      ctx.userAssets_[_user].assetsIdx[_assetId] = ctx.userAssets_[_user].assets.length - 1 ;\n    }\n  }\n\n  function _checkOwnershipMultipleAssets(address _owner, uint256[] memory _assetsIds, uint256 _schemaId, string memory _dappId) internal  returns (bool[] memory) {\n        \n    bool[] memory assetOwnerShip  = new bool[](_assetsIds.length);    \n\n    for (uint i = 0; i < _assetsIds.length; i++) {\n     assetOwnerShip[i] = _checkOwnershipOneAsset(_owner, _assetsIds[i] ,_schemaId, _dappId);\n    }\n\n    return assetOwnerShip;\n  }\n\n  function _checkOwnershipOneAsset(address _owner, uint256 _assetId, uint256 _schemaId, string memory _dappId) internal  returns (bool) {\n    DappCtx storage ctx = _getDappCtx(_dappId);  \n    \n    if(ctx.userAssets_[_owner].assets.length == 0){\n      return false;\n    }\n\n    uint idx = ctx.userAssets_[_owner].assetsIdx[_assetId];\n    Asset memory asset = ctx.userAssets_[_owner].assets[idx];\n    \n    if ((asset.expirationDate > now) && (asset.assetId == _assetId) && (_dappId.toSlice().equals(asset.dappId.toSlice()))){\n      return true;\n    }\n    else {\n      return false;\n    } \n  }\n\n  function _calculatePercentage(uint theNumber, uint percentage) internal  returns (uint) {\n    return theNumber * percentage / 100 ;\n  }\n\n  function _getDappCtx(string memory dappId) internal returns (DappCtx storage) {\n    bytes32 dappIdHash = keccak256(bytes(dappId));\n    uint[] memory indexArray = dappCtxhashIndexMap_[dappIdHash];\n\n    if (indexArray.length > 0) {\n      // hash collision check\n      for (uint i = 0 ; i < indexArray.length ; i++) {\n        if (dappId.toSlice().equals(dappCtxs_[indexArray[i]].dappID.toSlice())) {\n          return dappCtxs_[indexArray[i]];\n        }\n      }\n    }\n\n    dappCtxs_.push(DappCtx(dappId));\n    uint dappIndex = dappCtxs_.length-1;\n\n    dappCtxhashIndexMap_[dappIdHash].push(dappIndex);\n\n    return dappCtxs_[dappIndex];\n  }\n    \n}",
  "sourcePath": "/home/jordi/ws/bloomenio/bloomen-wallet/bloomen-wallet-truffle/contracts/bloomen/Assets.sol",
  "compiler": {
    "name": "solc",
    "version": "0.5.7+commit.6da8b019.Emscripten.clang"
  },
  "schemaVersion": "3.0.6",
  "updatedAt": "2019-05-29T06:46:14.667Z",
  "devdoc": {
    "methods": {}
  },
  "userdoc": {
    "methods": {}
  }
}