{
  "contractName": "BurnHistory",
  "abi": [
    {
      "constant": false,
      "inputs": [
        {
          "name": "account",
          "type": "address"
        }
      ],
      "name": "addWhitelisted",
      "outputs": [],
      "payable": false,
      "stateMutability": "nonpayable",
      "type": "function",
      "signature": "0x10154bad"
    },
    {
      "constant": false,
      "inputs": [
        {
          "name": "account",
          "type": "address"
        }
      ],
      "name": "removeWhitelisted",
      "outputs": [],
      "payable": false,
      "stateMutability": "nonpayable",
      "type": "function",
      "signature": "0x291d9549"
    },
    {
      "constant": true,
      "inputs": [
        {
          "name": "account",
          "type": "address"
        }
      ],
      "name": "isWhitelisted",
      "outputs": [
        {
          "name": "",
          "type": "bool"
        }
      ],
      "payable": false,
      "stateMutability": "view",
      "type": "function",
      "signature": "0x3af32abf"
    },
    {
      "constant": false,
      "inputs": [],
      "name": "renounceWhitelistAdmin",
      "outputs": [],
      "payable": false,
      "stateMutability": "nonpayable",
      "type": "function",
      "signature": "0x4c5a628c"
    },
    {
      "constant": false,
      "inputs": [
        {
          "name": "account",
          "type": "address"
        }
      ],
      "name": "addWhitelistAdmin",
      "outputs": [],
      "payable": false,
      "stateMutability": "nonpayable",
      "type": "function",
      "signature": "0x7362d9c8"
    },
    {
      "constant": true,
      "inputs": [
        {
          "name": "account",
          "type": "address"
        }
      ],
      "name": "isWhitelistAdmin",
      "outputs": [
        {
          "name": "",
          "type": "bool"
        }
      ],
      "payable": false,
      "stateMutability": "view",
      "type": "function",
      "signature": "0xbb5f747b"
    },
    {
      "constant": false,
      "inputs": [],
      "name": "renounceWhitelisted",
      "outputs": [],
      "payable": false,
      "stateMutability": "nonpayable",
      "type": "function",
      "signature": "0xd6cd9473"
    },
    {
      "anonymous": false,
      "inputs": [
        {
          "indexed": true,
          "name": "account",
          "type": "address"
        }
      ],
      "name": "WhitelistedAdded",
      "type": "event",
      "signature": "0xee1504a83b6d4a361f4c1dc78ab59bfa30d6a3b6612c403e86bb01ef2984295f"
    },
    {
      "anonymous": false,
      "inputs": [
        {
          "indexed": true,
          "name": "account",
          "type": "address"
        }
      ],
      "name": "WhitelistedRemoved",
      "type": "event",
      "signature": "0x270d9b30cf5b0793bbfd54c9d5b94aeb49462b8148399000265144a8722da6b6"
    },
    {
      "anonymous": false,
      "inputs": [
        {
          "indexed": true,
          "name": "account",
          "type": "address"
        }
      ],
      "name": "WhitelistAdminAdded",
      "type": "event",
      "signature": "0x22380c05984257a1cb900161c713dd71d39e74820f1aea43bd3f1bdd20961299"
    },
    {
      "anonymous": false,
      "inputs": [
        {
          "indexed": true,
          "name": "account",
          "type": "address"
        }
      ],
      "name": "WhitelistAdminRemoved",
      "type": "event",
      "signature": "0x0a8eb35e5ca14b3d6f28e4abf2f128dbab231a58b56e89beb5d636115001e165"
    },
    {
      "constant": false,
      "inputs": [
        {
          "name": "_amount",
          "type": "uint256"
        },
        {
          "name": "_from",
          "type": "address"
        },
        {
          "name": "date",
          "type": "uint256"
        }
      ],
      "name": "addBurn",
      "outputs": [],
      "payable": false,
      "stateMutability": "nonpayable",
      "type": "function",
      "signature": "0x999c14cc"
    },
    {
      "constant": false,
      "inputs": [],
      "name": "getBurnPageCount",
      "outputs": [
        {
          "name": "",
          "type": "uint256"
        }
      ],
      "payable": false,
      "stateMutability": "nonpayable",
      "type": "function",
      "signature": "0xf86c47fa"
    },
    {
      "constant": false,
      "inputs": [
        {
          "name": "from",
          "type": "address"
        }
      ],
      "name": "getBurnPageCountFrom",
      "outputs": [
        {
          "name": "",
          "type": "uint256"
        }
      ],
      "payable": false,
      "stateMutability": "nonpayable",
      "type": "function",
      "signature": "0xeb451c97"
    },
    {
      "constant": false,
      "inputs": [
        {
          "name": "_page",
          "type": "uint256"
        }
      ],
      "name": "getBurns",
      "outputs": [
        {
          "components": [
            {
              "name": "owner",
              "type": "address"
            },
            {
              "name": "from",
              "type": "address"
            },
            {
              "name": "amount",
              "type": "uint256"
            },
            {
              "name": "date",
              "type": "uint256"
            }
          ],
          "name": "",
          "type": "tuple[]"
        }
      ],
      "payable": false,
      "stateMutability": "nonpayable",
      "type": "function",
      "signature": "0x875066d9"
    },
    {
      "constant": false,
      "inputs": [
        {
          "name": "_page",
          "type": "uint256"
        },
        {
          "name": "from",
          "type": "address"
        }
      ],
      "name": "getBurnsFrom",
      "outputs": [
        {
          "components": [
            {
              "name": "owner",
              "type": "address"
            },
            {
              "name": "from",
              "type": "address"
            },
            {
              "name": "amount",
              "type": "uint256"
            },
            {
              "name": "date",
              "type": "uint256"
            }
          ],
          "name": "",
          "type": "tuple[]"
        }
      ],
      "payable": false,
      "stateMutability": "nonpayable",
      "type": "function",
      "signature": "0xd6920181"
    }
  ],
  "bytecode": "0x608060405261001c33610021640100000000026401000000009004565b6101d5565b6100428160006100886401000000000261098f179091906401000000009004565b8073ffffffffffffffffffffffffffffffffffffffff167f22380c05984257a1cb900161c713dd71d39e74820f1aea43bd3f1bdd2096129960405160405180910390a250565b600073ffffffffffffffffffffffffffffffffffffffff168173ffffffffffffffffffffffffffffffffffffffff1614156100c257600080fd5b6100db8282610143640100000000026401000000009004565b156100e557600080fd5b60018260000160008373ffffffffffffffffffffffffffffffffffffffff1673ffffffffffffffffffffffffffffffffffffffff16815260200190815260200160002060006101000a81548160ff0219169083151502179055505050565b60008073ffffffffffffffffffffffffffffffffffffffff168273ffffffffffffffffffffffffffffffffffffffff16141561017e57600080fd5b8260000160008373ffffffffffffffffffffffffffffffffffffffff1673ffffffffffffffffffffffffffffffffffffffff16815260200190815260200160002060009054906101000a900460ff16905092915050565b610e8e806101e46000396000f3fe608060405234801561001057600080fd5b50600436106100d1576000357c010000000000000000000000000000000000000000000000000000000090048063999c14cc1161008e578063999c14cc14610194578063bb5f747b146101b0578063d6920181146101e0578063d6cd947314610210578063eb451c971461021a578063f86c47fa1461024a576100d1565b806310154bad146100d6578063291d9549146100f25780633af32abf1461010e5780634c5a628c1461013e5780637362d9c814610148578063875066d914610164575b600080fd5b6100f060048036036100eb9190810190610b62565b610268565b005b61010c60048036036101079190810190610b62565b610286565b005b61012860048036036101239190810190610b62565b6102a4565b6040516101359190610d64565b60405180910390f35b6101466102c1565b005b610162600480360361015d9190810190610b62565b6102cc565b005b61017e60048036036101799190810190610b8b565b6102ea565b60405161018b9190610d42565b60405180910390f35b6101ae60048036036101a99190810190610bf0565b6102fd565b005b6101ca60048036036101c59190810190610b62565b610470565b6040516101d79190610d64565b60405180910390f35b6101fa60048036036101f59190810190610bb4565b61048d565b6040516102079190610d42565b60405180910390f35b6102186106c1565b005b610234600480360361022f9190810190610b62565b6106cc565b6040516102419190610d7f565b60405180910390f35b610252610785565b60405161025f9190610d7f565b60405180910390f35b61027133610470565b61027a57600080fd5b61028381610795565b50565b61028f33610470565b61029857600080fd5b6102a1816107ef565b50565b60006102ba82600161084990919063ffffffff16565b9050919050565b6102ca336108db565b565b6102d533610470565b6102de57600080fd5b6102e781610935565b50565b60606102f6823361048d565b9050919050565b610306336102a4565b61030f57600080fd5b600260008373ffffffffffffffffffffffffffffffffffffffff1673ffffffffffffffffffffffffffffffffffffffff16815260200190815260200160002060405180608001604052803373ffffffffffffffffffffffffffffffffffffffff1681526020018473ffffffffffffffffffffffffffffffffffffffff168152602001858152602001428152509080600181540180825580915050906001820390600052602060002090600402016000909192909190915060008201518160000160006101000a81548173ffffffffffffffffffffffffffffffffffffffff021916908373ffffffffffffffffffffffffffffffffffffffff16021790555060208201518160010160006101000a81548173ffffffffffffffffffffffffffffffffffffffff021916908373ffffffffffffffffffffffffffffffffffffffff1602179055506040820151816002015560608201518160030155505050505050565b600061048682600061084990919063ffffffff16565b9050919050565b606080600a6040519080825280602002602001820160405280156104cb57816020015b6104b8610ae6565b8152602001906001900390816104b05790505b5090506000600a85600a020390506060600260008673ffffffffffffffffffffffffffffffffffffffff1673ffffffffffffffffffffffffffffffffffffffff168152602001908152602001600020805480602002602001604051908101604052809291908181526020016000905b8282101561062c57838290600052602060002090600402016040518060800160405290816000820160009054906101000a900473ffffffffffffffffffffffffffffffffffffffff1673ffffffffffffffffffffffffffffffffffffffff1673ffffffffffffffffffffffffffffffffffffffff1681526020016001820160009054906101000a900473ffffffffffffffffffffffffffffffffffffffff1673ffffffffffffffffffffffffffffffffffffffff1673ffffffffffffffffffffffffffffffffffffffff168152602001600282015481526020016003820154815250508152602001906001019061053a565b5050505090506000815114806106455750600181510382115b15610658576060809450505050506106bb565b60008090505b86600a028310156106b357815183101561069e5781838151811061067e57fe5b602002602001015184828151811061069257fe5b60200260200101819052505b8080600101915050828060010193505061065e565b839450505050505b92915050565b6106ca336107ef565b565b600080600a600260008573ffffffffffffffffffffffffffffffffffffffff1673ffffffffffffffffffffffffffffffffffffffff168152602001908152602001600020805490508161071b57fe5b0490506000600a600260008673ffffffffffffffffffffffffffffffffffffffff1673ffffffffffffffffffffffffffffffffffffffff168152602001908152602001600020805490508161076c57fe5b06111561077c5780806001019150505b80915050919050565b6000610790336106cc565b905090565b6107a981600161098f90919063ffffffff16565b8073ffffffffffffffffffffffffffffffffffffffff167fee1504a83b6d4a361f4c1dc78ab59bfa30d6a3b6612c403e86bb01ef2984295f60405160405180910390a250565b610803816001610a3b90919063ffffffff16565b8073ffffffffffffffffffffffffffffffffffffffff167f270d9b30cf5b0793bbfd54c9d5b94aeb49462b8148399000265144a8722da6b660405160405180910390a250565b60008073ffffffffffffffffffffffffffffffffffffffff168273ffffffffffffffffffffffffffffffffffffffff16141561088457600080fd5b8260000160008373ffffffffffffffffffffffffffffffffffffffff1673ffffffffffffffffffffffffffffffffffffffff16815260200190815260200160002060009054906101000a900460ff16905092915050565b6108ef816000610a3b90919063ffffffff16565b8073ffffffffffffffffffffffffffffffffffffffff167f0a8eb35e5ca14b3d6f28e4abf2f128dbab231a58b56e89beb5d636115001e16560405160405180910390a250565b61094981600061098f90919063ffffffff16565b8073ffffffffffffffffffffffffffffffffffffffff167f22380c05984257a1cb900161c713dd71d39e74820f1aea43bd3f1bdd2096129960405160405180910390a250565b600073ffffffffffffffffffffffffffffffffffffffff168173ffffffffffffffffffffffffffffffffffffffff1614156109c957600080fd5b6109d38282610849565b156109dd57600080fd5b60018260000160008373ffffffffffffffffffffffffffffffffffffffff1673ffffffffffffffffffffffffffffffffffffffff16815260200190815260200160002060006101000a81548160ff0219169083151502179055505050565b600073ffffffffffffffffffffffffffffffffffffffff168173ffffffffffffffffffffffffffffffffffffffff161415610a7557600080fd5b610a7f8282610849565b610a8857600080fd5b60008260000160008373ffffffffffffffffffffffffffffffffffffffff1673ffffffffffffffffffffffffffffffffffffffff16815260200190815260200160002060006101000a81548160ff0219169083151502179055505050565b6040518060800160405280600073ffffffffffffffffffffffffffffffffffffffff168152602001600073ffffffffffffffffffffffffffffffffffffffff16815260200160008152602001600081525090565b6000610b468235610e18565b905092915050565b6000610b5a8235610e4a565b905092915050565b600060208284031215610b7457600080fd5b6000610b8284828501610b3a565b91505092915050565b600060208284031215610b9d57600080fd5b6000610bab84828501610b4e565b91505092915050565b60008060408385031215610bc757600080fd5b6000610bd585828601610b4e565b9250506020610be685828601610b3a565b9150509250929050565b600080600060608486031215610c0557600080fd5b6000610c1386828701610b4e565b9350506020610c2486828701610b3a565b9250506040610c3586828701610b4e565b9150509250925092565b6000610c4b8383610ccf565b60808301905092915050565b610c6081610dd0565b82525050565b6000610c7182610da7565b610c7b8185610dbf565b9350610c8683610d9a565b60005b82811015610cb457610c9c868351610c3f565b9550610ca782610db2565b9150600181019050610c89565b50849250505092915050565b610cc981610de2565b82525050565b608082016000820151610ce56000850182610c57565b506020820151610cf86020850182610c57565b506040820151610d0b6040850182610d24565b506060820151610d1e6060850182610d24565b50505050565b610d2d81610e0e565b82525050565b610d3c81610e0e565b82525050565b60006020820190508181036000830152610d5c8184610c66565b905092915050565b6000602082019050610d796000830184610cc0565b92915050565b6000602082019050610d946000830184610d33565b92915050565b6000602082019050919050565b600081519050919050565b6000602082019050919050565b600082825260208201905092915050565b6000610ddb82610dee565b9050919050565b60008115159050919050565b600073ffffffffffffffffffffffffffffffffffffffff82169050919050565b6000819050919050565b6000610e2382610e2a565b9050919050565b600073ffffffffffffffffffffffffffffffffffffffff82169050919050565b600081905091905056fea265627a7a7230582075a2c3f9f4711c61349cdc2203faf20db5fe947035c04ffa4edbe347ea007df36c6578706572696d656e74616cf50037",
  "source": "pragma solidity ^0.5.2;\npragma experimental ABIEncoderV2;\n\nimport \"../../../node_modules/openzeppelin-solidity/contracts/access/roles/WhitelistedRole.sol\";\n\ncontract BurnHistory is WhitelistedRole {\n\n  struct Burn {\n    address owner;\n    address from;\n    uint256 amount;\n    uint date;\n  }\n\n  mapping (address => Burn[]) private burnsMap_;\n\n  uint256 constant private PAGE_SIZE = 10;\n\n  function addBurn(uint256 _amount, address _from, uint date) onlyWhitelisted public {\n    burnsMap_[_from].push(Burn(msg.sender, _from, _amount, now));\n  }\n\n  function getBurnPageCount() public returns (uint256) {\n    return getBurnPageCountFrom(msg.sender);\n  }\n\n  function getBurnPageCountFrom(address from) public  returns (uint256) {\n    uint256 pages = burnsMap_[from].length / PAGE_SIZE;\n    if ( (burnsMap_[from].length  % PAGE_SIZE)>0) {\n      pages++;\n    }\n    return pages;\n  }\n\n  function getBurns(uint256 _page) public returns (Burn[] memory) {\n    return getBurnsFrom(_page, msg.sender);\n  }\n\n  function getBurnsFrom(uint256 _page, address from) public returns (Burn[] memory) {\n    Burn[] memory burnsPage = new Burn[](PAGE_SIZE);\n    uint256 transferIndex = PAGE_SIZE * _page - PAGE_SIZE;\n    Burn[] memory burns = burnsMap_[from];\n\n    if (burns.length == 0 || transferIndex > burns.length - 1) {\n      Burn[] memory empty;\n      return empty;\n    }\n\n    uint256 returnCounter = 0;\n\n    for (transferIndex; transferIndex < PAGE_SIZE * _page; transferIndex++) {\n      if (transferIndex < burns.length) {\n        burnsPage[returnCounter] = burns[transferIndex];\n      }\n      returnCounter++;\n    }\n\n    return burnsPage;\n  }\n\n}",
  "sourcePath": "/home/jordi/ws/bloomenio/bloomen-wallet/bloomen-wallet-truffle/contracts/bloomen/token/BurnHistory.sol",
  "compiler": {
    "name": "solc",
    "version": "0.5.7+commit.6da8b019.Emscripten.clang"
  },
  "schemaVersion": "3.0.6",
  "updatedAt": "2019-05-29T12:50:05.736Z",
  "devdoc": {
    "methods": {}
  },
  "userdoc": {
    "methods": {}
  }
}