{
  "contractName": "BurnHistory",
  "abi": [
    {
      "constant": false,
      "inputs": [
        {
          "name": "account",
          "type": "address"
        }
      ],
      "name": "addWhitelisted",
      "outputs": [],
      "payable": false,
      "stateMutability": "nonpayable",
      "type": "function"
    },
    {
      "constant": false,
      "inputs": [
        {
          "name": "account",
          "type": "address"
        }
      ],
      "name": "removeWhitelisted",
      "outputs": [],
      "payable": false,
      "stateMutability": "nonpayable",
      "type": "function"
    },
    {
      "constant": true,
      "inputs": [
        {
          "name": "account",
          "type": "address"
        }
      ],
      "name": "isWhitelisted",
      "outputs": [
        {
          "name": "",
          "type": "bool"
        }
      ],
      "payable": false,
      "stateMutability": "view",
      "type": "function"
    },
    {
      "constant": false,
      "inputs": [],
      "name": "renounceWhitelistAdmin",
      "outputs": [],
      "payable": false,
      "stateMutability": "nonpayable",
      "type": "function"
    },
    {
      "constant": false,
      "inputs": [
        {
          "name": "account",
          "type": "address"
        }
      ],
      "name": "addWhitelistAdmin",
      "outputs": [],
      "payable": false,
      "stateMutability": "nonpayable",
      "type": "function"
    },
    {
      "constant": true,
      "inputs": [
        {
          "name": "account",
          "type": "address"
        }
      ],
      "name": "isWhitelistAdmin",
      "outputs": [
        {
          "name": "",
          "type": "bool"
        }
      ],
      "payable": false,
      "stateMutability": "view",
      "type": "function"
    },
    {
      "constant": false,
      "inputs": [],
      "name": "renounceWhitelisted",
      "outputs": [],
      "payable": false,
      "stateMutability": "nonpayable",
      "type": "function"
    },
    {
      "anonymous": false,
      "inputs": [
        {
          "indexed": true,
          "name": "account",
          "type": "address"
        }
      ],
      "name": "WhitelistedAdded",
      "type": "event"
    },
    {
      "anonymous": false,
      "inputs": [
        {
          "indexed": true,
          "name": "account",
          "type": "address"
        }
      ],
      "name": "WhitelistedRemoved",
      "type": "event"
    },
    {
      "anonymous": false,
      "inputs": [
        {
          "indexed": true,
          "name": "account",
          "type": "address"
        }
      ],
      "name": "WhitelistAdminAdded",
      "type": "event"
    },
    {
      "anonymous": false,
      "inputs": [
        {
          "indexed": true,
          "name": "account",
          "type": "address"
        }
      ],
      "name": "WhitelistAdminRemoved",
      "type": "event"
    },
    {
      "constant": false,
      "inputs": [
        {
          "name": "_amount",
          "type": "uint256"
        },
        {
          "name": "_from",
          "type": "address"
        }
      ],
      "name": "addBurn",
      "outputs": [],
      "payable": false,
      "stateMutability": "nonpayable",
      "type": "function"
    },
    {
      "constant": false,
      "inputs": [],
      "name": "getBurnsPageCount",
      "outputs": [
        {
          "name": "",
          "type": "uint256"
        }
      ],
      "payable": false,
      "stateMutability": "nonpayable",
      "type": "function"
    },
    {
      "constant": false,
      "inputs": [
        {
          "name": "from",
          "type": "address"
        }
      ],
      "name": "getBurnsPageCountFrom",
      "outputs": [
        {
          "name": "",
          "type": "uint256"
        }
      ],
      "payable": false,
      "stateMutability": "nonpayable",
      "type": "function"
    },
    {
      "constant": false,
      "inputs": [
        {
          "name": "_page",
          "type": "uint256"
        }
      ],
      "name": "getBurns",
      "outputs": [
        {
          "components": [
            {
              "name": "id",
              "type": "uint256"
            },
            {
              "name": "owner",
              "type": "address"
            },
            {
              "name": "from",
              "type": "address"
            },
            {
              "name": "amount",
              "type": "uint256"
            },
            {
              "name": "date",
              "type": "uint256"
            }
          ],
          "name": "",
          "type": "tuple[]"
        }
      ],
      "payable": false,
      "stateMutability": "nonpayable",
      "type": "function"
    },
    {
      "constant": false,
      "inputs": [
        {
          "name": "_page",
          "type": "uint256"
        },
        {
          "name": "from",
          "type": "address"
        }
      ],
      "name": "getBurnsFrom",
      "outputs": [
        {
          "components": [
            {
              "name": "id",
              "type": "uint256"
            },
            {
              "name": "owner",
              "type": "address"
            },
            {
              "name": "from",
              "type": "address"
            },
            {
              "name": "amount",
              "type": "uint256"
            },
            {
              "name": "date",
              "type": "uint256"
            }
          ],
          "name": "",
          "type": "tuple[]"
        }
      ],
      "payable": false,
      "stateMutability": "nonpayable",
      "type": "function"
    }
  ],
  "bytecode": "0x608060405261001c33610021640100000000026401000000009004565b6101d5565b610042816000610088640100000000026109ea179091906401000000009004565b8073ffffffffffffffffffffffffffffffffffffffff167f22380c05984257a1cb900161c713dd71d39e74820f1aea43bd3f1bdd2096129960405160405180910390a250565b600073ffffffffffffffffffffffffffffffffffffffff168173ffffffffffffffffffffffffffffffffffffffff1614156100c257600080fd5b6100db8282610143640100000000026401000000009004565b156100e557600080fd5b60018260000160008373ffffffffffffffffffffffffffffffffffffffff1673ffffffffffffffffffffffffffffffffffffffff16815260200190815260200160002060006101000a81548160ff0219169083151502179055505050565b60008073ffffffffffffffffffffffffffffffffffffffff168273ffffffffffffffffffffffffffffffffffffffff16141561017e57600080fd5b8260000160008373ffffffffffffffffffffffffffffffffffffffff1673ffffffffffffffffffffffffffffffffffffffff16815260200190815260200160002060009054906101000a900460ff16905092915050565b610eb4806101e46000396000f3fe608060405234801561001057600080fd5b50600436106100d1576000357c0100000000000000000000000000000000000000000000000000000000900480637362d9c81161008e5780637362d9c814610182578063875066d91461019e578063bb5f747b146101ce578063d6920181146101fe578063d6cd94731461022e578063fa8ec9ee14610238576100d1565b80630dfc73fe146100d657806310154bad146100f2578063291d95491461010e5780633af32abf1461012a5780634c5a628c1461015a578063569f736914610164575b600080fd5b6100f060048036036100eb9190810190610c16565b610268565b005b61010c60048036036101079190810190610bc4565b61042c565b005b61012860048036036101239190810190610bc4565b61044a565b005b610144600480360361013f9190810190610bc4565b610468565b6040516101519190610d8a565b60405180910390f35b610162610485565b005b61016c610490565b6040516101799190610da5565b60405180910390f35b61019c60048036036101979190810190610bc4565b6104a0565b005b6101b860048036036101b39190810190610bed565b6104be565b6040516101c59190610d68565b60405180910390f35b6101e860048036036101e39190810190610bc4565b6104d1565b6040516101f59190610d8a565b60405180910390f35b61021860048036036102139190810190610c16565b6104ee565b6040516102259190610d68565b60405180910390f35b61023661072c565b005b610252600480360361024d9190810190610bc4565b610737565b60405161025f9190610da5565b60405180910390f35b61027133610468565b61027a57600080fd5b600260008273ffffffffffffffffffffffffffffffffffffffff1673ffffffffffffffffffffffffffffffffffffffff1681526020019081526020016000206040518060a00160405280600260008573ffffffffffffffffffffffffffffffffffffffff1673ffffffffffffffffffffffffffffffffffffffff1681526020019081526020016000208054905081526020013373ffffffffffffffffffffffffffffffffffffffff1681526020018373ffffffffffffffffffffffffffffffffffffffff16815260200184815260200142815250908060018154018082558091505090600182039060005260206000209060050201600090919290919091506000820151816000015560208201518160010160006101000a81548173ffffffffffffffffffffffffffffffffffffffff021916908373ffffffffffffffffffffffffffffffffffffffff16021790555060408201518160020160006101000a81548173ffffffffffffffffffffffffffffffffffffffff021916908373ffffffffffffffffffffffffffffffffffffffff16021790555060608201518160030155608082015181600401555050505050565b610435336104d1565b61043e57600080fd5b610447816107f0565b50565b610453336104d1565b61045c57600080fd5b6104658161084a565b50565b600061047e8260016108a490919063ffffffff16565b9050919050565b61048e33610936565b565b600061049b33610737565b905090565b6104a9336104d1565b6104b257600080fd5b6104bb81610990565b50565b60606104ca82336104ee565b9050919050565b60006104e78260006108a490919063ffffffff16565b9050919050565b606080600a60405190808252806020026020018201604052801561052c57816020015b610519610b41565b8152602001906001900390816105115790505b5090506000600a85600a020390506060600260008673ffffffffffffffffffffffffffffffffffffffff1673ffffffffffffffffffffffffffffffffffffffff168152602001908152602001600020805480602002602001604051908101604052809291908181526020016000905b8282101561069757838290600052602060002090600502016040518060a0016040529081600082015481526020016001820160009054906101000a900473ffffffffffffffffffffffffffffffffffffffff1673ffffffffffffffffffffffffffffffffffffffff1673ffffffffffffffffffffffffffffffffffffffff1681526020016002820160009054906101000a900473ffffffffffffffffffffffffffffffffffffffff1673ffffffffffffffffffffffffffffffffffffffff1673ffffffffffffffffffffffffffffffffffffffff168152602001600382015481526020016004820154815250508152602001906001019061059b565b5050505090506000815114806106b05750600181510382115b156106c357606080945050505050610726565b60008090505b86600a0283101561071e578151831015610709578183815181106106e957fe5b60200260200101518482815181106106fd57fe5b60200260200101819052505b808060010191505082806001019350506106c9565b839450505050505b92915050565b6107353361084a565b565b600080600a600260008573ffffffffffffffffffffffffffffffffffffffff1673ffffffffffffffffffffffffffffffffffffffff168152602001908152602001600020805490508161078657fe5b0490506000600a600260008673ffffffffffffffffffffffffffffffffffffffff1673ffffffffffffffffffffffffffffffffffffffff16815260200190815260200160002080549050816107d757fe5b0611156107e75780806001019150505b80915050919050565b6108048160016109ea90919063ffffffff16565b8073ffffffffffffffffffffffffffffffffffffffff167fee1504a83b6d4a361f4c1dc78ab59bfa30d6a3b6612c403e86bb01ef2984295f60405160405180910390a250565b61085e816001610a9690919063ffffffff16565b8073ffffffffffffffffffffffffffffffffffffffff167f270d9b30cf5b0793bbfd54c9d5b94aeb49462b8148399000265144a8722da6b660405160405180910390a250565b60008073ffffffffffffffffffffffffffffffffffffffff168273ffffffffffffffffffffffffffffffffffffffff1614156108df57600080fd5b8260000160008373ffffffffffffffffffffffffffffffffffffffff1673ffffffffffffffffffffffffffffffffffffffff16815260200190815260200160002060009054906101000a900460ff16905092915050565b61094a816000610a9690919063ffffffff16565b8073ffffffffffffffffffffffffffffffffffffffff167f0a8eb35e5ca14b3d6f28e4abf2f128dbab231a58b56e89beb5d636115001e16560405160405180910390a250565b6109a48160006109ea90919063ffffffff16565b8073ffffffffffffffffffffffffffffffffffffffff167f22380c05984257a1cb900161c713dd71d39e74820f1aea43bd3f1bdd2096129960405160405180910390a250565b600073ffffffffffffffffffffffffffffffffffffffff168173ffffffffffffffffffffffffffffffffffffffff161415610a2457600080fd5b610a2e82826108a4565b15610a3857600080fd5b60018260000160008373ffffffffffffffffffffffffffffffffffffffff1673ffffffffffffffffffffffffffffffffffffffff16815260200190815260200160002060006101000a81548160ff0219169083151502179055505050565b600073ffffffffffffffffffffffffffffffffffffffff168173ffffffffffffffffffffffffffffffffffffffff161415610ad057600080fd5b610ada82826108a4565b610ae357600080fd5b60008260000160008373ffffffffffffffffffffffffffffffffffffffff1673ffffffffffffffffffffffffffffffffffffffff16815260200190815260200160002060006101000a81548160ff0219169083151502179055505050565b6040518060a0016040528060008152602001600073ffffffffffffffffffffffffffffffffffffffff168152602001600073ffffffffffffffffffffffffffffffffffffffff16815260200160008152602001600081525090565b6000610ba88235610e3e565b905092915050565b6000610bbc8235610e70565b905092915050565b600060208284031215610bd657600080fd5b6000610be484828501610b9c565b91505092915050565b600060208284031215610bff57600080fd5b6000610c0d84828501610bb0565b91505092915050565b60008060408385031215610c2957600080fd5b6000610c3785828601610bb0565b9250506020610c4885828601610b9c565b9150509250929050565b6000610c5e8383610ce2565b60a08301905092915050565b610c7381610df6565b82525050565b6000610c8482610dcd565b610c8e8185610de5565b9350610c9983610dc0565b60005b82811015610cc757610caf868351610c52565b9550610cba82610dd8565b9150600181019050610c9c565b50849250505092915050565b610cdc81610e08565b82525050565b60a082016000820151610cf86000850182610d4a565b506020820151610d0b6020850182610c6a565b506040820151610d1e6040850182610c6a565b506060820151610d316060850182610d4a565b506080820151610d446080850182610d4a565b50505050565b610d5381610e34565b82525050565b610d6281610e34565b82525050565b60006020820190508181036000830152610d828184610c79565b905092915050565b6000602082019050610d9f6000830184610cd3565b92915050565b6000602082019050610dba6000830184610d59565b92915050565b6000602082019050919050565b600081519050919050565b6000602082019050919050565b600082825260208201905092915050565b6000610e0182610e14565b9050919050565b60008115159050919050565b600073ffffffffffffffffffffffffffffffffffffffff82169050919050565b6000819050919050565b6000610e4982610e50565b9050919050565b600073ffffffffffffffffffffffffffffffffffffffff82169050919050565b600081905091905056fea265627a7a72305820461df307fd99295e6b0eb62151b176e83d95886e3b43b5e9a97890d378b55ae56c6578706572696d656e74616cf50037",
  "source": "pragma solidity ^0.5.2;\npragma experimental ABIEncoderV2;\n\nimport \"openzeppelin-solidity/contracts/access/roles/WhitelistedRole.sol\";\n\ncontract BurnHistory is WhitelistedRole {\n\n  struct Burn {\n    uint256 id;\n    address owner;\n    address from;\n    uint256 amount;\n    uint date;\n  }\n\n  mapping (address => Burn[]) private burnsMap_;\n\n  uint256 constant private PAGE_SIZE = 10;\n\n  function addBurn(uint256 _amount, address _from) onlyWhitelisted public {\n    burnsMap_[_from].push(Burn(burnsMap_[_from].length, msg.sender, _from, _amount, now));\n  }\n\n  function getBurnsPageCount() public returns (uint256) {\n    return getBurnsPageCountFrom(msg.sender);\n  }\n\n  function getBurnsPageCountFrom(address from) public  returns (uint256) {\n    uint256 pages = burnsMap_[from].length / PAGE_SIZE;\n    if ( (burnsMap_[from].length  % PAGE_SIZE)>0) {\n      pages++;\n    }\n    return pages;\n  }\n\n  function getBurns(uint256 _page) public returns (Burn[] memory) {\n    return getBurnsFrom(_page, msg.sender);\n  }\n\n  function getBurnsFrom(uint256 _page, address from) public returns (Burn[] memory) {\n    Burn[] memory burnsPage = new Burn[](PAGE_SIZE);\n    uint256 transferIndex = PAGE_SIZE * _page - PAGE_SIZE;\n    Burn[] memory burns = burnsMap_[from];\n\n    if (burns.length == 0 || transferIndex > burns.length - 1) {\n      Burn[] memory empty;\n      return empty;\n    }\n\n    uint256 returnCounter = 0;\n\n    for (transferIndex; transferIndex < PAGE_SIZE * _page; transferIndex++) {\n      if (transferIndex < burns.length) {\n        burnsPage[returnCounter] = burns[transferIndex];\n      }\n      returnCounter++;\n    }\n\n    return burnsPage;\n  }\n\n}",
  "sourcePath": "bloomen-token/contracts/BurnHistory.sol",
  "compiler": {
    "name": "solc",
    "version": "0.5.7+commit.6da8b019.Emscripten.clang"
  },
  "schemaVersion": "3.0.6",
  "updatedAt": "2019-08-28T07:23:28.897Z",
  "devdoc": {
    "methods": {}
  },
  "userdoc": {
    "methods": {}
  }
}