{
  "contractName": "Devices",
  "abi": [
    {
      "inputs": [
        {
          "name": "_assetsAddr",
          "type": "address"
        }
      ],
      "payable": false,
      "stateMutability": "nonpayable",
      "type": "constructor",
      "signature": "constructor"
    },
    {
      "constant": false,
      "inputs": [
        {
          "name": "_deviceHash",
          "type": "bytes32"
        },
        {
          "name": "dappId",
          "type": "string"
        }
      ],
      "name": "isAllowed",
      "outputs": [
        {
          "name": "",
          "type": "bool"
        }
      ],
      "payable": false,
      "stateMutability": "nonpayable",
      "type": "function",
      "signature": "0x18de1d87"
    },
    {
      "constant": false,
      "inputs": [
        {
          "name": "_target",
          "type": "address"
        },
        {
          "name": "_deviceHash",
          "type": "bytes32"
        },
        {
          "name": "dappId",
          "type": "string"
        }
      ],
      "name": "isAllowedForAddress",
      "outputs": [
        {
          "name": "",
          "type": "bool"
        }
      ],
      "payable": false,
      "stateMutability": "nonpayable",
      "type": "function",
      "signature": "0x12e3b03c"
    },
    {
      "constant": false,
      "inputs": [
        {
          "name": "_deviceHash",
          "type": "bytes32"
        },
        {
          "name": "_assetIds",
          "type": "uint256[]"
        },
        {
          "name": "dappId",
          "type": "string"
        }
      ],
      "name": "checkOwnershipMultipleAssetsForDevice",
      "outputs": [
        {
          "name": "",
          "type": "bool[]"
        }
      ],
      "payable": false,
      "stateMutability": "nonpayable",
      "type": "function",
      "signature": "0x0e1f7ed8"
    },
    {
      "constant": false,
      "inputs": [
        {
          "name": "_deviceHash",
          "type": "bytes32"
        },
        {
          "name": "_assetId",
          "type": "uint256"
        },
        {
          "name": "dappId",
          "type": "string"
        }
      ],
      "name": "checkOwnershipOneAssetForDevice",
      "outputs": [
        {
          "name": "",
          "type": "bool"
        }
      ],
      "payable": false,
      "stateMutability": "nonpayable",
      "type": "function",
      "signature": "0xf5264c52"
    },
    {
      "constant": false,
      "inputs": [
        {
          "name": "dappId",
          "type": "string"
        }
      ],
      "name": "getDevicesPageCount",
      "outputs": [
        {
          "name": "",
          "type": "uint256"
        }
      ],
      "payable": false,
      "stateMutability": "nonpayable",
      "type": "function",
      "signature": "0xdce65418"
    },
    {
      "constant": false,
      "inputs": [
        {
          "name": "_page",
          "type": "uint256"
        },
        {
          "name": "dappId",
          "type": "string"
        }
      ],
      "name": "getDevices",
      "outputs": [
        {
          "components": [
            {
              "name": "expirationDate",
              "type": "uint256"
            },
            {
              "name": "assetId",
              "type": "uint256"
            },
            {
              "name": "schemaId",
              "type": "uint256"
            },
            {
              "name": "dappId",
              "type": "string"
            },
            {
              "name": "description",
              "type": "string"
            }
          ],
          "name": "",
          "type": "tuple[]"
        }
      ],
      "payable": false,
      "stateMutability": "nonpayable",
      "type": "function",
      "signature": "0x44a57ff5"
    },
    {
      "constant": false,
      "inputs": [
        {
          "name": "_deviceHash",
          "type": "bytes32"
        },
        {
          "name": "dappId",
          "type": "string"
        }
      ],
      "name": "getAddress",
      "outputs": [
        {
          "name": "",
          "type": "address"
        }
      ],
      "payable": false,
      "stateMutability": "nonpayable",
      "type": "function",
      "signature": "0x6795dbcd"
    },
    {
      "constant": false,
      "inputs": [
        {
          "name": "_deviceHash",
          "type": "bytes32"
        },
        {
          "name": "_assetId",
          "type": "uint256"
        },
        {
          "name": "_schemaId",
          "type": "uint256"
        },
        {
          "name": "_lifeTime",
          "type": "uint256"
        },
        {
          "name": "_dappId",
          "type": "string"
        }
      ],
      "name": "handshake",
      "outputs": [],
      "payable": false,
      "stateMutability": "nonpayable",
      "type": "function",
      "signature": "0x132c6aa4"
    },
    {
      "constant": false,
      "inputs": [
        {
          "name": "_deviceHash",
          "type": "bytes32"
        },
        {
          "name": "_assetId",
          "type": "uint256"
        },
        {
          "name": "_schemaId",
          "type": "uint256"
        },
        {
          "name": "_lifeTime",
          "type": "uint256"
        },
        {
          "name": "_dappId",
          "type": "string"
        },
        {
          "name": "_description",
          "type": "string"
        }
      ],
      "name": "handshake",
      "outputs": [],
      "payable": false,
      "stateMutability": "nonpayable",
      "type": "function",
      "signature": "0x42b4bed4"
    },
    {
      "constant": false,
      "inputs": [
        {
          "name": "_deviceHash",
          "type": "bytes32"
        },
        {
          "name": "_dappId",
          "type": "string"
        }
      ],
      "name": "removeDevice",
      "outputs": [],
      "payable": false,
      "stateMutability": "nonpayable",
      "type": "function",
      "signature": "0xa2da6a9a"
    }
  ],
  "bytecode": "0x60806040523480156200001157600080fd5b5060405160208062002b6f833981018060405262000033919081019062000091565b80600260006101000a81548173ffffffffffffffffffffffffffffffffffffffff021916908373ffffffffffffffffffffffffffffffffffffffff16021790555050620000f1565b6000620000898251620000bd565b905092915050565b600060208284031215620000a457600080fd5b6000620000b4848285016200007b565b91505092915050565b6000620000ca82620000d1565b9050919050565b600073ffffffffffffffffffffffffffffffffffffffff82169050919050565b612a6e80620001016000396000f3fe608060405234801561001057600080fd5b50600436106100bb576000357c01000000000000000000000000000000000000000000000000000000009004806344a57ff51161008357806344a57ff5146101885780636795dbcd146101b8578063a2da6a9a146101e8578063dce6541814610204578063f5264c5214610234576100bb565b80630e1f7ed8146100c057806312e3b03c146100f0578063132c6aa41461012057806318de1d871461013c57806342b4bed41461016c575b600080fd5b6100da60048036036100d59190810190611e30565b610264565b6040516100e791906126b8565b60405180910390f35b61010a60048036036101059190810190611d5f565b61067e565b60405161011791906126fc565b60405180910390f35b61013a60048036036101359190810190611f6a565b610712565b005b61015660048036036101519190810190611eaf565b610737565b60405161016391906126fc565b60405180910390f35b61018660048036036101819190810190611ff9565b6107e4565b005b6101a2600480360361019d91908101906120f3565b6107fb565b6040516101af91906126da565b60405180910390f35b6101d260048036036101cd9190810190611eaf565b610b3e565b6040516101df91906125b2565b60405180910390f35b61020260048036036101fd9190810190611eaf565b610ba7565b005b61021e600480360361021991908101906120b2565b610bb6565b60405161022b9190612797565b60405180910390f35b61024e60048036036102499190810190611f03565b610c87565b60405161025b91906126fc565b60405180910390f35b6060600061027183610eae565b9050600073ffffffffffffffffffffffffffffffffffffffff1681600201600087815260200190815260200160002060009054906101000a900473ffffffffffffffffffffffffffffffffffffffff1673ffffffffffffffffffffffffffffffffffffffff16141561031c576060600060405190808252806020026020018201604052801561030f5781602001602082028038833980820191505090505b5090508092505050610677565b6000845111610360576040517f08c379a000000000000000000000000000000000000000000000000000000000815260040161035790612717565b60405180910390fd5b6103686119ff565b81600101600083600201600089815260200190815260200160002060009054906101000a900473ffffffffffffffffffffffffffffffffffffffff1673ffffffffffffffffffffffffffffffffffffffff1673ffffffffffffffffffffffffffffffffffffffff16815260200190815260200160002060000160008781526020019081526020016000206040518060a0016040529081600082015481526020016001820154815260200160028201548152602001600382018054600181600116156101000203166002900480601f0160208091040260200160405190810160405280929190818152602001828054600181600116156101000203166002900480156104b45780601f10610489576101008083540402835291602001916104b4565b820191906000526020600020905b81548152906001019060200180831161049757829003601f168201915b50505050508152602001600482018054600181600116156101000203166002900480601f0160208091040260200160405190810160405280929190818152602001828054600181600116156101000203166002900480156105565780601f1061052b57610100808354040283529160200191610556565b820191906000526020600020905b81548152906001019060200180831161053957829003601f168201915b5050505050815250509050600260009054906101000a900473ffffffffffffffffffffffffffffffffffffffff1673ffffffffffffffffffffffffffffffffffffffff1663e02d5a0383600201600089815260200190815260200160002060009054906101000a900473ffffffffffffffffffffffffffffffffffffffff1687846040015185606001516040518563ffffffff167c010000000000000000000000000000000000000000000000000000000002815260040161061b94939291906125cd565b600060405180830381600087803b15801561063557600080fd5b505af1158015610649573d6000803e3d6000fd5b505050506040513d6000823e3d601f19601f820116820180604052506106729190810190611dc6565b925050505b9392505050565b60008061068a83610eae565b905060008573ffffffffffffffffffffffffffffffffffffffff1682600201600087815260200190815260200160002060009054906101000a900473ffffffffffffffffffffffffffffffffffffffff1673ffffffffffffffffffffffffffffffffffffffff1614801561070457506107038585610737565b5b905080925050509392505050565b6107303386868686866040518060200160405280600081525061113b565b5050505050565b60008061074383610eae565b905060004282600101600084600201600089815260200190815260200160002060009054906101000a900473ffffffffffffffffffffffffffffffffffffffff1673ffffffffffffffffffffffffffffffffffffffff1673ffffffffffffffffffffffffffffffffffffffff168152602001908152602001600020600001600087815260200190815260200160002060000154119050809250505092915050565b6107f33387878787878761113b565b505050505050565b6060600061080883610eae565b90506060600a60405190808252806020026020018201604052801561084757816020015b610834611a2e565b81526020019060019003908161082c5790505b5090506000600a86600a0203905060608360010160003373ffffffffffffffffffffffffffffffffffffffff1673ffffffffffffffffffffffffffffffffffffffff1681526020019081526020016000206001018054806020026020016040519081016040528092919081815260200182805480156108e557602002820191906000526020600020905b8154815260200190600101908083116108d1575b505050505090506000815114806108ff5750600181510382115b156109135760608095505050505050610b38565b60008090505b87600a02831015610b2f578151831015610b1a578460010160003373ffffffffffffffffffffffffffffffffffffffff1673ffffffffffffffffffffffffffffffffffffffff168152602001908152602001600020600001600083858151811061097f57fe5b602002602001015181526020019081526020016000206040518060a0016040529081600082015481526020016001820154815260200160028201548152602001600382018054600181600116156101000203166002900480601f016020809104026020016040519081016040528092919081815260200182805460018160011615610100020316600290048015610a575780601f10610a2c57610100808354040283529160200191610a57565b820191906000526020600020905b815481529060010190602001808311610a3a57829003601f168201915b50505050508152602001600482018054600181600116156101000203166002900480601f016020809104026020016040519081016040528092919081815260200182805460018160011615610100020316600290048015610af95780601f10610ace57610100808354040283529160200191610af9565b820191906000526020600020905b815481529060010190602001808311610adc57829003601f168201915b505050505081525050848281518110610b0e57fe5b60200260200101819052505b80806001019150508280600101935050610919565b83955050505050505b92915050565b600080610b4a83610eae565b90506000610b588585610737565b905060008115610b9b5782600201600087815260200190815260200160002060009054906101000a900473ffffffffffffffffffffffffffffffffffffffff1690505b80935050505092915050565b610bb2338383611565565b5050565b600080610bc283610eae565b90506000600a8260010160003373ffffffffffffffffffffffffffffffffffffffff1673ffffffffffffffffffffffffffffffffffffffff1681526020019081526020016000206001018054905081610c1757fe5b0490506000600a8360010160003373ffffffffffffffffffffffffffffffffffffffff1673ffffffffffffffffffffffffffffffffffffffff1681526020019081526020016000206001018054905081610c6d57fe5b061115610c7d5780806001019150505b8092505050919050565b600080610c9383610eae565b9050600073ffffffffffffffffffffffffffffffffffffffff1681600201600087815260200190815260200160002060009054906101000a900473ffffffffffffffffffffffffffffffffffffffff1673ffffffffffffffffffffffffffffffffffffffff161415610d09576000915050610ea7565b600081600101600083600201600089815260200190815260200160002060009054906101000a900473ffffffffffffffffffffffffffffffffffffffff1673ffffffffffffffffffffffffffffffffffffffff1673ffffffffffffffffffffffffffffffffffffffff16815260200190815260200160002060000160008781526020019081526020016000209050600260009054906101000a900473ffffffffffffffffffffffffffffffffffffffff1673ffffffffffffffffffffffffffffffffffffffff166325c6e6a883600201600089815260200190815260200160002060009054906101000a900473ffffffffffffffffffffffffffffffffffffffff16878460020154856003016040518563ffffffff167c0100000000000000000000000000000000000000000000000000000000028152600401610e50949392919061266c565b602060405180830381600087803b158015610e6a57600080fd5b505af1158015610e7e573d6000803e3d6000fd5b505050506040513d601f19601f82011682018060405250610ea29190810190611e07565b925050505b9392505050565b600080828051906020012090506060600080838152602001908152602001600020805480602002602001604051908101604052809291908181526020018280548015610f1957602002820191906000526020600020905b815481526020019060010190808311610f05575b505050505090506000815111156110715760008090505b815181101561106f5761102561100e6001848481518110610f4d57fe5b602002602001015181548110610f5f57fe5b90600052602060002090600302016000018054600181600116156101000203166002900480601f0160208091040260200160405190810160405280929190818152602001828054600181600116156101000203166002900480156110045780601f10610fd957610100808354040283529160200191611004565b820191906000526020600020905b815481529060010190602001808311610fe757829003601f168201915b50505050506118cf565b611017876118cf565b6118fd90919063ffffffff16565b1561106257600182828151811061103857fe5b60200260200101518154811061104a57fe5b90600052602060002090600302019350505050611136565b8080600101915050610f30565b505b60016040518060200160405280868152509080600181540180825580915050906001820390600052602060002090600302016000909192909190915060008201518160000190805190602001906110c9929190611a5d565b505050506000600180805490500390506000808481526020019081526020016000208190806001815401808255809150509060018203906000526020600020016000909192909190915055506001818154811061112257fe5b906000526020600020906003020193505050505b919050565b6000851461125257600260009054906101000a900473ffffffffffffffffffffffffffffffffffffffff1673ffffffffffffffffffffffffffffffffffffffff166325c6e6a8888787866040518563ffffffff167c01000000000000000000000000000000000000000000000000000000000281526004016111c09493929190612620565b602060405180830381600087803b1580156111da57600080fd5b505af11580156111ee573d6000803e3d6000fd5b505050506040513d601f19601f820116820180604052506112129190810190611e07565b611251576040517f08c379a000000000000000000000000000000000000000000000000000000000815260040161124890612737565b60405180910390fd5b5b600061125d83610eae565b9050600073ffffffffffffffffffffffffffffffffffffffff1681600201600089815260200190815260200160002060009054906101000a900473ffffffffffffffffffffffffffffffffffffffff1673ffffffffffffffffffffffffffffffffffffffff16141580156112d857506112d68784610737565b155b1561131e5761131d81600201600089815260200190815260200160002060009054906101000a900473ffffffffffffffffffffffffffffffffffffffff168885611565565b5b600073ffffffffffffffffffffffffffffffffffffffff1681600201600089815260200190815260200160002060009054906101000a900473ffffffffffffffffffffffffffffffffffffffff1673ffffffffffffffffffffffffffffffffffffffff16146113c2576040517f08c379a00000000000000000000000000000000000000000000000000000000081526004016113b990612777565b60405180910390fd5b8781600201600089815260200190815260200160002060006101000a81548173ffffffffffffffffffffffffffffffffffffffff021916908373ffffffffffffffffffffffffffffffffffffffff1602179055506040518060a00160405280858152602001878152602001868152602001848152602001838152508160010160008a73ffffffffffffffffffffffffffffffffffffffff1673ffffffffffffffffffffffffffffffffffffffff168152602001908152602001600020600001600089815260200190815260200160002060008201518160000155602082015181600101556040820151816002015560608201518160030190805190602001906114cc929190611a5d565b5060808201518160040190805190602001906114e9929190611a5d565b509050508060010160008973ffffffffffffffffffffffffffffffffffffffff1673ffffffffffffffffffffffffffffffffffffffff1681526020019081526020016000206001018790806001815401808255809150509060018203906000526020600020016000909192909190915055505050505050505050565b600061157082610eae565b90508373ffffffffffffffffffffffffffffffffffffffff1681600201600085815260200190815260200160002060009054906101000a900473ffffffffffffffffffffffffffffffffffffffff1673ffffffffffffffffffffffffffffffffffffffff1614611615576040517f08c379a000000000000000000000000000000000000000000000000000000000815260040161160c90612757565b60405180910390fd5b80600201600084815260200190815260200160002060006101000a81549073ffffffffffffffffffffffffffffffffffffffff02191690558060010160008573ffffffffffffffffffffffffffffffffffffffff1673ffffffffffffffffffffffffffffffffffffffff1681526020019081526020016000206000016000848152602001908152602001600020600080820160009055600182016000905560028201600090556003820160006116cb9190611add565b6004820160006116db9190611add565b5050600080905060008090505b60018360010160008873ffffffffffffffffffffffffffffffffffffffff1673ffffffffffffffffffffffffffffffffffffffff168152602001908152602001600020600101805490500381101561186f57818061179e5750848360010160008873ffffffffffffffffffffffffffffffffffffffff1673ffffffffffffffffffffffffffffffffffffffff168152602001908152602001600020600101828154811061179157fe5b9060005260206000200154145b1561186257600191508260010160008773ffffffffffffffffffffffffffffffffffffffff1673ffffffffffffffffffffffffffffffffffffffff16815260200190815260200160002060010160018201815481106117f957fe5b90600052602060002001548360010160008873ffffffffffffffffffffffffffffffffffffffff1673ffffffffffffffffffffffffffffffffffffffff168152602001908152602001600020600101828154811061185357fe5b90600052602060002001819055505b80806001019150506116e8565b508160010160008673ffffffffffffffffffffffffffffffffffffffff1673ffffffffffffffffffffffffffffffffffffffff1681526020019081526020016000206001018054809190600190036118c79190611b25565b505050505050565b6118d7611b51565b600060208301905060405180604001604052808451815260200182815250915050919050565b60008061190a8484611913565b14905092915050565b6000808360000151905083600001518360000151101561193557826000015190505b60008460200151905060008460200151905060008090505b838110156119e75760008084519150835190508082146119ce5760007fffffffffffffffffffffffffffffffffffffffffffffffffffffffffffffffff905060208710156119a857600184886020030160080260020a031990505b6000818316828516039050600081146119cb5780985050505050505050506119f9565b50505b602085019450602084019350505060208101905061194d565b50846000015186600001510393505050505b92915050565b6040518060a0016040528060008152602001600081526020016000815260200160608152602001606081525090565b6040518060a0016040528060008152602001600081526020016000815260200160608152602001606081525090565b828054600181600116156101000203166002900490600052602060002090601f016020900481019282601f10611a9e57805160ff1916838001178555611acc565b82800160010185558215611acc579182015b82811115611acb578251825591602001919060010190611ab0565b5b509050611ad99190611b6b565b5090565b50805460018160011615610100020316600290046000825580601f10611b035750611b22565b601f016020900490600052602060002090810190611b219190611b6b565b5b50565b815481835581811115611b4c57818360005260206000209182019101611b4b9190611b90565b5b505050565b604051806040016040528060008152602001600081525090565b611b8d91905b80821115611b89576000816000905550600101611b71565b5090565b90565b611bb291905b80821115611bae576000816000905550600101611b96565b5090565b90565b6000611bc1823561298f565b905092915050565b600082601f830112611bda57600080fd5b8151611bed611be8826127df565b6127b2565b91508181835260208401935060208101905083856020840282011115611c1257600080fd5b60005b83811015611c425781611c288882611ccf565b845260208401935060208301925050600181019050611c15565b5050505092915050565b600082601f830112611c5d57600080fd5b8135611c70611c6b82612807565b6127b2565b91508181835260208401935060208101905083856020840282011115611c9557600080fd5b60005b83811015611cc55781611cab8882611d4b565b845260208401935060208301925050600181019050611c98565b5050505092915050565b6000611cdb82516129a1565b905092915050565b6000611cef82356129ad565b905092915050565b600082601f830112611d0857600080fd5b8135611d1b611d168261282f565b6127b2565b91508082526020830160208301858383011115611d3757600080fd5b611d428382846129e1565b50505092915050565b6000611d5782356129d7565b905092915050565b600080600060608486031215611d7457600080fd5b6000611d8286828701611bb5565b9350506020611d9386828701611ce3565b925050604084013567ffffffffffffffff811115611db057600080fd5b611dbc86828701611cf7565b9150509250925092565b600060208284031215611dd857600080fd5b600082015167ffffffffffffffff811115611df257600080fd5b611dfe84828501611bc9565b91505092915050565b600060208284031215611e1957600080fd5b6000611e2784828501611ccf565b91505092915050565b600080600060608486031215611e4557600080fd5b6000611e5386828701611ce3565b935050602084013567ffffffffffffffff811115611e7057600080fd5b611e7c86828701611c4c565b925050604084013567ffffffffffffffff811115611e9957600080fd5b611ea586828701611cf7565b9150509250925092565b60008060408385031215611ec257600080fd5b6000611ed085828601611ce3565b925050602083013567ffffffffffffffff811115611eed57600080fd5b611ef985828601611cf7565b9150509250929050565b600080600060608486031215611f1857600080fd5b6000611f2686828701611ce3565b9350506020611f3786828701611d4b565b925050604084013567ffffffffffffffff811115611f5457600080fd5b611f6086828701611cf7565b9150509250925092565b600080600080600060a08688031215611f8257600080fd5b6000611f9088828901611ce3565b9550506020611fa188828901611d4b565b9450506040611fb288828901611d4b565b9350506060611fc388828901611d4b565b925050608086013567ffffffffffffffff811115611fe057600080fd5b611fec88828901611cf7565b9150509295509295909350565b60008060008060008060c0878903121561201257600080fd5b600061202089828a01611ce3565b965050602061203189828a01611d4b565b955050604061204289828a01611d4b565b945050606061205389828a01611d4b565b935050608087013567ffffffffffffffff81111561207057600080fd5b61207c89828a01611cf7565b92505060a087013567ffffffffffffffff81111561209957600080fd5b6120a589828a01611cf7565b9150509295509295509295565b6000602082840312156120c457600080fd5b600082013567ffffffffffffffff8111156120de57600080fd5b6120ea84828501611cf7565b91505092915050565b6000806040838503121561210657600080fd5b600061211485828601611d4b565b925050602083013567ffffffffffffffff81111561213157600080fd5b61213d85828601611cf7565b9150509250929050565b600061215383836122bf565b60208301905092915050565b600061216b8383612517565b905092915050565b600061217f8383612594565b60208301905092915050565b61219481612947565b82525050565b60006121a582612894565b6121af81856128f2565b93506121ba8361285b565b60005b828110156121e8576121d0868351612147565b95506121db826128cb565b91506001810190506121bd565b50849250505092915050565b60006121ff8261289f565b6122098185612903565b93508360208202850161221b85612868565b60005b8481101561225457838303885261223683835161215f565b9250612241826128d8565b915060208801975060018101905061221e565b508196508694505050505092915050565b6000612270826128aa565b61227a8185612914565b935061228583612875565b60005b828110156122b35761229b868351612173565b95506122a6826128e5565b9150600181019050612288565b50849250505092915050565b6122c881612959565b82525050565b6122d781612959565b82525050565b60006122e8826128c0565b6122f28185612936565b93506123028185602086016129f0565b61230b81612a23565b840191505092915050565b6000612321826128b5565b61232b8185612925565b935061233b8185602086016129f0565b61234481612a23565b840191505092915050565b600061235a826128b5565b6123648185612936565b93506123748185602086016129f0565b61237d81612a23565b840191505092915050565b6000815460018116600081146123a557600181146123cb5761240f565b607f60028304166123b68187612936565b955060ff19831686526020860193505061240f565b600282046123d98187612936565b95506123e485612882565b60005b82811015612406578154818901526001820191506020810190506123e7565b80880195505050505b505092915050565b6000612424600c83612936565b91507f656d7074792061737365747300000000000000000000000000000000000000006000830152602082019050919050565b6000612464600b83612936565b91507f6e6f7420616c6c6f7765640000000000000000000000000000000000000000006000830152602082019050919050565b60006124a4600a83612936565b91507f73616d65206f776e6572000000000000000000000000000000000000000000006000830152602082019050919050565b60006124e4600f83612936565b91507f6475706c696361746564206861736800000000000000000000000000000000006000830152602082019050919050565b600060a08301600083015161252f6000860182612594565b5060208301516125426020860182612594565b5060408301516125556040860182612594565b506060830151848203606086015261256d8282612316565b915050608083015184820360808601526125878282612316565b9150508091505092915050565b61259d81612985565b82525050565b6125ac81612985565b82525050565b60006020820190506125c7600083018461218b565b92915050565b60006080820190506125e2600083018761218b565b81810360208301526125f48186612265565b905061260360408301856125a3565b8181036060830152612615818461234f565b905095945050505050565b6000608082019050612635600083018761218b565b61264260208301866125a3565b61264f60408301856125a3565b818103606083015261266181846122dd565b905095945050505050565b6000608082019050612681600083018761218b565b61268e60208301866125a3565b61269b60408301856125a3565b81810360608301526126ad8184612388565b905095945050505050565b600060208201905081810360008301526126d2818461219a565b905092915050565b600060208201905081810360008301526126f481846121f4565b905092915050565b600060208201905061271160008301846122ce565b92915050565b6000602082019050818103600083015261273081612417565b9050919050565b6000602082019050818103600083015261275081612457565b9050919050565b6000602082019050818103600083015261277081612497565b9050919050565b60006020820190508181036000830152612790816124d7565b9050919050565b60006020820190506127ac60008301846125a3565b92915050565b6000604051905081810181811067ffffffffffffffff821117156127d557600080fd5b8060405250919050565b600067ffffffffffffffff8211156127f657600080fd5b602082029050602081019050919050565b600067ffffffffffffffff82111561281e57600080fd5b602082029050602081019050919050565b600067ffffffffffffffff82111561284657600080fd5b601f19601f8301169050602081019050919050565b6000602082019050919050565b6000602082019050919050565b6000602082019050919050565b60008160005260206000209050919050565b600081519050919050565b600081519050919050565b600081519050919050565b600081519050919050565b600081519050919050565b6000602082019050919050565b6000602082019050919050565b6000602082019050919050565b600082825260208201905092915050565b600082825260208201905092915050565b600082825260208201905092915050565b600082825260208201905092915050565b600082825260208201905092915050565b600061295282612965565b9050919050565b60008115159050919050565b600073ffffffffffffffffffffffffffffffffffffffff82169050919050565b6000819050919050565b600061299a826129b7565b9050919050565b60008115159050919050565b6000819050919050565b600073ffffffffffffffffffffffffffffffffffffffff82169050919050565b6000819050919050565b82818337600083830152505050565b60005b83811015612a0e5780820151818401526020810190506129f3565b83811115612a1d576000848401525b50505050565b6000601f19601f830116905091905056fea265627a7a723058204b231d27ca9169a65d36cbf72ed06a4f285f8057c39a1ef5c45ce357939ee4ef6c6578706572696d656e74616cf50037",
  "source": "pragma solidity ^0.5.2;\npragma experimental ABIEncoderV2;\n\nimport \"./Assets.sol\";\n\ncontract Devices {\n\n  using Strings for *;\n\n  struct DappCtx {\n    string dappID;\n    mapping (address => UserDevices)  userDevices_;\n    mapping (bytes32 => address)  deviceHashes_;\n  }\n\n  struct UserDevices {   \n    mapping (bytes32 => Device) devices;\n    bytes32[] deviceArray;\n  } \n\n  struct Device {   \n    uint256 expirationDate;\n    uint256 assetId;\n    uint256 schemaId;\n    string dappId;\n    string description;\n  }\n\n  uint256 constant private PAGE_SIZE = 10;\n\n  mapping (bytes32 => uint[]) private dappCtxhashIndexMap_;\n  DappCtx[] private dappCtxs_;\n\n  Assets private _assets;\n  \n  constructor (address _assetsAddr) public{\n    _assets = Assets(_assetsAddr);    \n  }\n    \n  function isAllowed(bytes32 _deviceHash, string memory dappId) public  returns (bool) {\n    DappCtx storage ctx = _getDappCtx(dappId);\n    bool allowed = ctx.userDevices_[ctx.deviceHashes_[_deviceHash]].devices[_deviceHash].expirationDate > now ;\n    return allowed;\n  }\n\n  function isAllowedForAddress(address _target, bytes32 _deviceHash, string memory dappId) public  returns (bool) {\n    DappCtx storage ctx = _getDappCtx(dappId);\n    bool allowed =  (ctx.deviceHashes_[_deviceHash] == _target) && (isAllowed(_deviceHash,dappId));\n    return allowed;\n  }\n\n  function checkOwnershipMultipleAssetsForDevice(bytes32 _deviceHash, uint256[] memory _assetIds, string memory dappId) public  returns (bool[] memory) {\n    DappCtx storage ctx = _getDappCtx(dappId);\n    //require(ctx.deviceHashes_[_deviceHash] != address(0), \"not exist\");\n    if (ctx.deviceHashes_[_deviceHash] == address(0)) {\n      bool[] memory empty  = new bool[](0); \n      return empty;\n    }\n    require(_assetIds.length > 0, \"empty assets\");\n  \n    Device memory device = ctx.userDevices_[ctx.deviceHashes_[_deviceHash]].devices[_deviceHash];\n\n    return _assets.checkOwnershipMultipleAssetsForAddress(ctx.deviceHashes_[_deviceHash],_assetIds,device.schemaId,device.dappId);\n  }\n\n  function checkOwnershipOneAssetForDevice(bytes32 _deviceHash, uint256 _assetId, string memory dappId) public  returns (bool) {\n    DappCtx storage ctx = _getDappCtx(dappId);\n    //require(ctx.deviceHashes_[_deviceHash] != address(0), \"not exist\");\n    // require returns true on failured validation.\n    if (ctx.deviceHashes_[_deviceHash] == address(0)) {\n      return false;\n    }\n    \n    Device storage device = ctx.userDevices_[ctx.deviceHashes_[_deviceHash]].devices[_deviceHash];\n\n    return _assets.checkOwnershipOneAssetForAddress(ctx.deviceHashes_[_deviceHash],_assetId,device.schemaId,device.dappId);\n  }\n\n  function getDevicesPageCount(string memory dappId) public  returns (uint256) {\n    DappCtx storage ctx = _getDappCtx(dappId);    \n    uint256 pages = ctx.userDevices_[msg.sender].deviceArray.length / PAGE_SIZE;\n    if ( (ctx.userDevices_[msg.sender].deviceArray.length % PAGE_SIZE)>0) {\n      pages++;\n    }\n    return pages;\n  }\n\n  function getDevices(uint256 _page, string memory dappId) public  returns (Device[] memory) {\n    DappCtx storage ctx = _getDappCtx(dappId); \n    Device[] memory devicesPage = new Device[](PAGE_SIZE); \n    uint256 transferIndex = PAGE_SIZE * _page - PAGE_SIZE;\n    bytes32[] memory devices = ctx.userDevices_[msg.sender].deviceArray;\n\n    if (devices.length == 0 || transferIndex > devices.length - 1) {\n      Device[] memory empty;\n      return empty;\n    }\n   \n    uint256 returnCounter = 0;\n\n    for (transferIndex; transferIndex < PAGE_SIZE * _page; transferIndex++) {\n      if (transferIndex < devices.length) {\n        devicesPage[returnCounter] = ctx.userDevices_[msg.sender].devices[devices[transferIndex]];\n      }\n      returnCounter++;\n    }\n    return devicesPage;\n  }\n\n  function getAddress(bytes32 _deviceHash, string memory dappId) public  returns (address) {\n    DappCtx storage ctx = _getDappCtx(dappId);\n    bool allowed = isAllowed(_deviceHash,dappId);\n    address ownerAddress;\n    if (allowed) {\n      ownerAddress = ctx.deviceHashes_[_deviceHash];\n    } \n    return ownerAddress;\n  }\n\n  function handshake(bytes32 _deviceHash, uint256 _assetId, uint256 _schemaId, uint256 _lifeTime, string memory _dappId) public {\n    _handshake(msg.sender, _deviceHash, _assetId, _schemaId, _lifeTime, _dappId, \"\");\n  }\n\n  function handshake(bytes32 _deviceHash, uint256 _assetId, uint256 _schemaId, uint256 _lifeTime, string memory _dappId, string memory _description) public {\n    _handshake(msg.sender, _deviceHash, _assetId, _schemaId, _lifeTime, _dappId, _description);\n  }\n\n  function removeDevice(bytes32 _deviceHash, string memory _dappId) public {\n    _removeDevice(msg.sender, _deviceHash,_dappId);\n  }\n\n    \n  function _handshake(address _owner, bytes32 _deviceHash, uint256 _assetId, uint256 _schemaId, uint256 _lifeTime, string memory _dappId, string memory _description) internal {\n   \n    if (_assetId != 0 ){\n      // asseId == = is only for device handshake\n      require(_assets.checkOwnershipOneAssetForAddress(_owner, _assetId, _schemaId, _dappId),\"not allowed\");\n    }\n    \n    DappCtx storage ctx = _getDappCtx(_dappId);\n\n    if ((ctx.deviceHashes_[_deviceHash] != address(0)) && (!isAllowed(_deviceHash,_dappId))) {\n      _removeDevice(ctx.deviceHashes_[_deviceHash], _deviceHash,_dappId);\n    }\n\n    require(ctx.deviceHashes_[_deviceHash] == address(0), \"duplicated hash\");\n    ctx.deviceHashes_[_deviceHash] = _owner; \n    ctx.userDevices_[_owner].devices[_deviceHash] =  Device(_lifeTime, _assetId, _schemaId, _dappId, _description);\n    ctx.userDevices_[_owner].deviceArray.push(_deviceHash);\n  }\n\n  function _removeDevice(address _owner, bytes32 _deviceHash, string memory _dappId) internal {\n    DappCtx storage ctx = _getDappCtx(_dappId);\n    require(ctx.deviceHashes_[_deviceHash] == _owner, \"same owner\");\n    delete ctx.deviceHashes_[_deviceHash];\n    delete ctx.userDevices_[_owner].devices[_deviceHash];\n    bool found=false;\n    for (uint i = 0; i < ctx.userDevices_[_owner].deviceArray.length-1;i++){\n      if(found || (ctx.userDevices_[_owner].deviceArray[i] == _deviceHash)){\n        found= true;\n        ctx.userDevices_[_owner].deviceArray[i] = ctx.userDevices_[_owner].deviceArray[i+1];\n      }\n    }\n    ctx.userDevices_[_owner].deviceArray.length--;\n  }\n\n  function _getDappCtx(string memory dappId) internal returns (DappCtx storage) {\n    bytes32 dappIdHash = keccak256(bytes(dappId));\n    uint[] memory indexArray = dappCtxhashIndexMap_[dappIdHash];\n\n    if (indexArray.length > 0) {\n      // hash collision check\n      for (uint i = 0 ; i < indexArray.length ; i++) {\n        if (dappId.toSlice().equals(dappCtxs_[indexArray[i]].dappID.toSlice())) {\n          return dappCtxs_[indexArray[i]];\n        }\n      }\n    }\n\n    dappCtxs_.push(DappCtx(dappId));\n    uint dappIndex = dappCtxs_.length-1;\n\n    dappCtxhashIndexMap_[dappIdHash].push(dappIndex);\n\n    return dappCtxs_[dappIndex];\n  }\n\n}",
  "sourcePath": "/home/jordi/ws/bloomenio/bloomen-wallet/bloomen-wallet-truffle/contracts/bloomen/Devices.sol",
  "compiler": {
    "name": "solc",
    "version": "0.5.7+commit.6da8b019.Emscripten.clang"
  },
  "schemaVersion": "3.0.6",
  "updatedAt": "2019-05-29T14:17:05.298Z",
  "devdoc": {
    "methods": {}
  },
  "userdoc": {
    "methods": {}
  }
}