{
  "contractName": "MovementHistory",
  "abi": [
    {
      "constant": false,
      "inputs": [
        {
          "name": "account",
          "type": "address"
        }
      ],
      "name": "addWhitelisted",
      "outputs": [],
      "payable": false,
      "stateMutability": "nonpayable",
      "type": "function"
    },
    {
      "constant": false,
      "inputs": [
        {
          "name": "account",
          "type": "address"
        }
      ],
      "name": "removeWhitelisted",
      "outputs": [],
      "payable": false,
      "stateMutability": "nonpayable",
      "type": "function"
    },
    {
      "constant": true,
      "inputs": [
        {
          "name": "account",
          "type": "address"
        }
      ],
      "name": "isWhitelisted",
      "outputs": [
        {
          "name": "",
          "type": "bool"
        }
      ],
      "payable": false,
      "stateMutability": "view",
      "type": "function"
    },
    {
      "constant": false,
      "inputs": [],
      "name": "renounceWhitelistAdmin",
      "outputs": [],
      "payable": false,
      "stateMutability": "nonpayable",
      "type": "function"
    },
    {
      "constant": false,
      "inputs": [
        {
          "name": "account",
          "type": "address"
        }
      ],
      "name": "addWhitelistAdmin",
      "outputs": [],
      "payable": false,
      "stateMutability": "nonpayable",
      "type": "function"
    },
    {
      "constant": true,
      "inputs": [
        {
          "name": "account",
          "type": "address"
        }
      ],
      "name": "isWhitelistAdmin",
      "outputs": [
        {
          "name": "",
          "type": "bool"
        }
      ],
      "payable": false,
      "stateMutability": "view",
      "type": "function"
    },
    {
      "constant": false,
      "inputs": [],
      "name": "renounceWhitelisted",
      "outputs": [],
      "payable": false,
      "stateMutability": "nonpayable",
      "type": "function"
    },
    {
      "anonymous": false,
      "inputs": [
        {
          "indexed": true,
          "name": "account",
          "type": "address"
        }
      ],
      "name": "WhitelistedAdded",
      "type": "event"
    },
    {
      "anonymous": false,
      "inputs": [
        {
          "indexed": true,
          "name": "account",
          "type": "address"
        }
      ],
      "name": "WhitelistedRemoved",
      "type": "event"
    },
    {
      "anonymous": false,
      "inputs": [
        {
          "indexed": true,
          "name": "account",
          "type": "address"
        }
      ],
      "name": "WhitelistAdminAdded",
      "type": "event"
    },
    {
      "anonymous": false,
      "inputs": [
        {
          "indexed": true,
          "name": "account",
          "type": "address"
        }
      ],
      "name": "WhitelistAdminRemoved",
      "type": "event"
    },
    {
      "constant": false,
      "inputs": [
        {
          "name": "_amount",
          "type": "int256"
        },
        {
          "name": "_description",
          "type": "string"
        },
        {
          "name": "_from",
          "type": "address"
        },
        {
          "name": "_to",
          "type": "address"
        }
      ],
      "name": "addMovement",
      "outputs": [],
      "payable": false,
      "stateMutability": "nonpayable",
      "type": "function"
    },
    {
      "constant": true,
      "inputs": [
        {
          "name": "_page",
          "type": "int256"
        }
      ],
      "name": "getMovements",
      "outputs": [
        {
          "components": [
            {
              "name": "amount",
              "type": "int256"
            },
            {
              "name": "description",
              "type": "string"
            },
            {
              "name": "date",
              "type": "uint256"
            },
            {
              "name": "to",
              "type": "address"
            }
          ],
          "name": "",
          "type": "tuple[]"
        }
      ],
      "payable": false,
      "stateMutability": "view",
      "type": "function"
    }
  ],
  "bytecode": "0x608060405261001c33610021640100000000026401000000009004565b6101d5565b61004281600061008864010000000002610ceb179091906401000000009004565b8073ffffffffffffffffffffffffffffffffffffffff167f22380c05984257a1cb900161c713dd71d39e74820f1aea43bd3f1bdd2096129960405160405180910390a250565b600073ffffffffffffffffffffffffffffffffffffffff168173ffffffffffffffffffffffffffffffffffffffff1614156100c257600080fd5b6100db8282610143640100000000026401000000009004565b156100e557600080fd5b60018260000160008373ffffffffffffffffffffffffffffffffffffffff1673ffffffffffffffffffffffffffffffffffffffff16815260200190815260200160002060006101000a81548160ff0219169083151502179055505050565b60008073ffffffffffffffffffffffffffffffffffffffff168273ffffffffffffffffffffffffffffffffffffffff16141561017e57600080fd5b8260000160008373ffffffffffffffffffffffffffffffffffffffff1673ffffffffffffffffffffffffffffffffffffffff16815260200190815260200160002060009054906101000a900460ff16905092915050565b61143f80620001e56000396000f3fe608060405234801561001057600080fd5b50600436106100b0576000357c0100000000000000000000000000000000000000000000000000000000900480634c5a628c116100835780634c5a628c1461014d57806350f38048146101575780637362d9c814610173578063bb5f747b1461018f578063d6cd9473146101bf576100b0565b806310154bad146100b557806317b1b498146100d1578063291d9549146101015780633af32abf1461011d575b600080fd5b6100cf60048036036100ca9190810190610fa1565b6101c9565b005b6100eb60048036036100e69190810190610fca565b6101e7565b6040516100f8919061120b565b60405180910390f35b61011b60048036036101169190810190610fa1565b61050c565b005b61013760048036036101329190810190610fa1565b61052a565b604051610144919061122d565b60405180910390f35b610155610547565b005b610171600480360361016c9190810190610ff3565b610552565b005b61018d60048036036101889190810190610fa1565b610576565b005b6101a960048036036101a49190810190610fa1565b610594565b6040516101b6919061122d565b60405180910390f35b6101c76105b1565b005b6101d233610594565b6101db57600080fd5b6101e4816105bc565b50565b60606000821380156102045750600a6064816101ff57fe5b058213155b610243576040517f08c379a000000000000000000000000000000000000000000000000000000000815260040161023a90611248565b60405180910390fd5b600060018303600a0290506060600260003373ffffffffffffffffffffffffffffffffffffffff1673ffffffffffffffffffffffffffffffffffffffff168152602001908152602001600020805480602002602001604051908101604052809291908181526020016000905b828210156103ed578382906000526020600020906004020160405180608001604052908160008201548152602001600182018054600181600116156101000203166002900480601f0160208091040260200160405190810160405280929190818152602001828054600181600116156101000203166002900480156103755780601f1061034a57610100808354040283529160200191610375565b820191906000526020600020905b81548152906001019060200180831161035857829003601f168201915b50505050508152602001600282015481526020016003820160009054906101000a900473ffffffffffffffffffffffffffffffffffffffff1673ffffffffffffffffffffffffffffffffffffffff1673ffffffffffffffffffffffffffffffffffffffff1681525050815260200190600101906102af565b50505050905081815111610408576060809350505050610507565b6060600a60405190808252806020026020018201604052801561044557816020015b610432610e42565b81526020019060019003908161042a5790505b50905060008090505b600a8112156104ff5760008185600360003373ffffffffffffffffffffffffffffffffffffffff1673ffffffffffffffffffffffffffffffffffffffff168152602001908152602001600020540303905060008112156104c6576064845110156104bf578295505050505050610507565b6064810190505b8381815181106104d257fe5b60200260200101518383815181106104e657fe5b602002602001018190525050808060010191505061044e565b508093505050505b919050565b61051533610594565b61051e57600080fd5b61052781610616565b50565b600061054082600161067090919063ffffffff16565b9050919050565b61055033610702565b565b61055b3361052a565b61056457600080fd5b6105708484848461075c565b50505050565b61057f33610594565b61058857600080fd5b61059181610c91565b50565b60006105aa82600061067090919063ffffffff16565b9050919050565b6105ba33610616565b565b6105d0816001610ceb90919063ffffffff16565b8073ffffffffffffffffffffffffffffffffffffffff167fee1504a83b6d4a361f4c1dc78ab59bfa30d6a3b6612c403e86bb01ef2984295f60405160405180910390a250565b61062a816001610d9790919063ffffffff16565b8073ffffffffffffffffffffffffffffffffffffffff167f270d9b30cf5b0793bbfd54c9d5b94aeb49462b8148399000265144a8722da6b660405160405180910390a250565b60008073ffffffffffffffffffffffffffffffffffffffff168273ffffffffffffffffffffffffffffffffffffffff1614156106ab57600080fd5b8260000160008373ffffffffffffffffffffffffffffffffffffffff1673ffffffffffffffffffffffffffffffffffffffff16815260200190815260200160002060009054906101000a900460ff16905092915050565b610716816000610d9790919063ffffffff16565b8073ffffffffffffffffffffffffffffffffffffffff167f0a8eb35e5ca14b3d6f28e4abf2f128dbab231a58b56e89beb5d636115001e16560405160405180910390a250565b6064600260008473ffffffffffffffffffffffffffffffffffffffff1673ffffffffffffffffffffffffffffffffffffffff16815260200190815260200160002080549050101561095157600260008373ffffffffffffffffffffffffffffffffffffffff1673ffffffffffffffffffffffffffffffffffffffff16815260200190815260200160002060405180608001604052808681526020018581526020014281526020018373ffffffffffffffffffffffffffffffffffffffff168152509080600181540180825580915050906001820390600052602060002090600402016000909192909190915060008201518160000155602082015181600101908051906020019061086e929190610e80565b506040820151816002015560608201518160030160006101000a81548173ffffffffffffffffffffffffffffffffffffffff021916908373ffffffffffffffffffffffffffffffffffffffff1602179055505050506001600260008473ffffffffffffffffffffffffffffffffffffffff1673ffffffffffffffffffffffffffffffffffffffff1681526020019081526020016000208054905003600360008473ffffffffffffffffffffffffffffffffffffffff1673ffffffffffffffffffffffffffffffffffffffff16815260200190815260200160002081905550610c8b565b6001606403600360008473ffffffffffffffffffffffffffffffffffffffff1673ffffffffffffffffffffffffffffffffffffffff168152602001908152602001600020541415610af1576000600360008473ffffffffffffffffffffffffffffffffffffffff1673ffffffffffffffffffffffffffffffffffffffff1681526020019081526020016000208190555060405180608001604052808581526020018481526020014281526020018273ffffffffffffffffffffffffffffffffffffffff16815250600260008473ffffffffffffffffffffffffffffffffffffffff1673ffffffffffffffffffffffffffffffffffffffff168152602001908152602001600020600081548110610a6357fe5b9060005260206000209060040201600082015181600001556020820151816001019080519060200190610a97929190610e80565b506040820151816002015560608201518160030160006101000a81548173ffffffffffffffffffffffffffffffffffffffff021916908373ffffffffffffffffffffffffffffffffffffffff160217905550905050610c8a565b600360008373ffffffffffffffffffffffffffffffffffffffff1673ffffffffffffffffffffffffffffffffffffffff1681526020019081526020016000206000815480929190600101919050555060405180608001604052808581526020018481526020014281526020018273ffffffffffffffffffffffffffffffffffffffff16815250600260008473ffffffffffffffffffffffffffffffffffffffff1673ffffffffffffffffffffffffffffffffffffffff168152602001908152602001600020600360008573ffffffffffffffffffffffffffffffffffffffff1673ffffffffffffffffffffffffffffffffffffffff1681526020019081526020016000205481548110610c0057fe5b9060005260206000209060040201600082015181600001556020820151816001019080519060200190610c34929190610e80565b506040820151816002015560608201518160030160006101000a81548173ffffffffffffffffffffffffffffffffffffffff021916908373ffffffffffffffffffffffffffffffffffffffff1602179055509050505b5b50505050565b610ca5816000610ceb90919063ffffffff16565b8073ffffffffffffffffffffffffffffffffffffffff167f22380c05984257a1cb900161c713dd71d39e74820f1aea43bd3f1bdd2096129960405160405180910390a250565b600073ffffffffffffffffffffffffffffffffffffffff168173ffffffffffffffffffffffffffffffffffffffff161415610d2557600080fd5b610d2f8282610670565b15610d3957600080fd5b60018260000160008373ffffffffffffffffffffffffffffffffffffffff1673ffffffffffffffffffffffffffffffffffffffff16815260200190815260200160002060006101000a81548160ff0219169083151502179055505050565b600073ffffffffffffffffffffffffffffffffffffffff168173ffffffffffffffffffffffffffffffffffffffff161415610dd157600080fd5b610ddb8282610670565b610de457600080fd5b60008260000160008373ffffffffffffffffffffffffffffffffffffffff1673ffffffffffffffffffffffffffffffffffffffff16815260200190815260200160002060006101000a81548160ff0219169083151502179055505050565b6040518060800160405280600081526020016060815260200160008152602001600073ffffffffffffffffffffffffffffffffffffffff1681525090565b828054600181600116156101000203166002900490600052602060002090601f016020900481019282601f10610ec157805160ff1916838001178555610eef565b82800160010185558215610eef579182015b82811115610eee578251825591602001919060010190610ed3565b5b509050610efc9190610f00565b5090565b610f2291905b80821115610f1e576000816000905550600101610f06565b5090565b90565b6000610f318235611376565b905092915050565b6000610f458235611388565b905092915050565b600082601f830112610f5e57600080fd5b8135610f71610f6c82611295565b611268565b91508082526020830160208301858383011115610f8d57600080fd5b610f988382846113b2565b50505092915050565b600060208284031215610fb357600080fd5b6000610fc184828501610f25565b91505092915050565b600060208284031215610fdc57600080fd5b6000610fea84828501610f39565b91505092915050565b6000806000806080858703121561100957600080fd5b600061101787828801610f39565b945050602085013567ffffffffffffffff81111561103457600080fd5b61104087828801610f4d565b935050604061105187828801610f25565b925050606061106287828801610f25565b91505092959194509250565b600061107a8383611199565b905092915050565b61108b81611324565b82525050565b600061109c826112ce565b6110a681856112f1565b9350836020820285016110b8856112c1565b60005b848110156110f15783830388526110d383835161106e565b92506110de826112e4565b91506020880197506001810190506110bb565b508196508694505050505092915050565b61110b81611336565b82525050565b61111a81611342565b82525050565b600061112b826112d9565b6111358185611302565b93506111458185602086016113c1565b61114e816113f4565b840191505092915050565b6000611166600d83611313565b91507f496e76616c696420706167652e000000000000000000000000000000000000006000830152602082019050919050565b60006080830160008301516111b16000860182611111565b50602083015184820360208601526111c98282611120565b91505060408301516111de60408601826111fc565b5060608301516111f16060860182611082565b508091505092915050565b6112058161136c565b82525050565b600060208201905081810360008301526112258184611091565b905092915050565b60006020820190506112426000830184611102565b92915050565b6000602082019050818103600083015261126181611159565b9050919050565b6000604051905081810181811067ffffffffffffffff8211171561128b57600080fd5b8060405250919050565b600067ffffffffffffffff8211156112ac57600080fd5b601f19601f8301169050602081019050919050565b6000602082019050919050565b600081519050919050565b600081519050919050565b6000602082019050919050565b600082825260208201905092915050565b600082825260208201905092915050565b600082825260208201905092915050565b600061132f8261134c565b9050919050565b60008115159050919050565b6000819050919050565b600073ffffffffffffffffffffffffffffffffffffffff82169050919050565b6000819050919050565b600061138182611392565b9050919050565b6000819050919050565b600073ffffffffffffffffffffffffffffffffffffffff82169050919050565b82818337600083830152505050565b60005b838110156113df5780820151818401526020810190506113c4565b838111156113ee576000848401525b50505050565b6000601f19601f830116905091905056fea265627a7a723058203f92ef7572c6e74ec4de703f65e3c2dfc515efb0d05c19ec03823c4c654c35516c6578706572696d656e74616cf50037",
  "source": "pragma solidity ^0.5.2;\npragma experimental ABIEncoderV2;\n\nimport \"openzeppelin-solidity/contracts/access/roles/WhitelistedRole.sol\";\n\ncontract MovementHistory is WhitelistedRole {\n\n    struct Movement {\n        int256 amount;\n        string description;\n        uint date;\n        address to;\n    }\n  \n    mapping (address => Movement[]) private transfersMap_;\n    mapping (address => int256) private currentIndexMap_;\n\n \n    int256 constant private MAX = 100;\n    int256 constant private PAGE_SIZE = 10;\n    int256 constant private MAX_PAGE_NUMBER = MAX/PAGE_SIZE;\n\n\n    function addMovement(int256 _amount, string memory _description, address _from, address _to) onlyWhitelisted public {\n        _addMovement(_amount, _description, _from, _to);\n    }\n    \n    function _addMovement(int256 _amount, string memory _description,  address _from, address _to) internal {\n        if (transfersMap_[_from].length < uint256(MAX)) {\n            transfersMap_[_from].push(Movement(_amount, _description, now, _to));\n            currentIndexMap_[_from] = int256(transfersMap_[_from].length - 1);\n        } else if (currentIndexMap_[_from] == MAX - 1) {\n            currentIndexMap_[_from] = 0;\n            transfersMap_[_from][0] = Movement(_amount, _description, now, _to);\n        } else {\n            currentIndexMap_[_from]++;\n            transfersMap_[_from][uint256(currentIndexMap_[_from])] = Movement(_amount, _description, now, _to);\n        }\n    }\n\n    function getMovements( int256 _page) public view returns (Movement[] memory) {\n        require(_page > 0 && _page <= MAX_PAGE_NUMBER, \"Invalid page.\");\n\n        uint256 _reqIndexOffset = uint256(PAGE_SIZE * (_page - 1));\n        Movement[] memory transfers = transfersMap_[msg.sender];\n        if (transfers.length <= _reqIndexOffset) {\n            Movement[] memory empty;\n            return empty;\n        }\n\n        Movement[] memory _transfersPage = new Movement[](uint256(PAGE_SIZE));\n\n        for (int256 i = 0; i < int(PAGE_SIZE); i++) {\n            int256 _transferIndex = currentIndexMap_[msg.sender] - int256(_reqIndexOffset) - i;\n            if (_transferIndex < 0) {\n                if (transfers.length < uint256(MAX) ) {\n                    return _transfersPage;\n                } else {\n                    _transferIndex += MAX;\n                }\n            }\n            _transfersPage[uint256(i)]= transfers[uint256(_transferIndex)];\n        }\n\n        return _transfersPage;\n    }\n}",
  "sourcePath": "bloomen-token/contracts/MovementHistory.sol",
  "compiler": {
    "name": "solc",
    "version": "0.5.7+commit.6da8b019.Emscripten.clang"
  },
  "schemaVersion": "3.0.6",
  "updatedAt": "2019-08-28T07:23:28.904Z",
  "devdoc": {
    "methods": {}
  },
  "userdoc": {
    "methods": {}
  }
}