{
  "contractName": "Schemas",
  "abi": [
    {
      "constant": false,
      "inputs": [
        {
          "name": "account",
          "type": "address"
        }
      ],
      "name": "addWhitelisted",
      "outputs": [],
      "payable": false,
      "stateMutability": "nonpayable",
      "type": "function",
      "signature": "0x10154bad"
    },
    {
      "constant": false,
      "inputs": [
        {
          "name": "account",
          "type": "address"
        }
      ],
      "name": "removeWhitelisted",
      "outputs": [],
      "payable": false,
      "stateMutability": "nonpayable",
      "type": "function",
      "signature": "0x291d9549"
    },
    {
      "constant": true,
      "inputs": [
        {
          "name": "account",
          "type": "address"
        }
      ],
      "name": "isWhitelisted",
      "outputs": [
        {
          "name": "",
          "type": "bool"
        }
      ],
      "payable": false,
      "stateMutability": "view",
      "type": "function",
      "signature": "0x3af32abf"
    },
    {
      "constant": false,
      "inputs": [],
      "name": "renounceWhitelistAdmin",
      "outputs": [],
      "payable": false,
      "stateMutability": "nonpayable",
      "type": "function",
      "signature": "0x4c5a628c"
    },
    {
      "constant": false,
      "inputs": [
        {
          "name": "account",
          "type": "address"
        }
      ],
      "name": "addWhitelistAdmin",
      "outputs": [],
      "payable": false,
      "stateMutability": "nonpayable",
      "type": "function",
      "signature": "0x7362d9c8"
    },
    {
      "constant": true,
      "inputs": [
        {
          "name": "account",
          "type": "address"
        }
      ],
      "name": "isWhitelistAdmin",
      "outputs": [
        {
          "name": "",
          "type": "bool"
        }
      ],
      "payable": false,
      "stateMutability": "view",
      "type": "function",
      "signature": "0xbb5f747b"
    },
    {
      "constant": false,
      "inputs": [],
      "name": "renounceWhitelisted",
      "outputs": [],
      "payable": false,
      "stateMutability": "nonpayable",
      "type": "function",
      "signature": "0xd6cd9473"
    },
    {
      "anonymous": false,
      "inputs": [
        {
          "indexed": true,
          "name": "account",
          "type": "address"
        }
      ],
      "name": "WhitelistedAdded",
      "type": "event",
      "signature": "0xee1504a83b6d4a361f4c1dc78ab59bfa30d6a3b6612c403e86bb01ef2984295f"
    },
    {
      "anonymous": false,
      "inputs": [
        {
          "indexed": true,
          "name": "account",
          "type": "address"
        }
      ],
      "name": "WhitelistedRemoved",
      "type": "event",
      "signature": "0x270d9b30cf5b0793bbfd54c9d5b94aeb49462b8148399000265144a8722da6b6"
    },
    {
      "anonymous": false,
      "inputs": [
        {
          "indexed": true,
          "name": "account",
          "type": "address"
        }
      ],
      "name": "WhitelistAdminAdded",
      "type": "event",
      "signature": "0x22380c05984257a1cb900161c713dd71d39e74820f1aea43bd3f1bdd20961299"
    },
    {
      "anonymous": false,
      "inputs": [
        {
          "indexed": true,
          "name": "account",
          "type": "address"
        }
      ],
      "name": "WhitelistAdminRemoved",
      "type": "event",
      "signature": "0x0a8eb35e5ca14b3d6f28e4abf2f128dbab231a58b56e89beb5d636115001e165"
    },
    {
      "constant": true,
      "inputs": [
        {
          "name": "_schemaId",
          "type": "uint256"
        }
      ],
      "name": "getSchema",
      "outputs": [
        {
          "components": [
            {
              "name": "dappId",
              "type": "string"
            },
            {
              "name": "expirationDate",
              "type": "uint256"
            },
            {
              "name": "schemaId",
              "type": "uint256"
            },
            {
              "name": "amount",
              "type": "uint256"
            },
            {
              "name": "assetLifeTime",
              "type": "uint256"
            },
            {
              "components": [
                {
                  "name": "percent",
                  "type": "uint256"
                },
                {
                  "name": "receptor",
                  "type": "address"
                },
                {
                  "name": "description",
                  "type": "string"
                }
              ],
              "name": "clearingHouseRules",
              "type": "tuple[]"
            },
            {
              "name": "valid",
              "type": "bool"
            },
            {
              "name": "topPrice",
              "type": "uint256"
            }
          ],
          "name": "",
          "type": "tuple"
        }
      ],
      "payable": false,
      "stateMutability": "view",
      "type": "function",
      "signature": "0x2b26fb29"
    },
    {
      "constant": true,
      "inputs": [],
      "name": "getSchemas",
      "outputs": [
        {
          "name": "",
          "type": "uint256[]"
        }
      ],
      "payable": false,
      "stateMutability": "view",
      "type": "function",
      "signature": "0x95ba8d18"
    },
    {
      "constant": false,
      "inputs": [
        {
          "name": "_schemaId",
          "type": "uint256"
        },
        {
          "name": "_data",
          "type": "bytes"
        }
      ],
      "name": "createSchema",
      "outputs": [],
      "payable": false,
      "stateMutability": "nonpayable",
      "type": "function",
      "signature": "0xa2086dab"
    },
    {
      "constant": false,
      "inputs": [
        {
          "name": "_schemaId",
          "type": "uint256"
        }
      ],
      "name": "invalidateSchema",
      "outputs": [],
      "payable": false,
      "stateMutability": "nonpayable",
      "type": "function",
      "signature": "0x5a16f5c4"
    },
    {
      "constant": false,
      "inputs": [
        {
          "name": "_schemaId",
          "type": "uint256"
        }
      ],
      "name": "validateSchema",
      "outputs": [],
      "payable": false,
      "stateMutability": "nonpayable",
      "type": "function",
      "signature": "0x4014d468"
    },
    {
      "constant": false,
      "inputs": [
        {
          "name": "_schemaId",
          "type": "uint256"
        }
      ],
      "name": "deleteSchema",
      "outputs": [],
      "payable": false,
      "stateMutability": "nonpayable",
      "type": "function",
      "signature": "0x3739cee5"
    }
  ],
  "bytecode": "0x60806040526200001e3362000024640100000000026401000000009004565b620001e0565b620000488160006200008e640100000000026200104c179091906401000000009004565b8073ffffffffffffffffffffffffffffffffffffffff167f22380c05984257a1cb900161c713dd71d39e74820f1aea43bd3f1bdd2096129960405160405180910390a250565b600073ffffffffffffffffffffffffffffffffffffffff168173ffffffffffffffffffffffffffffffffffffffff161415620000c957600080fd5b620000e482826200014d640100000000026401000000009004565b15620000ef57600080fd5b60018260000160008373ffffffffffffffffffffffffffffffffffffffff1673ffffffffffffffffffffffffffffffffffffffff16815260200190815260200160002060006101000a81548160ff0219169083151502179055505050565b60008073ffffffffffffffffffffffffffffffffffffffff168273ffffffffffffffffffffffffffffffffffffffff1614156200018957600080fd5b8260000160008373ffffffffffffffffffffffffffffffffffffffff1673ffffffffffffffffffffffffffffffffffffffff16815260200190815260200160002060009054906101000a900460ff16905092915050565b61223280620001f06000396000f3fe608060405234801561001057600080fd5b50600436106100ec576000357c0100000000000000000000000000000000000000000000000000000000900480634c5a628c116100a957806395ba8d181161008357806395ba8d1814610203578063a2086dab14610221578063bb5f747b1461023d578063d6cd94731461026d576100ec565b80634c5a628c146101c15780635a16f5c4146101cb5780637362d9c8146101e7576100ec565b806310154bad146100f1578063291d95491461010d5780632b26fb29146101295780633739cee5146101595780633af32abf146101755780634014d468146101a5575b600080fd5b61010b60048036036101069190810190611a17565b610277565b005b61012760048036036101229190810190611a17565b610295565b005b610143600480360361013e9190810190611a40565b6102b3565b604051610150919061200d565b60405180910390f35b610173600480360361016e9190810190611a40565b61058a565b005b61018f600480360361018a9190810190611a17565b6105a8565b60405161019c9190611f12565b60405180910390f35b6101bf60048036036101ba9190810190611a40565b6105c5565b005b6101c96105e5565b005b6101e560048036036101e09190810190611a40565b6105f0565b005b61020160048036036101fc9190810190611a17565b610610565b005b61020b61062e565b6040516102189190611ef0565b60405180910390f35b61023b60048036036102369190810190611a69565b610686565b005b61025760048036036102529190810190611a17565b6106a6565b6040516102649190611f12565b60405180910390f35b6102756106c3565b005b610280336106a6565b61028957600080fd5b610292816106ce565b50565b61029e336106a6565b6102a757600080fd5b6102b081610728565b50565b6102bb611705565b6000600260008481526020019081526020016000206002015411610314576040517f08c379a000000000000000000000000000000000000000000000000000000000815260040161030b90611f4d565b60405180910390fd5b6002600083815260200190815260200160002060405180610100016040529081600082018054600181600116156101000203166002900480601f0160208091040260200160405190810160405280929190818152602001828054600181600116156101000203166002900480156103cc5780601f106103a1576101008083540402835291602001916103cc565b820191906000526020600020905b8154815290600101906020018083116103af57829003601f168201915b505050505081526020016001820154815260200160028201548152602001600382015481526020016004820154815260200160058201805480602002602001604051908101604052809291908181526020016000905b828210156105565783829060005260206000209060030201604051806060016040529081600082015481526020016001820160009054906101000a900473ffffffffffffffffffffffffffffffffffffffff1673ffffffffffffffffffffffffffffffffffffffff1673ffffffffffffffffffffffffffffffffffffffff168152602001600282018054600181600116156101000203166002900480601f01602080910402602001604051908101604052809291908181526020018280546001816001161561010002031660029004801561053e5780601f106105135761010080835404028352916020019161053e565b820191906000526020600020905b81548152906001019060200180831161052157829003601f168201915b50505050508152505081526020019060010190610422565b5050505081526020016006820160009054906101000a900460ff161515151581526020016007820154815250509050919050565b610593336105a8565b61059c57600080fd5b6105a581610782565b50565b60006105be8260016109bb90919063ffffffff16565b9050919050565b6105ce336105a8565b6105d757600080fd5b6105e2816001610a4d565b50565b6105ee33610b43565b565b6105f9336105a8565b61060257600080fd5b61060d816000610a4d565b50565b610619336106a6565b61062257600080fd5b61062b81610b9d565b50565b6060600380548060200260200160405190810160405280929190818152602001828054801561067c57602002820191906000526020600020905b815481526020019060010190808311610668575b5050505050905090565b61068f336105a8565b61069857600080fd5b6106a28282610bf7565b5050565b60006106bc8260006109bb90919063ffffffff16565b9050919050565b6106cc33610728565b565b6106e281600161104c90919063ffffffff16565b8073ffffffffffffffffffffffffffffffffffffffff167fee1504a83b6d4a361f4c1dc78ab59bfa30d6a3b6612c403e86bb01ef2984295f60405160405180910390a250565b61073c8160016110f890919063ffffffff16565b8073ffffffffffffffffffffffffffffffffffffffff167f270d9b30cf5b0793bbfd54c9d5b94aeb49462b8148399000265144a8722da6b660405160405180910390a250565b6000600260008381526020019081526020016000206002015414156107dc576040517f08c379a00000000000000000000000000000000000000000000000000000000081526004016107d390611f6d565b60405180910390fd5b600080905060008090505b6001600380549050038110156108665781806108195750826003828154811061080c57fe5b9060005260206000200154145b1561085957600191506003600182018154811061083257fe5b90600052602060002001546003828154811061084a57fe5b90600052602060002001819055505b80806001019150506107e7565b50600380548091906001900361087c919061174c565b5060008090505b6002600084815260200190815260200160002060050180549050811015610922576002600084815260200190815260200160002060050181815481106108c557fe5b90600052602060002090600302016000808201600090556001820160006101000a81549073ffffffffffffffffffffffffffffffffffffffff02191690556002820160006109139190611778565b50508080600101915050610883565b5060026000838152602001908152602001600020600501600061094591906117c0565b60026000838152602001908152602001600020600080820160006109699190611778565b600182016000905560028201600090556003820160009055600482016000905560058201600061099991906117c0565b6006820160006101000a81549060ff0219169055600782016000905550505050565b60008073ffffffffffffffffffffffffffffffffffffffff168273ffffffffffffffffffffffffffffffffffffffff1614156109f657600080fd5b8260000160008373ffffffffffffffffffffffffffffffffffffffff1673ffffffffffffffffffffffffffffffffffffffff16815260200190815260200160002060009054906101000a900460ff16905092915050565b600060026000848152602001908152602001600020600201541415610aa7576040517f08c379a0000000000000000000000000000000000000000000000000000000008152600401610a9e90611f6d565b60405180910390fd5b8015156002600084815260200190815260200160002060060160009054906101000a900460ff1615151415610b11576040517f08c379a0000000000000000000000000000000000000000000000000000000008152600401610b0890611fcd565b60405180910390fd5b806002600084815260200190815260200160002060060160006101000a81548160ff0219169083151502179055505050565b610b578160006110f890919063ffffffff16565b8073ffffffffffffffffffffffffffffffffffffffff167f0a8eb35e5ca14b3d6f28e4abf2f128dbab231a58b56e89beb5d636115001e16560405160405180910390a250565b610bb181600061104c90919063ffffffff16565b8073ffffffffffffffffffffffffffffffffffffffff167f22380c05984257a1cb900161c713dd71d39e74820f1aea43bd3f1bdd2096129960405160405180910390a250565b6000600260008481526020019081526020016000206002015414610c50576040517f08c379a0000000000000000000000000000000000000000000000000000000008152600401610c4790611fad565b60405180910390fd5b610c586117e4565b610c61826111a3565b90506060610c6e826111d1565b90506000610c8f82600081518110610c8257fe5b60200260200101516112a8565b9050428111610cd3576040517f08c379a0000000000000000000000000000000000000000000000000000000008152600401610cca90611f8d565b60405180910390fd5b6000610cf283600181518110610ce557fe5b60200260200101516112a8565b90506000610d1384600281518110610d0657fe5b60200260200101516112a8565b90506000610d3485600381518110610d2757fe5b60200260200101516112a8565b90506060610d5586600481518110610d4857fe5b6020026020010151611319565b90506000610d7687600581518110610d6957fe5b60200260200101516112a8565b90506060610d9788600681518110610d8a57fe5b60200260200101516111d1565b905060008151905060008090505b81811015610f12576060610dcb848381518110610dbe57fe5b60200260200101516111d1565b9050600260008a81526020019081526020016000206005016040518060600160405280610e0b84600081518110610dfe57fe5b60200260200101516112a8565b8152602001610e2d84600181518110610e2057fe5b60200260200101516113a5565b73ffffffffffffffffffffffffffffffffffffffff168152602001610e6584600281518110610e5857fe5b6020026020010151611319565b815250908060018154018082558091505090600182039060005260206000209060030201600090919290919091506000820151816000015560208201518160010160006101000a81548173ffffffffffffffffffffffffffffffffffffffff021916908373ffffffffffffffffffffffffffffffffffffffff1602179055506040820151816002019080519060200190610f009291906117fe565b50505050508080600101915050610da5565b50610f31600260008981526020019081526020016000206005016113c8565b87600260008981526020019081526020016000206001018190555086600260008981526020019081526020016000206002018190555083600260008981526020019081526020016000206000019080519060200190610f9192919061187e565b5082600260008981526020019081526020016000206007018190555085600260008981526020019081526020016000206003018190555084600260008981526020019081526020016000206004018190555060016002600089815260200190815260200160002060060160006101000a81548160ff0219169083151502179055506003879080600181540180825580915050906001820390600052602060002001600090919290919091505550505050505050505050505050565b600073ffffffffffffffffffffffffffffffffffffffff168173ffffffffffffffffffffffffffffffffffffffff16141561108657600080fd5b61109082826109bb565b1561109a57600080fd5b60018260000160008373ffffffffffffffffffffffffffffffffffffffff1673ffffffffffffffffffffffffffffffffffffffff16815260200190815260200160002060006101000a81548160ff0219169083151502179055505050565b600073ffffffffffffffffffffffffffffffffffffffff168173ffffffffffffffffffffffffffffffffffffffff16141561113257600080fd5b61113c82826109bb565b61114557600080fd5b60008260000160008373ffffffffffffffffffffffffffffffffffffffff1673ffffffffffffffffffffffffffffffffffffffff16815260200190815260200160002060006101000a81548160ff0219169083151502179055505050565b6111ab6117e4565b600060208301905060405180604001604052808451815260200182815250915050919050565b60606111dc826114a3565b6111e557600080fd5b60006111f0836114f1565b90508060405190808252806020026020018201604052801561122c57816020015b6112196118fe565b8152602001906001900390816112115790505b509150600061123e8460200151611562565b8460200151019050600080600090505b8381101561129f5761125f836115eb565b915060405180604001604052808381526020018481525085828151811061128257fe5b60200260200101819052508183019250808060010191505061124e565b50505050919050565b60008082600001511180156112c257506021826000015111155b6112cb57600080fd5b60006112da8360200151611562565b9050600081846000015103905060008083866020015101905080519150602083101561130d57826020036101000a820491505b81945050505050919050565b6060600082600001511161132c57600080fd5b600061133b8360200151611562565b905060008184600001510390506060816040519080825280601f01601f19166020018201604052801561137d5781602001600182028038833980820191505090505b509050600081602001905061139984876020015101828561169e565b81945050505050919050565b600060158260000151146113b857600080fd5b6113c1826112a8565b9050919050565b600081805490501161140f576040517f08c379a000000000000000000000000000000000000000000000000000000000815260040161140690611f2d565b60405180910390fd5b600081805490509050600080905060008090505b8281101561145a5783818154811061143757fe5b906000526020600020906003020160000154820191508080600101915050611423565b506064811461149e576040517f08c379a000000000000000000000000000000000000000000000000000000000815260040161149590611fed565b60405180910390fd5b505050565b600080826000015114156114ba57600090506114ec565b60008083602001519050805160001a915060c060ff168260ff1610156114e5576000925050506114ec565b6001925050505b919050565b60008082600001511415611508576000905061155d565b6000809050600061151c8460200151611562565b84602001510190506000846000015185602001510190505b8082101561155657611545826115eb565b820191508280600101935050611534565b8293505050505b919050565b600080825160001a9050608060ff168110156115825760009150506115e6565b60b860ff168110806115a7575060c060ff1681101580156115a6575060f860ff1681105b5b156115b65760019150506115e6565b60c060ff168110156115d65760018060b80360ff168203019150506115e6565b60018060f80360ff168203019150505b919050565b600080825160001a9050608060ff1681101561160b576001915050611699565b60b860ff16811015611629576001608060ff16820301915050611699565b60c060ff168110156116595760b78103600184019350806020036101000a84510460018201810193505050611697565b60f860ff1681101561167757600160c060ff16820301915050611699565b60f78103600184019350806020036101000a845104600182018101935050505b505b919050565b60008114156116ac57611700565b5b602060ff1681106116dc5782518252602060ff1683019250602060ff1682019150602060ff16810390506116ad565b6000600182602060ff16036101000a03905080198451168184511681811785525050505b505050565b604051806101000160405280606081526020016000815260200160008152602001600081526020016000815260200160608152602001600015158152602001600081525090565b815481835581811115611773578183600052602060002091820191016117729190611918565b5b505050565b50805460018160011615610100020316600290046000825580601f1061179e57506117bd565b601f0160209004906000526020600020908101906117bc9190611918565b5b50565b50805460008255600302906000526020600020908101906117e1919061193d565b50565b604051806040016040528060008152602001600081525090565b828054600181600116156101000203166002900490600052602060002090601f016020900481019282601f1061183f57805160ff191683800117855561186d565b8280016001018555821561186d579182015b8281111561186c578251825591602001919060010190611851565b5b50905061187a9190611918565b5090565b828054600181600116156101000203166002900490600052602060002090601f016020900481019282601f106118bf57805160ff19168380011785556118ed565b828001600101855582156118ed579182015b828111156118ec5782518255916020019190600101906118d1565b5b5090506118fa9190611918565b5090565b604051806040016040528060008152602001600081525090565b61193a91905b8082111561193657600081600090555060010161191e565b5090565b90565b61199891905b80821115611994576000808201600090556001820160006101000a81549073ffffffffffffffffffffffffffffffffffffffff021916905560028201600061198b9190611778565b50600301611943565b5090565b90565b60006119a78235612169565b905092915050565b600082601f8301126119c057600080fd5b81356119d36119ce8261205c565b61202f565b915080825260208301602083018583830111156119ef57600080fd5b6119fa8382846121a5565b50505092915050565b6000611a0f823561219b565b905092915050565b600060208284031215611a2957600080fd5b6000611a378482850161199b565b91505092915050565b600060208284031215611a5257600080fd5b6000611a6084828501611a03565b91505092915050565b60008060408385031215611a7c57600080fd5b6000611a8a85828601611a03565b925050602083013567ffffffffffffffff811115611aa757600080fd5b611ab3858286016119af565b9150509250929050565b6000611ac98383611dda565b905092915050565b6000611add8383611ee1565b60208301905092915050565b611af281612121565b82525050565b6000611b03826120a2565b611b0d81856120dd565b935083602082028501611b1f85612088565b60005b84811015611b58578383038852611b3a838351611abd565b9250611b45826120c3565b9150602088019750600181019050611b22565b508196508694505050505092915050565b6000611b74826120ad565b611b7e81856120ee565b9350611b8983612095565b60005b82811015611bb757611b9f868351611ad1565b9550611baa826120d0565b9150600181019050611b8c565b50849250505092915050565b611bcc81612133565b82525050565b611bdb81612133565b82525050565b6000611bec826120b8565b611bf681856120ff565b9350611c068185602086016121b4565b611c0f816121e7565b840191505092915050565b6000611c27600983612110565b91507f6e6f742072756c657300000000000000000000000000000000000000000000006000830152602082019050919050565b6000611c67600983612110565b91507f6e6f745f657869737400000000000000000000000000000000000000000000006000830152602082019050919050565b6000611ca7600983612110565b91507f6e6f7420657869737400000000000000000000000000000000000000000000006000830152602082019050919050565b6000611ce7600783612110565b91507f65787069726564000000000000000000000000000000000000000000000000006000830152602082019050919050565b6000611d27600583612110565b91507f65786973740000000000000000000000000000000000000000000000000000006000830152602082019050919050565b6000611d67600b83612110565b91507f73616d65207374617475730000000000000000000000000000000000000000006000830152602082019050919050565b6000611da7601683612110565b91507f616c6c20616d6f756e74206469737472696275746564000000000000000000006000830152602082019050919050565b6000606083016000830151611df26000860182611ee1565b506020830151611e056020860182611ae9565b5060408301518482036040860152611e1d8282611be1565b9150508091505092915050565b6000610100830160008301518482036000860152611e488282611be1565b9150506020830151611e5d6020860182611ee1565b506040830151611e706040860182611ee1565b506060830151611e836060860182611ee1565b506080830151611e966080860182611ee1565b5060a083015184820360a0860152611eae8282611af8565b91505060c0830151611ec360c0860182611bc3565b5060e0830151611ed660e0860182611ee1565b508091505092915050565b611eea8161215f565b82525050565b60006020820190508181036000830152611f0a8184611b69565b905092915050565b6000602082019050611f276000830184611bd2565b92915050565b60006020820190508181036000830152611f4681611c1a565b9050919050565b60006020820190508181036000830152611f6681611c5a565b9050919050565b60006020820190508181036000830152611f8681611c9a565b9050919050565b60006020820190508181036000830152611fa681611cda565b9050919050565b60006020820190508181036000830152611fc681611d1a565b9050919050565b60006020820190508181036000830152611fe681611d5a565b9050919050565b6000602082019050818103600083015261200681611d9a565b9050919050565b600060208201905081810360008301526120278184611e2a565b905092915050565b6000604051905081810181811067ffffffffffffffff8211171561205257600080fd5b8060405250919050565b600067ffffffffffffffff82111561207357600080fd5b601f19601f8301169050602081019050919050565b6000602082019050919050565b6000602082019050919050565b600081519050919050565b600081519050919050565b600081519050919050565b6000602082019050919050565b6000602082019050919050565b600082825260208201905092915050565b600082825260208201905092915050565b600082825260208201905092915050565b600082825260208201905092915050565b600061212c8261213f565b9050919050565b60008115159050919050565b600073ffffffffffffffffffffffffffffffffffffffff82169050919050565b6000819050919050565b60006121748261217b565b9050919050565b600073ffffffffffffffffffffffffffffffffffffffff82169050919050565b6000819050919050565b82818337600083830152505050565b60005b838110156121d25780820151818401526020810190506121b7565b838111156121e1576000848401525b50505050565b6000601f19601f830116905091905056fea265627a7a72305820aa905bc07d58552fb550ec5d8d7bfc1bcadea7fdd1e92ceb5310c2c9a707dbd06c6578706572696d656e74616cf50037",
  "source": "pragma solidity ^0.5.2;\npragma experimental ABIEncoderV2;\n\nimport \"../../node_modules/solidity-rlp/contracts/RLPReader.sol\";\nimport \"../../node_modules/openzeppelin-solidity/contracts/access/roles/WhitelistedRole.sol\";\n\ncontract Schemas is WhitelistedRole {\n\n  using RLPReader for bytes;\n  using RLPReader for uint;\n  using RLPReader for RLPReader.RLPItem;\n\n  struct Schema {\n    string dappId;   \n    uint expirationDate;\n    uint256 schemaId;\n    uint256 amount;\n    uint256 assetLifeTime;\n    ClearingHouseRule[] clearingHouseRules;\n    bool valid;\n    uint256 topPrice;    \n  }\n\n  struct ClearingHouseRule {  \n    uint percent; \n    address receptor;\n    string description;\n  }\n\n  mapping (uint256 => Schema) private schemas_;\n  uint256[] private schemasArray_ ;\n\n  function getSchema(uint256 _schemaId) public view returns (Schema memory) {\n    require(schemas_[_schemaId].schemaId > 0, \"not_exist\");\n    return (schemas_[_schemaId]);\n  }\n\n  function getSchemas() public view returns (uint256[] memory) {    \n    return (schemasArray_);\n  }\n\n  function createSchema(uint256 _schemaId, bytes memory _data) public onlyWhitelisted  {\n    _createSchema(_schemaId, _data);  \n  }\n\n  function invalidateSchema(uint256 _schemaId) public  onlyWhitelisted {\n    _schemaStatus(_schemaId, false);  \n  }\n\n  function validateSchema(uint256 _schemaId) public onlyWhitelisted  {\n    _schemaStatus(_schemaId, true);  \n  }\n\n  function deleteSchema(uint256 _schemaId) public  onlyWhitelisted {\n    _schemaDelete(_schemaId);  \n  }\n\n  function _createSchema(uint256 _schemaId, bytes memory _in) internal  {\n    // RLP format : [<expirationDate>,<schemaId>,<amount>,<assetLifeTime>,<dappId>,<openPrice?> ,[ [<percent>,<address>,<description>],[<percent>,<address>,<description>]]]\n\n    require(schemas_[_schemaId].schemaId == 0, \"exist\"); \n   \n    RLPReader.RLPItem memory item = _in.toRlpItem();\n    RLPReader.RLPItem[] memory itemList = item.toList();\n\n    uint expirationDate = itemList[0].toUint();\n\n    require(expirationDate > now, \"expired\");\n\n    uint256 schemaId = uint256(itemList[1].toUint());\n    uint256 amount = uint256(itemList[2].toUint());\n    uint256 assetLifeTime = uint256(itemList[3].toUint());\n    string memory dappId = string(itemList[4].toBytes());\n    uint256 topPrice = itemList[5].toUint();\n    \n    RLPReader.RLPItem[] memory clearingHouseRulesItemList = itemList[6].toList();\n    \n    uint listLength = clearingHouseRulesItemList.length;\n    for (uint i = 0; i < listLength; i++) {\n      RLPReader.RLPItem[] memory tempListItem = clearingHouseRulesItemList[i].toList();\n        \n      schemas_[schemaId].clearingHouseRules.push(\n        ClearingHouseRule(tempListItem[0].toUint(),tempListItem[1].toAddress(),string(tempListItem[2].toBytes()))\n      );    \n    }\n    \n    _validateClearingHouseRules(schemas_[schemaId].clearingHouseRules);\n    \n    schemas_[schemaId].expirationDate = expirationDate;\n    schemas_[schemaId].schemaId = schemaId;\n    schemas_[schemaId].dappId = dappId;\n    schemas_[schemaId].topPrice = topPrice;\n    schemas_[schemaId].amount = amount;\n    schemas_[schemaId].assetLifeTime = assetLifeTime;\n    schemas_[schemaId].valid = true;\n    schemasArray_.push(schemaId);\n  }\n\n  function _schemaStatus(uint256 _schemaId, bool _newStatus) internal  {\n    require(schemas_[_schemaId].schemaId != 0, \"not exist\"); \n    require(schemas_[_schemaId].valid != _newStatus , \"same status\");\n    schemas_[_schemaId].valid = _newStatus;\n  }\n\n  function _validateClearingHouseRules(ClearingHouseRule[] storage clearingHouseRules) internal  {\n    require(clearingHouseRules.length > 0, \"not rules\"); \n    uint listLength = clearingHouseRules.length;\n    uint total = 0;\n    for (uint i = 0; i < listLength; i++) {\n      total += clearingHouseRules[i].percent;\n    }\n    require(total == 100, \"all amount distributed\");    \n  }\n\n  function _schemaDelete(uint256 _schemaId) internal  {\n    require(schemas_[_schemaId].schemaId != 0, \"not exist\"); \n\n    // delete from array\n    bool found = false;\n    for (uint i=0; i< schemasArray_.length-1; i++) {\n      if ( found || (schemasArray_[i] == _schemaId)) {\n        found = true;\n        schemasArray_[i] = schemasArray_[i+1];\n      } \n    }\n\n    schemasArray_.length--;\n\n    for (uint i=0; i< schemas_[_schemaId].clearingHouseRules.length; i++) {\n      delete schemas_[_schemaId].clearingHouseRules[i];\n    }\n    delete schemas_[_schemaId].clearingHouseRules;\n    delete schemas_[_schemaId];\n   \n  }\n\n}",
  "sourcePath": "/home/jordi/ws/bloomenio/bloomen-wallet/bloomen-wallet-truffle/contracts/bloomen/Schemas.sol",
  "compiler": {
    "name": "solc",
    "version": "0.5.7+commit.6da8b019.Emscripten.clang"
  },
  "schemaVersion": "3.0.6",
  "updatedAt": "2019-05-29T12:50:33.939Z",
  "devdoc": {
    "methods": {}
  },
  "userdoc": {
    "methods": {}
  }
}