{
  "contractName": "Assets",
  "abi": [
    {
      "inputs": [
        {
          "name": "_schemasAddr",
          "type": "address"
        },
        {
          "name": "_erc223Addr",
          "type": "address"
        }
      ],
      "payable": false,
      "stateMutability": "nonpayable",
      "type": "constructor",
      "signature": "constructor"
    },
    {
      "constant": false,
      "inputs": [
        {
          "name": "assetId",
          "type": "uint256"
        },
        {
          "name": "_dappId",
          "type": "string"
        }
      ],
      "name": "removeAsset",
      "outputs": [],
      "payable": false,
      "stateMutability": "nonpayable",
      "type": "function",
      "signature": "0x772ee231"
    },
    {
      "constant": false,
      "inputs": [
        {
          "name": "_assetId",
          "type": "uint256"
        },
        {
          "name": "_schemaId",
          "type": "uint256"
        },
        {
          "name": "dappId",
          "type": "string"
        }
      ],
      "name": "checkOwnershipOneAsset",
      "outputs": [
        {
          "name": "",
          "type": "bool"
        }
      ],
      "payable": false,
      "stateMutability": "nonpayable",
      "type": "function",
      "signature": "0xc2a81a21"
    },
    {
      "constant": false,
      "inputs": [
        {
          "name": "_assetsIds",
          "type": "uint256[]"
        },
        {
          "name": "_schemaId",
          "type": "uint256"
        },
        {
          "name": "dappId",
          "type": "string"
        }
      ],
      "name": "checkOwnershipMultipleAssets",
      "outputs": [
        {
          "name": "",
          "type": "bool[]"
        }
      ],
      "payable": false,
      "stateMutability": "nonpayable",
      "type": "function",
      "signature": "0x8d188b63"
    },
    {
      "constant": false,
      "inputs": [
        {
          "name": "_target",
          "type": "address"
        },
        {
          "name": "_assetId",
          "type": "uint256"
        },
        {
          "name": "_schemaId",
          "type": "uint256"
        },
        {
          "name": "dappId",
          "type": "string"
        }
      ],
      "name": "checkOwnershipOneAssetForAddress",
      "outputs": [
        {
          "name": "",
          "type": "bool"
        }
      ],
      "payable": false,
      "stateMutability": "nonpayable",
      "type": "function",
      "signature": "0x25c6e6a8"
    },
    {
      "constant": false,
      "inputs": [
        {
          "name": "_target",
          "type": "address"
        },
        {
          "name": "_assetsIds",
          "type": "uint256[]"
        },
        {
          "name": "_schemaId",
          "type": "uint256"
        },
        {
          "name": "dappId",
          "type": "string"
        }
      ],
      "name": "checkOwnershipMultipleAssetsForAddress",
      "outputs": [
        {
          "name": "",
          "type": "bool[]"
        }
      ],
      "payable": false,
      "stateMutability": "nonpayable",
      "type": "function",
      "signature": "0xe02d5a03"
    },
    {
      "constant": false,
      "inputs": [
        {
          "name": "dappId",
          "type": "string"
        }
      ],
      "name": "getAssetsPageCount",
      "outputs": [
        {
          "name": "",
          "type": "uint256"
        }
      ],
      "payable": false,
      "stateMutability": "nonpayable",
      "type": "function",
      "signature": "0x9891bcf4"
    },
    {
      "constant": false,
      "inputs": [
        {
          "name": "_page",
          "type": "uint256"
        },
        {
          "name": "dappId",
          "type": "string"
        }
      ],
      "name": "getAssets",
      "outputs": [
        {
          "components": [
            {
              "name": "expirationDate",
              "type": "uint256"
            },
            {
              "name": "assetId",
              "type": "uint256"
            },
            {
              "name": "schemaId",
              "type": "uint256"
            },
            {
              "name": "dappId",
              "type": "string"
            },
            {
              "name": "description",
              "type": "string"
            }
          ],
          "name": "",
          "type": "tuple[]"
        }
      ],
      "payable": false,
      "stateMutability": "nonpayable",
      "type": "function",
      "signature": "0x3c42bf33"
    },
    {
      "constant": false,
      "inputs": [
        {
          "name": "_user",
          "type": "address"
        },
        {
          "name": "_amount",
          "type": "uint256"
        },
        {
          "name": "_data",
          "type": "bytes"
        }
      ],
      "name": "tokenFallback",
      "outputs": [],
      "payable": false,
      "stateMutability": "nonpayable",
      "type": "function",
      "signature": "0xc0ee0b8a"
    }
  ],
  "bytecode": "0x60806040523480156200001157600080fd5b5060405160408062002ec88339810180604052620000339190810190620000d3565b80600360006101000a81548173ffffffffffffffffffffffffffffffffffffffff021916908373ffffffffffffffffffffffffffffffffffffffff16021790555081600260006101000a81548173ffffffffffffffffffffffffffffffffffffffff021916908373ffffffffffffffffffffffffffffffffffffffff160217905550505062000148565b6000620000cb825162000114565b905092915050565b60008060408385031215620000e757600080fd5b6000620000f785828601620000bd565b92505060206200010a85828601620000bd565b9150509250929050565b6000620001218262000128565b9050919050565b600073ffffffffffffffffffffffffffffffffffffffff82169050919050565b612d7080620001586000396000f3fe608060405234801561001057600080fd5b50600436106100a5576000357c0100000000000000000000000000000000000000000000000000000000900480639891bcf4116100785780639891bcf414610156578063c0ee0b8a14610186578063c2a81a21146101a2578063e02d5a03146101d2576100a5565b806325c6e6a8146100aa5780633c42bf33146100da578063772ee2311461010a5780638d188b6314610126575b600080fd5b6100c460048036036100bf919081019061243e565b610202565b6040516100d19190612a03565b60405180910390f35b6100f460048036036100ef91908101906125e3565b61021a565b60405161010191906129e1565b60405180910390f35b610124600480360361011f91908101906125e3565b610504565b005b610140600480360361013b91908101906124b9565b610513565b60405161014d91906129bf565b60405180910390f35b610170600480360361016b9190810190612561565b61052a565b60405161017d9190612a9e565b60405180910390f35b6101a0600480360361019b91908101906123d7565b6105fb565b005b6101bc60048036036101b79190810190612637565b610cbb565b6040516101c99190612a03565b60405180910390f35b6101ec60048036036101e79190810190612344565b610cd2565b6040516101f991906129bf565b60405180910390f35b600061021085858585610cea565b9050949350505050565b6060600061022783610fe6565b90506000600a85600a0203905060608260010160003373ffffffffffffffffffffffffffffffffffffffff1673ffffffffffffffffffffffffffffffffffffffff168152602001908152602001600020600101805480602002602001604051908101604052809291908181526020016000905b8282101561042e57838290600052602060002090600502016040518060a0016040529081600082015481526020016001820154815260200160028201548152602001600382018054600181600116156101000203166002900480601f0160208091040260200160405190810160405280929190818152602001828054600181600116156101000203166002900480156103745780601f1061034957610100808354040283529160200191610374565b820191906000526020600020905b81548152906001019060200180831161035757829003601f168201915b50505050508152602001600482018054600181600116156101000203166002900480601f0160208091040260200160405190810160405280929190818152602001828054600181600116156101000203166002900480156104165780601f106103eb57610100808354040283529160200191610416565b820191906000526020600020905b8154815290600101906020018083116103f957829003601f168201915b5050505050815250508152602001906001019061029a565b5050505090506000815114806104475750600181510382115b1561045a576060809450505050506104fe565b6060600a60405190808252806020026020018201604052801561049757816020015b610484611c8f565b81526020019060019003908161047c5790505b50905060008090505b87600a028410156104f55782518410156104e0578284815181106104c057fe5b60200260200101518282815181106104d457fe5b60200260200101819052505b808060010191505083806001019450506104a0565b81955050505050505b92915050565b61050f338383611273565b5050565b606061052133858585611648565b90509392505050565b60008061053683610fe6565b90506000600a8260010160003373ffffffffffffffffffffffffffffffffffffffff1673ffffffffffffffffffffffffffffffffffffffff168152602001908152602001600020600101805490508161058b57fe5b0490506000600a8360010160003373ffffffffffffffffffffffffffffffffffffffff1673ffffffffffffffffffffffffffffffffffffffff16815260200190815260200160002060010180549050816105e157fe5b0611156105f15780806001019150505b8092505050919050565b610603611cbe565b61060c826116e4565b9050606061061982611712565b9050600061063a8260008151811061062d57fe5b60200260200101516117e9565b9050600061065b8360018151811061064e57fe5b60200260200101516117e9565b9050606061067c8460028151811061066f57fe5b602002602001015161185a565b9050600061068982610fe6565b905060606106aa8660038151811061069d57fe5b602002602001015161185a565b90506106b4611cd8565b600260009054906101000a900473ffffffffffffffffffffffffffffffffffffffff1673ffffffffffffffffffffffffffffffffffffffff16632b26fb29866040518263ffffffff167c010000000000000000000000000000000000000000000000000000000002815260040161072b9190612a9e565b60006040518083038186803b15801561074357600080fd5b505afa158015610757573d6000803e3d6000fd5b505050506040513d6000823e3d601f19601f8201168201806040525061078091908101906125a2565b905089816060015111156107c9576040517f08c379a00000000000000000000000000000000000000000000000000000000081526004016107c090612a5e565b60405180910390fd5b898160e001511015610810576040517f08c379a000000000000000000000000000000000000000000000000000000000815260040161080790612a5e565b60405180910390fd5b61083761081c856118e6565b61082983600001516118e6565b61191490919063ffffffff16565b610876576040517f08c379a000000000000000000000000000000000000000000000000000000000815260040161086d90612a3e565b60405180910390fd5b8060e00151816060015114156108d3576108928b878787610cea565b156108d2576040517f08c379a00000000000000000000000000000000000000000000000000000000081526004016108c990612a7e565b60405180910390fd5b5b60008a905060008090505b60018360a001515103811015610a115760006109158d8560a00151848151811061090457fe5b60200260200101516000015161192a565b9050600360009054906101000a900473ffffffffffffffffffffffffffffffffffffffff1673ffffffffffffffffffffffffffffffffffffffff1663a9059cbb8560a00151848151811061096557fe5b602002602001015160200151836040518363ffffffff167c01000000000000000000000000000000000000000000000000000000000281526004016109ab929190612996565b602060405180830381600087803b1580156109c557600080fd5b505af11580156109d9573d6000803e3d6000fd5b505050506040513d601f19601f820116820180604052506109fd9190810190612538565b5080830392505080806001019150506108de565b50600360009054906101000a900473ffffffffffffffffffffffffffffffffffffffff1673ffffffffffffffffffffffffffffffffffffffff1663a9059cbb8360a0015160018560a00151510381518110610a6857fe5b602002602001015160200151836040518363ffffffff167c0100000000000000000000000000000000000000000000000000000000028152600401610aae929190612996565b602060405180830381600087803b158015610ac857600080fd5b505af1158015610adc573d6000803e3d6000fd5b505050506040513d601f19601f82011682018060405250610b009190810190612538565b508160e0015182606001511415610cad578360010160008d73ffffffffffffffffffffffffffffffffffffffff1673ffffffffffffffffffffffffffffffffffffffff1681526020019081526020016000206001016040518060a0016040528084608001514201815260200189815260200188815260200187815260200185815250908060018154018082558091505090600182039060005260206000209060050201600090919290919091506000820151816000015560208201518160010155604082015181600201556060820151816003019080519060200190610be7929190611d1f565b506080820151816004019080519060200190610c04929190611d1f565b5050505060018460010160008e73ffffffffffffffffffffffffffffffffffffffff1673ffffffffffffffffffffffffffffffffffffffff16815260200190815260200160002060010180549050038460010160008e73ffffffffffffffffffffffffffffffffffffffff1673ffffffffffffffffffffffffffffffffffffffff1681526020019081526020016000206000016000898152602001908152602001600020819055505b505050505050505050505050565b6000610cc933858585610cea565b90509392505050565b6060610ce085858585611648565b9050949350505050565b600080610cf683610fe6565b905060008160010160008873ffffffffffffffffffffffffffffffffffffffff1673ffffffffffffffffffffffffffffffffffffffff168152602001908152602001600020600101805490501415610d52576000915050610fde565b60008160010160008873ffffffffffffffffffffffffffffffffffffffff1673ffffffffffffffffffffffffffffffffffffffff1681526020019081526020016000206000016000878152602001908152602001600020549050610db4611d9f565b8260010160008973ffffffffffffffffffffffffffffffffffffffff1673ffffffffffffffffffffffffffffffffffffffff1681526020019081526020016000206001018281548110610e0357fe5b90600052602060002090600502016040518060a0016040529081600082015481526020016001820154815260200160028201548152602001600382018054600181600116156101000203166002900480601f016020809104026020016040519081016040528092919081815260200182805460018160011615610100020316600290048015610ed35780601f10610ea857610100808354040283529160200191610ed3565b820191906000526020600020905b815481529060010190602001808311610eb657829003601f168201915b50505050508152602001600482018054600181600116156101000203166002900480601f016020809104026020016040519081016040528092919081815260200182805460018160011615610100020316600290048015610f755780601f10610f4a57610100808354040283529160200191610f75565b820191906000526020600020905b815481529060010190602001808311610f5857829003601f168201915b5050505050815250509050428160000151118015610f965750868160200151145b8015610fc55750610fc4610fad82606001516118e6565b610fb6876118e6565b61191490919063ffffffff16565b5b15610fd65760019350505050610fde565b600093505050505b949350505050565b60008082805190602001209050606060008083815260200190815260200160002080548060200260200160405190810160405280929190818152602001828054801561105157602002820191906000526020600020905b81548152602001906001019080831161103d575b505050505090506000815111156111a95760008090505b81518110156111a75761115d611146600184848151811061108557fe5b60200260200101518154811061109757fe5b90600052602060002090600202016000018054600181600116156101000203166002900480601f01602080910402602001604051908101604052809291908181526020018280546001816001161561010002031660029004801561113c5780601f106111115761010080835404028352916020019161113c565b820191906000526020600020905b81548152906001019060200180831161111f57829003601f168201915b50505050506118e6565b61114f876118e6565b61191490919063ffffffff16565b1561119a57600182828151811061117057fe5b60200260200101518154811061118257fe5b9060005260206000209060020201935050505061126e565b8080600101915050611068565b505b6001604051806020016040528086815250908060018154018082558091505090600182039060005260206000209060020201600090919290919091506000820151816000019080519060200190611201929190611d1f565b505050506000600180805490500390506000808481526020019081526020016000208190806001815401808255809150509060018203906000526020600020016000909192909190915055506001818154811061125a57fe5b906000526020600020906002020193505050505b919050565b600061127e82610fe6565b905060008160010160008673ffffffffffffffffffffffffffffffffffffffff1673ffffffffffffffffffffffffffffffffffffffff168152602001908152602001600020600101805490501161130a576040517f08c379a000000000000000000000000000000000000000000000000000000000815260040161130190612a1e565b60405180910390fd5b60008160010160008673ffffffffffffffffffffffffffffffffffffffff1673ffffffffffffffffffffffffffffffffffffffff16815260200190815260200160002060000160008581526020019081526020016000205490508160010160008673ffffffffffffffffffffffffffffffffffffffff1673ffffffffffffffffffffffffffffffffffffffff1681526020019081526020016000206000016000858152602001908152602001600020600090558160010160008673ffffffffffffffffffffffffffffffffffffffff1673ffffffffffffffffffffffffffffffffffffffff168152602001908152602001600020600101818154811061140c57fe5b9060005260206000209060050201600080820160009055600182016000905560028201600090556003820160006114439190611dce565b6004820160006114539190611dce565b505060008190505b60018360010160008873ffffffffffffffffffffffffffffffffffffffff1673ffffffffffffffffffffffffffffffffffffffff16815260200190815260200160002060010180549050038110156115e8578260010160008773ffffffffffffffffffffffffffffffffffffffff1673ffffffffffffffffffffffffffffffffffffffff16815260200190815260200160002060010160018201815481106114ff57fe5b90600052602060002090600502018360010160008873ffffffffffffffffffffffffffffffffffffffff1673ffffffffffffffffffffffffffffffffffffffff168152602001908152602001600020600101828154811061155c57fe5b9060005260206000209060050201600082015481600001556001820154816001015560028201548160020155600382018160030190805460018160011615610100020316600290046115af929190611e16565b50600482018160040190805460018160011615610100020316600290046115d7929190611e16565b50905050808060010191505061145b565b508160010160008673ffffffffffffffffffffffffffffffffffffffff1673ffffffffffffffffffffffffffffffffffffffff1681526020019081526020016000206001018054809190600190036116409190611e9d565b505050505050565b606080845160405190808252806020026020018201604052801561167b5781602001602082028038833980820191505090505b50905060008090505b85518110156116d7576116ac8787838151811061169d57fe5b60200260200101518787610cea565b8282815181106116b857fe5b6020026020010190151590811515815250508080600101915050611684565b5080915050949350505050565b6116ec611cbe565b600060208301905060405180604001604052808451815260200182815250915050919050565b606061171d82611941565b61172657600080fd5b60006117318361198f565b90508060405190808252806020026020018201604052801561176d57816020015b61175a611ecf565b8152602001906001900390816117525790505b509150600061177f8460200151611a00565b8460200151019050600080600090505b838110156117e0576117a083611a89565b91506040518060400160405280838152602001848152508582815181106117c357fe5b60200260200101819052508183019250808060010191505061178f565b50505050919050565b600080826000015111801561180357506021826000015111155b61180c57600080fd5b600061181b8360200151611a00565b9050600081846000015103905060008083866020015101905080519150602083101561184e57826020036101000a820491505b81945050505050919050565b6060600082600001511161186d57600080fd5b600061187c8360200151611a00565b905060008184600001510390506060816040519080825280601f01601f1916602001820160405280156118be5781602001600182028038833980820191505090505b50905060008160200190506118da848760200151018285611b3c565b81945050505050919050565b6118ee611ee9565b600060208301905060405180604001604052808451815260200182815250915050919050565b6000806119218484611ba3565b14905092915050565b600060648284028161193857fe5b04905092915050565b60008082600001511415611958576000905061198a565b60008083602001519050805160001a915060c060ff168260ff1610156119835760009250505061198a565b6001925050505b919050565b600080826000015114156119a657600090506119fb565b600080905060006119ba8460200151611a00565b84602001510190506000846000015185602001510190505b808210156119f4576119e382611a89565b8201915082806001019350506119d2565b8293505050505b919050565b600080825160001a9050608060ff16811015611a20576000915050611a84565b60b860ff16811080611a45575060c060ff168110158015611a44575060f860ff1681105b5b15611a54576001915050611a84565b60c060ff16811015611a745760018060b80360ff16820301915050611a84565b60018060f80360ff168203019150505b919050565b600080825160001a9050608060ff16811015611aa9576001915050611b37565b60b860ff16811015611ac7576001608060ff16820301915050611b37565b60c060ff16811015611af75760b78103600184019350806020036101000a84510460018201810193505050611b35565b60f860ff16811015611b1557600160c060ff16820301915050611b37565b60f78103600184019350806020036101000a845104600182018101935050505b505b919050565b6000811415611b4a57611b9e565b5b602060ff168110611b7a5782518252602060ff1683019250602060ff1682019150602060ff1681039050611b4b565b6000600182602060ff16036101000a03905080198451168184511681811785525050505b505050565b60008083600001519050836000015183600001511015611bc557826000015190505b60008460200151905060008460200151905060008090505b83811015611c77576000808451915083519050808214611c5e5760007fffffffffffffffffffffffffffffffffffffffffffffffffffffffffffffffff90506020871015611c3857600184886020030160080260020a031990505b600081831682851603905060008114611c5b578098505050505050505050611c89565b50505b6020850194506020840193505050602081019050611bdd565b50846000015186600001510393505050505b92915050565b6040518060a0016040528060008152602001600081526020016000815260200160608152602001606081525090565b604051806040016040528060008152602001600081525090565b604051806101000160405280606081526020016000815260200160008152602001600081526020016000815260200160608152602001600015158152602001600081525090565b828054600181600116156101000203166002900490600052602060002090601f016020900481019282601f10611d6057805160ff1916838001178555611d8e565b82800160010185558215611d8e579182015b82811115611d8d578251825591602001919060010190611d72565b5b509050611d9b9190611f03565b5090565b6040518060a0016040528060008152602001600081526020016000815260200160608152602001606081525090565b50805460018160011615610100020316600290046000825580601f10611df45750611e13565b601f016020900490600052602060002090810190611e129190611f03565b5b50565b828054600181600116156101000203166002900490600052602060002090601f016020900481019282601f10611e4f5780548555611e8c565b82800160010185558215611e8c57600052602060002091601f016020900482015b82811115611e8b578254825591600101919060010190611e70565b5b509050611e999190611f03565b5090565b815481835581811115611eca57600502816005028360005260206000209182019101611ec99190611f28565b5b505050565b604051806040016040528060008152602001600081525090565b604051806040016040528060008152602001600081525090565b611f2591905b80821115611f21576000816000905550600101611f09565b5090565b90565b611f7c91905b80821115611f785760008082016000905560018201600090556002820160009055600382016000611f5f9190611dce565b600482016000611f6f9190611dce565b50600501611f2e565b5090565b90565b6000611f8b8235612c9b565b905092915050565b6000611f9f8251612c9b565b905092915050565b600082601f830112611fb857600080fd5b8151611fcb611fc682612ae6565b612ab9565b9150818183526020840193506020810190508360005b838110156120115781518601611ff788826121ae565b845260208401935060208301925050600181019050611fe1565b5050505092915050565b600082601f83011261202c57600080fd5b813561203f61203a82612b0e565b612ab9565b9150818183526020840193506020810190508385602084028201111561206457600080fd5b60005b83811015612094578161207a888261231c565b845260208401935060208301925050600181019050612067565b5050505092915050565b60006120aa8251612cad565b905092915050565b600082601f8301126120c357600080fd5b81356120d66120d182612b36565b612ab9565b915080825260208301602083018583830111156120f257600080fd5b6120fd838284612ce3565b50505092915050565b600082601f83011261211757600080fd5b815161212a61212582612b62565b612ab9565b9150808252602083016020830185838301111561214657600080fd5b612151838284612cf2565b50505092915050565b600082601f83011261216b57600080fd5b813561217e61217982612b8e565b612ab9565b9150808252602083016020830185838301111561219a57600080fd5b6121a5838284612ce3565b50505092915050565b6000606082840312156121c057600080fd5b6121ca6060612ab9565b905060006121da84828501612330565b60008301525060206121ee84828501611f93565b602083015250604082015167ffffffffffffffff81111561220e57600080fd5b61221a84828501612106565b60408301525092915050565b6000610100828403121561223957600080fd5b612244610100612ab9565b9050600082015167ffffffffffffffff81111561226057600080fd5b61226c84828501612106565b600083015250602061228084828501612330565b602083015250604061229484828501612330565b60408301525060606122a884828501612330565b60608301525060806122bc84828501612330565b60808301525060a082015167ffffffffffffffff8111156122dc57600080fd5b6122e884828501611fa7565b60a08301525060c06122fc8482850161209e565b60c08301525060e061231084828501612330565b60e08301525092915050565b60006123288235612cd9565b905092915050565b600061233c8251612cd9565b905092915050565b6000806000806080858703121561235a57600080fd5b600061236887828801611f7f565b945050602085013567ffffffffffffffff81111561238557600080fd5b6123918782880161201b565b93505060406123a28782880161231c565b925050606085013567ffffffffffffffff8111156123bf57600080fd5b6123cb8782880161215a565b91505092959194509250565b6000806000606084860312156123ec57600080fd5b60006123fa86828701611f7f565b935050602061240b8682870161231c565b925050604084013567ffffffffffffffff81111561242857600080fd5b612434868287016120b2565b9150509250925092565b6000806000806080858703121561245457600080fd5b600061246287828801611f7f565b94505060206124738782880161231c565b93505060406124848782880161231c565b925050606085013567ffffffffffffffff8111156124a157600080fd5b6124ad8782880161215a565b91505092959194509250565b6000806000606084860312156124ce57600080fd5b600084013567ffffffffffffffff8111156124e857600080fd5b6124f48682870161201b565b93505060206125058682870161231c565b925050604084013567ffffffffffffffff81111561252257600080fd5b61252e8682870161215a565b9150509250925092565b60006020828403121561254a57600080fd5b60006125588482850161209e565b91505092915050565b60006020828403121561257357600080fd5b600082013567ffffffffffffffff81111561258d57600080fd5b6125998482850161215a565b91505092915050565b6000602082840312156125b457600080fd5b600082015167ffffffffffffffff8111156125ce57600080fd5b6125da84828501612226565b91505092915050565b600080604083850312156125f657600080fd5b60006126048582860161231c565b925050602083013567ffffffffffffffff81111561262157600080fd5b61262d8582860161215a565b9150509250929050565b60008060006060848603121561264c57600080fd5b600061265a8682870161231c565b935050602061266b8682870161231c565b925050604084013567ffffffffffffffff81111561268857600080fd5b6126948682870161215a565b9150509250925092565b60006126aa83836127a4565b60208301905092915050565b60006126c283836128fb565b905092915050565b6126d381612c53565b82525050565b60006126e482612bd4565b6126ee8185612c0f565b93506126f983612bba565b60005b828110156127275761270f86835161269e565b955061271a82612bf5565b91506001810190506126fc565b50849250505092915050565b600061273e82612bdf565b6127488185612c20565b93508360208202850161275a85612bc7565b60005b848110156127935783830388526127758383516126b6565b925061278082612c02565b915060208801975060018101905061275d565b508196508694505050505092915050565b6127ad81612c65565b82525050565b6127bc81612c65565b82525050565b60006127cd82612bea565b6127d78185612c31565b93506127e7818560208601612cf2565b6127f081612d25565b840191505092915050565b6000612808600a83612c42565b91507f656d7074792075736572000000000000000000000000000000000000000000006000830152602082019050919050565b6000612848601083612c42565b91507f696e636f727265637420646170704964000000000000000000000000000000006000830152602082019050919050565b6000612888601083612c42565b91507f696e636f727265637420616d6f756e74000000000000000000000000000000006000830152602082019050919050565b60006128c8600a83612c42565b91507f6475706c696361746564000000000000000000000000000000000000000000006000830152602082019050919050565b600060a0830160008301516129136000860182612978565b5060208301516129266020860182612978565b5060408301516129396040860182612978565b506060830151848203606086015261295182826127c2565b9150506080830151848203608086015261296b82826127c2565b9150508091505092915050565b61298181612c91565b82525050565b61299081612c91565b82525050565b60006040820190506129ab60008301856126ca565b6129b86020830184612987565b9392505050565b600060208201905081810360008301526129d981846126d9565b905092915050565b600060208201905081810360008301526129fb8184612733565b905092915050565b6000602082019050612a1860008301846127b3565b92915050565b60006020820190508181036000830152612a37816127fb565b9050919050565b60006020820190508181036000830152612a578161283b565b9050919050565b60006020820190508181036000830152612a778161287b565b9050919050565b60006020820190508181036000830152612a97816128bb565b9050919050565b6000602082019050612ab36000830184612987565b92915050565b6000604051905081810181811067ffffffffffffffff82111715612adc57600080fd5b8060405250919050565b600067ffffffffffffffff821115612afd57600080fd5b602082029050602081019050919050565b600067ffffffffffffffff821115612b2557600080fd5b602082029050602081019050919050565b600067ffffffffffffffff821115612b4d57600080fd5b601f19601f8301169050602081019050919050565b600067ffffffffffffffff821115612b7957600080fd5b601f19601f8301169050602081019050919050565b600067ffffffffffffffff821115612ba557600080fd5b601f19601f8301169050602081019050919050565b6000602082019050919050565b6000602082019050919050565b600081519050919050565b600081519050919050565b600081519050919050565b6000602082019050919050565b6000602082019050919050565b600082825260208201905092915050565b600082825260208201905092915050565b600082825260208201905092915050565b600082825260208201905092915050565b6000612c5e82612c71565b9050919050565b60008115159050919050565b600073ffffffffffffffffffffffffffffffffffffffff82169050919050565b6000819050919050565b6000612ca682612cb9565b9050919050565b60008115159050919050565b600073ffffffffffffffffffffffffffffffffffffffff82169050919050565b6000819050919050565b82818337600083830152505050565b60005b83811015612d10578082015181840152602081019050612cf5565b83811115612d1f576000848401525b50505050565b6000601f19601f830116905091905056fea265627a7a723058208e3e7642c9f5f7f015e99c5c0ec8aedd459d6f86bd2aab5388782402fd0dee1a6c6578706572696d656e74616cf50037",
  "source": "pragma solidity ^0.5.2;\npragma experimental ABIEncoderV2;\n\nimport \"./Schemas.sol\";\nimport \"./token/ERC223ReceivingContract.sol\";\nimport \"./token/ERC223.sol\";\nimport \"../../node_modules/solidity-rlp/contracts/RLPReader.sol\";\nimport \"../../node_modules/openzeppelin-solidity/contracts/math/SafeMath.sol\";\nimport \"./dapp/lib/Strings.sol\";\n\ncontract  Assets is ERC223ReceivingContract{\n  \n  using Strings for *;\n  using SafeMath for uint256;\n  using RLPReader for bytes;\n  using RLPReader for uint;\n  using RLPReader for RLPReader.RLPItem;\n\n  struct DappCtx {\n    string dappID;\n    mapping (address => UserAssets)  userAssets_;    \n  }\n\n  struct UserAssets { \n    mapping (uint256 => uint) assetsIdx;  \n    Asset[] assets;\n  } \n  \n  struct Asset {   \n    uint expirationDate;\n    uint256 assetId;\n    uint256 schemaId;\n    string dappId;\n    string description;\n  }\n\n  uint256 constant private PAGE_SIZE = 10;\n\n  mapping (bytes32 => uint[]) private dappCtxhashIndexMap_;\n  DappCtx[] private dappCtxs_;\n\n  Schemas private _schemas;\n  ERC223 private _erc223;\n  \n  constructor (address _schemasAddr, address _erc223Addr) public{\n    _erc223 = ERC223(_erc223Addr);\n    _schemas = Schemas(_schemasAddr);\n  }\n\n  function removeAsset(uint256 assetId, string memory _dappId) public {\n    _removeAsset(msg.sender, assetId,_dappId);\n  }\n\n  function checkOwnershipOneAsset(uint256 _assetId, uint256 _schemaId, string memory dappId) public  returns (bool) {\n    return _checkOwnershipOneAsset(msg.sender, _assetId, _schemaId, dappId);  \n  }\n\n  function checkOwnershipMultipleAssets(uint256[] memory _assetsIds, uint256 _schemaId, string memory dappId) public  returns (bool[] memory) {\n    return _checkOwnershipMultipleAssets(msg.sender, _assetsIds, _schemaId, dappId);  \n  }\n\n  function checkOwnershipOneAssetForAddress(address _target, uint256 _assetId, uint256 _schemaId, string memory dappId) public  returns (bool) {\n    return _checkOwnershipOneAsset(_target, _assetId, _schemaId, dappId);  \n  }\n\n  function checkOwnershipMultipleAssetsForAddress(address _target, uint256[] memory _assetsIds, uint256 _schemaId, string memory dappId) public  returns (bool[] memory) {\n    return _checkOwnershipMultipleAssets(_target, _assetsIds, _schemaId, dappId);  \n  }\n\n  function getAssetsPageCount(string memory dappId) public  returns (uint256) {  \n    DappCtx storage ctx = _getDappCtx(dappId);  \n    uint256 pages = ctx.userAssets_[msg.sender].assets.length / PAGE_SIZE;\n    if ((ctx.userAssets_[msg.sender].assets.length % PAGE_SIZE)>0) {\n      pages++;\n    }\n    return pages;\n  }\n\n  function getAssets(uint256 _page, string memory dappId) public  returns (Asset[] memory) {\n    DappCtx storage ctx = _getDappCtx(dappId);  \n    uint256 transferIndex = PAGE_SIZE * _page - PAGE_SIZE;\n    Asset[] memory assets = ctx.userAssets_[msg.sender].assets;\n\n    if (assets.length == 0 || transferIndex > assets.length - 1) {\n      Asset[] memory empty;\n      return empty ;\n    }\n\n    Asset[] memory assetsPage = new Asset[](PAGE_SIZE);  \n    uint256 returnCounter = 0;\n\n    for (transferIndex; transferIndex < PAGE_SIZE * _page; transferIndex++) {\n      if (transferIndex < assets.length) {\n        assetsPage[returnCounter] = assets[transferIndex];\n      }\n      returnCounter++;\n    }\n\n    return (assetsPage);\n  }\n\n  function tokenFallback(address _user, uint _amount, bytes memory _data) public {\n\n    RLPReader.RLPItem memory item = _data.toRlpItem();\n    RLPReader.RLPItem[] memory itemList = item.toList();\n\n    uint256 _assetId = uint256(itemList[0].toUint());\n    uint256 _schemaId = uint256(itemList[1].toUint());\n\n    string memory _dappId = string(itemList[2].toBytes());\n\n    DappCtx storage ctx = _getDappCtx(_dappId); \n\n    string memory _description = string(itemList[3].toBytes());\n\n    Schemas.Schema memory schema = _schemas.getSchema(_schemaId);\n    require(schema.amount <= _amount, \"incorrect amount\");    \n    require(schema.topPrice >= _amount, \"incorrect amount\");    \n    require(schema.dappId.toSlice().equals(_dappId.toSlice()),\"incorrect dappId\"); \n\n    if (schema.amount == schema.topPrice){\n      // is not a tip\n      require(!_checkOwnershipOneAsset(_user, _assetId, _schemaId,_dappId), \"duplicated\");\n    }\n\n    uint pieValue = _amount;\n\n    for (uint i = 0; i < schema.clearingHouseRules.length-1; i++) {\n      uint tmpValue = _calculatePercentage(_amount,schema.clearingHouseRules[i].percent);\n      _erc223.transfer(schema.clearingHouseRules[i].receptor, tmpValue);\n      pieValue -= tmpValue;\n    }\n\n    _erc223.transfer(schema.clearingHouseRules[schema.clearingHouseRules.length-1].receptor, pieValue);\n\n    if (schema.amount == schema.topPrice){\n      // is not a tip\n      //  purchase registry\n      ctx.userAssets_[_user].assets.push(Asset(now + schema.assetLifeTime , _assetId, _schemaId, _dappId, _description));\n      ctx.userAssets_[_user].assetsIdx[_assetId] = ctx.userAssets_[_user].assets.length - 1 ;\n    }\n  }\n\n  function _checkOwnershipMultipleAssets(address _owner, uint256[] memory _assetsIds, uint256 _schemaId, string memory _dappId) internal  returns (bool[] memory) {\n        \n    bool[] memory assetOwnerShip  = new bool[](_assetsIds.length);    \n\n    for (uint i = 0; i < _assetsIds.length; i++) {\n      assetOwnerShip[i] = _checkOwnershipOneAsset(_owner, _assetsIds[i] ,_schemaId, _dappId);\n    }\n\n    return assetOwnerShip;\n  }\n\n  function _checkOwnershipOneAsset(address _owner, uint256 _assetId, uint256 _schemaId, string memory _dappId) internal  returns (bool) {\n    DappCtx storage ctx = _getDappCtx(_dappId);  \n    \n    if(ctx.userAssets_[_owner].assets.length == 0){\n      return false;\n    }\n\n    uint idx = ctx.userAssets_[_owner].assetsIdx[_assetId];\n    Asset memory asset = ctx.userAssets_[_owner].assets[idx];\n    \n    if ((asset.expirationDate > now) && (asset.assetId == _assetId) && (_dappId.toSlice().equals(asset.dappId.toSlice()))){\n      return true;\n    }\n    else {\n      return false;\n    } \n  }\n\n  function _calculatePercentage(uint theNumber, uint percentage) internal  returns (uint) {\n    return theNumber * percentage / 100 ;\n  }\n\n  function _getDappCtx(string memory dappId) internal returns (DappCtx storage) {\n    bytes32 dappIdHash = keccak256(bytes(dappId));\n    uint[] memory indexArray = dappCtxhashIndexMap_[dappIdHash];\n\n    if (indexArray.length > 0) {\n      // hash collision check\n      for (uint i = 0 ; i < indexArray.length ; i++) {\n        if (dappId.toSlice().equals(dappCtxs_[indexArray[i]].dappID.toSlice())) {\n          return dappCtxs_[indexArray[i]];\n        }\n      }\n    }\n\n    dappCtxs_.push(DappCtx(dappId));\n    uint dappIndex = dappCtxs_.length-1;\n\n    dappCtxhashIndexMap_[dappIdHash].push(dappIndex);\n\n    return dappCtxs_[dappIndex];\n  }\n\n  function _removeAsset(address _owner, uint256 assetId, string memory _dappId) internal {\n    DappCtx storage ctx = _getDappCtx(_dappId);\n    require(ctx.userAssets_[_owner].assets.length>0, \"empty user\");\n    \n    uint assetIdx = ctx.userAssets_[_owner].assetsIdx[assetId];\n    delete ctx.userAssets_[_owner].assetsIdx[assetId];\n\n    delete ctx.userAssets_[_owner].assets[assetIdx];\n\n    for (uint i = assetIdx; i < ctx.userAssets_[_owner].assets.length -1 ; i++) {\n      ctx.userAssets_[_owner].assets[i] = ctx.userAssets_[_owner].assets[i+1];\n    }\n    ctx.userAssets_[_owner].assets.length--;\n  }\n\n}",
  "sourcePath": "/home/jordi/ws/bloomenio/bloomen-wallet/bloomen-wallet-truffle/contracts/bloomen/Assets.sol",
  "compiler": {
    "name": "solc",
    "version": "0.5.7+commit.6da8b019.Emscripten.clang"
  },
  "schemaVersion": "3.0.6",
  "updatedAt": "2019-05-29T12:50:40.618Z",
  "devdoc": {
    "methods": {}
  },
  "userdoc": {
    "methods": {}
  }
}