{
  "contractName": "Bloomen",
  "abi": [
    {
      "constant": false,
      "inputs": [],
      "name": "renounceOwnership",
      "outputs": [],
      "payable": false,
      "stateMutability": "nonpayable",
      "type": "function"
    },
    {
      "constant": true,
      "inputs": [],
      "name": "owner",
      "outputs": [
        {
          "name": "",
          "type": "address"
        }
      ],
      "payable": false,
      "stateMutability": "view",
      "type": "function"
    },
    {
      "constant": true,
      "inputs": [],
      "name": "isOwner",
      "outputs": [
        {
          "name": "",
          "type": "bool"
        }
      ],
      "payable": false,
      "stateMutability": "view",
      "type": "function"
    },
    {
      "constant": false,
      "inputs": [
        {
          "name": "newOwner",
          "type": "address"
        }
      ],
      "name": "transferOwnership",
      "outputs": [],
      "payable": false,
      "stateMutability": "nonpayable",
      "type": "function"
    },
    {
      "anonymous": false,
      "inputs": [
        {
          "indexed": true,
          "name": "previousOwner",
          "type": "address"
        },
        {
          "indexed": true,
          "name": "newOwner",
          "type": "address"
        }
      ],
      "name": "OwnershipTransferred",
      "type": "event"
    },
    {
      "constant": false,
      "inputs": [
        {
          "name": "_dappAddress",
          "type": "address"
        }
      ],
      "name": "addDapp",
      "outputs": [],
      "payable": false,
      "stateMutability": "nonpayable",
      "type": "function"
    },
    {
      "constant": false,
      "inputs": [
        {
          "name": "_index",
          "type": "uint256"
        }
      ],
      "name": "deleteDapp",
      "outputs": [],
      "payable": false,
      "stateMutability": "nonpayable",
      "type": "function"
    },
    {
      "constant": false,
      "inputs": [
        {
          "name": "_index",
          "type": "uint256"
        },
        {
          "name": "_newAddress",
          "type": "address"
        }
      ],
      "name": "setDapp",
      "outputs": [],
      "payable": false,
      "stateMutability": "nonpayable",
      "type": "function"
    },
    {
      "constant": true,
      "inputs": [],
      "name": "getDapps",
      "outputs": [
        {
          "name": "",
          "type": "address[]"
        }
      ],
      "payable": false,
      "stateMutability": "view",
      "type": "function"
    }
  ],
  "bytecode": "0x6080604081905260008054600160a060020a0319163317808255600160a060020a0316917f8be0079c531659141344cd1fd0a4f28419497f9722a3daafe3b4186f6b6457e0908290a3610550806100576000396000f30060806040526004361061008d5763ffffffff7c010000000000000000000000000000000000000000000000000000000060003504166327b7ca5f81146100925780632baaed18146100b5578063715018a61461011a5780638da5cb5b1461012f5780638f32d59b14610160578063c930158514610189578063e247dea8146101ad578063f2fde38b146101c5575b600080fd5b34801561009e57600080fd5b506100b3600160a060020a03600435166101e6565b005b3480156100c157600080fd5b506100ca610257565b60408051602080825283518183015283519192839290830191858101910280838360005b838110156101065781810151838201526020016100ee565b505050509050019250505060405180910390f35b34801561012657600080fd5b506100b36102ba565b34801561013b57600080fd5b50610144610324565b60408051600160a060020a039092168252519081900360200190f35b34801561016c57600080fd5b50610175610333565b604080519115158252519081900360200190f35b34801561019557600080fd5b506100b3600435600160a060020a0360243516610344565b3480156101b957600080fd5b506100b3600435610399565b3480156101d157600080fd5b506100b3600160a060020a036004351661044b565b6101ee610333565b15156101f957600080fd5b6001805480820182556000919091527fb10e2d527612073b26eecdfd717e6a320cf44b4afac2b0732d9fcbe2b7fa0cf601805473ffffffffffffffffffffffffffffffffffffffff1916600160a060020a0392909216919091179055565b606060018054806020026020016040519081016040528092919081815260200182805480156102af57602002820191906000526020600020905b8154600160a060020a03168152600190910190602001808311610291575b505050505090505b90565b6102c2610333565b15156102cd57600080fd5b60008054604051600160a060020a03909116907f8be0079c531659141344cd1fd0a4f28419497f9722a3daafe3b4186f6b6457e0908390a36000805473ffffffffffffffffffffffffffffffffffffffff19169055565b600054600160a060020a031690565b600054600160a060020a0316331490565b61034c610333565b151561035757600080fd5b8060018381548110151561036757fe5b9060005260206000200160006101000a815481600160a060020a030219169083600160a060020a031602179055505050565b60006103a3610333565b15156103ae57600080fd5b50805b6001546000190181101561043357600180548282019081106103cf57fe5b60009182526020909120015460018054600160a060020a0390921691839081106103f557fe5b6000918252602090912001805473ffffffffffffffffffffffffffffffffffffffff1916600160a060020a03929092169190911790556001016103b1565b60018054906104469060001983016104e7565b505050565b610453610333565b151561045e57600080fd5b6104678161046a565b50565b600160a060020a038116151561047f57600080fd5b60008054604051600160a060020a03808516939216917f8be0079c531659141344cd1fd0a4f28419497f9722a3daafe3b4186f6b6457e091a36000805473ffffffffffffffffffffffffffffffffffffffff1916600160a060020a0392909216919091179055565b815481835581811115610446576000838152602090206104469181019083016102b791905b80821115610520576000815560010161050c565b50905600a165627a7a723058208ca165fac5883c9f32506bba58d0ef2762f3818c6b368adcf2a9c8fe3ace426e0029",
  "source": "pragma solidity ^0.4.23;\n\nimport \"../../node_modules/openzeppelin-solidity/contracts/ownership/Ownable.sol\";\n\ncontract Bloomen is Ownable{\n\n  address[] private _dapps;\n\n\n  function addDapp(address _dappAddress) onlyOwner public {\n    _dapps.push(_dappAddress);\n  }\n\n  function deleteDapp(uint _index) onlyOwner public {\n    for (uint i = _index; i < _dapps.length-1;i++){\n      _dapps[i] = _dapps[i+1];\n    }\n    _dapps.length--;\n  }\n\n  function setDapp(uint _index, address _newAddress) onlyOwner public {\n    _dapps[_index]=_newAddress;\n  }\n\n  function getDapps() view public returns(address[]) {\n    return _dapps;\n  }\n\n\n\n}",
  "sourcePath": "/home/jordi/ws/bloomenApp/bloomen-wallet-truffle/contracts/bloomen/Bloomen.sol",
  "compiler": {
    "name": "solc",
    "version": "0.4.24+commit.e67f0147.Emscripten.clang"
  },
  "schemaVersion": "2.0.1",
  "updatedAt": "2019-04-17T13:16:34.812Z"
}