{
  "contractName": "Devices",
  "abi": [
    {
      "inputs": [
        {
          "name": "_assetsAddr",
          "type": "address"
        }
      ],
      "payable": false,
      "stateMutability": "nonpayable",
      "type": "constructor",
      "signature": "constructor"
    },
    {
      "constant": false,
      "inputs": [
        {
          "name": "_deviceHash",
          "type": "bytes32"
        },
        {
          "name": "dappId",
          "type": "string"
        }
      ],
      "name": "isAllowed",
      "outputs": [
        {
          "name": "",
          "type": "bool"
        }
      ],
      "payable": false,
      "stateMutability": "nonpayable",
      "type": "function",
      "signature": "0x18de1d87"
    },
    {
      "constant": false,
      "inputs": [
        {
          "name": "_target",
          "type": "address"
        },
        {
          "name": "_deviceHash",
          "type": "bytes32"
        },
        {
          "name": "dappId",
          "type": "string"
        }
      ],
      "name": "isAllowedForAddress",
      "outputs": [
        {
          "name": "",
          "type": "bool"
        }
      ],
      "payable": false,
      "stateMutability": "nonpayable",
      "type": "function",
      "signature": "0x12e3b03c"
    },
    {
      "constant": false,
      "inputs": [
        {
          "name": "_deviceString",
          "type": "string"
        },
        {
          "name": "_assetIds",
          "type": "uint256[]"
        },
        {
          "name": "dappId",
          "type": "string"
        }
      ],
      "name": "checkOwnershipForDeviceMultipleAssets",
      "outputs": [
        {
          "name": "",
          "type": "bool[]"
        }
      ],
      "payable": false,
      "stateMutability": "nonpayable",
      "type": "function",
      "signature": "0x672a4285"
    },
    {
      "constant": false,
      "inputs": [
        {
          "name": "_deviceString",
          "type": "string"
        },
        {
          "name": "_assetId",
          "type": "uint256"
        },
        {
          "name": "dappId",
          "type": "string"
        }
      ],
      "name": "checkOwnershipOneAssetForDevice",
      "outputs": [
        {
          "name": "",
          "type": "bool"
        }
      ],
      "payable": false,
      "stateMutability": "nonpayable",
      "type": "function",
      "signature": "0x20cccd7f"
    },
    {
      "constant": false,
      "inputs": [
        {
          "name": "dappId",
          "type": "string"
        }
      ],
      "name": "getDevicesPageCount",
      "outputs": [
        {
          "name": "",
          "type": "uint256"
        }
      ],
      "payable": false,
      "stateMutability": "nonpayable",
      "type": "function",
      "signature": "0xdce65418"
    },
    {
      "constant": false,
      "inputs": [
        {
          "name": "_page",
          "type": "uint256"
        },
        {
          "name": "dappId",
          "type": "string"
        }
      ],
      "name": "getDevices",
      "outputs": [
        {
          "components": [
            {
              "name": "expirationDate",
              "type": "uint256"
            },
            {
              "name": "assetId",
              "type": "uint256"
            },
            {
              "name": "schemaId",
              "type": "uint256"
            },
            {
              "name": "dappId",
              "type": "string"
            },
            {
              "name": "description",
              "type": "string"
            }
          ],
          "name": "",
          "type": "tuple[]"
        }
      ],
      "payable": false,
      "stateMutability": "nonpayable",
      "type": "function",
      "signature": "0x44a57ff5"
    },
    {
      "constant": false,
      "inputs": [
        {
          "name": "_deviceHash",
          "type": "bytes32"
        },
        {
          "name": "dappId",
          "type": "string"
        }
      ],
      "name": "getAddress",
      "outputs": [
        {
          "name": "",
          "type": "address"
        }
      ],
      "payable": false,
      "stateMutability": "nonpayable",
      "type": "function",
      "signature": "0x6795dbcd"
    },
    {
      "constant": false,
      "inputs": [
        {
          "name": "_deviceHash",
          "type": "bytes32"
        },
        {
          "name": "_assetId",
          "type": "uint256"
        },
        {
          "name": "_schemaId",
          "type": "uint256"
        },
        {
          "name": "_lifeTime",
          "type": "uint256"
        },
        {
          "name": "_dappId",
          "type": "string"
        }
      ],
      "name": "handshake",
      "outputs": [],
      "payable": false,
      "stateMutability": "nonpayable",
      "type": "function",
      "signature": "0x132c6aa4"
    },
    {
      "constant": false,
      "inputs": [
        {
          "name": "_deviceHash",
          "type": "bytes32"
        },
        {
          "name": "_assetId",
          "type": "uint256"
        },
        {
          "name": "_schemaId",
          "type": "uint256"
        },
        {
          "name": "_lifeTime",
          "type": "uint256"
        },
        {
          "name": "_dappId",
          "type": "string"
        },
        {
          "name": "_description",
          "type": "string"
        }
      ],
      "name": "handshake",
      "outputs": [],
      "payable": false,
      "stateMutability": "nonpayable",
      "type": "function",
      "signature": "0x42b4bed4"
    },
    {
      "constant": false,
      "inputs": [
        {
          "name": "_deviceHash",
          "type": "bytes32"
        },
        {
          "name": "_dappId",
          "type": "string"
        }
      ],
      "name": "removeDevice",
      "outputs": [],
      "payable": false,
      "stateMutability": "nonpayable",
      "type": "function",
      "signature": "0xa2da6a9a"
    }
  ],
  "bytecode": "0x60806040523480156200001157600080fd5b5060405160208062002cde833981018060405262000033919081019062000091565b80600260006101000a81548173ffffffffffffffffffffffffffffffffffffffff021916908373ffffffffffffffffffffffffffffffffffffffff16021790555050620000f1565b6000620000898251620000bd565b905092915050565b600060208284031215620000a457600080fd5b6000620000b4848285016200007b565b91505092915050565b6000620000ca82620000d1565b9050919050565b600073ffffffffffffffffffffffffffffffffffffffff82169050919050565b612bdd80620001016000396000f3fe608060405234801561001057600080fd5b50600436106100bb576000357c01000000000000000000000000000000000000000000000000000000009004806344a57ff51161008357806344a57ff514610188578063672a4285146101b85780636795dbcd146101e8578063a2da6a9a14610218578063dce6541814610234576100bb565b806312e3b03c146100c0578063132c6aa4146100f057806318de1d871461010c57806320cccd7f1461013c57806342b4bed41461016c575b600080fd5b6100da60048036036100d59190810190611e3e565b610264565b6040516100e7919061284b565b60405180910390f35b61010a60048036036101059190810190611f63565b6102f8565b005b61012660048036036101219190810190611f0f565b61031d565b604051610133919061284b565b60405180910390f35b61015660048036036101519190810190612183565b6103ca565b604051610163919061284b565b60405180910390f35b61018660048036036101819190810190611ff2565b61062e565b005b6101a2600480360361019d9190810190612202565b610645565b6040516101af9190612829565b60405180910390f35b6101d260048036036101cd91908101906120ec565b610988565b6040516101df9190612807565b60405180910390f35b61020260048036036101fd9190810190611f0f565b610daa565b60405161020f9190612701565b60405180910390f35b610232600480360361022d9190810190611f0f565b610e13565b005b61024e600480360361024991908101906120ab565b610e22565b60405161025b9190612906565b60405180910390f35b60008061027083610ef3565b905060008573ffffffffffffffffffffffffffffffffffffffff1682600201600087815260200190815260200160002060009054906101000a900473ffffffffffffffffffffffffffffffffffffffff1673ffffffffffffffffffffffffffffffffffffffff161480156102ea57506102e9858561031d565b5b905080925050509392505050565b61031633868686868660405180602001604052806000815250611180565b5050505050565b60008061032983610ef3565b905060004282600101600084600201600089815260200190815260200160002060009054906101000a900473ffffffffffffffffffffffffffffffffffffffff1673ffffffffffffffffffffffffffffffffffffffff1673ffffffffffffffffffffffffffffffffffffffff168152602001908152602001600020600001600087815260200190815260200160002060000154119050809250505092915050565b6000806103d683610ef3565b9050600085805190602001209050600073ffffffffffffffffffffffffffffffffffffffff1682600201600083815260200190815260200160002060009054906101000a900473ffffffffffffffffffffffffffffffffffffffff1673ffffffffffffffffffffffffffffffffffffffff161415610489576040517f08c379a0000000000000000000000000000000000000000000000000000000008152600401610480906128a6565b60405180910390fd5b600082600101600084600201600085815260200190815260200160002060009054906101000a900473ffffffffffffffffffffffffffffffffffffffff1673ffffffffffffffffffffffffffffffffffffffff1673ffffffffffffffffffffffffffffffffffffffff16815260200190815260200160002060000160008381526020019081526020016000209050600260009054906101000a900473ffffffffffffffffffffffffffffffffffffffff1673ffffffffffffffffffffffffffffffffffffffff166325c6e6a884600201600085815260200190815260200160002060009054906101000a900473ffffffffffffffffffffffffffffffffffffffff16888460020154856003016040518563ffffffff167c01000000000000000000000000000000000000000000000000000000000281526004016105d094939291906127bb565b602060405180830381600087803b1580156105ea57600080fd5b505af11580156105fe573d6000803e3d6000fd5b505050506040513d601f19601f820116820180604052506106229190810190611ee6565b93505050509392505050565b61063d33878787878787611180565b505050505050565b6060600061065283610ef3565b90506060600a60405190808252806020026020018201604052801561069157816020015b61067e611ade565b8152602001906001900390816106765790505b5090506000600a86600a0203905060608360010160003373ffffffffffffffffffffffffffffffffffffffff1673ffffffffffffffffffffffffffffffffffffffff16815260200190815260200160002060010180548060200260200160405190810160405280929190818152602001828054801561072f57602002820191906000526020600020905b81548152602001906001019080831161071b575b505050505090506000815114806107495750600181510382115b1561075d5760608095505050505050610982565b60008090505b87600a02831015610979578151831015610964578460010160003373ffffffffffffffffffffffffffffffffffffffff1673ffffffffffffffffffffffffffffffffffffffff16815260200190815260200160002060000160008385815181106107c957fe5b602002602001015181526020019081526020016000206040518060a0016040529081600082015481526020016001820154815260200160028201548152602001600382018054600181600116156101000203166002900480601f0160208091040260200160405190810160405280929190818152602001828054600181600116156101000203166002900480156108a15780601f10610876576101008083540402835291602001916108a1565b820191906000526020600020905b81548152906001019060200180831161088457829003601f168201915b50505050508152602001600482018054600181600116156101000203166002900480601f0160208091040260200160405190810160405280929190818152602001828054600181600116156101000203166002900480156109435780601f1061091857610100808354040283529160200191610943565b820191906000526020600020905b81548152906001019060200180831161092657829003601f168201915b50505050508152505084828151811061095857fe5b60200260200101819052505b80806001019150508280600101935050610763565b83955050505050505b92915050565b6060600061099583610ef3565b9050600085805190602001209050600073ffffffffffffffffffffffffffffffffffffffff1682600201600083815260200190815260200160002060009054906101000a900473ffffffffffffffffffffffffffffffffffffffff1673ffffffffffffffffffffffffffffffffffffffff161415610a48576040517f08c379a0000000000000000000000000000000000000000000000000000000008152600401610a3f906128a6565b60405180910390fd5b6000855111610a8c576040517f08c379a0000000000000000000000000000000000000000000000000000000008152600401610a8390612866565b60405180910390fd5b610a94611b0d565b82600101600084600201600085815260200190815260200160002060009054906101000a900473ffffffffffffffffffffffffffffffffffffffff1673ffffffffffffffffffffffffffffffffffffffff1673ffffffffffffffffffffffffffffffffffffffff16815260200190815260200160002060000160008381526020019081526020016000206040518060a0016040529081600082015481526020016001820154815260200160028201548152602001600382018054600181600116156101000203166002900480601f016020809104026020016040519081016040528092919081815260200182805460018160011615610100020316600290048015610be05780601f10610bb557610100808354040283529160200191610be0565b820191906000526020600020905b815481529060010190602001808311610bc357829003601f168201915b50505050508152602001600482018054600181600116156101000203166002900480601f016020809104026020016040519081016040528092919081815260200182805460018160011615610100020316600290048015610c825780601f10610c5757610100808354040283529160200191610c82565b820191906000526020600020905b815481529060010190602001808311610c6557829003601f168201915b5050505050815250509050600260009054906101000a900473ffffffffffffffffffffffffffffffffffffffff1673ffffffffffffffffffffffffffffffffffffffff1663e02d5a0384600201600085815260200190815260200160002060009054906101000a900473ffffffffffffffffffffffffffffffffffffffff1688846040015185606001516040518563ffffffff167c0100000000000000000000000000000000000000000000000000000000028152600401610d47949392919061271c565b600060405180830381600087803b158015610d6157600080fd5b505af1158015610d75573d6000803e3d6000fd5b505050506040513d6000823e3d601f19601f82011682018060405250610d9e9190810190611ea5565b93505050509392505050565b600080610db683610ef3565b90506000610dc4858561031d565b905060008115610e075782600201600087815260200190815260200160002060009054906101000a900473ffffffffffffffffffffffffffffffffffffffff1690505b80935050505092915050565b610e1e3383836115a1565b5050565b600080610e2e83610ef3565b90506000600a8260010160003373ffffffffffffffffffffffffffffffffffffffff1673ffffffffffffffffffffffffffffffffffffffff1681526020019081526020016000206001018054905081610e8357fe5b0490506000600a8360010160003373ffffffffffffffffffffffffffffffffffffffff1673ffffffffffffffffffffffffffffffffffffffff1681526020019081526020016000206001018054905081610ed957fe5b061115610ee95780806001019150505b8092505050919050565b600080828051906020012090506060600080838152602001908152602001600020805480602002602001604051908101604052809291908181526020018280548015610f5e57602002820191906000526020600020905b815481526020019060010190808311610f4a575b505050505090506000815111156110b65760008090505b81518110156110b45761106a6110536001848481518110610f9257fe5b602002602001015181548110610fa457fe5b90600052602060002090600302016000018054600181600116156101000203166002900480601f0160208091040260200160405190810160405280929190818152602001828054600181600116156101000203166002900480156110495780601f1061101e57610100808354040283529160200191611049565b820191906000526020600020905b81548152906001019060200180831161102c57829003601f168201915b50505050506119ae565b61105c876119ae565b6119dc90919063ffffffff16565b156110a757600182828151811061107d57fe5b60200260200101518154811061108f57fe5b9060005260206000209060030201935050505061117b565b8080600101915050610f75565b505b600160405180602001604052808681525090806001815401808255809150509060018203906000526020600020906003020160009091929091909150600082015181600001908051906020019061110e929190611b3c565b505050506000600180805490500390506000808481526020019081526020016000208190806001815401808255809150509060018203906000526020600020016000909192909190915055506001818154811061116757fe5b906000526020600020906003020193505050505b919050565b600260009054906101000a900473ffffffffffffffffffffffffffffffffffffffff1673ffffffffffffffffffffffffffffffffffffffff166325c6e6a8888787866040518563ffffffff167c01000000000000000000000000000000000000000000000000000000000281526004016111fd949392919061276f565b602060405180830381600087803b15801561121757600080fd5b505af115801561122b573d6000803e3d6000fd5b505050506040513d601f19601f8201168201806040525061124f9190810190611ee6565b61128e576040517f08c379a000000000000000000000000000000000000000000000000000000000815260040161128590612886565b60405180910390fd5b600061129983610ef3565b9050600073ffffffffffffffffffffffffffffffffffffffff1681600201600089815260200190815260200160002060009054906101000a900473ffffffffffffffffffffffffffffffffffffffff1673ffffffffffffffffffffffffffffffffffffffff16141580156113145750611312878461031d565b155b1561135a5761135981600201600089815260200190815260200160002060009054906101000a900473ffffffffffffffffffffffffffffffffffffffff1688856115a1565b5b600073ffffffffffffffffffffffffffffffffffffffff1681600201600089815260200190815260200160002060009054906101000a900473ffffffffffffffffffffffffffffffffffffffff1673ffffffffffffffffffffffffffffffffffffffff16146113fe576040517f08c379a00000000000000000000000000000000000000000000000000000000081526004016113f5906128e6565b60405180910390fd5b8781600201600089815260200190815260200160002060006101000a81548173ffffffffffffffffffffffffffffffffffffffff021916908373ffffffffffffffffffffffffffffffffffffffff1602179055506040518060a00160405280858152602001878152602001868152602001848152602001838152508160010160008a73ffffffffffffffffffffffffffffffffffffffff1673ffffffffffffffffffffffffffffffffffffffff16815260200190815260200160002060000160008981526020019081526020016000206000820151816000015560208201518160010155604082015181600201556060820151816003019080519060200190611508929190611b3c565b506080820151816004019080519060200190611525929190611b3c565b509050508060010160008973ffffffffffffffffffffffffffffffffffffffff1673ffffffffffffffffffffffffffffffffffffffff1681526020019081526020016000206001018790806001815401808255809150509060018203906000526020600020016000909192909190915055505050505050505050565b60006115ac82610ef3565b90508373ffffffffffffffffffffffffffffffffffffffff1681600201600085815260200190815260200160002060009054906101000a900473ffffffffffffffffffffffffffffffffffffffff1673ffffffffffffffffffffffffffffffffffffffff1614611651576040517f08c379a0000000000000000000000000000000000000000000000000000000008152600401611648906128c6565b60405180910390fd5b80600201600084815260200190815260200160002060006101000a81549073ffffffffffffffffffffffffffffffffffffffff02191690558060010160008573ffffffffffffffffffffffffffffffffffffffff1673ffffffffffffffffffffffffffffffffffffffff1681526020019081526020016000206000016000848152602001908152602001600020600080820160009055600182016000905560028201600090556003820160006117079190611bbc565b6004820160006117179190611bbc565b5050600080905060008090505b60018360010160008873ffffffffffffffffffffffffffffffffffffffff1673ffffffffffffffffffffffffffffffffffffffff16815260200190815260200160002060010180549050038110156118a757811561183b578260010160008773ffffffffffffffffffffffffffffffffffffffff1673ffffffffffffffffffffffffffffffffffffffff16815260200190815260200160002060010160018201815481106117ce57fe5b90600052602060002001548360010160008873ffffffffffffffffffffffffffffffffffffffff1673ffffffffffffffffffffffffffffffffffffffff168152602001908152602001600020600101828154811061182857fe5b906000526020600020018190555061189a565b848360010160008873ffffffffffffffffffffffffffffffffffffffff1673ffffffffffffffffffffffffffffffffffffffff168152602001908152602001600020600101828154811061188b57fe5b90600052602060002001541491505b8080600101915050611724565b508160010160008673ffffffffffffffffffffffffffffffffffffffff1673ffffffffffffffffffffffffffffffffffffffff16815260200190815260200160002060010160018360010160008873ffffffffffffffffffffffffffffffffffffffff1673ffffffffffffffffffffffffffffffffffffffff16815260200190815260200160002060010180549050038154811061194157fe5b90600052602060002001600090558160010160008673ffffffffffffffffffffffffffffffffffffffff1673ffffffffffffffffffffffffffffffffffffffff1681526020019081526020016000206001018054809190600190036119a69190611c04565b505050505050565b6119b6611c30565b600060208301905060405180604001604052808451815260200182815250915050919050565b6000806119e984846119f2565b14905092915050565b60008083600001519050836000015183600001511015611a1457826000015190505b60008460200151905060008460200151905060008090505b83811015611ac6576000808451915083519050808214611aad5760007fffffffffffffffffffffffffffffffffffffffffffffffffffffffffffffffff90506020871015611a8757600184886020030160080260020a031990505b600081831682851603905060008114611aaa578098505050505050505050611ad8565b50505b6020850194506020840193505050602081019050611a2c565b50846000015186600001510393505050505b92915050565b6040518060a0016040528060008152602001600081526020016000815260200160608152602001606081525090565b6040518060a0016040528060008152602001600081526020016000815260200160608152602001606081525090565b828054600181600116156101000203166002900490600052602060002090601f016020900481019282601f10611b7d57805160ff1916838001178555611bab565b82800160010185558215611bab579182015b82811115611baa578251825591602001919060010190611b8f565b5b509050611bb89190611c4a565b5090565b50805460018160011615610100020316600290046000825580601f10611be25750611c01565b601f016020900490600052602060002090810190611c009190611c4a565b5b50565b815481835581811115611c2b57818360005260206000209182019101611c2a9190611c6f565b5b505050565b604051806040016040528060008152602001600081525090565b611c6c91905b80821115611c68576000816000905550600101611c50565b5090565b90565b611c9191905b80821115611c8d576000816000905550600101611c75565b5090565b90565b6000611ca08235612afe565b905092915050565b600082601f830112611cb957600080fd5b8151611ccc611cc78261294e565b612921565b91508181835260208401935060208101905083856020840282011115611cf157600080fd5b60005b83811015611d215781611d078882611dae565b845260208401935060208301925050600181019050611cf4565b5050505092915050565b600082601f830112611d3c57600080fd5b8135611d4f611d4a82612976565b612921565b91508181835260208401935060208101905083856020840282011115611d7457600080fd5b60005b83811015611da45781611d8a8882611e2a565b845260208401935060208301925050600181019050611d77565b5050505092915050565b6000611dba8251612b10565b905092915050565b6000611dce8235612b1c565b905092915050565b600082601f830112611de757600080fd5b8135611dfa611df58261299e565b612921565b91508082526020830160208301858383011115611e1657600080fd5b611e21838284612b50565b50505092915050565b6000611e368235612b46565b905092915050565b600080600060608486031215611e5357600080fd5b6000611e6186828701611c94565b9350506020611e7286828701611dc2565b925050604084013567ffffffffffffffff811115611e8f57600080fd5b611e9b86828701611dd6565b9150509250925092565b600060208284031215611eb757600080fd5b600082015167ffffffffffffffff811115611ed157600080fd5b611edd84828501611ca8565b91505092915050565b600060208284031215611ef857600080fd5b6000611f0684828501611dae565b91505092915050565b60008060408385031215611f2257600080fd5b6000611f3085828601611dc2565b925050602083013567ffffffffffffffff811115611f4d57600080fd5b611f5985828601611dd6565b9150509250929050565b600080600080600060a08688031215611f7b57600080fd5b6000611f8988828901611dc2565b9550506020611f9a88828901611e2a565b9450506040611fab88828901611e2a565b9350506060611fbc88828901611e2a565b925050608086013567ffffffffffffffff811115611fd957600080fd5b611fe588828901611dd6565b9150509295509295909350565b60008060008060008060c0878903121561200b57600080fd5b600061201989828a01611dc2565b965050602061202a89828a01611e2a565b955050604061203b89828a01611e2a565b945050606061204c89828a01611e2a565b935050608087013567ffffffffffffffff81111561206957600080fd5b61207589828a01611dd6565b92505060a087013567ffffffffffffffff81111561209257600080fd5b61209e89828a01611dd6565b9150509295509295509295565b6000602082840312156120bd57600080fd5b600082013567ffffffffffffffff8111156120d757600080fd5b6120e384828501611dd6565b91505092915050565b60008060006060848603121561210157600080fd5b600084013567ffffffffffffffff81111561211b57600080fd5b61212786828701611dd6565b935050602084013567ffffffffffffffff81111561214457600080fd5b61215086828701611d2b565b925050604084013567ffffffffffffffff81111561216d57600080fd5b61217986828701611dd6565b9150509250925092565b60008060006060848603121561219857600080fd5b600084013567ffffffffffffffff8111156121b257600080fd5b6121be86828701611dd6565b93505060206121cf86828701611e2a565b925050604084013567ffffffffffffffff8111156121ec57600080fd5b6121f886828701611dd6565b9150509250925092565b6000806040838503121561221557600080fd5b600061222385828601611e2a565b925050602083013567ffffffffffffffff81111561224057600080fd5b61224c85828601611dd6565b9150509250929050565b600061226283836123ce565b60208301905092915050565b600061227a8383612666565b905092915050565b600061228e83836126e3565b60208301905092915050565b6122a381612ab6565b82525050565b60006122b482612a03565b6122be8185612a61565b93506122c9836129ca565b60005b828110156122f7576122df868351612256565b95506122ea82612a3a565b91506001810190506122cc565b50849250505092915050565b600061230e82612a0e565b6123188185612a72565b93508360208202850161232a856129d7565b60005b8481101561236357838303885261234583835161226e565b925061235082612a47565b915060208801975060018101905061232d565b508196508694505050505092915050565b600061237f82612a19565b6123898185612a83565b9350612394836129e4565b60005b828110156123c2576123aa868351612282565b95506123b582612a54565b9150600181019050612397565b50849250505092915050565b6123d781612ac8565b82525050565b6123e681612ac8565b82525050565b60006123f782612a2f565b6124018185612aa5565b9350612411818560208601612b5f565b61241a81612b92565b840191505092915050565b600061243082612a24565b61243a8185612a94565b935061244a818560208601612b5f565b61245381612b92565b840191505092915050565b600061246982612a24565b6124738185612aa5565b9350612483818560208601612b5f565b61248c81612b92565b840191505092915050565b6000815460018116600081146124b457600181146124da5761251e565b607f60028304166124c58187612aa5565b955060ff19831686526020860193505061251e565b600282046124e88187612aa5565b95506124f3856129f1565b60005b82811015612515578154818901526001820191506020810190506124f6565b80880195505050505b505092915050565b6000612533600c83612aa5565b91507f656d7074792061737365747300000000000000000000000000000000000000006000830152602082019050919050565b6000612573600b83612aa5565b91507f6e6f7420616c6c6f7765640000000000000000000000000000000000000000006000830152602082019050919050565b60006125b3600983612aa5565b91507f6e6f7420657869737400000000000000000000000000000000000000000000006000830152602082019050919050565b60006125f3600a83612aa5565b91507f73616d65206f776e6572000000000000000000000000000000000000000000006000830152602082019050919050565b6000612633600f83612aa5565b91507f6475706c696361746564206861736800000000000000000000000000000000006000830152602082019050919050565b600060a08301600083015161267e60008601826126e3565b50602083015161269160208601826126e3565b5060408301516126a460408601826126e3565b50606083015184820360608601526126bc8282612425565b915050608083015184820360808601526126d68282612425565b9150508091505092915050565b6126ec81612af4565b82525050565b6126fb81612af4565b82525050565b6000602082019050612716600083018461229a565b92915050565b6000608082019050612731600083018761229a565b81810360208301526127438186612374565b905061275260408301856126f2565b8181036060830152612764818461245e565b905095945050505050565b6000608082019050612784600083018761229a565b61279160208301866126f2565b61279e60408301856126f2565b81810360608301526127b081846123ec565b905095945050505050565b60006080820190506127d0600083018761229a565b6127dd60208301866126f2565b6127ea60408301856126f2565b81810360608301526127fc8184612497565b905095945050505050565b6000602082019050818103600083015261282181846122a9565b905092915050565b600060208201905081810360008301526128438184612303565b905092915050565b600060208201905061286060008301846123dd565b92915050565b6000602082019050818103600083015261287f81612526565b9050919050565b6000602082019050818103600083015261289f81612566565b9050919050565b600060208201905081810360008301526128bf816125a6565b9050919050565b600060208201905081810360008301526128df816125e6565b9050919050565b600060208201905081810360008301526128ff81612626565b9050919050565b600060208201905061291b60008301846126f2565b92915050565b6000604051905081810181811067ffffffffffffffff8211171561294457600080fd5b8060405250919050565b600067ffffffffffffffff82111561296557600080fd5b602082029050602081019050919050565b600067ffffffffffffffff82111561298d57600080fd5b602082029050602081019050919050565b600067ffffffffffffffff8211156129b557600080fd5b601f19601f8301169050602081019050919050565b6000602082019050919050565b6000602082019050919050565b6000602082019050919050565b60008160005260206000209050919050565b600081519050919050565b600081519050919050565b600081519050919050565b600081519050919050565b600081519050919050565b6000602082019050919050565b6000602082019050919050565b6000602082019050919050565b600082825260208201905092915050565b600082825260208201905092915050565b600082825260208201905092915050565b600082825260208201905092915050565b600082825260208201905092915050565b6000612ac182612ad4565b9050919050565b60008115159050919050565b600073ffffffffffffffffffffffffffffffffffffffff82169050919050565b6000819050919050565b6000612b0982612b26565b9050919050565b60008115159050919050565b6000819050919050565b600073ffffffffffffffffffffffffffffffffffffffff82169050919050565b6000819050919050565b82818337600083830152505050565b60005b83811015612b7d578082015181840152602081019050612b62565b83811115612b8c576000848401525b50505050565b6000601f19601f830116905091905056fea265627a7a723058204ef517fcf4eed1bbcaff962f21a4685a90e5b7443cb8824bc29e9ac1568f272c6c6578706572696d656e74616cf50037",
  "source": "pragma solidity ^0.5.2;\npragma experimental ABIEncoderV2;\n\nimport \"./Assets.sol\";\n\ncontract Devices {\n\n  using Strings for *;\n\n  struct DappCtx {\n    string dappID;\n    mapping (address => UserDevices)  userDevices_;\n    mapping (bytes32 => address)  deviceHashes_;\n  }\n\n  struct UserDevices {   \n    mapping (bytes32 => Device) devices;\n    bytes32[] deviceArray;\n  } \n\n  struct Device {   \n    uint256 expirationDate;\n    uint256 assetId;\n    uint256 schemaId;\n    string dappId;\n    string description;\n  }\n\n  uint256 constant private PAGE_SIZE = 10;\n\n  mapping (bytes32 => uint[]) private dappCtxhashIndexMap_;\n  DappCtx[] private dappCtxs_;\n\n  Assets private _assets;\n  \n  constructor (address _assetsAddr) public{\n    _assets = Assets(_assetsAddr);    \n  }\n    \n  function isAllowed(bytes32 _deviceHash, string memory dappId) public  returns (bool) {\n    DappCtx storage ctx = _getDappCtx(dappId);\n    bool allowed = ctx.userDevices_[ctx.deviceHashes_[_deviceHash]].devices[_deviceHash].expirationDate > now ;\n    return allowed;\n  }\n\n  function isAllowedForAddress(address _target, bytes32 _deviceHash, string memory dappId) public  returns (bool) {\n    DappCtx storage ctx = _getDappCtx(dappId);\n    bool allowed =  (ctx.deviceHashes_[_deviceHash] == _target) && (isAllowed(_deviceHash,dappId));\n    return allowed;\n  }\n\n  function checkOwnershipForDeviceMultipleAssets(string memory _deviceString, uint256[] memory _assetIds, string memory dappId) public  returns (bool[] memory) {\n    DappCtx storage ctx = _getDappCtx(dappId);\n    bytes32 _deviceHash = keccak256(bytes(_deviceString));\n    require(ctx.deviceHashes_[_deviceHash] != address(0), \"not exist\");\n    require(_assetIds.length > 0, \"empty assets\");\n  \n    Device memory device = ctx.userDevices_[ctx.deviceHashes_[_deviceHash]].devices[_deviceHash];\n\n    return _assets.checkOwnershipMultipleAssetsForAddress(ctx.deviceHashes_[_deviceHash],_assetIds,device.schemaId,device.dappId);\n  }\n\n  function checkOwnershipOneAssetForDevice(string memory _deviceString, uint256 _assetId, string memory dappId) public  returns (bool) {\n    DappCtx storage ctx = _getDappCtx(dappId);\n    bytes32 _deviceHash = keccak256(bytes(_deviceString));\n    require(ctx.deviceHashes_[_deviceHash] != address(0), \"not exist\");\n    \n    Device storage device = ctx.userDevices_[ctx.deviceHashes_[_deviceHash]].devices[_deviceHash];\n\n    return _assets.checkOwnershipOneAssetForAddress(ctx.deviceHashes_[_deviceHash],_assetId,device.schemaId,device.dappId);\n  }\n\n  function getDevicesPageCount(string memory dappId) public  returns (uint256) {\n    DappCtx storage ctx = _getDappCtx(dappId);    \n    uint256 pages = ctx.userDevices_[msg.sender].deviceArray.length / PAGE_SIZE;\n    if ( (ctx.userDevices_[msg.sender].deviceArray.length % PAGE_SIZE)>0) {\n      pages++;\n    }\n    return pages;\n  }\n\n  function getDevices(uint256 _page, string memory dappId) public  returns (Device[] memory) {\n    DappCtx storage ctx = _getDappCtx(dappId); \n    Device[] memory devicesPage = new Device[](PAGE_SIZE); \n    uint256 transferIndex = PAGE_SIZE * _page - PAGE_SIZE;\n    bytes32[] memory devices = ctx.userDevices_[msg.sender].deviceArray;\n\n    if (devices.length == 0 || transferIndex > devices.length - 1) {\n      Device[] memory empty;\n      return empty;\n    }\n   \n    uint256 returnCounter = 0;\n\n    for (transferIndex; transferIndex < PAGE_SIZE * _page; transferIndex++) {\n      if (transferIndex < devices.length) {\n        devicesPage[returnCounter] = ctx.userDevices_[msg.sender].devices[devices[transferIndex]];\n      }\n      returnCounter++;\n    }\n    return devicesPage;\n  }\n\n  function getAddress(bytes32 _deviceHash, string memory dappId) public  returns (address) {\n    DappCtx storage ctx = _getDappCtx(dappId);\n    bool allowed = isAllowed(_deviceHash,dappId);\n    address ownerAddress;\n    if (allowed) {\n      ownerAddress = ctx.deviceHashes_[_deviceHash];\n    } \n    return ownerAddress;\n  }\n\n  function handshake(bytes32 _deviceHash, uint256 _assetId, uint256 _schemaId, uint256 _lifeTime, string memory _dappId) public {\n    _handshake(msg.sender, _deviceHash, _assetId, _schemaId, _lifeTime, _dappId, \"\");\n  }\n\n  function handshake(bytes32 _deviceHash, uint256 _assetId, uint256 _schemaId, uint256 _lifeTime, string memory _dappId, string memory _description) public {\n    _handshake(msg.sender, _deviceHash, _assetId, _schemaId, _lifeTime, _dappId, _description);\n  }\n\n  function removeDevice(bytes32 _deviceHash, string memory _dappId) public {\n    _removeDevice(msg.sender, _deviceHash,_dappId);\n  }\n\n    \n  function _handshake(address _owner, bytes32 _deviceHash, uint256 _assetId, uint256 _schemaId, uint256 _lifeTime, string memory _dappId, string memory _description) internal {\n    require(_assets.checkOwnershipOneAssetForAddress(_owner, _assetId, _schemaId, _dappId),\"not allowed\");\n    DappCtx storage ctx = _getDappCtx(_dappId);\n\n    if ((ctx.deviceHashes_[_deviceHash] != address(0)) && (!isAllowed(_deviceHash,_dappId))) {\n      _removeDevice(ctx.deviceHashes_[_deviceHash], _deviceHash,_dappId);\n    }\n\n    require(ctx.deviceHashes_[_deviceHash] == address(0), \"duplicated hash\");\n    ctx.deviceHashes_[_deviceHash] = _owner; \n    ctx.userDevices_[_owner].devices[_deviceHash] =  Device(_lifeTime, _assetId, _schemaId, _dappId, _description);\n    ctx.userDevices_[_owner].deviceArray.push(_deviceHash);\n  }\n\n  function _removeDevice(address _owner, bytes32 _deviceHash, string memory _dappId) internal {\n    DappCtx storage ctx = _getDappCtx(_dappId);\n    require(ctx.deviceHashes_[_deviceHash] == _owner, \"same owner\");\n    delete ctx.deviceHashes_[_deviceHash];\n    delete ctx.userDevices_[_owner].devices[_deviceHash];\n    bool found=false;\n    for (uint i = 0; i < ctx.userDevices_[_owner].deviceArray.length-1;i++){\n      if(found){\n        ctx.userDevices_[_owner].deviceArray[i] = ctx.userDevices_[_owner].deviceArray[i+1];\n      } else {\n        found = ctx.userDevices_[_owner].deviceArray[i] == _deviceHash;\n      }\n    }\n    delete ctx.userDevices_[_owner].deviceArray[ctx.userDevices_[_owner].deviceArray.length-1];\n    ctx.userDevices_[_owner].deviceArray.length--;\n  }\n\n  function _getDappCtx(string memory dappId) internal returns (DappCtx storage) {\n    bytes32 dappIdHash = keccak256(bytes(dappId));\n    uint[] memory indexArray = dappCtxhashIndexMap_[dappIdHash];\n\n    if (indexArray.length > 0) {\n      // hash collision check\n      for (uint i = 0 ; i < indexArray.length ; i++) {\n        if (dappId.toSlice().equals(dappCtxs_[indexArray[i]].dappID.toSlice())) {\n          return dappCtxs_[indexArray[i]];\n        }\n      }\n    }\n\n    dappCtxs_.push(DappCtx(dappId));\n    uint dappIndex = dappCtxs_.length-1;\n\n    dappCtxhashIndexMap_[dappIdHash].push(dappIndex);\n\n    return dappCtxs_[dappIndex];\n  }\n\n}",
  "sourcePath": "/home/jordi/ws/bloomenio/bloomen-wallet/bloomen-wallet-truffle/contracts/bloomen/Devices.sol",
  "compiler": {
    "name": "solc",
    "version": "0.5.7+commit.6da8b019.Emscripten.clang"
  },
  "schemaVersion": "3.0.6",
  "updatedAt": "2019-05-24T06:14:48.489Z",
  "devdoc": {
    "methods": {}
  },
  "userdoc": {
    "methods": {}
  }
}