{
  "contractName": "ERC223",
  "abi": [
    {
      "constant": true,
      "inputs": [],
      "name": "name",
      "outputs": [
        {
          "name": "",
          "type": "string"
        }
      ],
      "payable": false,
      "stateMutability": "view",
      "type": "function"
    },
    {
      "constant": false,
      "inputs": [
        {
          "name": "spender",
          "type": "address"
        },
        {
          "name": "value",
          "type": "uint256"
        }
      ],
      "name": "approve",
      "outputs": [
        {
          "name": "",
          "type": "bool"
        }
      ],
      "payable": false,
      "stateMutability": "nonpayable",
      "type": "function"
    },
    {
      "constant": true,
      "inputs": [
        {
          "name": "_page",
          "type": "int256"
        }
      ],
      "name": "getMovements",
      "outputs": [
        {
          "components": [
            {
              "name": "amount",
              "type": "int256"
            },
            {
              "name": "description",
              "type": "string"
            },
            {
              "name": "date",
              "type": "uint256"
            },
            {
              "name": "to",
              "type": "address"
            }
          ],
          "name": "",
          "type": "tuple[]"
        }
      ],
      "payable": false,
      "stateMutability": "view",
      "type": "function"
    },
    {
      "constant": true,
      "inputs": [],
      "name": "totalSupply",
      "outputs": [
        {
          "name": "",
          "type": "uint256"
        }
      ],
      "payable": false,
      "stateMutability": "view",
      "type": "function"
    },
    {
      "constant": false,
      "inputs": [
        {
          "name": "from",
          "type": "address"
        },
        {
          "name": "to",
          "type": "address"
        },
        {
          "name": "value",
          "type": "uint256"
        }
      ],
      "name": "transferFrom",
      "outputs": [
        {
          "name": "",
          "type": "bool"
        }
      ],
      "payable": false,
      "stateMutability": "nonpayable",
      "type": "function"
    },
    {
      "constant": true,
      "inputs": [],
      "name": "decimals",
      "outputs": [
        {
          "name": "",
          "type": "uint8"
        }
      ],
      "payable": false,
      "stateMutability": "view",
      "type": "function"
    },
    {
      "constant": false,
      "inputs": [
        {
          "name": "spender",
          "type": "address"
        },
        {
          "name": "addedValue",
          "type": "uint256"
        }
      ],
      "name": "increaseAllowance",
      "outputs": [
        {
          "name": "",
          "type": "bool"
        }
      ],
      "payable": false,
      "stateMutability": "nonpayable",
      "type": "function"
    },
    {
      "constant": false,
      "inputs": [
        {
          "name": "to",
          "type": "address"
        },
        {
          "name": "value",
          "type": "uint256"
        }
      ],
      "name": "mint",
      "outputs": [
        {
          "name": "",
          "type": "bool"
        }
      ],
      "payable": false,
      "stateMutability": "nonpayable",
      "type": "function"
    },
    {
      "constant": false,
      "inputs": [
        {
          "name": "value",
          "type": "uint256"
        }
      ],
      "name": "burn",
      "outputs": [],
      "payable": false,
      "stateMutability": "nonpayable",
      "type": "function"
    },
    {
      "constant": true,
      "inputs": [
        {
          "name": "owner",
          "type": "address"
        }
      ],
      "name": "balanceOf",
      "outputs": [
        {
          "name": "",
          "type": "uint256"
        }
      ],
      "payable": false,
      "stateMutability": "view",
      "type": "function"
    },
    {
      "constant": false,
      "inputs": [
        {
          "name": "from",
          "type": "address"
        },
        {
          "name": "value",
          "type": "uint256"
        }
      ],
      "name": "burnFrom",
      "outputs": [],
      "payable": false,
      "stateMutability": "nonpayable",
      "type": "function"
    },
    {
      "constant": false,
      "inputs": [
        {
          "name": "_amount",
          "type": "int256"
        },
        {
          "name": "_description",
          "type": "string"
        },
        {
          "name": "_to",
          "type": "address"
        }
      ],
      "name": "addMovement",
      "outputs": [],
      "payable": false,
      "stateMutability": "nonpayable",
      "type": "function"
    },
    {
      "constant": true,
      "inputs": [],
      "name": "symbol",
      "outputs": [
        {
          "name": "",
          "type": "string"
        }
      ],
      "payable": false,
      "stateMutability": "view",
      "type": "function"
    },
    {
      "constant": false,
      "inputs": [
        {
          "name": "account",
          "type": "address"
        }
      ],
      "name": "addMinter",
      "outputs": [],
      "payable": false,
      "stateMutability": "nonpayable",
      "type": "function"
    },
    {
      "constant": false,
      "inputs": [],
      "name": "renounceMinter",
      "outputs": [],
      "payable": false,
      "stateMutability": "nonpayable",
      "type": "function"
    },
    {
      "constant": false,
      "inputs": [
        {
          "name": "spender",
          "type": "address"
        },
        {
          "name": "subtractedValue",
          "type": "uint256"
        }
      ],
      "name": "decreaseAllowance",
      "outputs": [
        {
          "name": "",
          "type": "bool"
        }
      ],
      "payable": false,
      "stateMutability": "nonpayable",
      "type": "function"
    },
    {
      "constant": true,
      "inputs": [
        {
          "name": "account",
          "type": "address"
        }
      ],
      "name": "isMinter",
      "outputs": [
        {
          "name": "",
          "type": "bool"
        }
      ],
      "payable": false,
      "stateMutability": "view",
      "type": "function"
    },
    {
      "constant": true,
      "inputs": [
        {
          "name": "owner",
          "type": "address"
        },
        {
          "name": "spender",
          "type": "address"
        }
      ],
      "name": "allowance",
      "outputs": [
        {
          "name": "",
          "type": "uint256"
        }
      ],
      "payable": false,
      "stateMutability": "view",
      "type": "function"
    },
    {
      "inputs": [
        {
          "name": "_name",
          "type": "string"
        },
        {
          "name": "_symbol",
          "type": "string"
        },
        {
          "name": "_decimals",
          "type": "uint8"
        }
      ],
      "payable": false,
      "stateMutability": "nonpayable",
      "type": "constructor"
    },
    {
      "anonymous": false,
      "inputs": [
        {
          "indexed": true,
          "name": "account",
          "type": "address"
        }
      ],
      "name": "MinterAdded",
      "type": "event"
    },
    {
      "anonymous": false,
      "inputs": [
        {
          "indexed": true,
          "name": "account",
          "type": "address"
        }
      ],
      "name": "MinterRemoved",
      "type": "event"
    },
    {
      "anonymous": false,
      "inputs": [
        {
          "indexed": true,
          "name": "from",
          "type": "address"
        },
        {
          "indexed": true,
          "name": "to",
          "type": "address"
        },
        {
          "indexed": false,
          "name": "value",
          "type": "uint256"
        }
      ],
      "name": "Transfer",
      "type": "event"
    },
    {
      "anonymous": false,
      "inputs": [
        {
          "indexed": true,
          "name": "owner",
          "type": "address"
        },
        {
          "indexed": true,
          "name": "spender",
          "type": "address"
        },
        {
          "indexed": false,
          "name": "value",
          "type": "uint256"
        }
      ],
      "name": "Approval",
      "type": "event"
    },
    {
      "constant": false,
      "inputs": [
        {
          "name": "_to",
          "type": "address"
        },
        {
          "name": "_value",
          "type": "uint256"
        },
        {
          "name": "_data",
          "type": "uint256"
        }
      ],
      "name": "transfer",
      "outputs": [],
      "payable": false,
      "stateMutability": "nonpayable",
      "type": "function"
    },
    {
      "constant": false,
      "inputs": [
        {
          "name": "_to",
          "type": "address"
        },
        {
          "name": "_value",
          "type": "uint256"
        }
      ],
      "name": "transfer",
      "outputs": [
        {
          "name": "",
          "type": "bool"
        }
      ],
      "payable": false,
      "stateMutability": "nonpayable",
      "type": "function"
    }
  ],
  "bytecode": "0x60806040523480156200001157600080fd5b506040516200176738038062001767833981016040908152815160208084015192840151918401805190949390930192849184918491620000589160039186019062000188565b5081516200006e90600490602085019062000188565b506005805460ff191660ff92909216919091179055506200009a905033640100000000620000a3810204565b5050506200022d565b620000be6006826401000000006200137a620000f582021704565b604051600160a060020a038216907f6ae172837ea30b801fbfcdd4108aa1d5bf8ff775444fd70256b44e6bf3dfc3f690600090a250565b600160a060020a03811615156200010b57600080fd5b62000120828264010000000062000150810204565b156200012b57600080fd5b600160a060020a0316600090815260209190915260409020805460ff19166001179055565b6000600160a060020a03821615156200016857600080fd5b50600160a060020a03166000908152602091909152604090205460ff1690565b828054600181600116156101000203166002900490600052602060002090601f016020900481019282601f10620001cb57805160ff1916838001178555620001fb565b82800160010185558215620001fb579182015b82811115620001fb578251825591602001919060010190620001de565b50620002099291506200020d565b5090565b6200022a91905b8082111562000209576000815560010162000214565b90565b61152a806200023d6000396000f3006080604052600436106101115763ffffffff7c010000000000000000000000000000000000000000000000000000000060003504166306fdde038114610116578063095bcdb6146101a0578063095ea7b3146101c957806317b1b4981461020157806318160ddd1461026857806323b872dd1461028f578063313ce567146102b957806339509351146102e457806340c10f191461030857806342966c681461032c57806370a082311461034457806379cc67901461036557806386b00ad51461038957806395d89b41146103f2578063983b2d56146104075780639865027514610428578063a457c2d71461043d578063a9059cbb14610461578063aa271e1a14610485578063dd62ed3e146104a6575b600080fd5b34801561012257600080fd5b5061012b6104cd565b6040805160208082528351818301528351919283929083019185019080838360005b8381101561016557818101518382015260200161014d565b50505050905090810190601f1680156101925780820380516001836020036101000a031916815260200191505b509250505060405180910390f35b3480156101ac57600080fd5b506101c7600160a060020a0360043516602435604435610564565b005b3480156101d557600080fd5b506101ed600160a060020a0360043516602435610580565b604080519115158252519081900360200190f35b34801561020d57600080fd5b506102196004356105fe565b60405180806020018281038252838181518152602001915080516000925b818410156102575760208085028401810151825260019094019301610237565b925050509250505060405180910390f35b34801561027457600080fd5b5061027d610891565b60408051918252519081900360200190f35b34801561029b57600080fd5b506101ed600160a060020a0360043581169060243516604435610897565b3480156102c557600080fd5b506102ce610934565b6040805160ff9092168252519081900360200190f35b3480156102f057600080fd5b506101ed600160a060020a036004351660243561093d565b34801561031457600080fd5b506101ed600160a060020a03600435166024356109ed565b34801561033857600080fd5b506101c7600435610a16565b34801561035057600080fd5b5061027d600160a060020a0360043516610a23565b34801561037157600080fd5b506101c7600160a060020a0360043516602435610a3e565b34801561039557600080fd5b5060408051602060046024803582810135601f81018590048502860185019096528585526101c795833595369560449491939091019190819084018382808284375094975050509235600160a060020a03169350610a4c92505050565b3480156103fe57600080fd5b5061012b610a58565b34801561041357600080fd5b506101c7600160a060020a0360043516610ab9565b34801561043457600080fd5b506101c7610ad6565b34801561044957600080fd5b506101ed600160a060020a0360043516602435610ae1565b34801561046d57600080fd5b506101ed600160a060020a0360043516602435610b2c565b34801561049157600080fd5b506101ed600160a060020a0360043516610b46565b3480156104b257600080fd5b5061027d600160a060020a0360043581169060243516610b5f565b60038054604080516020601f60026000196101006001881615020190951694909404938401819004810282018101909252828152606093909290918301828280156105595780601f1061052e57610100808354040283529160200191610559565b820191906000526020600020905b81548152906001019060200180831161053c57829003601f168201915b505050505090505b90565b61056f338484610b8a565b61057b33848484610c1b565b505050565b6000600160a060020a038316151561059757600080fd5b336000818152600160209081526040808320600160a060020a03881680855290835292819020869055805186815290519293927f8c5be1e5ebec7d5bd14f71427d1e84f3dd0314c0f7b2291e5b200ac8c7c3b925929181900390910190a350600192915050565b606060006060806000806000871380156106195750600a8713155b151561068657604080517f08c379a000000000000000000000000000000000000000000000000000000000815260206004820152600d60248201527f496e76616c696420706167652e00000000000000000000000000000000000000604482015290519081900360640190fd5b3360009081526007602090815260408083208054825181850281018501909352808352600a6000198d010299509193909284015b828210156107bc57838290600052602060002090600402016080604051908101604052908160008201548152602001600182018054600181600116156101000203166002900480601f0160208091040260200160405190810160405280929190818152602001828054600181600116156101000203166002900480156107815780601f1061075657610100808354040283529160200191610781565b820191906000526020600020905b81548152906001019060200180831161076457829003601f168201915b50505091835250506002820154602080830191909152600390920154600160a060020a031660409091015290825260019290920191016106ba565b5050505093508484511115156107d157610887565b60408051600a808252610160820190925290816020015b6107f0611414565b8152602001906001900390816107e8579050509250600091505b600a821215610883575033600090815260086020526040812054859003829003908112156108485760648451101561084457829550610887565b6064015b838181518110151561085657fe5b90602001906020020151838381518110151561086e57fe5b6020908102909101015260019091019061080a565b8295505b5050505050919050565b60025490565b600160a060020a03831660009081526001602090815260408083203384529091528120548211156108c757600080fd5b600160a060020a03841660009081526001602090815260408083203384529091529020546108fb908363ffffffff610cf716565b600160a060020a038516600090815260016020908152604080832033845290915290205561092a848484610b8a565b5060019392505050565b60055460ff1690565b6000600160a060020a038316151561095457600080fd5b336000908152600160209081526040808320600160a060020a0387168452909152902054610988908363ffffffff610d0e16565b336000818152600160209081526040808320600160a060020a0389168085529083529281902085905580519485525191937f8c5be1e5ebec7d5bd14f71427d1e84f3dd0314c0f7b2291e5b200ac8c7c3b925929081900390910190a350600192915050565b60006109f833610b46565b1515610a0357600080fd5b610a0d8383610d27565b50600192915050565b610a203382610dbf565b50565b600160a060020a031660009081526020819052604090205490565b610a488282610e7b565b5050565b61057b83833384610f0d565b60048054604080516020601f60026000196101006001881615020190951694909404938401819004810282018101909252828152606093909290918301828280156105595780601f1061052e57610100808354040283529160200191610559565b610ac233610b46565b1515610acd57600080fd5b610a20816111cb565b610adf33611213565b565b6000600160a060020a0383161515610af857600080fd5b336000908152600160209081526040808320600160a060020a0387168452909152902054610988908363ffffffff610cf716565b6000610b39338484610b8a565b610a0d3384846000610c1b565b6000610b5960068363ffffffff61125b16565b92915050565b600160a060020a03918216600090815260016020908152604080832093909416825291909152205490565b610bcf81600019026040805190810160405280600481526020017f73656e64000000000000000000000000000000000000000000000000000000008152508585610f0d565b610c10816040805190810160405280600781526020017f72656365697665000000000000000000000000000000000000000000000000008152508486610f0d565b61057b838383611292565b6000610c2684611372565b15610cb75750604080517f4f4ee353000000000000000000000000000000000000000000000000000000008152600160a060020a038681166004830152602482018590526044820184905291518592831691634f4ee35391606480830192600092919082900301818387803b158015610c9e57600080fd5b505af1158015610cb2573d6000803e3d6000fd5b505050505b83600160a060020a031685600160a060020a03166000805160206114df833981519152856040518082815260200191505060405180910390a35050505050565b60008083831115610d0757600080fd5b5050900390565b600082820183811015610d2057600080fd5b9392505050565b600160a060020a0382161515610d3c57600080fd5b600254610d4f908263ffffffff610d0e16565b600255600160a060020a038216600090815260208190526040902054610d7b908263ffffffff610d0e16565b600160a060020a0383166000818152602081815260408083209490945583518581529351929391926000805160206114df8339815191529281900390910190a35050565b600160a060020a0382161515610dd457600080fd5b600160a060020a038216600090815260208190526040902054811115610df957600080fd5b600254610e0c908263ffffffff610cf716565b600255600160a060020a038216600090815260208190526040902054610e38908263ffffffff610cf716565b600160a060020a038316600081815260208181526040808320949094558351858152935191936000805160206114df833981519152929081900390910190a35050565b600160a060020a0382166000908152600160209081526040808320338452909152902054811115610eab57600080fd5b600160a060020a0382166000908152600160209081526040808320338452909152902054610edf908263ffffffff610cf716565b600160a060020a0383166000908152600160209081526040808320338452909152902055610a488282610dbf565b600160a060020a0382166000908152600760205260409020546064111561100657600160a060020a03808316600090815260076020908152604080832081516080810183528981528084018981524293820193909352948616606086015280546001818101808455928652948490208651600490920201908155915180519195949293610f9f93850192910190611446565b5060408281015160028301556060909201516003909101805473ffffffffffffffffffffffffffffffffffffffff1916600160a060020a039283161790558416600090815260076020908152828220546008909152919020600019919091019055506111c5565b600160a060020a038216600090815260086020526040902054606314156110f457600160a060020a038083166000818152600860209081526040808320839055805160808101825289815280830189905242818301529486166060860152928252600790529081208054909190811061107b57fe5b90600052602060002090600402016000820151816000015560208201518160010190805190602001906110af929190611446565b50604082015160028201556060909101516003909101805473ffffffffffffffffffffffffffffffffffffffff1916600160a060020a039092169190911790556111c5565b600160a060020a03808316600081815260086020818152604080842080546001019081905581516080810183528b81528084018b9052428184015296881660608801529484526007825290922091528054909190811061115057fe5b9060005260206000209060040201600082015181600001556020820151816001019080519060200190611184929190611446565b50604082015160028201556060909101516003909101805473ffffffffffffffffffffffffffffffffffffffff1916600160a060020a039092169190911790555b50505050565b6111dc60068263ffffffff61137a16565b604051600160a060020a038216907f6ae172837ea30b801fbfcdd4108aa1d5bf8ff775444fd70256b44e6bf3dfc3f690600090a250565b61122460068263ffffffff6113c816565b604051600160a060020a038216907fe94479a9f7e1952cc78f2d6baab678adc1b772d936c6583def489e524cb6669290600090a250565b6000600160a060020a038216151561127257600080fd5b50600160a060020a03166000908152602091909152604090205460ff1690565b600160a060020a0383166000908152602081905260409020548111156112b757600080fd5b600160a060020a03821615156112cc57600080fd5b600160a060020a0383166000908152602081905260409020546112f5908263ffffffff610cf716565b600160a060020a03808516600090815260208190526040808220939093559084168152205461132a908263ffffffff610d0e16565b600160a060020a038084166000818152602081815260409182902094909455805185815290519193928716926000805160206114df83398151915292918290030190a3505050565b6000903b1190565b600160a060020a038116151561138f57600080fd5b611399828261125b565b156113a357600080fd5b600160a060020a0316600090815260209190915260409020805460ff19166001179055565b600160a060020a03811615156113dd57600080fd5b6113e7828261125b565b15156113f257600080fd5b600160a060020a0316600090815260209190915260409020805460ff19169055565b6080604051908101604052806000815260200160608152602001600081526020016000600160a060020a031681525090565b828054600181600116156101000203166002900490600052602060002090601f016020900481019282601f1061148757805160ff19168380011785556114b4565b828001600101855582156114b4579182015b828111156114b4578251825591602001919060010190611499565b506114c09291506114c4565b5090565b61056191905b808211156114c057600081556001016114ca5600ddf252ad1be2c89b69c2b068fc378daa952ba7f163c4a11628f55a4df523b3efa165627a7a72305820d2968fdd3bfaa0093166d81e69a8b43a3f56f1791a2a2944c40ee8345409581e0029",
  "source": "pragma solidity ^0.4.23;\n\n\nimport \"../../../node_modules/openzeppelin-solidity/contracts/token/ERC20/ERC20Detailed.sol\";\nimport \"../../../node_modules/openzeppelin-solidity/contracts/token/ERC20/ERC20Mintable.sol\";\nimport \"../../../node_modules/openzeppelin-solidity/contracts/token/ERC20/ERC20Burnable.sol\";\nimport \"../../../node_modules/openzeppelin-solidity/contracts/token/ERC20/ERC20.sol\";\nimport \"../../../node_modules/openzeppelin-solidity/contracts/utils/Address.sol\";\nimport \"./MovementHistory.sol\";\n\n\nimport \"./ERC223ReceivingContract.sol\";\n\ncontract ERC223 is ERC20, ERC20Detailed, ERC20Mintable, ERC20Burnable, MovementHistory {\n  constructor (string _name, string _symbol, uint8 _decimals) public ERC20Detailed(_name, _symbol, _decimals){}\n\n    // Overridden transfer method with _data param for transaction data\n  function transfer(address _to, uint _value, uint256 _data) public {\n    _transfer(msg.sender,_to,_value);\n    _tokenFallback(msg.sender, _to, _value , _data );\n  }\n\n    // Overridden Backwards compatible transfer method without _data param\n  function transfer(address _to, uint _value) public returns (bool) {\n    //bytes memory empty;\n    _transfer(msg.sender,_to,_value);\n    _tokenFallback(msg.sender, _to, _value , 0 );\n    return true;\n  }\n\n  function _tokenFallback(address sender, address to, uint256 value, uint256 data) internal {\n    if(Address.isContract(to)) {\n      ERC223ReceivingContract receiver = ERC223ReceivingContract(to);\n      receiver.tokenFallback(sender, value, data);\n    }\n    emit Transfer(sender, to, value);\n  }\n  \n  function _transfer(address from, address to, uint256 value) internal {\n    _addMovement(int(value) * -1, \"send\", from, to);\n    _addMovement(int(value), \"receive\", to, from);\n    ERC20._transfer(from,to,value);\n  }\n\n}",
  "sourcePath": "/home/jordi/ws/bloomenApp/bloomen-wallet-truffle/contracts/bloomen/token/ERC223.sol",
  "compiler": {
    "name": "solc",
    "version": "0.4.24+commit.e67f0147.Emscripten.clang"
  },
  "schemaVersion": "2.0.1",
  "updatedAt": "2019-02-19T15:39:57.976Z"
}