{
  "contractName": "JsonContainerFactory",
  "abi": [
    {
      "inputs": [],
      "payable": false,
      "stateMutability": "nonpayable",
      "type": "constructor"
    },
    {
      "constant": true,
      "inputs": [],
      "name": "isOwner",
      "outputs": [
        {
          "name": "",
          "type": "bool"
        }
      ],
      "payable": false,
      "stateMutability": "view",
      "type": "function"
    },
    {
      "constant": false,
      "inputs": [
        {
          "name": "_in",
          "type": "bytes"
        },
        {
          "name": "_name",
          "type": "string"
        }
      ],
      "name": "createContainer",
      "outputs": [],
      "payable": false,
      "stateMutability": "nonpayable",
      "type": "function"
    },
    {
      "constant": true,
      "inputs": [],
      "name": "getContainers",
      "outputs": [
        {
          "components": [
            {
              "name": "addr",
              "type": "address"
            },
            {
              "name": "name",
              "type": "string"
            }
          ],
          "name": "",
          "type": "tuple[]"
        }
      ],
      "payable": false,
      "stateMutability": "view",
      "type": "function"
    }
  ],
  "bytecode": "0x608060405234801561001057600080fd5b5060018054600160a060020a03191632179055612539806100326000396000f3006080604052600436106100565763ffffffff7c01000000000000000000000000000000000000000000000000000000006000350416636416e44d811461005b5780638f32d59b1461007d578063959a17f8146100a8575b600080fd5b34801561006757600080fd5b5061007b610076366004610947565b6100ca565b005b34801561008957600080fd5b50610092610395565b60405161009f9190610b69565b60405180910390f35b3480156100b457600080fd5b506100bd6103b4565b60405161009f9190610b40565b6100d2610812565b60606000606060006100e2610829565b60006100ec610395565b15156100f757600080fd5b610100896104c2565b965061010b87610513565b9550855194508460405190808252806020026020018201604052801561014b57816020015b610138610829565b8152602001906001900390816101305790505b509350600092505b8483101561021b576060604051908101604052806101a661018a898781518110151561017b57fe5b90602001906020020151610513565b8051600090811061019757fe5b906020019060200201516105e6565b81526020016101cc6101bf898781518110151561017b57fe5b8051600190811061019757fe5b81526020016101f26101e5898781518110151561017b57fe5b8051600290811061019757fe5b815250915081848481518110151561020657fe5b60209081029091010152600190920191610153565b61022361084b565b604051809103906000f08015801561023f573d6000803e3d6000fd5b506040517f09d2213a00000000000000000000000000000000000000000000000000000000815290915073ffffffffffffffffffffffffffffffffffffffff8216906309d2213a90610295908790600401610b58565b600060405180830381600087803b1580156102af57600080fd5b505af11580156102c3573d6000803e3d6000fd5b50506040805180820190915273ffffffffffffffffffffffffffffffffffffffff848116825260208083018d8152600080546001810180835591805285517f290decd9548b62a8d60345a988386fc84ba6bc95484008f6362f93160ef3e5636002909202918201805473ffffffffffffffffffffffffffffffffffffffff191691909616178555915180519197509495509293610386937f290decd9548b62a8d60345a988386fc84ba6bc95484008f6362f93160ef3e56490920192019061085b565b50505050505050505050505050565b60015473ffffffffffffffffffffffffffffffffffffffff1632145b90565b60606000805480602002602001604051908101604052809291908181526020016000905b828210156104b95760008481526020908190206040805180820182526002868102909301805473ffffffffffffffffffffffffffffffffffffffff1682526001808201805485516101009382161593909302600019011695909504601f8101879004870282018701909452838152919490938582019390918301828280156104a15780601f10610476576101008083540402835291602001916104a1565b820191906000526020600020905b81548152906001019060200180831161048457829003601f168201915b505050505081525050815260200190600101906103d8565b50505050905090565b6104ca610812565b60008251600014156104f1576040805180820190915260008082526020820152915061050d565b5050604080518082019091528151815260208281019082018190525b50919050565b606060008060008061052486610658565b151561052f57600080fd5b61053886610687565b93508360405190808252806020026020018201604052801561057457816020015b610561610812565b8152602001906001900390816105595790505b50945061058486602001516106d7565b8660200151019250600090505b838110156105dd576105a28361073a565b915060408051908101604052808381526020018481525085828151811015156105c757fe5b6020908102909101015291810191600101610591565b50505050919050565b6060600080606060006105fc86602001516106d7565b9350838660000151039250826040519080825280601f01601f191660200182016040528015610635578160200160208202803883390190505b50915081602001905061064f8487602001510182856107cb565b50949350505050565b6020810151805160009190821a9060c060ff8316101561067b5760009250610680565b600192505b5050919050565b6000806000806000925061069e85602001516106d7565b6020860151865191810193500190505b808210156106ce576106bf8261073a565b600190930192909101906106ae565b50909392505050565b8051600090811a60808110156106f0576000915061050d565b60b881108061070b575060c0811080159061070b575060f881105b15610719576001915061050d565b60c081101561072e5760b5198101915061050d565b60f5198101915061050d565b8051600090811a6080811015610753576001915061050d565b60b881101561076857607e198101915061050d565b60c08110156107955760b78103600184019350806020036101000a8451046001820181019350505061050d565b60f88110156107aa5760be198101915061050d565b60019290920151602083900360f7016101000a900490910160f51901919050565b60005b602082106107f0578351835260209384019390920191601f19909101906107ce565b50915181516020939093036101000a6000190180199091169216919091179052565b604080518082019091526000808252602082015290565b6060604051908101604052806060815260200160608152602001606081525090565b6040516118c580610c3b83390190565b828054600181600116156101000203166002900490600052602060002090601f016020900481019282601f1061089c57805160ff19168380011785556108c9565b828001600101855582156108c9579182015b828111156108c95782518255916020019190600101906108ae565b506108d59291506108d9565b5090565b6103b191905b808211156108d557600081556001016108df565b6000601f8201831361090457600080fd5b813561091761091282610ba4565b610b7d565b9150808252602083016020830185838301111561093357600080fd5b61093e838284610bf4565b50505092915050565b6000806040838503121561095a57600080fd5b823567ffffffffffffffff81111561097157600080fd5b61097d858286016108f3565b925050602083013567ffffffffffffffff81111561099a57600080fd5b6109a6858286016108f3565b9150509250929050565b6109b981610bd6565b82525050565b60006109ca82610bd2565b808452602084019350836020820285016109e385610bcc565b60005b84811015610a1a5783830388526109fe838351610abf565b9250610a0982610bcc565b6020989098019791506001016109e6565b50909695505050505050565b6000610a3182610bd2565b80845260208401935083602082028501610a4a85610bcc565b60005b84811015610a1a578383038852610a65838351610af4565b9250610a7082610bcc565b602098909801979150600101610a4d565b6109b981610bef565b6000610a9582610bd2565b808452610aa9816020860160208601610c00565b610ab281610c30565b9093016020019392505050565b80516000906040840190610ad385826109b0565b5060208301518482036020860152610aeb8282610a8a565b95945050505050565b8051606080845260009190840190610b0c8282610a8a565b91505060208301518482036020860152610b268282610a8a565b91505060408301518482036040860152610aeb8282610a8a565b60208082528101610b5181846109bf565b9392505050565b60208082528101610b518184610a26565b60208101610b778284610a81565b92915050565b60405181810167ffffffffffffffff81118282101715610b9c57600080fd5b604052919050565b600067ffffffffffffffff821115610bbb57600080fd5b506020601f91909101601f19160190565b60200190565b5190565b73ffffffffffffffffffffffffffffffffffffffff1690565b151590565b82818337506000910152565b60005b83811015610c1b578181015183820152602001610c03565b83811115610c2a576000848401525b50505050565b601f01601f1916905600608060405234801561001057600080fd5b5060028054600160a060020a03191632179055611893806100326000396000f3006080604052600436106100615763ffffffff7c010000000000000000000000000000000000000000000000000000000060003504166309d2213a81146100665780633bc5de30146100885780638f32d59b146100b3578063c43ed2c8146100d5575b600080fd5b34801561007257600080fd5b50610086610081366004611580565b6100f5565b005b34801561009457600080fd5b5061009d610166565b6040516100aa9190611752565b60405180910390f35b3480156100bf57600080fd5b506100c8610389565b6040516100aa919061176a565b3480156100e157600080fd5b506100866100f03660046115bd565b6103a7565b6000806101006112f1565b610108610389565b151561011357600080fd5b83519250600091505b8282101561016057838281518110151561013257fe5b906020019060200201519050610155816000015182602001518360400151610533565b60019091019061011c565b50505050565b60606001805480602002602001604051908101604052809291908181526020016000905b8282101561037f5760008481526020908190206040805160038602909201805460026001821615610100026000190190911604601f81018590049094028301608090810190925260608301848152929390928492909184918401828280156102335780601f1061020857610100808354040283529160200191610233565b820191906000526020600020905b81548152906001019060200180831161021657829003601f168201915b50505050508152602001600182018054600181600116156101000203166002900480601f0160208091040260200160405190810160405280929190818152602001828054600181600116156101000203166002900480156102d55780601f106102aa576101008083540402835291602001916102d5565b820191906000526020600020905b8154815290600101906020018083116102b857829003601f168201915b5050509183525050600282810180546040805160206001841615610100026000190190931694909404601f810183900483028501830190915280845293810193908301828280156103675780601f1061033c57610100808354040283529160200191610367565b820191906000526020600020905b81548152906001019060200180831161034a57829003601f168201915b5050505050815250508152602001906001019061018a565b5050505090505b90565b60025473ffffffffffffffffffffffffffffffffffffffff16321490565b6103af611313565b606060008060006103be610389565b15156103c957600080fd5b6103d286610980565b94506103dd856109d1565b935083519250600091505b8282101561052b5761042f610413858481518110151561040457fe5b906020019060200201516109d1565b8051600390811061042057fe5b90602001906020020151610aa4565b90508015156104b7576104b261046b61044f868581518110151561040457fe5b8051600090811061045c57fe5b90602001906020020151610ada565b61048c61047f878681518110151561040457fe5b8051600190811061045c57fe5b6104ad6104a0888781518110151561040457fe5b8051600290811061045c57fe5b610533565b610520565b80600114156104dc576104b26104d761044f868581518110151561040457fe5b610b4c565b6105206104f361044f868581518110151561040457fe5b61050761047f878681518110151561040457fe5b61051b6104a0888781518110151561040457fe5b610dab565b6001909101906103e8565b505050505050565b6000606060008060606105446112f1565b6000896040518082805190602001908083835b602083106105765780518252601f199092019160209182019101610557565b51815160209384036101000a6000190180199092169116179052604080519290940182900382206000818152808352859020805480840285018401909652858452909d5091955090935084019050828280156105f157602002820191906000526020600020905b8154815260200190600101908083116105dd575b5050505050955060008651111561073d5785519450600093505b8484101561073d576001868581518110151561062357fe5b602090810290910101518154811061063757fe5b6000918252602091829020600390910201805460408051601f60026000196101006001871615020190941693909304928301859004850281018501909152818152928301828280156106ca5780601f1061069f576101008083540402835291602001916106ca565b820191906000526020600020905b8154815290600101906020018083116106ad57829003601f168201915b505050505092506106f26106dd8b611040565b6106e685611040565b9063ffffffff61106616565b15610732576040517f08c379a000000000000000000000000000000000000000000000000000000000815260040161072990611778565b60405180910390fd5b60019093019261060b565b50506040805160608101825289815260208101899052908101879052600154600093505b808410156108c65761082061081b60018681548110151561077e57fe5b6000918252602091829020600390910201805460408051601f60026000196101006001871615020190941693909304928301859004850281018501909152818152928301828280156108115780601f106107e657610100808354040283529160200191610811565b820191906000526020600020905b8154815290600101906020018083116107f457829003601f168201915b5050505050611040565b61107c565b156108bb578160018581548110151561083557fe5b9060005260206000209060030201600082015181600001908051906020019061085f92919061132a565b506020828101518051610878926001850192019061132a565b506040820151805161089491600284019160209091019061132a565b50505060008781526020818152604082208054600181018255908352912001849055610974565b600190930192610761565b600180548082018083556000929092528351805185926003027fb10e2d527612073b26eecdfd717e6a320cf44b4afac2b0732d9fcbe2b7fa0cf601916109119183916020019061132a565b50602082810151805161092a926001850192019061132a565b506040820151805161094691600284019160209091019061132a565b5050506000888152602081815260408220600180548254918201835591845291909220600019909201910155505b50505050505050505050565b610988611313565b60008251600014156109af57604080518082019091526000808252602082015291506109cb565b5050604080518082019091528151815260208281019082018190525b50919050565b60606000806000806109e286611081565b15156109ed57600080fd5b6109f6866110b0565b935083604051908082528060200260200182016040528015610a3257816020015b610a1f611313565b815260200190600190039081610a175790505b509450610a428660200151611100565b8660200151019250600090505b83811015610a9b57610a6083611163565b91506040805190810160405280838152602001848152508582815181101515610a8557fe5b6020908102909101015291810191600101610a4f565b50505050919050565b6000806000806000610ab98660200151611100565b86516020978801518201519190039096036101000a90950495945050505050565b606060008060606000610af08660200151611100565b9350838660000151039250826040519080825280601f01601f191660200182016040528015610b29578160200160208202803883390190505b509150816020019050610b438487602001510182856111f4565b50949350505050565b600060606000806060856040518082805190602001908083835b60208310610b855780518252601f199092019160209182019101610b66565b51815160209384036101000a6000190180199092169116179052604080519290940182900382206000818152808352859020805480840285018401909652858452909b509195509093508401905082828015610c0057602002820191906000526020600020905b815481526020019060010190808311610bec575b5050505050935060008451111515610c44576040517f08c379a000000000000000000000000000000000000000000000000000000000815260040161072990611788565b83519250600091505b8282101561052b5760018483815181101515610c6557fe5b6020908102909101015181548110610c7957fe5b6000918252602091829020600390910201805460408051601f6002600019610100600187161502019094169390930492830185900485028101850190915281815292830182828015610d0c5780601f10610ce157610100808354040283529160200191610d0c565b820191906000526020600020905b815481529060010190602001808311610cef57829003601f168201915b50505050509050610d28610d1f87611040565b6106e683611040565b15610da05760018483815181101515610d3d57fe5b6020908102909101015181548110610d5157fe5b60009182526020822060039091020190610d6b82826113a8565b610d796001830160006113a8565b610d876002830160006113a8565b50506000858152602081905260408120610da0916113ef565b600190910190610c4d565b600060606000806060876040518082805190602001908083835b60208310610de45780518252601f199092019160209182019101610dc5565b51815160209384036101000a6000190180199092169116179052604080519290940182900382206000818152808352859020805480840285018401909652858452909b509195509093508401905082828015610e5f57602002820191906000526020600020905b815481526020019060010190808311610e4b575b5050505050935060008451111515610ea3576040517f08c379a000000000000000000000000000000000000000000000000000000000815260040161072990611788565b83519250600091505b828210156110365760018483815181101515610ec457fe5b6020908102909101015181548110610ed857fe5b6000918252602091829020600390910201805460408051601f6002600019610100600187161502019094169390930492830185900485028101850190915281815292830182828015610f6b5780601f10610f4057610100808354040283529160200191610f6b565b820191906000526020600020905b815481529060010190602001808311610f4e57829003601f168201915b50505050509050610f7e610d1f89611040565b1561102b576060604051908101604052808981526020018881526020018781525060018584815181101515610faf57fe5b6020908102909101015181548110610fc357fe5b90600052602060002090600302016000820151816000019080519060200190610fed92919061132a565b506020828101518051611006926001850192019061132a565b506040820151805161102291600284019160209091019061132a565b50905050611036565b600190910190610eac565b5050505050505050565b611048611313565b50604080518082019091528151815260209182019181019190915290565b6000611072838361123b565b1590505b92915050565b511590565b6020810151805160009190821a9060c060ff831610156110a457600092506110a9565b600192505b5050919050565b600080600080600092506110c78560200151611100565b6020860151865191810193500190505b808210156110f7576110e882611163565b600190930192909101906110d7565b50909392505050565b8051600090811a608081101561111957600091506109cb565b60b8811080611134575060c08110801590611134575060f881105b1561114257600191506109cb565b60c08110156111575760b519810191506109cb565b60f519810191506109cb565b8051600090811a608081101561117c57600191506109cb565b60b881101561119157607e19810191506109cb565b60c08110156111be5760b78103600184019350806020036101000a845104600182018101935050506109cb565b60f88110156111d35760be19810191506109cb565b60019290920151602083900360f7016101000a900490910160f51901919050565b60005b60208210611219578351835260209384019390920191601f19909101906111f7565b50915181516020939093036101000a6000190180199091169216919091179052565b60008060008060008060008060008a6000015197508a600001518a60000151101561126557895197505b8a60200151965089602001519550600094505b878510156112db578651865190945092508284146112c757600019915060208810156112b157600185896020030160080260020a031991505b508181168382160380156112c7578098506112e3565b602096870196958601959490940193611278565b89518b510398505b505050505050505092915050565b6060604051908101604052806060815260200160608152602001606081525090565b604080518082019091526000808252602082015290565b828054600181600116156101000203166002900490600052602060002090601f016020900481019282601f1061136b57805160ff1916838001178555611398565b82800160010185558215611398579182015b8281111561139857825182559160200191906001019061137d565b506113a4929150611409565b5090565b50805460018160011615610100020316600290046000825580601f106113ce57506113ec565b601f0160209004906000526020600020908101906113ec9190611409565b50565b50805460008255906000526020600020908101906113ec91905b61038691905b808211156113a4576000815560010161140f565b6000601f8201831361143457600080fd5b8135611447611442826117bf565b611798565b81815260209384019390925082018360005b83811015611485578135860161146f88826114de565b8452506020928301929190910190600101611459565b5050505092915050565b6000601f820183136114a057600080fd5b81356114ae611442826117e0565b915080825260208301602083018583830111156114ca57600080fd5b6114d5838284611817565b50505092915050565b6000606082840312156114f057600080fd5b6114fa6060611798565b9050813567ffffffffffffffff81111561151357600080fd5b61151f8482850161148f565b825250602082013567ffffffffffffffff81111561153c57600080fd5b6115488482850161148f565b602083015250604082013567ffffffffffffffff81111561156857600080fd5b6115748482850161148f565b60408301525092915050565b60006020828403121561159257600080fd5b813567ffffffffffffffff8111156115a957600080fd5b6115b584828501611423565b949350505050565b6000602082840312156115cf57600080fd5b813567ffffffffffffffff8111156115e657600080fd5b6115b58482850161148f565b60006115fd8261180e565b8084526020840193508360208202850161161685611808565b60005b8481101561164d5783830388526116318383516116fd565b925061163c82611808565b602098909801979150600101611619565b50909695505050505050565b61166281611812565b82525050565b60006116738261180e565b808452611687816020860160208601611823565b6116908161184f565b9093016020019392505050565b601b81527f4572726f723a207061746820616c7265616479206578697374732e0000000000602082015260400190565b601c81527f4572726f723a207061746820646f6573206e6f74206578697374732e00000000602082015260400190565b80516060808452600091908401906117158282611668565b9150506020830151848203602086015261172f8282611668565b915050604083015184820360408601526117498282611668565b95945050505050565b6020808252810161176381846115f2565b9392505050565b602081016110768284611659565b602080825281016110768161169d565b60208082528101611076816116cd565b60405181810167ffffffffffffffff811182821017156117b757600080fd5b604052919050565b600067ffffffffffffffff8211156117d657600080fd5b5060209081020190565b600067ffffffffffffffff8211156117f757600080fd5b506020601f91909101601f19160190565b60200190565b5190565b151590565b82818337506000910152565b60005b8381101561183e578181015183820152602001611826565b838111156101605750506000910152565b601f01601f1916905600a265627a7a72305820998c25ca1e723fe9b455eb109a4d0b3ce4b6749cf603ff75a98cc5f94c47b4e06c6578706572696d656e74616cf50037a265627a7a72305820eb14e4126ee9059651c679f3ab35cb062d6877179e3e6757fc21782eae4d0ad66c6578706572696d656e74616cf50037",
  "source": "pragma solidity 0.4.24;\npragma experimental ABIEncoderV2;\n\nimport \"./lib/Structs.sol\";\nimport \"./JsonContainer.sol\";\nimport \"../../node_modules/solidity-rlp/contracts/RLPReader.sol\";\n\n\ncontract JsonContainerFactory is Structs {\n\n  using RLPReader for bytes;\n  using RLPReader for uint;\n  using RLPReader for RLPReader.RLPItem;\n\n\n\n  Container[] private containers_;\n\n\n  address private _owner;\n\n  constructor() public {\n    _owner = tx.origin;\n  }\n\n  modifier onlyOwner() {\n    require(isOwner());\n    _;\n  }\n\n  function isOwner() public view returns(bool) {\n    return tx.origin == _owner;\n  }\n\n  function createContainer(bytes memory _in, string _name) onlyOwner public {\n    RLPReader.RLPItem memory item = _in.toRlpItem();\n    RLPReader.RLPItem[] memory itemList = item.toList();\n\n    uint listLength = itemList.length;\n    PathValue[] memory data = new PathValue[](listLength);\n    for (uint i = 0; i < listLength; i++) {\n      PathValue memory pathValue = PathValue(\n        string(itemList[i].toList()[0].toBytes()),\n        string(itemList[i].toList()[1].toBytes()),\n        string(itemList[i].toList()[2].toBytes())\n      );\n      data[i] = pathValue;\n    } \n\n    JsonContainer container = new JsonContainer();\n    container.initialize(data);\n    containers_.push(Container(address(container), _name));\n    \n  }\n\n  function getContainers() public view returns (Container[]) {\n    return containers_;\n  }\n\n    \n}",
  "sourcePath": "/home/jordi/ws/bloomenApp/bloomen-wallet-truffle/contracts/jsw/JsonContainerFactory.sol",
  "compiler": {
    "name": "solc",
    "version": "0.4.24+commit.e67f0147.Emscripten.clang"
  },
  "schemaVersion": "2.0.1",
  "updatedAt": "2019-02-07T13:30:48.279Z"
}