{
  "contractName": "MovementHistory",
  "abi": [
    {
      "constant": false,
      "inputs": [
        {
          "name": "_amount",
          "type": "int256"
        },
        {
          "name": "_description",
          "type": "string"
        },
        {
          "name": "_to",
          "type": "address"
        }
      ],
      "name": "addMovement",
      "outputs": [],
      "payable": false,
      "stateMutability": "nonpayable",
      "type": "function"
    },
    {
      "constant": true,
      "inputs": [
        {
          "name": "_page",
          "type": "int256"
        }
      ],
      "name": "getMovements",
      "outputs": [
        {
          "components": [
            {
              "name": "amount",
              "type": "int256"
            },
            {
              "name": "description",
              "type": "string"
            },
            {
              "name": "date",
              "type": "uint256"
            },
            {
              "name": "to",
              "type": "address"
            }
          ],
          "name": "",
          "type": "tuple[]"
        }
      ],
      "payable": false,
      "stateMutability": "view",
      "type": "function"
    }
  ],
  "bytecode": "0x608060405234801561001057600080fd5b506109e8806100206000396000f30060806040526004361061004b5763ffffffff7c010000000000000000000000000000000000000000000000000000000060003504166317b1b498811461005057806386b00ad514610086575b600080fd5b34801561005c57600080fd5b5061007061006b366004610715565b6100a8565b60405161007d91906108e0565b60405180910390f35b34801561009257600080fd5b506100a66100a136600461073b565b61030d565b005b606060006060806000806000871380156100c35750600a8713155b1515610104576040517f08c379a00000000000000000000000000000000000000000000000000000000081526004016100fb906108f1565b60405180910390fd5b336000908152602081815260408083208054825181850281018501909352808352600a6000198d010299509193909284015b8282101561023857838290600052602060002090600402016080604051908101604052908160008201548152602001600182018054600181600116156101000203166002900480601f0160208091040260200160405190810160405280929190818152602001828054600181600116156101000203166002900480156101fd5780601f106101d2576101008083540402835291602001916101fd565b820191906000526020600020905b8154815290600101906020018083116101e057829003601f168201915b50505091835250506002820154602080830191909152600390920154600160a060020a03166040909101529082526001929092019101610136565b50505050935084845111151561024d57610303565b60408051600a808252610160820190925290816020015b61026c6105d5565b815260200190600190039081610264579050509250600091505b600a8212156102ff575033600090815260016020526040812054859003829003908112156102c4576064845110156102c057829550610303565b6064015b83818151811015156102d257fe5b9060200190602002015183838151811015156102ea57fe5b60209081029091010152600190910190610286565b8295505b5050505050919050565b6103198383338461031e565b505050565b600160a060020a0382166000908152602081905260409020546064111561041357600160a060020a03808316600090815260208181526040808320815160808101835289815280840189815242938201939093529486166060860152805460018181018084559286529484902086516004909202019081559151805191959492936103ae93850192910190610607565b5060408281015160028301556060909201516003909101805473ffffffffffffffffffffffffffffffffffffffff1916600160a060020a03928316179055841660009081526020818152828220546001909152919020600019919091019055506105cf565b600160a060020a0382166000908152600160205260409020546063141561050057600160a060020a0380831660008181526001602090815260408083208390558051608081018252898152808301899052428183015294861660608601529282528190529081208054909190811061048757fe5b90600052602060002090600402016000820151816000015560208201518160010190805190602001906104bb929190610607565b50604082015160028201556060909101516003909101805473ffffffffffffffffffffffffffffffffffffffff1916600160a060020a039092169190911790556105cf565b600160a060020a038083166000818152600160208181526040808420805484019081905581516080810183528b81528084018b90524281840152968816606088015294845283825290922091528054909190811061055a57fe5b906000526020600020906004020160008201518160000155602082015181600101908051906020019061058e929190610607565b50604082015160028201556060909101516003909101805473ffffffffffffffffffffffffffffffffffffffff1916600160a060020a039092169190911790555b50505050565b6080604051908101604052806000815260200160608152602001600081526020016000600160a060020a031681525090565b828054600181600116156101000203166002900490600052602060002090601f016020900481019282601f1061064857805160ff1916838001178555610675565b82800160010185558215610675579182015b8281111561067557825182559160200191906001019061065a565b50610681929150610685565b5090565b61069f91905b80821115610681576000815560010161068b565b90565b60006106ae8235610960565b9392505050565b60006106ae823561069f565b6000601f820183136106d257600080fd5b81356106e56106e08261092e565b610907565b9150808252602083016020830185838301111561070157600080fd5b61070c83828461096c565b50505092915050565b60006020828403121561072757600080fd5b600061073384846106b5565b949350505050565b60008060006060848603121561075057600080fd5b600061075c86866106b5565b935050602084013567ffffffffffffffff81111561077957600080fd5b610785868287016106c1565b9250506040610796868287016106a2565b9150509250925092565b6107a981610960565b82525050565b60006107ba8261095c565b808452602084019350836020820285016107d385610956565b60005b8481101561080a5783830388526107ee838351610884565b92506107f982610956565b6020989098019791506001016107d6565b50909695505050505050565b6107a98161069f565b600061082a8261095c565b80845261083e816020860160208601610978565b610847816109a4565b9093016020019392505050565b600d81527f496e76616c696420706167652e00000000000000000000000000000000000000602082015260400190565b805160009060808401906108988582610816565b50602083015184820360208601526108b0828261081f565b91505060408301516108c56040860182610816565b5060608301516108d860608601826107a0565b509392505050565b602080825281016106ae81846107af565b6020808252810161090181610854565b92915050565b60405181810167ffffffffffffffff8111828210171561092657600080fd5b604052919050565b600067ffffffffffffffff82111561094557600080fd5b506020601f91909101601f19160190565b60200190565b5190565b600160a060020a031690565b82818337506000910152565b60005b8381101561099357818101518382015260200161097b565b838111156105cf5750506000910152565b601f01601f1916905600a265627a7a723058203a6df5727fa0dc168c24ecf41d67cf0b6460e85f5b847fb15078200f1d37eacd6c6578706572696d656e74616cf50037",
  "source": "pragma solidity 0.4.24;\npragma experimental ABIEncoderV2;\n\ncontract MovementHistory {\n\n    struct Movement {\n        int256 amount;\n        string description;\n        uint date;\n        address to;\n    }\n\n    mapping (address => Movement[]) private transfersMap_;\n    mapping (address => int256) private currentIndexMap_;\n    int256 constant private MAX = 100;\n    int256 constant private PAGE_SIZE = 10;\n    int256 constant private MAX_PAGE_NUMBER = MAX/PAGE_SIZE;\n\n    function addMovement(int256 _amount, string memory _description,  address _to) public {\n        _addMovement(_amount, _description, msg.sender, _to);\n    }\n    \n    function _addMovement(int256 _amount, string memory _description,  address _from, address _to) internal {\n        if (transfersMap_[_from].length < uint256(MAX)) {\n            transfersMap_[_from].push(Movement(_amount, _description, now, _to));\n            currentIndexMap_[_from] = int256(transfersMap_[_from].length - 1);\n        } else if (currentIndexMap_[_from] == MAX - 1) {\n            currentIndexMap_[_from] = 0;\n            transfersMap_[_from][0] = Movement(_amount, _description, now, _to);\n        } else {\n            currentIndexMap_[_from]++;\n            transfersMap_[_from][uint256(currentIndexMap_[_from])] = Movement(_amount, _description, now, _to);\n        }\n    }\n\n\n    function getMovements( int256 _page) public view returns (Movement[] memory) {\n        require(_page > 0 && _page <= MAX_PAGE_NUMBER, \"Invalid page.\");\n\n        uint256 _reqIndexOffset = uint256(PAGE_SIZE * (_page - 1));\n        Movement[] memory transfers = transfersMap_[msg.sender];\n        if (transfers.length <= _reqIndexOffset) {\n            return;\n        }\n\n\n         Movement[] memory _transfersPage = new Movement[](uint256(PAGE_SIZE));\n\n        for (int256 i = 0; i < int(PAGE_SIZE); i++) {\n            int256 _transferIndex = currentIndexMap_[msg.sender] - int256(_reqIndexOffset) - i;\n            if (_transferIndex < 0) {\n                if (transfers.length < uint256(MAX) ) {\n                    return _transfersPage;\n                } else {\n                    _transferIndex += MAX;\n                }\n            }\n            _transfersPage[uint256(i)]= transfers[uint256(_transferIndex)];\n        }\n      \n        return _transfersPage;\n    }\n}",
  "sourcePath": "/home/jordi/ws/bloomenApp/bloomen-wallet-truffle/contracts/bloomen/token/MovementHistory.sol",
  "compiler": {
    "name": "solc",
    "version": "0.4.24+commit.e67f0147.Emscripten.clang"
  },
  "schemaVersion": "2.0.1",
  "updatedAt": "2019-04-17T13:16:01.485Z"
}