{
  "contractName": "PrepaidCardManager",
  "abi": [
    {
      "constant": true,
      "inputs": [
        {
          "name": "_assetId",
          "type": "uint256"
        },
        {
          "name": "_schemaId",
          "type": "uint256"
        }
      ],
      "name": "checkOwnership",
      "outputs": [
        {
          "name": "",
          "type": "bool"
        }
      ],
      "payable": false,
      "stateMutability": "view",
      "type": "function"
    },
    {
      "constant": true,
      "inputs": [],
      "name": "name",
      "outputs": [
        {
          "name": "",
          "type": "string"
        }
      ],
      "payable": false,
      "stateMutability": "view",
      "type": "function"
    },
    {
      "constant": false,
      "inputs": [
        {
          "name": "_assetId",
          "type": "uint256"
        },
        {
          "name": "_schemaId",
          "type": "uint256"
        },
        {
          "name": "_amount",
          "type": "uint256"
        },
        {
          "name": "_dappId",
          "type": "string"
        },
        {
          "name": "_description",
          "type": "string"
        }
      ],
      "name": "buy",
      "outputs": [],
      "payable": false,
      "stateMutability": "nonpayable",
      "type": "function"
    },
    {
      "constant": false,
      "inputs": [
        {
          "name": "_to",
          "type": "address"
        },
        {
          "name": "_value",
          "type": "uint256"
        },
        {
          "name": "_data",
          "type": "uint256"
        }
      ],
      "name": "transfer",
      "outputs": [],
      "payable": false,
      "stateMutability": "nonpayable",
      "type": "function"
    },
    {
      "constant": false,
      "inputs": [
        {
          "name": "spender",
          "type": "address"
        },
        {
          "name": "value",
          "type": "uint256"
        }
      ],
      "name": "approve",
      "outputs": [
        {
          "name": "",
          "type": "bool"
        }
      ],
      "payable": false,
      "stateMutability": "nonpayable",
      "type": "function"
    },
    {
      "constant": false,
      "inputs": [
        {
          "name": "_deviceHash",
          "type": "bytes32"
        },
        {
          "name": "_assetId",
          "type": "uint256"
        },
        {
          "name": "_schemaId",
          "type": "uint256"
        },
        {
          "name": "_lifeTime",
          "type": "uint256"
        },
        {
          "name": "_dappId",
          "type": "string"
        }
      ],
      "name": "handshake",
      "outputs": [],
      "payable": false,
      "stateMutability": "nonpayable",
      "type": "function"
    },
    {
      "constant": true,
      "inputs": [
        {
          "name": "_page",
          "type": "int256"
        }
      ],
      "name": "getMovements",
      "outputs": [
        {
          "components": [
            {
              "name": "amount",
              "type": "int256"
            },
            {
              "name": "description",
              "type": "string"
            },
            {
              "name": "date",
              "type": "uint256"
            },
            {
              "name": "to",
              "type": "address"
            }
          ],
          "name": "",
          "type": "tuple[]"
        }
      ],
      "payable": false,
      "stateMutability": "view",
      "type": "function"
    },
    {
      "constant": true,
      "inputs": [],
      "name": "totalSupply",
      "outputs": [
        {
          "name": "",
          "type": "uint256"
        }
      ],
      "payable": false,
      "stateMutability": "view",
      "type": "function"
    },
    {
      "constant": false,
      "inputs": [
        {
          "name": "_deviceHash",
          "type": "bytes32"
        }
      ],
      "name": "removeDevice",
      "outputs": [],
      "payable": false,
      "stateMutability": "nonpayable",
      "type": "function"
    },
    {
      "constant": true,
      "inputs": [
        {
          "name": "_target",
          "type": "address"
        },
        {
          "name": "_deviceHash",
          "type": "bytes32"
        }
      ],
      "name": "isAllowedForAddress",
      "outputs": [
        {
          "name": "",
          "type": "bool"
        }
      ],
      "payable": false,
      "stateMutability": "view",
      "type": "function"
    },
    {
      "constant": true,
      "inputs": [
        {
          "name": "theNumber",
          "type": "uint256"
        },
        {
          "name": "percentage",
          "type": "uint256"
        }
      ],
      "name": "calculatePercentage",
      "outputs": [
        {
          "name": "",
          "type": "uint256"
        }
      ],
      "payable": false,
      "stateMutability": "view",
      "type": "function"
    },
    {
      "constant": true,
      "inputs": [
        {
          "name": "_deviceHash",
          "type": "bytes32"
        }
      ],
      "name": "getAddress",
      "outputs": [
        {
          "name": "",
          "type": "address"
        }
      ],
      "payable": false,
      "stateMutability": "view",
      "type": "function"
    },
    {
      "constant": false,
      "inputs": [
        {
          "name": "from",
          "type": "address"
        },
        {
          "name": "to",
          "type": "address"
        },
        {
          "name": "value",
          "type": "uint256"
        }
      ],
      "name": "transferFrom",
      "outputs": [
        {
          "name": "",
          "type": "bool"
        }
      ],
      "payable": false,
      "stateMutability": "nonpayable",
      "type": "function"
    },
    {
      "constant": true,
      "inputs": [
        {
          "name": "_schemaId",
          "type": "uint256"
        }
      ],
      "name": "getSchema",
      "outputs": [
        {
          "components": [
            {
              "name": "expirationDate",
              "type": "uint256"
            },
            {
              "name": "schemaId",
              "type": "uint256"
            },
            {
              "name": "amount",
              "type": "uint256"
            },
            {
              "name": "assetLifeTime",
              "type": "uint256"
            },
            {
              "components": [
                {
                  "name": "percent",
                  "type": "uint256"
                },
                {
                  "name": "receptor",
                  "type": "address"
                },
                {
                  "name": "description",
                  "type": "string"
                }
              ],
              "name": "clearingHouseRules",
              "type": "tuple[]"
            },
            {
              "name": "valid",
              "type": "bool"
            }
          ],
          "name": "",
          "type": "tuple"
        }
      ],
      "payable": false,
      "stateMutability": "view",
      "type": "function"
    },
    {
      "constant": true,
      "inputs": [],
      "name": "decimals",
      "outputs": [
        {
          "name": "",
          "type": "uint8"
        }
      ],
      "payable": false,
      "stateMutability": "view",
      "type": "function"
    },
    {
      "constant": false,
      "inputs": [
        {
          "name": "spender",
          "type": "address"
        },
        {
          "name": "addedValue",
          "type": "uint256"
        }
      ],
      "name": "increaseAllowance",
      "outputs": [
        {
          "name": "",
          "type": "bool"
        }
      ],
      "payable": false,
      "stateMutability": "nonpayable",
      "type": "function"
    },
    {
      "constant": false,
      "inputs": [
        {
          "name": "_schemaId",
          "type": "uint256"
        }
      ],
      "name": "validateSchema",
      "outputs": [],
      "payable": false,
      "stateMutability": "nonpayable",
      "type": "function"
    },
    {
      "constant": false,
      "inputs": [
        {
          "name": "to",
          "type": "address"
        },
        {
          "name": "value",
          "type": "uint256"
        }
      ],
      "name": "mint",
      "outputs": [
        {
          "name": "",
          "type": "bool"
        }
      ],
      "payable": false,
      "stateMutability": "nonpayable",
      "type": "function"
    },
    {
      "constant": false,
      "inputs": [
        {
          "name": "value",
          "type": "uint256"
        }
      ],
      "name": "burn",
      "outputs": [],
      "payable": false,
      "stateMutability": "nonpayable",
      "type": "function"
    },
    {
      "constant": false,
      "inputs": [
        {
          "name": "_deviceHash",
          "type": "bytes32"
        },
        {
          "name": "_assetId",
          "type": "uint256"
        },
        {
          "name": "_schemaId",
          "type": "uint256"
        },
        {
          "name": "_lifeTime",
          "type": "uint256"
        },
        {
          "name": "_dappId",
          "type": "string"
        },
        {
          "name": "_description",
          "type": "string"
        }
      ],
      "name": "handshake",
      "outputs": [],
      "payable": false,
      "stateMutability": "nonpayable",
      "type": "function"
    },
    {
      "constant": true,
      "inputs": [],
      "name": "getAssetsPageCount",
      "outputs": [
        {
          "name": "",
          "type": "uint256"
        }
      ],
      "payable": false,
      "stateMutability": "view",
      "type": "function"
    },
    {
      "constant": false,
      "inputs": [
        {
          "name": "_from",
          "type": "address"
        },
        {
          "name": "_value",
          "type": "uint256"
        },
        {
          "name": "_schemaId",
          "type": "uint256"
        }
      ],
      "name": "tokenFallback",
      "outputs": [],
      "payable": false,
      "stateMutability": "nonpayable",
      "type": "function"
    },
    {
      "constant": false,
      "inputs": [
        {
          "name": "_schemaId",
          "type": "uint256"
        }
      ],
      "name": "invalidateSchema",
      "outputs": [],
      "payable": false,
      "stateMutability": "nonpayable",
      "type": "function"
    },
    {
      "constant": true,
      "inputs": [
        {
          "name": "_page",
          "type": "uint256"
        }
      ],
      "name": "getDevices",
      "outputs": [
        {
          "components": [
            {
              "name": "expirationDate",
              "type": "uint256"
            },
            {
              "name": "assetId",
              "type": "uint256"
            },
            {
              "name": "schemaId",
              "type": "uint256"
            },
            {
              "name": "dappId",
              "type": "string"
            },
            {
              "name": "description",
              "type": "string"
            }
          ],
          "name": "",
          "type": "tuple[]"
        }
      ],
      "payable": false,
      "stateMutability": "view",
      "type": "function"
    },
    {
      "constant": true,
      "inputs": [
        {
          "name": "_target",
          "type": "address"
        },
        {
          "name": "_assetId",
          "type": "uint256"
        },
        {
          "name": "_schemaId",
          "type": "uint256"
        }
      ],
      "name": "checkOwnershipForAddress",
      "outputs": [
        {
          "name": "",
          "type": "bool"
        }
      ],
      "payable": false,
      "stateMutability": "view",
      "type": "function"
    },
    {
      "constant": true,
      "inputs": [
        {
          "name": "owner",
          "type": "address"
        }
      ],
      "name": "balanceOf",
      "outputs": [
        {
          "name": "",
          "type": "uint256"
        }
      ],
      "payable": false,
      "stateMutability": "view",
      "type": "function"
    },
    {
      "constant": false,
      "inputs": [],
      "name": "renounceOwnership",
      "outputs": [],
      "payable": false,
      "stateMutability": "nonpayable",
      "type": "function"
    },
    {
      "constant": true,
      "inputs": [
        {
          "name": "_deviceHash",
          "type": "bytes32"
        }
      ],
      "name": "isAllowed",
      "outputs": [
        {
          "name": "",
          "type": "bool"
        }
      ],
      "payable": false,
      "stateMutability": "view",
      "type": "function"
    },
    {
      "constant": false,
      "inputs": [
        {
          "name": "from",
          "type": "address"
        },
        {
          "name": "value",
          "type": "uint256"
        }
      ],
      "name": "burnFrom",
      "outputs": [],
      "payable": false,
      "stateMutability": "nonpayable",
      "type": "function"
    },
    {
      "constant": false,
      "inputs": [
        {
          "name": "_assetId",
          "type": "uint256"
        },
        {
          "name": "_schemaId",
          "type": "uint256"
        },
        {
          "name": "_amount",
          "type": "uint256"
        },
        {
          "name": "_dappId",
          "type": "string"
        }
      ],
      "name": "buy",
      "outputs": [],
      "payable": false,
      "stateMutability": "nonpayable",
      "type": "function"
    },
    {
      "constant": true,
      "inputs": [
        {
          "name": "account",
          "type": "address"
        }
      ],
      "name": "isSigner",
      "outputs": [
        {
          "name": "",
          "type": "bool"
        }
      ],
      "payable": false,
      "stateMutability": "view",
      "type": "function"
    },
    {
      "constant": false,
      "inputs": [
        {
          "name": "_amount",
          "type": "int256"
        },
        {
          "name": "_description",
          "type": "string"
        },
        {
          "name": "_to",
          "type": "address"
        }
      ],
      "name": "addMovement",
      "outputs": [],
      "payable": false,
      "stateMutability": "nonpayable",
      "type": "function"
    },
    {
      "constant": true,
      "inputs": [],
      "name": "owner",
      "outputs": [
        {
          "name": "",
          "type": "address"
        }
      ],
      "payable": false,
      "stateMutability": "view",
      "type": "function"
    },
    {
      "constant": true,
      "inputs": [],
      "name": "isOwner",
      "outputs": [
        {
          "name": "",
          "type": "bool"
        }
      ],
      "payable": false,
      "stateMutability": "view",
      "type": "function"
    },
    {
      "constant": true,
      "inputs": [],
      "name": "getSchemas",
      "outputs": [
        {
          "name": "",
          "type": "uint256[]"
        }
      ],
      "payable": false,
      "stateMutability": "view",
      "type": "function"
    },
    {
      "constant": true,
      "inputs": [],
      "name": "symbol",
      "outputs": [
        {
          "name": "",
          "type": "string"
        }
      ],
      "payable": false,
      "stateMutability": "view",
      "type": "function"
    },
    {
      "constant": false,
      "inputs": [
        {
          "name": "account",
          "type": "address"
        }
      ],
      "name": "addMinter",
      "outputs": [],
      "payable": false,
      "stateMutability": "nonpayable",
      "type": "function"
    },
    {
      "constant": false,
      "inputs": [],
      "name": "renounceMinter",
      "outputs": [],
      "payable": false,
      "stateMutability": "nonpayable",
      "type": "function"
    },
    {
      "constant": false,
      "inputs": [
        {
          "name": "_schemaId",
          "type": "uint256"
        },
        {
          "name": "_data",
          "type": "bytes"
        }
      ],
      "name": "createSchema",
      "outputs": [],
      "payable": false,
      "stateMutability": "nonpayable",
      "type": "function"
    },
    {
      "constant": false,
      "inputs": [
        {
          "name": "spender",
          "type": "address"
        },
        {
          "name": "subtractedValue",
          "type": "uint256"
        }
      ],
      "name": "decreaseAllowance",
      "outputs": [
        {
          "name": "",
          "type": "bool"
        }
      ],
      "payable": false,
      "stateMutability": "nonpayable",
      "type": "function"
    },
    {
      "constant": false,
      "inputs": [
        {
          "name": "_to",
          "type": "address"
        },
        {
          "name": "_value",
          "type": "uint256"
        }
      ],
      "name": "transfer",
      "outputs": [
        {
          "name": "",
          "type": "bool"
        }
      ],
      "payable": false,
      "stateMutability": "nonpayable",
      "type": "function"
    },
    {
      "constant": true,
      "inputs": [
        {
          "name": "account",
          "type": "address"
        }
      ],
      "name": "isMinter",
      "outputs": [
        {
          "name": "",
          "type": "bool"
        }
      ],
      "payable": false,
      "stateMutability": "view",
      "type": "function"
    },
    {
      "constant": true,
      "inputs": [],
      "name": "getDevicesPageCount",
      "outputs": [
        {
          "name": "",
          "type": "uint256"
        }
      ],
      "payable": false,
      "stateMutability": "view",
      "type": "function"
    },
    {
      "constant": true,
      "inputs": [
        {
          "name": "_page",
          "type": "uint256"
        }
      ],
      "name": "getAssets",
      "outputs": [
        {
          "components": [
            {
              "name": "expirationDate",
              "type": "uint256"
            },
            {
              "name": "assetId",
              "type": "uint256"
            },
            {
              "name": "schemaId",
              "type": "uint256"
            },
            {
              "name": "dappId",
              "type": "string"
            },
            {
              "name": "description",
              "type": "string"
            }
          ],
          "name": "",
          "type": "tuple[]"
        }
      ],
      "payable": false,
      "stateMutability": "view",
      "type": "function"
    },
    {
      "constant": true,
      "inputs": [
        {
          "name": "owner",
          "type": "address"
        },
        {
          "name": "spender",
          "type": "address"
        }
      ],
      "name": "allowance",
      "outputs": [
        {
          "name": "",
          "type": "uint256"
        }
      ],
      "payable": false,
      "stateMutability": "view",
      "type": "function"
    },
    {
      "constant": false,
      "inputs": [],
      "name": "renounceSigner",
      "outputs": [],
      "payable": false,
      "stateMutability": "nonpayable",
      "type": "function"
    },
    {
      "constant": false,
      "inputs": [
        {
          "name": "account",
          "type": "address"
        }
      ],
      "name": "addSigner",
      "outputs": [],
      "payable": false,
      "stateMutability": "nonpayable",
      "type": "function"
    },
    {
      "constant": false,
      "inputs": [
        {
          "name": "newOwner",
          "type": "address"
        }
      ],
      "name": "transferOwnership",
      "outputs": [],
      "payable": false,
      "stateMutability": "nonpayable",
      "type": "function"
    },
    {
      "inputs": [],
      "payable": false,
      "stateMutability": "nonpayable",
      "type": "constructor"
    },
    {
      "anonymous": false,
      "inputs": [
        {
          "indexed": true,
          "name": "owner",
          "type": "address"
        },
        {
          "indexed": false,
          "name": "cardId",
          "type": "uint256"
        },
        {
          "indexed": true,
          "name": "user",
          "type": "address"
        }
      ],
      "name": "CardValidated",
      "type": "event"
    },
    {
      "anonymous": false,
      "inputs": [
        {
          "indexed": true,
          "name": "account",
          "type": "address"
        }
      ],
      "name": "MinterAdded",
      "type": "event"
    },
    {
      "anonymous": false,
      "inputs": [
        {
          "indexed": true,
          "name": "account",
          "type": "address"
        }
      ],
      "name": "MinterRemoved",
      "type": "event"
    },
    {
      "anonymous": false,
      "inputs": [
        {
          "indexed": true,
          "name": "from",
          "type": "address"
        },
        {
          "indexed": true,
          "name": "to",
          "type": "address"
        },
        {
          "indexed": false,
          "name": "value",
          "type": "uint256"
        }
      ],
      "name": "Transfer",
      "type": "event"
    },
    {
      "anonymous": false,
      "inputs": [
        {
          "indexed": true,
          "name": "owner",
          "type": "address"
        },
        {
          "indexed": true,
          "name": "spender",
          "type": "address"
        },
        {
          "indexed": false,
          "name": "value",
          "type": "uint256"
        }
      ],
      "name": "Approval",
      "type": "event"
    },
    {
      "anonymous": false,
      "inputs": [
        {
          "indexed": true,
          "name": "previousOwner",
          "type": "address"
        },
        {
          "indexed": true,
          "name": "newOwner",
          "type": "address"
        }
      ],
      "name": "OwnershipTransferred",
      "type": "event"
    },
    {
      "anonymous": false,
      "inputs": [
        {
          "indexed": true,
          "name": "account",
          "type": "address"
        }
      ],
      "name": "SignerAdded",
      "type": "event"
    },
    {
      "anonymous": false,
      "inputs": [
        {
          "indexed": true,
          "name": "account",
          "type": "address"
        }
      ],
      "name": "SignerRemoved",
      "type": "event"
    },
    {
      "constant": true,
      "inputs": [
        {
          "name": "_cardId",
          "type": "uint256"
        }
      ],
      "name": "getCard",
      "outputs": [
        {
          "name": "cardId",
          "type": "uint256"
        },
        {
          "name": "owner",
          "type": "address"
        },
        {
          "name": "tokens",
          "type": "uint256"
        },
        {
          "name": "active",
          "type": "bool"
        }
      ],
      "payable": false,
      "stateMutability": "view",
      "type": "function"
    },
    {
      "constant": false,
      "inputs": [
        {
          "name": "_cardId",
          "type": "uint256"
        },
        {
          "name": "_tokens",
          "type": "uint256"
        },
        {
          "name": "_hash",
          "type": "bytes32"
        }
      ],
      "name": "addCard",
      "outputs": [],
      "payable": false,
      "stateMutability": "nonpayable",
      "type": "function"
    },
    {
      "constant": false,
      "inputs": [
        {
          "name": "_cardId",
          "type": "uint256"
        }
      ],
      "name": "activateCard",
      "outputs": [],
      "payable": false,
      "stateMutability": "nonpayable",
      "type": "function"
    },
    {
      "constant": false,
      "inputs": [
        {
          "name": "_secret",
          "type": "bytes"
        }
      ],
      "name": "validateCard",
      "outputs": [],
      "payable": false,
      "stateMutability": "nonpayable",
      "type": "function"
    }
  ],
  "bytecode": "0x60806040523480156200001157600080fd5b506040805190810160405280600b81526020017f426c6f6f6d656e436f696e0000000000000000000000000000000000000000008152506040805190810160405280600381526020017f424c4f000000000000000000000000000000000000000000000000000000000081525060028282826200009d3362000149640100000000026401000000009004565b60018054600160a060020a031916331790819055604051600160a060020a0391909116906000907f8be0079c531659141344cd1fd0a4f28419497f9722a3daafe3b4186f6b6457e0908290a38251620000fe90600790602086019062000280565b5081516200011490600890602085019062000280565b506009805460ff191660ff9290921691909117905550620001409050336401000000006200019b810204565b50505062000325565b6200016460008264010000000062003224620001ed82021704565b604051600160a060020a038216907f47d1c22a25bb3a5d4e481b9b1e6944c2eade3181a0a20b495ed61d35b5323f2490600090a250565b620001b6600a8264010000000062003224620001ed82021704565b604051600160a060020a038216907f6ae172837ea30b801fbfcdd4108aa1d5bf8ff775444fd70256b44e6bf3dfc3f690600090a250565b600160a060020a03811615156200020357600080fd5b62000218828264010000000062000248810204565b156200022357600080fd5b600160a060020a0316600090815260209190915260409020805460ff19166001179055565b6000600160a060020a03821615156200026057600080fd5b50600160a060020a03166000908152602091909152604090205460ff1690565b828054600181600116156101000203166002900490600052602060002090601f016020900481019282601f10620002c357805160ff1916838001178555620002f3565b82800160010185558215620002f3579182015b82811115620002f3578251825591602001919060010190620002d6565b506200030192915062000305565b5090565b6200032291905b808211156200030157600081556001016200030c565b90565b6148fa80620003356000396000f3006080604052600436106102715763ffffffff7c010000000000000000000000000000000000000000000000000000000060003504166304edae0f811461027657806306fdde03146102ac578063080e6887146102ce578063095bcdb6146102f0578063095ea7b314610310578063132c6aa41461033057806317b1b4981461035057806318160ddd1461037d5780631d2662001461039f5780631d841899146103bf5780632133e3b9146103df57806321f8a721146103ff57806323b872dd1461042c5780632b26fb291461044c578063313ce56714610479578063395093511461049b5780634014d468146104bb57806340c10f19146104db57806342966c68146104fb57806342b4bed41461051b5780634aa3bfeb1461053b5780634f4ee353146105505780635a16f5c4146105705780636d9db7ed14610590578063700651aa146105bd57806370a08231146105dd578063715018a6146105fd578063787552951461061257806379cc6790146106325780637de3b0ed146106525780637df73e27146106725780637e09ef421461069257806386b00ad5146106b25780638a984385146106d25780638da5cb5b146106f25780638f32d59b146107075780639188d3121461071c57806395ba8d181461074c57806395d89b411461076e578063983b2d561461078357806398650275146107a3578063a2086dab146107b8578063a457c2d7146107d8578063a9059cbb146107f8578063aa271e1a14610818578063c1debea414610838578063c8c2eb6614610858578063d92121641461086d578063dd62ed3e1461089a578063e5c8b03d146108ba578063eb12d61e146108cf578063f2fde38b146108ef575b600080fd5b34801561028257600080fd5b50610296610291366004613c6d565b61090f565b6040516102a3919061460d565b60405180910390f35b3480156102b857600080fd5b506102c1610925565b6040516102a3919061461b565b3480156102da57600080fd5b506102ee6102e9366004613d26565b6109bc565b005b3480156102fc57600080fd5b506102ee61030b366004613a01565b6109d1565b34801561031c57600080fd5b5061029661032b3660046139d1565b6109ed565b34801561033c57600080fd5b506102ee61034b366004613a51565b610a6f565b34801561035c57600080fd5b5061037061036b366004613a33565b610a8e565b6040516102a391906145eb565b34801561038957600080fd5b50610392610cde565b6040516102a3919061479d565b3480156103ab57600080fd5b506102ee6103ba366004613a33565b610ce4565b3480156103cb57600080fd5b506102966103da3660046139d1565b610cf1565b3480156103eb57600080fd5b506103926103fa366004613c6d565b610d28565b34801561040b57600080fd5b5061041f61041a366004613a33565b610d30565b6040516102a39190614593565b34801561043857600080fd5b50610296610447366004613984565b610d6b565b34801561045857600080fd5b5061046c610467366004613a33565b610e08565b6040516102a3919061478c565b34801561048557600080fd5b5061048e610f9e565b6040516102a391906147e0565b3480156104a757600080fd5b506102966104b63660046139d1565b610fa7565b3480156104c757600080fd5b506102ee6104d6366004613a33565b61104a565b3480156104e757600080fd5b506102966104f63660046139d1565b611068565b34801561050757600080fd5b506102ee610516366004613a33565b611091565b34801561052757600080fd5b506102ee610536366004613ade565b61109b565b34801561054757600080fd5b506103926110b2565b34801561055c57600080fd5b506102ee61056b366004613a01565b6110cc565b34801561057c57600080fd5b506102ee61058b366004613a33565b611198565b34801561059c57600080fd5b506105b06105ab366004613a33565b6111b6565b6040516102a391906145da565b3480156105c957600080fd5b506102966105d8366004613a01565b61144d565b3480156105e957600080fd5b506103926105f836600461392c565b61145a565b34801561060957600080fd5b506102ee611475565b34801561061e57600080fd5b5061029661062d366004613a33565b6114d2565b34801561063e57600080fd5b506102ee61064d3660046139d1565b611509565b34801561065e57600080fd5b506102ee61066d366004613cad565b611517565b34801561067e57600080fd5b5061029661068d36600461392c565b61153b565b34801561069e57600080fd5b506102ee6106ad366004613a33565b61154d565b3480156106be57600080fd5b506102ee6106cd366004613bca565b6115e9565b3480156106de57600080fd5b506102ee6106ed366004613c8c565b6115f5565b3480156106fe57600080fd5b5061041f61176e565b34801561071357600080fd5b5061029661177d565b34801561072857600080fd5b5061073c610737366004613a33565b61178e565b6040516102a394939291906147ab565b34801561075857600080fd5b50610761611803565b6040516102a391906145fc565b34801561077a57600080fd5b506102c161185a565b34801561078f57600080fd5b506102ee61079e36600461392c565b6118bb565b3480156107af57600080fd5b506102ee6118d8565b3480156107c457600080fd5b506102ee6107d3366004613c25565b6118e3565b3480156107e457600080fd5b506102966107f33660046139d1565b611900565b34801561080457600080fd5b506102966108133660046139d1565b61194b565b34801561082457600080fd5b5061029661083336600461392c565b611965565b34801561084457600080fd5b506102ee610853366004613b95565b611978565b34801561086457600080fd5b50610392611b4d565b34801561087957600080fd5b5061088d610888366004613a33565b611b68565b6040516102a391906145c9565b3480156108a657600080fd5b506103926108b536600461394a565b611de2565b3480156108c657600080fd5b506102ee611e0d565b3480156108db57600080fd5b506102ee6108ea36600461392c565b611e16565b3480156108fb57600080fd5b506102ee61090a36600461392c565b611e33565b600061091c338484611e4f565b90505b92915050565b60078054604080516020601f60026000196101006001881615020190951694909404938401819004810282018101909252828152606093909290918301828280156109b15780601f10610986576101008083540402835291602001916109b1565b820191906000526020600020905b81548152906001019060200180831161099457829003601f168201915b505050505090505b90565b6109ca33868686868661205c565b5050505050565b6109dc338484612188565b6109e833848484612219565b505050565b6000600160a060020a0383161515610a0457600080fd5b336000818152600560209081526040808320600160a060020a03881680855292529182902085905590519091907f8c5be1e5ebec7d5bd14f71427d1e84f3dd0314c0f7b2291e5b200ac8c7c3b92590610a5e90869061479d565b60405180910390a350600192915050565b6109ca33868686868660206040519081016040528060008152506122e8565b60606000606080600080600087138015610aa95750600a8713155b1515610ad35760405160e560020a62461bcd028152600401610aca9061463c565b60405180910390fd5b336000908152600b602090815260408083208054825181850281018501909352808352600a6000198d010299509193909284015b82821015610c0957838290600052602060002090600402016080604051908101604052908160008201548152602001600182018054600181600116156101000203166002900480601f016020809104026020016040519081016040528092919081815260200182805460018160011615610100020316600290048015610bce5780601f10610ba357610100808354040283529160200191610bce565b820191906000526020600020905b815481529060010190602001808311610bb157829003601f168201915b50505091835250506002820154602080830191909152600390920154600160a060020a03166040909101529082526001929092019101610b07565b505050509350848451111515610c1e57610cd4565b60408051600a808252610160820190925290816020015b610c3d6136d9565b815260200190600190039081610c35579050509250600091505b600a821215610cd05750336000908152600c602052604081205485900382900390811215610c9557606484511015610c9157829550610cd4565b6064015b8381815181101515610ca357fe5b906020019060200201518383815181101515610cbb57fe5b60209081029091010152600190910190610c57565b8295505b5050505050919050565b60065490565b610cee3382612484565b50565b6000818152600f60205260408120548190600160a060020a038581169116148015610d205750610d20836114d2565b949350505050565b606491020490565b6000806000610d3e846114d2565b91508115610d6057506000838152600f6020526040902054600160a060020a03165b8092505b5050919050565b600160a060020a0383166000908152600560209081526040808320338452909152812054821115610d9b57600080fd5b600160a060020a0384166000908152600560209081526040808320338452909152902054610dcf908363ffffffff61267616565b600160a060020a0385166000908152600560209081526040808320338452909152902055610dfe848484612188565b5060019392505050565b610e1061370b565b60008281526002602052604081206001015411610e425760405160e560020a62461bcd028152600401610aca9061469c565b6000828152600260208181526040808420815160c081018352815481526001820154818501529381015484830152600381015460608501526004810180548351818602810186019094528084529495919460808701949192909184015b82821015610f7f576000848152602090819020604080516060810182526003860290920180548352600180820154600160a060020a0316848601526002808301805485516101009482161594909402600019011691909104601f8101879004870283018701855280835294959294938601939192909190830182828015610f675780601f10610f3c57610100808354040283529160200191610f67565b820191906000526020600020905b815481529060010190602001808311610f4a57829003601f168201915b50505050508152505081526020019060010190610e9f565b505050908252506005919091015460ff16151560209091015292915050565b60095460ff1690565b6000600160a060020a0383161515610fbe57600080fd5b336000908152600560209081526040808320600160a060020a0387168452909152902054610ff2908363ffffffff61268d16565b336000818152600560209081526040808320600160a060020a038916808552925291829020849055905190927f8c5be1e5ebec7d5bd14f71427d1e84f3dd0314c0f7b2291e5b200ac8c7c3b92591610a5e919061479d565b61105261177d565b151561105d57600080fd5b610cee8160016126a6565b600061107333611965565b151561107e57600080fd5b6110888383612737565b50600192915050565b610cee33826127d4565b6110aa338787878787876122e8565b505050505050565b336000908152600d6020526040812054600a905b04905090565b6110d461370b565b60008060006110e285610e08565b9350859250600091505b60018460800151510382101561115f576111228685608001518481518110151561111257fe5b6020908102909101015151610d28565b905061114f84608001518381518110151561113957fe5b90602001906020020151602001518260006109d1565b91829003916001909101906110ec565b6080840151805161118f9190600019810190811061117957fe5b90602001906020020151602001518460006109d1565b50505050505050565b6111a061177d565b15156111ab57600080fd5b610cee8160006126a6565b60408051600a8082526101608201909252606091829160009183918391816020015b6111e0613744565b8152602001906001900390816111d8575050336000908152600e60209081526040918290206001018054835181840281018401909452808452939750600a8a0260091901965091929083018282801561125957602002820191906000526020600020905b81548152600190910190602001808311611244575b505050505091508151600014806112735750600182510383115b1561127d57611444565b5060005b85600a0283101561144057815183101561143457336000908152600e6020526040812083519091908490869081106112b557fe5b6020908102919091018101518252818101929092526040908101600020815160a08101835281548152600180830154828601526002808401548386015260038401805486516000199482161561010002949094011691909104601f810187900487028301870190955284825291949293606086019391929183018282801561137e5780601f106113535761010080835404028352916020019161137e565b820191906000526020600020905b81548152906001019060200180831161136157829003601f168201915b505050918352505060048201805460408051602060026001851615610100026000190190941693909304601f81018490048402820184019092528181529382019392918301828280156114125780601f106113e757610100808354040283529160200191611412565b820191906000526020600020905b8154815290600101906020018083116113f557829003601f168201915b505050505081525050848281518110151561142957fe5b602090810290910101525b60019283019201611281565b8394505b50505050919050565b6000610d20848484611e4f565b600160a060020a031660009081526004602052604090205490565b61147d61177d565b151561148857600080fd5b600154604051600091600160a060020a0316907f8be0079c531659141344cd1fd0a4f28419497f9722a3daafe3b4186f6b6457e0908390a360018054600160a060020a0319169055565b6000818152600f6020908152604080832054600160a060020a03168352600e82528083208484529091529020544210805b50919050565b6115138282612887565b5050565b6115353385858585602060405190810160405280600081525061205c565b50505050565b600061091f818363ffffffff61291916565b6000818152601060205260408120600401548291106115815760405160e560020a62461bcd028152600401610aca9061469c565b61158a3361153b565b151561159557600080fd5b60008281526010602052604090206003015460ff16156115ca5760405160e560020a62461bcd028152600401610aca9061477c565b506000908152601060205260409020600301805460ff19166001179055565b6109e883833384612950565b6115fd613774565b61160561177d565b151561161057600080fd5b600083116116335760405160e560020a62461bcd028152600401610aca9061474c565b600084116116565760405160e560020a62461bcd028152600401610aca9061464c565b600084815260106020526040902060040154156116885760405160e560020a62461bcd028152600401610aca9061471c565b600082815260116020526040902054156116b75760405160e560020a62461bcd028152600401610aca9061462c565b6116c13084612737565b506040805160c08101825282815260208082018681528284019586526000606084018181523360808601908152600160a087018181528b8552601087528885209751885594519087015597516002860155516003850180549851600160a060020a03166101000274ffffffffffffffffffffffffffffffffffffffff001992151560ff19909a16999099179190911697909717909655516004909201919091559183526011909152902055565b600154600160a060020a031690565b600154600160a060020a0316331490565b600081815260106020526040812060040154819081908190859082106117c95760405160e560020a62461bcd028152600401610aca9061469c565b505050600092835250506010602052604090206001810154600382015460029092015490926101008304600160a060020a03169260ff1690565b606060038054806020026020016040519081016040528092919081815260200182805480156109b157602002820191906000526020600020905b81548152602001906001019080831161183d575050505050905090565b60088054604080516020601f60026000196101006001881615020190951694909404938401819004810282018101909252828152606093909290918301828280156109b15780601f10610986576101008083540402835291602001916109b1565b6118c433611965565b15156118cf57600080fd5b610cee81612be6565b6118e133612c2e565b565b6118eb61177d565b15156118f657600080fd5b6115138282612c76565b6000600160a060020a038316151561191757600080fd5b336000908152600560209081526040808320600160a060020a0387168452909152902054610ff2908363ffffffff61267616565b6000611958338484612188565b6110883384846000612219565b600061091f600a8363ffffffff61291916565b600080826040518082805190602001908083835b602083106119ab5780518252601f19909201916020918201910161198c565b51815160209384036101000a6000190180199092169116179052604080519290940182900390912060008181526011909252928120549296509194505083119150611a0d90505760405160e560020a62461bcd028152600401610aca906146ec565b60008181526010602052604090206003015460ff161515600114611a465760405160e560020a62461bcd028152600401610aca9061468c565b6000818152601060205260409020548214611a765760405160e560020a62461bcd028152600401610aca9061466c565b600081815260106020526040902060020154611a959030903390612188565b60008181526010602052604090819020600381015460019091015491513392610100909204600160a060020a0316917f80de5a7d3e27e32cfffc07551af7c9ee302a01b5456991722d7ef54193eab35691611af0919061479d565b60405180910390a36000918252601160209081526040808420849055918352601090528120818155600181018290556002810182905560038101805474ffffffffffffffffffffffffffffffffffffffffff191690556004015550565b336000908152600e6020526040812060010154600a906110c6565b336000908152600d602090815260408083208054825181850281018501909352808352606094600919600a88020194869485949293909291849084015b82821015611d2c578382906000526020600020906005020160a06040519081016040529081600082015481526020016001820154815260200160028201548152602001600382018054600181600116156101000203166002900480601f016020809104026020016040519081016040528092919081815260200182805460018160011615610100020316600290048015611c805780601f10611c5557610100808354040283529160200191611c80565b820191906000526020600020905b815481529060010190602001808311611c6357829003601f168201915b505050918352505060048201805460408051602060026001851615610100026000190190941693909304601f8101849004840282018401909252818152938201939291830182828015611d145780601f10611ce957610100808354040283529160200191611d14565b820191906000526020600020905b815481529060010190602001808311611cf757829003601f168201915b50505050508152505081526020019060010190611ba5565b505050509250825160001480611d455750600183510384115b15611d4f57611444565b60408051600a808252610160820190925290816020015b611d6e613744565b815260200190600190039081611d66579050509150600090505b85600a02841015611dd9578251841015611dcd578284815181101515611daa57fe5b906020019060200201518282815181101515611dc257fe5b602090810290910101525b60019384019301611d88565b50949350505050565b600160a060020a03918216600090815260056020908152604080832093909416825291909152205490565b6118e133613036565b611e1f3361153b565b1515611e2a57600080fd5b610cee8161307e565b611e3b61177d565b1515611e4657600080fd5b610cee816130c6565b600080611e5a613744565b600091505b600160a060020a0386166000908152600d602052604090205482101561204e57600160a060020a0386166000908152600d60205260409020805483908110611ea357fe5b906000526020600020906005020160a06040519081016040529081600082015481526020016001820154815260200160028201548152602001600382018054600181600116156101000203166002900480601f016020809104026020016040519081016040528092919081815260200182805460018160011615610100020316600290048015611f745780601f10611f4957610100808354040283529160200191611f74565b820191906000526020600020905b815481529060010190602001808311611f5757829003601f168201915b505050918352505060048201805460408051602060026001851615610100026000190190941693909304601f81018490048402820184019092528181529382019392918301828280156120085780601f10611fdd57610100808354040283529160200191612008565b820191906000526020600020905b815481529060010190602001808311611feb57829003601f168201915b50505050508152505090508481602001511480156120295750838160400151145b80156120355750805142105b156120435760019250612053565b600190910190611e5f565b600092505b50509392505050565b61206461370b565b61206d85610e08565b604081015190915084146120965760405160e560020a62461bcd028152600401610aca9061470c565b6120a1878787611e4f565b156120c15760405160e560020a62461bcd028152600401610aca9061473c565b60008411156120d5576120d53085876109d1565b600160a060020a0387166000908152600d60209081526040808320815160a081018352606080870151420182528185018c81529382018b815290820189815260808301899052835460018181018087559589529787902084516005909202019081559451968501969096555160028401559351805191949361215f926003850192909101906137a9565b506080820151805161217b9160048401916020909101906137a9565b5050505050505050505050565b6121cd81600019026040805190810160405280600481526020017f73656e64000000000000000000000000000000000000000000000000000000008152508585612950565b61220e816040805190810160405280600781526020017f72656365697665000000000000000000000000000000000000000000000000008152508486612950565b6109e8838383613137565b60006122248461321c565b156122a857506040517f4f4ee3530000000000000000000000000000000000000000000000000000000081528390600160a060020a03821690634f4ee35390612275908890879087906004016145a1565b600060405180830381600087803b15801561228f57600080fd5b505af11580156122a3573d6000803e3d6000fd5b505050505b83600160a060020a031685600160a060020a03166000805160206148a1833981519152856040516122d9919061479d565b60405180910390a35050505050565b6122f3878686611e4f565b15156123145760405160e560020a62461bcd028152600401610aca906146ac565b6000868152600f6020526040902054600160a060020a031615801590612340575061233e866114d2565b155b15612367576000868152600f602052604090205461236790600160a060020a031687612484565b6000868152600f6020526040902054600160a060020a03161561239f5760405160e560020a62461bcd028152600401610aca9061476c565b6000868152600f602090815260408083208054600160a060020a031916600160a060020a038c16908117909155815160a0810183528781528084018a81528184018a81526060830189815260808401899052938752600e86528487208d885286529390952081518155945160018601559151600285015551805191939261242e926003850192909101906137a9565b506080820151805161244a9160048401916020909101906137a9565b505050600160a060020a039096166000908152600e6020908152604082206001908101805491820181558352912001949094555050505050565b6000818152600f60205260408120548190600160a060020a038581169116146124c25760405160e560020a62461bcd028152600401610aca906146dc565b6000838152600f602090815260408083208054600160a060020a0319169055600160a060020a0387168352600e8252808320868452909152812081815560018101829055600281018290559061251b6003830182613827565b612529600483016000613827565b505060009150600090505b600160a060020a0384166000908152600e6020526040902060010154600019018110156126135781156125d157600160a060020a0384166000908152600e60205260409020600190810180549091830190811061258d57fe5b6000918252602080832090910154600160a060020a0387168352600e90915260409091206001018054839081106125c057fe5b60009182526020909120015561260b565b600160a060020a0384166000908152600e602052604090206001018054849190839081106125fb57fe5b6000918252602090912001541491505b600101612534565b600160a060020a0384166000908152600e602052604090206001018054600019810190811061263e57fe5b60009182526020808320909101829055600160a060020a0386168252600e9052604090206001018054906109ca90600019830161386b565b6000808383111561268657600080fd5b5050900390565b60008282018381101561269f57600080fd5b9392505050565b60008281526002602052604090206001015415156126d95760405160e560020a62461bcd028152600401610aca906146bc565b60008281526002602052604090206005015460ff16151581151514156127145760405160e560020a62461bcd028152600401610aca9061472c565b600091825260026020526040909120600501805460ff1916911515919091179055565b600160a060020a038216151561274c57600080fd5b60065461275f908263ffffffff61268d16565b600655600160a060020a03821660009081526004602052604090205461278b908263ffffffff61268d16565b600160a060020a0383166000818152600460205260408082209390935591519091906000805160206148a1833981519152906127c890859061479d565b60405180910390a35050565b600160a060020a03821615156127e957600080fd5b600160a060020a03821660009081526004602052604090205481111561280e57600080fd5b600654612821908263ffffffff61267616565b600655600160a060020a03821660009081526004602052604090205461284d908263ffffffff61267616565b600160a060020a0383166000818152600460205260408082209390935591516000805160206148a1833981519152906127c890859061479d565b600160a060020a03821660009081526005602090815260408083203384529091529020548111156128b757600080fd5b600160a060020a03821660009081526005602090815260408083203384529091529020546128eb908263ffffffff61267616565b600160a060020a038316600090815260056020908152604080832033845290915290205561151382826127d4565b6000600160a060020a038216151561293057600080fd5b50600160a060020a03166000908152602091909152604090205460ff1690565b600160a060020a0382166000908152600b602052604090205460641115612a3c57600160a060020a038083166000908152600b60209081526040808320815160808101835289815280840189815242938201939093529486166060860152805460018181018084559286529484902086516004909202019081559151805191959492936129e2938501929101906137a9565b50604082810151600283015560609092015160039091018054600160a060020a031916600160a060020a0392831617905584166000908152600b602090815282822054600c90915291902060001991909101905550611535565b600160a060020a0382166000908152600c602052604090205460631415612b1d57600160a060020a038083166000818152600c60209081526040808320839055805160808101825289815280830189905242818301529486166060860152928252600b905290812080549091908110612ab157fe5b9060005260206000209060040201600082015181600001556020820151816001019080519060200190612ae59291906137a9565b506040820151600282015560609091015160039091018054600160a060020a031916600160a060020a03909216919091179055611535565b600160a060020a038083166000818152600c6020818152604080842080546001019081905581516080810183528b81528084018b905242818401529688166060880152948452600b8252909220915280549091908110612b7957fe5b9060005260206000209060040201600082015181600001556020820151816001019080519060200190612bad9291906137a9565b506040820151600282015560609091015160039091018054600160a060020a031916600160a060020a0390921691909117905550505050565b612bf7600a8263ffffffff61322416565b604051600160a060020a038216907f6ae172837ea30b801fbfcdd4108aa1d5bf8ff775444fd70256b44e6bf3dfc3f690600090a250565b612c3f600a8263ffffffff61327216565b604051600160a060020a038216907fe94479a9f7e1952cc78f2d6baab678adc1b772d936c6583def489e524cb6669290600090a250565b612c7e61388f565b606060008060008060606000806060600260008d8152602001908152602001600020600101546000141515612cc85760405160e560020a62461bcd028152600401610aca906146fc565b612cd18b6132be565b9950612cdc8a61330c565b9850612cff896000815181101515612cf057fe5b906020019060200201516133d6565b9750428811612d235760405160e560020a62461bcd028152600401610aca906146cc565b612d35896001815181101515612cf057fe5b9650612d49896002815181101515612cf057fe5b9550612d5d896003815181101515612cf057fe5b9450612d80896004815181101515612d7157fe5b9060200190602002015161330c565b935083519250600091505b82821015612ea157612da48483815181101515612d7157fe5b905060026000888152602001908152602001600020600401606060405190810160405280612dda846000815181101515612cf057fe5b8152602001612e00846001815181101515612df157fe5b9060200190602002015161340c565b600160a060020a03168152602001612e2f846002815181101515612e2057fe5b9060200190602002015161343d565b90528154600180820180855560009485526020948590208451600390940201928355838501519183018054600160a060020a031916600160a060020a0390931692909217909155604083015180519194612e91926002850192909101906137a9565b505060019093019250612d8b9050565b612fc360026000898152602001908152602001600020600401805480602002602001604051908101604052809291908181526020016000905b82821015612fba576000848152602090819020604080516060810182526003860290920180548352600180820154600160a060020a0316848601526002808301805485516101009482161594909402600019011691909104601f8101879004870283018701855280835294959294938601939192909190830182828015612fa25780601f10612f7757610100808354040283529160200191612fa2565b820191906000526020600020905b815481529060010190602001808311612f8557829003601f168201915b50505050508152505081526020019060010190612eda565b505050506134a6565b505050600084815260026020819052604082209687556001808801879055908701949094556003808701939093556005909501805460ff19168417905550805491820181559092527fc2575a0e9e593c00f959f8c92f12db2869c3395a3b0502d05e2516446f71f85b9091015550505050565b61304760008263ffffffff61327216565b604051600160a060020a038216907f3525e22824a8a7df2c9a6029941c824cf95b6447f1e13d5128fd3826d35afe8b90600090a250565b61308f60008263ffffffff61322416565b604051600160a060020a038216907f47d1c22a25bb3a5d4e481b9b1e6944c2eade3181a0a20b495ed61d35b5323f2490600090a250565b600160a060020a03811615156130db57600080fd5b600154604051600160a060020a038084169216907f8be0079c531659141344cd1fd0a4f28419497f9722a3daafe3b4186f6b6457e090600090a360018054600160a060020a031916600160a060020a0392909216919091179055565b600160a060020a03831660009081526004602052604090205481111561315c57600080fd5b600160a060020a038216151561317157600080fd5b600160a060020a03831660009081526004602052604090205461319a908263ffffffff61267616565b600160a060020a0380851660009081526004602052604080822093909355908416815220546131cf908263ffffffff61268d16565b600160a060020a0380841660008181526004602052604090819020939093559151908516906000805160206148a18339815191529061320f90859061479d565b60405180910390a3505050565b6000903b1190565b600160a060020a038116151561323957600080fd5b6132438282612919565b1561324d57600080fd5b600160a060020a0316600090815260209190915260409020805460ff19166001179055565b600160a060020a038116151561328757600080fd5b6132918282612919565b151561329c57600080fd5b600160a060020a0316600090815260209190915260409020805460ff19169055565b6132c661388f565b60008251600014156132ed5760408051808201909152600080825260208201529150611503565b5050604080518082019091528151815260209182019181019190915290565b606060008060008061331d8661352b565b151561332857600080fd5b6133318661354e565b93508360405190808252806020026020018201604052801561336d57816020015b61335a61388f565b8152602001906001900390816133525790505b50945061337d866020015161359e565b8660200151019250600090505b838110156114445761339b83613601565b915060408051908101604052808381526020018481525085828151811015156133c057fe5b602090810290910101529181019160010161338a565b60008060008060006133eb866020015161359e565b86516020978801518201519190039096036101000a90950495945050505050565b8051600090601510156134345760405160e560020a62461bcd028152600401610aca9061467c565b61091f826133d6565b606060008060606000613453866020015161359e565b9350838660000151039250826040519080825280601f01601f19166020018201604052801561348c578160200160208202803883390190505b509150816020019050611dd9848760200151018285613692565b60008060008084511115156134d05760405160e560020a62461bcd028152600401610aca9061465c565b5050815190506000805b828110156135085783818151811015156134f057fe5b602090810290910101515191909101906001016134da565b606482146115355760405160e560020a62461bcd028152600401610aca9061475c565b6020810151805160009190821a9060c060ff83161015610dfe5760009250610d64565b60008060008060009250613565856020015161359e565b6020860151865191810193500190505b808210156135955761358682613601565b60019093019290910190613575565b50909392505050565b8051600090811a60808110156135b75760009150611503565b60b88110806135d2575060c081108015906135d2575060f881105b156135e05760019150611503565b60c08110156135f55760b51981019150611503565b60f51981019150611503565b8051600090811a608081101561361a5760019150611503565b60b881101561362f57607e1981019150611503565b60c081101561365c5760b78103600184019350806020036101000a84510460018201810193505050611503565b60f88110156136715760be1981019150611503565b60019290920151602083900360f7016101000a900490910160f51901919050565b60005b602082106136b7578351835260209384019390920191601f1990910190613695565b50915181516020939093036101000a6000190180199091169216919091179052565b6080604051908101604052806000815260200160608152602001600081526020016000600160a060020a031681525090565b60c06040519081016040528060008152602001600081526020016000815260200160008152602001606081526020016000151581525090565b60a06040519081016040528060008152602001600081526020016000815260200160608152602001606081525090565b6040805160c081018252600080825260208201819052918101829052606081018290526080810182905260a081019190915290565b828054600181600116156101000203166002900490600052602060002090601f016020900481019282601f106137ea57805160ff1916838001178555613817565b82800160010185558215613817579182015b828111156138175782518255916020019190600101906137fc565b506138239291506138a6565b5090565b50805460018160011615610100020316600290046000825580601f1061384d5750610cee565b601f016020900490600052602060002090810190610cee91906138a6565b8154818355818111156109e8576000838152602090206109e89181019083016138a6565b604080518082019091526000808252602082015290565b6109b991905b8082111561382357600081556001016138ac565b600061091c8235614847565b600061091c82356109b9565b6000601f820183136138e957600080fd5b81356138fc6138f782614815565b6147ee565b9150808252602083016020830185838301111561391857600080fd5b61392383828461485e565b50505092915050565b60006020828403121561393e57600080fd5b6000610d2084846138c0565b6000806040838503121561395d57600080fd5b600061396985856138c0565b925050602061397a858286016138c0565b9150509250929050565b60008060006060848603121561399957600080fd5b60006139a586866138c0565b93505060206139b6868287016138c0565b92505060406139c7868287016138cc565b9150509250925092565b600080604083850312156139e457600080fd5b60006139f085856138c0565b925050602061397a858286016138cc565b600080600060608486031215613a1657600080fd5b6000613a2286866138c0565b93505060206139b6868287016138cc565b600060208284031215613a4557600080fd5b6000610d2084846138cc565b600080600080600060a08688031215613a6957600080fd5b6000613a7588886138cc565b9550506020613a86888289016138cc565b9450506040613a97888289016138cc565b9350506060613aa8888289016138cc565b925050608086013567ffffffffffffffff811115613ac557600080fd5b613ad1888289016138d8565b9150509295509295909350565b60008060008060008060c08789031215613af757600080fd5b6000613b0389896138cc565b9650506020613b1489828a016138cc565b9550506040613b2589828a016138cc565b9450506060613b3689828a016138cc565b935050608087013567ffffffffffffffff811115613b5357600080fd5b613b5f89828a016138d8565b92505060a087013567ffffffffffffffff811115613b7c57600080fd5b613b8889828a016138d8565b9150509295509295509295565b600060208284031215613ba757600080fd5b813567ffffffffffffffff811115613bbe57600080fd5b610d20848285016138d8565b600080600060608486031215613bdf57600080fd5b6000613beb86866138cc565b935050602084013567ffffffffffffffff811115613c0857600080fd5b613c14868287016138d8565b92505060406139c7868287016138c0565b60008060408385031215613c3857600080fd5b6000613c4485856138cc565b925050602083013567ffffffffffffffff811115613c6157600080fd5b61397a858286016138d8565b60008060408385031215613c8057600080fd5b60006139f085856138cc565b600080600060608486031215613ca157600080fd5b6000613a2286866138cc565b60008060008060808587031215613cc357600080fd5b6000613ccf87876138cc565b9450506020613ce0878288016138cc565b9350506040613cf1878288016138cc565b925050606085013567ffffffffffffffff811115613d0e57600080fd5b613d1a878288016138d8565b91505092959194509250565b600080600080600060a08688031215613d3e57600080fd5b6000613d4a88886138cc565b9550506020613d5b888289016138cc565b9450506040613d6c888289016138cc565b935050606086013567ffffffffffffffff811115613d8957600080fd5b613aa8888289016138d8565b613d9e81614847565b82525050565b6000613daf82614843565b80845260208401935083602082028501613dc88561483d565b60005b84811015613dff578383038852613de3838351614400565b9250613dee8261483d565b602098909801979150600101613dcb565b50909695505050505050565b6000613e1682614843565b80845260208401935083602082028501613e2f8561483d565b60005b84811015613dff578383038852613e4a838351614475565b9250613e558261483d565b602098909801979150600101613e32565b6000613e7182614843565b80845260208401935083602082028501613e8a8561483d565b60005b84811015613dff578383038852613ea5838351614400565b9250613eb08261483d565b602098909801979150600101613e8d565b6000613ecc82614843565b80845260208401935083602082028501613ee58561483d565b60005b84811015613dff578383038852613f008383516144b4565b9250613f0b8261483d565b602098909801979150600101613ee8565b6000613f2782614843565b808452602084019350613f398361483d565b60005b82811015613f6957613f4f868351613f7c565b613f588261483d565b602096909601959150600101613f3c565b5093949350505050565b613d9e81614853565b613d9e816109b9565b6000613f9082614843565b808452613fa481602086016020860161486a565b613fad81614896565b9093016020019392505050565b600f81527f6475706c6963617465645f686173680000000000000000000000000000000000602082015260400190565b600d81527f496e76616c696420706167652e00000000000000000000000000000000000000602082015260400190565b601081527f6e6f5f76616c69645f636172645f696400000000000000000000000000000000602082015260400190565b600981527f6e6f742072756c65730000000000000000000000000000000000000000000000602082015260400190565b600c81527f77726f6e675f7365637265740000000000000000000000000000000000000000602082015260400190565b603a81527f496e76616c696420524c504974656d2e2041646472657373657320617265206560208201527f6e636f64656420696e203230206279746573206f72206c657373000000000000604082015260600190565b600a81527f6e6f745f61637469766500000000000000000000000000000000000000000000602082015260400190565b600981527f6e6f745f65786973740000000000000000000000000000000000000000000000602082015260400190565b600b81527f6e6f7420616c6c6f776564000000000000000000000000000000000000000000602082015260400190565b600981527f6e6f742065786973740000000000000000000000000000000000000000000000602082015260400190565b600781527f6578706972656400000000000000000000000000000000000000000000000000602082015260400190565b600a81527f73616d65206f776e657200000000000000000000000000000000000000000000602082015260400190565b600e81527f686173685f6e6f745f666f756e64000000000000000000000000000000000000602082015260400190565b600581527f6578697374000000000000000000000000000000000000000000000000000000602082015260400190565b601081527f696e636f727265637420616d6f756e7400000000000000000000000000000000602082015260400190565b600a81527f636172645f657869737400000000000000000000000000000000000000000000602082015260400190565b600b81527f73616d6520737461747573000000000000000000000000000000000000000000602082015260400190565b600a81527f6475706c69636174656400000000000000000000000000000000000000000000602082015260400190565b600c81527f656d7074795f746f6b656e730000000000000000000000000000000000000000602082015260400190565b601681527f616c6c20616d6f756e7420646973747269627574656400000000000000000000602082015260400190565b600f81527f6475706c69636174656420686173680000000000000000000000000000000000602082015260400190565b600f81527f6e6f745f6163746976617461626c650000000000000000000000000000000000602082015260400190565b805160009060a08401906144148582613f7c565b5060208301516144276020860182613f7c565b50604083015161443a6040860182613f7c565b50606083015184820360608601526144528282613f85565b9150506080830151848203608086015261446c8282613f85565b95945050505050565b805160009060608401906144898582613f7c565b50602083015161449c6020860182613d95565b506040830151848203604086015261446c8282613f85565b805160009060808401906144c88582613f7c565b50602083015184820360208601526144e08282613f85565b91505060408301516144f56040860182613f7c565b5060608301516145086060860182613d95565b509392505050565b805160009060c08401906145248582613f7c565b5060208301516145376020860182613f7c565b50604083015161454a6040860182613f7c565b50606083015161455d6060860182613f7c565b50608083015184820360808601526145758282613e0b565b91505060a083015161450860a0860182613f73565b613d9e81614858565b6020810161091f8284613d95565b606081016145af8286613d95565b6145bc6020830185613f7c565b610d206040830184613f7c565b6020808252810161091c8184613da4565b6020808252810161091c8184613e66565b6020808252810161091c8184613ec1565b6020808252810161091c8184613f1c565b6020810161091f8284613f73565b6020808252810161091c8184613f85565b6020808252810161091f81613fba565b6020808252810161091f81613fea565b6020808252810161091f8161401a565b6020808252810161091f8161404a565b6020808252810161091f8161407a565b6020808252810161091f816140aa565b6020808252810161091f81614100565b6020808252810161091f81614130565b6020808252810161091f81614160565b6020808252810161091f81614190565b6020808252810161091f816141c0565b6020808252810161091f816141f0565b6020808252810161091f81614220565b6020808252810161091f81614250565b6020808252810161091f81614280565b6020808252810161091f816142b0565b6020808252810161091f816142e0565b6020808252810161091f81614310565b6020808252810161091f81614340565b6020808252810161091f81614370565b6020808252810161091f816143a0565b6020808252810161091f816143d0565b6020808252810161091c8184614510565b6020810161091f8284613f7c565b608081016147b98287613f7c565b6147c66020830186613d95565b6147d36040830185613f7c565b61446c6060830184613f73565b6020810161091f828461458a565b60405181810167ffffffffffffffff8111828210171561480d57600080fd5b604052919050565b600067ffffffffffffffff82111561482c57600080fd5b506020601f91909101601f19160190565b60200190565b5190565b600160a060020a031690565b151590565b60ff1690565b82818337506000910152565b60005b8381101561488557818101518382015260200161486d565b838111156115355750506000910152565b601f01601f1916905600ddf252ad1be2c89b69c2b068fc378daa952ba7f163c4a11628f55a4df523b3efa265627a7a72305820db7a0dc88ef8bec93d85d9ae4bdc013fa90f1c7b7524f9180a987a581538dde36c6578706572696d656e74616cf50037",
  "source": "pragma solidity ^0.4.24;\npragma experimental ABIEncoderV2;\n\nimport \"../../node_modules/openzeppelin-solidity/contracts/math/SafeMath.sol\";\nimport \"../../node_modules/openzeppelin-solidity/contracts/access/roles/SignerRole.sol\";\nimport \"../../node_modules/openzeppelin-solidity/contracts/ownership/Ownable.sol\";\n\nimport \"./Devices.sol\";\n\ncontract PrepaidCardManager is SignerRole, Ownable , Devices {\n  using SafeMath for uint256;\n\n  event CardValidated(\n    address indexed owner,\n    uint256 cardId,\n    address indexed user\n  );\n\n  struct Card {\n    bytes32 hash;\n    uint256 cardId;  \n    uint256 tokens;\n    bool active;\n    address owner;\n    uint initialized;\n  }\n\n  mapping (uint256 => Card) private cards_;\n  mapping (bytes32 => uint256) private cardsByHash_;\n\n  modifier cardExists(uint256 _cardId) {\n    require(cards_[_cardId].initialized > 0, \"not_exist\");\n    _;\n  }\n  \n  constructor() public {}\n\n  function getCard(uint256 _cardId) cardExists(_cardId) public view returns(uint256 cardId, address owner, uint256 tokens, bool active)  {\n    return (cards_[_cardId].cardId, cards_[_cardId].owner, cards_[_cardId].tokens, cards_[_cardId].active);\n  }\n\n  function addCard(uint256 _cardId, uint256 _tokens, bytes32 _hash) onlyOwner public {\n    require(_tokens > 0, \"empty_tokens\");\n    require(_cardId > 0, \"no_valid_card_id\");\n    require(cards_[_cardId].initialized == 0, \"card_exist\");\n    require(cardsByHash_[_hash] == 0, \"duplicated_hash\");\n\n    _mint(this,_tokens);\n    Card memory newCard = Card(_hash, _cardId, _tokens, false, msg.sender, 1);\n    cards_[_cardId] = newCard;   \n    cardsByHash_[_hash] = _cardId;\n  }\n\n  function activateCard(uint256 _cardId) cardExists(_cardId) onlySigner public {\n    require(cards_[_cardId].active == false, \"not_activatable\");\n    cards_[_cardId].active=true;    \n  }\n\n  function validateCard(bytes _secret) public {\n    bytes32 hash = keccak256(_secret);\n    uint256 cardId = cardsByHash_[hash];\n    require(cardId > 0, \"hash_not_found\");\n    require(cards_[cardId].active == true, \"not_active\");\n    require(cards_[cardId].hash ==  hash, \"wrong_secret\");\n  \n    _transfer(this, msg.sender,cards_[cardId].tokens);\n    emit CardValidated(cards_[cardId].owner, cards_[cardId].cardId, msg.sender);\n  \n    delete cardsByHash_[hash];\n    delete cards_[cardId];\n  }\n\n}",
  "sourcePath": "/home/jordi/ws/bloomenApp/bloomen-wallet-truffle/contracts/bloomen/PrepaidCardManager.sol",
  "compiler": {
    "name": "solc",
    "version": "0.4.24+commit.e67f0147.Emscripten.clang"
  },
  "schemaVersion": "2.0.1",
  "updatedAt": "2019-04-17T13:16:23.981Z"
}