{
  "contractName": "Schemas",
  "abi": [
    {
      "constant": false,
      "inputs": [],
      "name": "renounceOwnership",
      "outputs": [],
      "payable": false,
      "stateMutability": "nonpayable",
      "type": "function"
    },
    {
      "constant": true,
      "inputs": [],
      "name": "owner",
      "outputs": [
        {
          "name": "",
          "type": "address"
        }
      ],
      "payable": false,
      "stateMutability": "view",
      "type": "function"
    },
    {
      "constant": true,
      "inputs": [],
      "name": "isOwner",
      "outputs": [
        {
          "name": "",
          "type": "bool"
        }
      ],
      "payable": false,
      "stateMutability": "view",
      "type": "function"
    },
    {
      "constant": false,
      "inputs": [
        {
          "name": "newOwner",
          "type": "address"
        }
      ],
      "name": "transferOwnership",
      "outputs": [],
      "payable": false,
      "stateMutability": "nonpayable",
      "type": "function"
    },
    {
      "anonymous": false,
      "inputs": [
        {
          "indexed": true,
          "name": "previousOwner",
          "type": "address"
        },
        {
          "indexed": true,
          "name": "newOwner",
          "type": "address"
        }
      ],
      "name": "OwnershipTransferred",
      "type": "event"
    },
    {
      "constant": true,
      "inputs": [
        {
          "name": "_schemaId",
          "type": "uint256"
        }
      ],
      "name": "getSchema",
      "outputs": [
        {
          "components": [
            {
              "name": "expirationDate",
              "type": "uint256"
            },
            {
              "name": "schemaId",
              "type": "uint256"
            },
            {
              "name": "amount",
              "type": "uint256"
            },
            {
              "name": "assetLifeTime",
              "type": "uint256"
            },
            {
              "components": [
                {
                  "name": "percent",
                  "type": "uint256"
                },
                {
                  "name": "receptor",
                  "type": "address"
                },
                {
                  "name": "description",
                  "type": "string"
                }
              ],
              "name": "clearingHouseRules",
              "type": "tuple[]"
            },
            {
              "name": "valid",
              "type": "bool"
            }
          ],
          "name": "",
          "type": "tuple"
        }
      ],
      "payable": false,
      "stateMutability": "view",
      "type": "function"
    },
    {
      "constant": true,
      "inputs": [],
      "name": "getSchemas",
      "outputs": [
        {
          "name": "",
          "type": "uint256[]"
        }
      ],
      "payable": false,
      "stateMutability": "view",
      "type": "function"
    },
    {
      "constant": false,
      "inputs": [
        {
          "name": "_schemaId",
          "type": "uint256"
        },
        {
          "name": "_data",
          "type": "bytes"
        }
      ],
      "name": "createSchema",
      "outputs": [],
      "payable": false,
      "stateMutability": "nonpayable",
      "type": "function"
    },
    {
      "constant": false,
      "inputs": [
        {
          "name": "_schemaId",
          "type": "uint256"
        }
      ],
      "name": "invalidateSchema",
      "outputs": [],
      "payable": false,
      "stateMutability": "nonpayable",
      "type": "function"
    },
    {
      "constant": false,
      "inputs": [
        {
          "name": "_schemaId",
          "type": "uint256"
        }
      ],
      "name": "validateSchema",
      "outputs": [],
      "payable": false,
      "stateMutability": "nonpayable",
      "type": "function"
    }
  ],
  "bytecode": "0x6080604081905260008054600160a060020a0319163317808255600160a060020a0316917f8be0079c531659141344cd1fd0a4f28419497f9722a3daafe3b4186f6b6457e0908290a3611509806100576000396000f3006080604052600436106100985763ffffffff7c01000000000000000000000000000000000000000000000000000000006000350416632b26fb29811461009d5780634014d468146100d35780635a16f5c4146100f5578063715018a6146101155780638da5cb5b1461012a5780638f32d59b1461014c57806395ba8d181461016e578063a2086dab14610190578063f2fde38b146101b0575b600080fd5b3480156100a957600080fd5b506100bd6100b8366004610f71565b6101d0565b6040516100ca9190611412565b60405180910390f35b3480156100df57600080fd5b506100f36100ee366004610f71565b61036f565b005b34801561010157600080fd5b506100f3610110366004610f71565b610390565b34801561012157600080fd5b506100f36103ae565b34801561013657600080fd5b5061013f610418565b6040516100ca9190611365565b34801561015857600080fd5b50610161610428565b6040516100ca9190611384565b34801561017a57600080fd5b50610183610439565b6040516100ca9190611373565b34801561019c57600080fd5b506100f36101ab366004610f8f565b610491565b3480156101bc57600080fd5b506100f36101cb366004610f4b565b6104b2565b6101d8610df0565b600082815260016020819052604082200154116102135760405160e560020a62461bcd02815260040161020a906113b2565b60405180910390fd5b6000828152600160208181526040808420815160c081018352815481529381015484840152600281015484830152600381015460608501526004810180548351818602810186019094528084529495919460808701949192909184015b82821015610350576000848152602090819020604080516060810182526003860290920180548352600180820154600160a060020a0316848601526002808301805485516101009482161594909402600019011691909104601f81018790048702830187018552808352949592949386019391929091908301828280156103385780601f1061030d57610100808354040283529160200191610338565b820191906000526020600020905b81548152906001019060200180831161031b57829003601f168201915b50505050508152505081526020019060010190610270565b505050908252506005919091015460ff16151560209091015292915050565b610377610428565b151561038257600080fd5b61038d8160016104ce565b50565b610398610428565b15156103a357600080fd5b61038d8160006104ce565b6103b6610428565b15156103c157600080fd5b60008054604051600160a060020a03909116907f8be0079c531659141344cd1fd0a4f28419497f9722a3daafe3b4186f6b6457e0908390a36000805473ffffffffffffffffffffffffffffffffffffffff19169055565b600054600160a060020a03165b90565b600054600160a060020a0316331490565b6060600280548060200260200160405190810160405280929190818152602001828054801561048757602002820191906000526020600020905b815481526020019060010190808311610473575b5050505050905090565b610499610428565b15156104a457600080fd5b6104ae8282610560565b5050565b6104ba610428565b15156104c557600080fd5b61038d8161092b565b6000828152600160208190526040909120015415156105025760405160e560020a62461bcd02815260040161020a906113c2565b60008281526001602052604090206005015460ff161515811515141561053d5760405160e560020a62461bcd02815260040161020a906113f2565b600091825260016020526040909120600501805460ff1916911515919091179055565b610568610e29565b606060008060008060606000806060600160008d81526020019081526020016000206001015460001415156105b25760405160e560020a62461bcd02815260040161020a906113e2565b6105bb8b6109a8565b99506105c68a6109f9565b98506105e98960008151811015156105da57fe5b90602001906020020151610acc565b975042881161060d5760405160e560020a62461bcd02815260040161020a906113d2565b61061f8960018151811015156105da57fe5b96506106338960028151811015156105da57fe5b95506106478960038151811015156105da57fe5b945061066a89600481518110151561065b57fe5b906020019060200201516109f9565b935083519250600091505b828210156107985761068e848381518110151561065b57fe5b9050600160008881526020019081526020016000206004016060604051908101604052806106c48460008151811015156105da57fe5b81526020016106ea8460018151811015156106db57fe5b90602001906020020151610b02565b600160a060020a0316815260200161071984600281518110151561070a57fe5b90602001906020020151610b39565b9052815460018082018085556000948552602094859020845160039094020192835583850151918301805473ffffffffffffffffffffffffffffffffffffffff1916600160a060020a039093169290921790915560408301518051919461078892600285019290910190610e40565b5050600190930192506106759050565b6108ba60016000898152602001908152602001600020600401805480602002602001604051908101604052809291908181526020016000905b828210156108b1576000848152602090819020604080516060810182526003860290920180548352600180820154600160a060020a0316848601526002808301805485516101009482161594909402600019011691909104601f81018790048702830187018552808352949592949386019391929091908301828280156108995780601f1061086e57610100808354040283529160200191610899565b820191906000526020600020905b81548152906001019060200180831161087c57829003601f168201915b505050505081525050815260200190600101906107d1565b50505050610bab565b5050506000848152600160208190526040822096875586810186905560028088019590955560038701939093556005909501805460ff191683179055508154908101825592527f405787fa12a823e0f2b7631cc41b3ba8828b3321ca811111fa75cd3aa3bb5ace9091015550505050565b600160a060020a038116151561094057600080fd5b60008054604051600160a060020a03808516939216917f8be0079c531659141344cd1fd0a4f28419497f9722a3daafe3b4186f6b6457e091a36000805473ffffffffffffffffffffffffffffffffffffffff1916600160a060020a0392909216919091179055565b6109b0610e29565b60008251600014156109d757604080518082019091526000808252602082015291506109f3565b5050604080518082019091528151815260208281019082018190525b50919050565b6060600080600080610a0a86610c36565b1515610a1557600080fd5b610a1e86610c65565b935083604051908082528060200260200182016040528015610a5a57816020015b610a47610e29565b815260200190600190039081610a3f5790505b509450610a6a8660200151610cb5565b8660200151019250600090505b83811015610ac357610a8883610d18565b91506040805190810160405280838152602001848152508582815181101515610aad57fe5b6020908102909101015291810191600101610a77565b50505050919050565b6000806000806000610ae18660200151610cb5565b86516020978801518201519190039096036101000a90950495945050505050565b805160009060151015610b2a5760405160e560020a62461bcd02815260040161020a906113a2565b610b3382610acc565b92915050565b606060008060606000610b4f8660200151610cb5565b9350838660000151039250826040519080825280601f01601f191660200182016040528015610b88578160200160208202803883390190505b509150816020019050610ba2848760200151018285610da9565b50949350505050565b6000806000808451111515610bd55760405160e560020a62461bcd02815260040161020a90611392565b5050815190506000805b82811015610c0d578381815181101515610bf557fe5b60209081029091010151519190910190600101610bdf565b60648214610c305760405160e560020a62461bcd02815260040161020a90611402565b50505050565b6020810151805160009190821a9060c060ff83161015610c595760009250610c5e565b600192505b5050919050565b60008060008060009250610c7c8560200151610cb5565b6020860151865191810193500190505b80821015610cac57610c9d82610d18565b60019093019290910190610c8c565b50909392505050565b8051600090811a6080811015610cce57600091506109f3565b60b8811080610ce9575060c08110801590610ce9575060f881105b15610cf757600191506109f3565b60c0811015610d0c5760b519810191506109f3565b60f519810191506109f3565b8051600090811a6080811015610d3157600191506109f3565b60b8811015610d4657607e19810191506109f3565b60c0811015610d735760b78103600184019350806020036101000a845104600182018101935050506109f3565b60f8811015610d885760be19810191506109f3565b60019290920151602083900360f7016101000a900490910160f51901919050565b60005b60208210610dce578351835260209384019390920191601f1990910190610dac565b50915181516020939093036101000a6000190180199091169216919091179052565b60c06040519081016040528060008152602001600081526020016000815260200160008152602001606081526020016000151581525090565b604080518082019091526000808252602082015290565b828054600181600116156101000203166002900490600052602060002090601f016020900481019282601f10610e8157805160ff1916838001178555610eae565b82800160010185558215610eae579182015b82811115610eae578251825591602001919060010190610e93565b50610eba929150610ebe565b5090565b61042591905b80821115610eba5760008155600101610ec4565b6000610ee4823561147c565b9392505050565b6000601f82018313610efc57600080fd5b8135610f0f610f0a8261144a565b611423565b91508082526020830160208301858383011115610f2b57600080fd5b610f3683828461148d565b50505092915050565b6000610ee48235610425565b600060208284031215610f5d57600080fd5b6000610f698484610ed8565b949350505050565b600060208284031215610f8357600080fd5b6000610f698484610f3f565b60008060408385031215610fa257600080fd5b6000610fae8585610f3f565b925050602083013567ffffffffffffffff811115610fcb57600080fd5b610fd785828601610eeb565b9150509250929050565b610fea8161147c565b82525050565b6000610ffb82611478565b8084526020840193508360208202850161101485611472565b60005b8481101561104b57838303885261102f838351611292565b925061103a82611472565b602098909801979150600101611017565b50909695505050505050565b600061106282611478565b80845260208401935061107483611472565b60005b828110156110a45761108a86835161135c565b61109382611472565b602096909601959150600101611077565b5093949350505050565b610fea81611488565b60006110c282611478565b8084526110d6816020860160208601611499565b6110df816114c5565b9093016020019392505050565b600981527f6e6f742072756c65730000000000000000000000000000000000000000000000602082015260400190565b603a81527f496e76616c696420524c504974656d2e2041646472657373657320617265206560208201527f6e636f64656420696e203230206279746573206f72206c657373000000000000604082015260600190565b600981527f6e6f745f65786973740000000000000000000000000000000000000000000000602082015260400190565b600981527f6e6f742065786973740000000000000000000000000000000000000000000000602082015260400190565b600781527f6578706972656400000000000000000000000000000000000000000000000000602082015260400190565b600581527f6578697374000000000000000000000000000000000000000000000000000000602082015260400190565b600b81527f73616d6520737461747573000000000000000000000000000000000000000000602082015260400190565b601681527f616c6c20616d6f756e7420646973747269627574656400000000000000000000602082015260400190565b805160009060608401906112a6858261135c565b5060208301516112b96020860182610fe1565b50604083015184820360408601526112d182826110b7565b95945050505050565b805160009060c08401906112ee858261135c565b506020830151611301602086018261135c565b506040830151611314604086018261135c565b506060830151611327606086018261135c565b506080830151848203608086015261133f8282610ff0565b91505060a083015161135460a08601826110ae565b509392505050565b610fea81610425565b60208101610b338284610fe1565b60208082528101610ee48184611057565b60208101610b3382846110ae565b60208082528101610b33816110ec565b60208082528101610b338161111c565b60208082528101610b3381611172565b60208082528101610b33816111a2565b60208082528101610b33816111d2565b60208082528101610b3381611202565b60208082528101610b3381611232565b60208082528101610b3381611262565b60208082528101610ee481846112da565b60405181810167ffffffffffffffff8111828210171561144257600080fd5b604052919050565b600067ffffffffffffffff82111561146157600080fd5b506020601f91909101601f19160190565b60200190565b5190565b600160a060020a031690565b151590565b82818337506000910152565b60005b838110156114b457818101518382015260200161149c565b83811115610c305750506000910152565b601f01601f1916905600a265627a7a7230582052d29140e32fa7a43945f4ce07f5b68530327600c9934ad506fe5278f2d3029b6c6578706572696d656e74616cf50037",
  "source": "pragma solidity 0.4.24;\npragma experimental ABIEncoderV2;\n\nimport \"../../node_modules/solidity-rlp/contracts/RLPReader.sol\";\nimport \"../../node_modules/openzeppelin-solidity/contracts/ownership/Ownable.sol\";\n\ncontract  Schemas is Ownable {\n\n  using RLPReader for bytes;\n  using RLPReader for uint;\n  using RLPReader for RLPReader.RLPItem;\n\n  struct Schema {   \n    uint expirationDate;\n    uint256 schemaId;\n    uint256 amount;\n    uint256 assetLifeTime;\n    ClearingHouseRule[] clearingHouseRules;\n    bool valid;\n  }\n\n  struct ClearingHouseRule {  \n    uint percent; \n    address receptor;\n    string description;\n  }\n\n  mapping (uint256 => Schema) private schemas_;\n  uint256[] private schemasArray_ ;\n\n  function getSchema(uint256 _schemaId) public view returns (Schema) {\n    require(schemas_[_schemaId].schemaId > 0, \"not_exist\");\n    return (schemas_[_schemaId]);\n  }\n\n  function getSchemas() public view returns (uint256[]) {    \n    return (schemasArray_);\n  }\n\n  function createSchema(uint256 _schemaId, bytes memory _data) public onlyOwner  {\n    _createSchema(_schemaId, _data);  \n  }\n\n  function invalidateSchema(uint256 _schemaId) public  onlyOwner {\n    _schemaStatus(_schemaId, false);  \n  }\n\n  function validateSchema(uint256 _schemaId) public onlyOwner  {\n    _schemaStatus(_schemaId, true);  \n  }\n\n  function _createSchema(uint256 _schemaId, bytes _in) internal  {\n    // RLP format : [<expirationDate>,<schemaId>,<amount>,<assetLifeTime>,[ [<percent>,<address>,<description>],[<percent>,<address>,<description>]]]\n\n    require(schemas_[_schemaId].schemaId == 0, \"exist\"); \n   \n    RLPReader.RLPItem memory item = _in.toRlpItem();\n    RLPReader.RLPItem[] memory itemList = item.toList();\n\n    uint expirationDate = itemList[0].toUint();\n\n    require(expirationDate > now, \"expired\");\n\n    uint256 schemaId = uint256(itemList[1].toUint());\n    uint256 amount = uint256(itemList[2].toUint());\n    uint256 assetLifeTime = uint256(itemList[3].toUint());\n\n    \n    RLPReader.RLPItem[] memory clearingHouseRulesItemList = itemList[4].toList();\n    \n    uint listLength = clearingHouseRulesItemList.length;\n    for (uint i = 0; i < listLength; i++) {\n      RLPReader.RLPItem[] memory tempListItem = clearingHouseRulesItemList[i].toList();\n        \n      schemas_[schemaId].clearingHouseRules.push(\n        ClearingHouseRule(tempListItem[0].toUint(),tempListItem[1].toAddress(),string(tempListItem[2].toBytes()))\n      );    \n    }\n    \n    _validateClearingHouseRules(schemas_[schemaId].clearingHouseRules);\n    \n    schemas_[schemaId].expirationDate = expirationDate;\n    schemas_[schemaId].schemaId = schemaId;\n    schemas_[schemaId].amount = amount;\n    schemas_[schemaId].assetLifeTime = assetLifeTime;\n    schemas_[schemaId].valid = true;\n    schemasArray_.push(schemaId);\n  }\n\n  function _schemaStatus(uint256 _schemaId, bool _newStatus) internal  {\n    require(schemas_[_schemaId].schemaId != 0, \"not exist\"); \n    require(schemas_[_schemaId].valid != _newStatus , \"same status\");\n    schemas_[_schemaId].valid = _newStatus;\n  }\n\n  function _validateClearingHouseRules(ClearingHouseRule[] clearingHouseRules) internal  {\n    require(clearingHouseRules.length > 0, \"not rules\"); \n    uint listLength = clearingHouseRules.length;\n    uint total = 0;\n    for (uint i = 0; i < listLength; i++) {\n      total += clearingHouseRules[i].percent;\n    }\n    require(total == 100, \"all amount distributed\");    \n  }\n\n}",
  "sourcePath": "/home/jordi/ws/bloomenApp/bloomen-wallet-truffle/contracts/bloomen/Schemas.sol",
  "compiler": {
    "name": "solc",
    "version": "0.4.24+commit.e67f0147.Emscripten.clang"
  },
  "schemaVersion": "2.0.1",
  "updatedAt": "2019-02-19T15:39:57.965Z"
}