{
  "contractName": "Schemas",
  "abi": [
    {
      "constant": false,
      "inputs": [
        {
          "name": "account",
          "type": "address"
        }
      ],
      "name": "addWhitelisted",
      "outputs": [],
      "payable": false,
      "stateMutability": "nonpayable",
      "type": "function",
      "signature": "0x10154bad"
    },
    {
      "constant": false,
      "inputs": [
        {
          "name": "account",
          "type": "address"
        }
      ],
      "name": "removeWhitelisted",
      "outputs": [],
      "payable": false,
      "stateMutability": "nonpayable",
      "type": "function",
      "signature": "0x291d9549"
    },
    {
      "constant": true,
      "inputs": [
        {
          "name": "account",
          "type": "address"
        }
      ],
      "name": "isWhitelisted",
      "outputs": [
        {
          "name": "",
          "type": "bool"
        }
      ],
      "payable": false,
      "stateMutability": "view",
      "type": "function",
      "signature": "0x3af32abf"
    },
    {
      "constant": false,
      "inputs": [],
      "name": "renounceWhitelistAdmin",
      "outputs": [],
      "payable": false,
      "stateMutability": "nonpayable",
      "type": "function",
      "signature": "0x4c5a628c"
    },
    {
      "constant": false,
      "inputs": [
        {
          "name": "account",
          "type": "address"
        }
      ],
      "name": "addWhitelistAdmin",
      "outputs": [],
      "payable": false,
      "stateMutability": "nonpayable",
      "type": "function",
      "signature": "0x7362d9c8"
    },
    {
      "constant": true,
      "inputs": [
        {
          "name": "account",
          "type": "address"
        }
      ],
      "name": "isWhitelistAdmin",
      "outputs": [
        {
          "name": "",
          "type": "bool"
        }
      ],
      "payable": false,
      "stateMutability": "view",
      "type": "function",
      "signature": "0xbb5f747b"
    },
    {
      "constant": false,
      "inputs": [],
      "name": "renounceWhitelisted",
      "outputs": [],
      "payable": false,
      "stateMutability": "nonpayable",
      "type": "function",
      "signature": "0xd6cd9473"
    },
    {
      "anonymous": false,
      "inputs": [
        {
          "indexed": true,
          "name": "account",
          "type": "address"
        }
      ],
      "name": "WhitelistedAdded",
      "type": "event",
      "signature": "0xee1504a83b6d4a361f4c1dc78ab59bfa30d6a3b6612c403e86bb01ef2984295f"
    },
    {
      "anonymous": false,
      "inputs": [
        {
          "indexed": true,
          "name": "account",
          "type": "address"
        }
      ],
      "name": "WhitelistedRemoved",
      "type": "event",
      "signature": "0x270d9b30cf5b0793bbfd54c9d5b94aeb49462b8148399000265144a8722da6b6"
    },
    {
      "anonymous": false,
      "inputs": [
        {
          "indexed": true,
          "name": "account",
          "type": "address"
        }
      ],
      "name": "WhitelistAdminAdded",
      "type": "event",
      "signature": "0x22380c05984257a1cb900161c713dd71d39e74820f1aea43bd3f1bdd20961299"
    },
    {
      "anonymous": false,
      "inputs": [
        {
          "indexed": true,
          "name": "account",
          "type": "address"
        }
      ],
      "name": "WhitelistAdminRemoved",
      "type": "event",
      "signature": "0x0a8eb35e5ca14b3d6f28e4abf2f128dbab231a58b56e89beb5d636115001e165"
    },
    {
      "constant": true,
      "inputs": [
        {
          "name": "_schemaId",
          "type": "uint256"
        }
      ],
      "name": "getSchema",
      "outputs": [
        {
          "components": [
            {
              "name": "dappId",
              "type": "string"
            },
            {
              "name": "expirationDate",
              "type": "uint256"
            },
            {
              "name": "schemaId",
              "type": "uint256"
            },
            {
              "name": "amount",
              "type": "uint256"
            },
            {
              "name": "assetLifeTime",
              "type": "uint256"
            },
            {
              "components": [
                {
                  "name": "percent",
                  "type": "uint256"
                },
                {
                  "name": "receptor",
                  "type": "address"
                },
                {
                  "name": "description",
                  "type": "string"
                }
              ],
              "name": "clearingHouseRules",
              "type": "tuple[]"
            },
            {
              "name": "valid",
              "type": "bool"
            },
            {
              "name": "topPrice",
              "type": "uint256"
            }
          ],
          "name": "",
          "type": "tuple"
        }
      ],
      "payable": false,
      "stateMutability": "view",
      "type": "function",
      "signature": "0x2b26fb29"
    },
    {
      "constant": true,
      "inputs": [],
      "name": "getSchemas",
      "outputs": [
        {
          "name": "",
          "type": "uint256[]"
        }
      ],
      "payable": false,
      "stateMutability": "view",
      "type": "function",
      "signature": "0x95ba8d18"
    },
    {
      "constant": false,
      "inputs": [
        {
          "name": "_schemaId",
          "type": "uint256"
        },
        {
          "name": "_data",
          "type": "bytes"
        }
      ],
      "name": "createSchema",
      "outputs": [],
      "payable": false,
      "stateMutability": "nonpayable",
      "type": "function",
      "signature": "0xa2086dab"
    },
    {
      "constant": false,
      "inputs": [
        {
          "name": "_schemaId",
          "type": "uint256"
        }
      ],
      "name": "invalidateSchema",
      "outputs": [],
      "payable": false,
      "stateMutability": "nonpayable",
      "type": "function",
      "signature": "0x5a16f5c4"
    },
    {
      "constant": false,
      "inputs": [
        {
          "name": "_schemaId",
          "type": "uint256"
        }
      ],
      "name": "validateSchema",
      "outputs": [],
      "payable": false,
      "stateMutability": "nonpayable",
      "type": "function",
      "signature": "0x4014d468"
    },
    {
      "constant": false,
      "inputs": [
        {
          "name": "_schemaId",
          "type": "uint256"
        }
      ],
      "name": "deleteSchema",
      "outputs": [],
      "payable": false,
      "stateMutability": "nonpayable",
      "type": "function",
      "signature": "0x3739cee5"
    }
  ],
  "bytecode": "0x60806040526200001e3362000024640100000000026401000000009004565b620001e0565b620000488160006200008e6401000000000262001047179091906401000000009004565b8073ffffffffffffffffffffffffffffffffffffffff167f22380c05984257a1cb900161c713dd71d39e74820f1aea43bd3f1bdd2096129960405160405180910390a250565b600073ffffffffffffffffffffffffffffffffffffffff168173ffffffffffffffffffffffffffffffffffffffff161415620000c957600080fd5b620000e482826200014d640100000000026401000000009004565b15620000ef57600080fd5b60018260000160008373ffffffffffffffffffffffffffffffffffffffff1673ffffffffffffffffffffffffffffffffffffffff16815260200190815260200160002060006101000a81548160ff0219169083151502179055505050565b60008073ffffffffffffffffffffffffffffffffffffffff168273ffffffffffffffffffffffffffffffffffffffff1614156200018957600080fd5b8260000160008373ffffffffffffffffffffffffffffffffffffffff1673ffffffffffffffffffffffffffffffffffffffff16815260200190815260200160002060009054906101000a900460ff16905092915050565b61222d80620001f06000396000f3fe608060405234801561001057600080fd5b50600436106100ec576000357c0100000000000000000000000000000000000000000000000000000000900480634c5a628c116100a957806395ba8d181161008357806395ba8d1814610203578063a2086dab14610221578063bb5f747b1461023d578063d6cd94731461026d576100ec565b80634c5a628c146101c15780635a16f5c4146101cb5780637362d9c8146101e7576100ec565b806310154bad146100f1578063291d95491461010d5780632b26fb29146101295780633739cee5146101595780633af32abf146101755780634014d468146101a5575b600080fd5b61010b60048036036101069190810190611a12565b610277565b005b61012760048036036101229190810190611a12565b610295565b005b610143600480360361013e9190810190611a3b565b6102b3565b6040516101509190612008565b60405180910390f35b610173600480360361016e9190810190611a3b565b61058a565b005b61018f600480360361018a9190810190611a12565b6105a8565b60405161019c9190611f0d565b60405180910390f35b6101bf60048036036101ba9190810190611a3b565b6105c5565b005b6101c96105e5565b005b6101e560048036036101e09190810190611a3b565b6105f0565b005b61020160048036036101fc9190810190611a12565b610610565b005b61020b61062e565b6040516102189190611eeb565b60405180910390f35b61023b60048036036102369190810190611a64565b610686565b005b61025760048036036102529190810190611a12565b6106a6565b6040516102649190611f0d565b60405180910390f35b6102756106c3565b005b610280336106a6565b61028957600080fd5b610292816106ce565b50565b61029e336106a6565b6102a757600080fd5b6102b081610728565b50565b6102bb611700565b6000600260008481526020019081526020016000206002015411610314576040517f08c379a000000000000000000000000000000000000000000000000000000000815260040161030b90611f48565b60405180910390fd5b6002600083815260200190815260200160002060405180610100016040529081600082018054600181600116156101000203166002900480601f0160208091040260200160405190810160405280929190818152602001828054600181600116156101000203166002900480156103cc5780601f106103a1576101008083540402835291602001916103cc565b820191906000526020600020905b8154815290600101906020018083116103af57829003601f168201915b505050505081526020016001820154815260200160028201548152602001600382015481526020016004820154815260200160058201805480602002602001604051908101604052809291908181526020016000905b828210156105565783829060005260206000209060030201604051806060016040529081600082015481526020016001820160009054906101000a900473ffffffffffffffffffffffffffffffffffffffff1673ffffffffffffffffffffffffffffffffffffffff1673ffffffffffffffffffffffffffffffffffffffff168152602001600282018054600181600116156101000203166002900480601f01602080910402602001604051908101604052809291908181526020018280546001816001161561010002031660029004801561053e5780601f106105135761010080835404028352916020019161053e565b820191906000526020600020905b81548152906001019060200180831161052157829003601f168201915b50505050508152505081526020019060010190610422565b5050505081526020016006820160009054906101000a900460ff161515151581526020016007820154815250509050919050565b610593336105a8565b61059c57600080fd5b6105a581610782565b50565b60006105be8260016109b690919063ffffffff16565b9050919050565b6105ce336105a8565b6105d757600080fd5b6105e2816001610a48565b50565b6105ee33610b3e565b565b6105f9336105a8565b61060257600080fd5b61060d816000610a48565b50565b610619336106a6565b61062257600080fd5b61062b81610b98565b50565b6060600380548060200260200160405190810160405280929190818152602001828054801561067c57602002820191906000526020600020905b815481526020019060010190808311610668575b5050505050905090565b61068f336105a8565b61069857600080fd5b6106a28282610bf2565b5050565b60006106bc8260006109b690919063ffffffff16565b9050919050565b6106cc33610728565b565b6106e281600161104790919063ffffffff16565b8073ffffffffffffffffffffffffffffffffffffffff167fee1504a83b6d4a361f4c1dc78ab59bfa30d6a3b6612c403e86bb01ef2984295f60405160405180910390a250565b61073c8160016110f390919063ffffffff16565b8073ffffffffffffffffffffffffffffffffffffffff167f270d9b30cf5b0793bbfd54c9d5b94aeb49462b8148399000265144a8722da6b660405160405180910390a250565b6000600260008381526020019081526020016000206002015414156107dc576040517f08c379a00000000000000000000000000000000000000000000000000000000081526004016107d390611f68565b60405180910390fd5b600080905060008090505b600160038054905003811015610861578161081d57826003828154811061080a57fe5b9060005260206000200154149150610854565b6003600182018154811061082d57fe5b90600052602060002001546003828154811061084557fe5b90600052602060002001819055505b80806001019150506107e7565b5060038054809190600190036108779190611747565b5060008090505b600260008481526020019081526020016000206005018054905081101561091d576002600084815260200190815260200160002060050181815481106108c057fe5b90600052602060002090600302016000808201600090556001820160006101000a81549073ffffffffffffffffffffffffffffffffffffffff021916905560028201600061090e9190611773565b5050808060010191505061087e565b5060026000838152602001908152602001600020600501600061094091906117bb565b60026000838152602001908152602001600020600080820160006109649190611773565b600182016000905560028201600090556003820160009055600482016000905560058201600061099491906117bb565b6006820160006101000a81549060ff0219169055600782016000905550505050565b60008073ffffffffffffffffffffffffffffffffffffffff168273ffffffffffffffffffffffffffffffffffffffff1614156109f157600080fd5b8260000160008373ffffffffffffffffffffffffffffffffffffffff1673ffffffffffffffffffffffffffffffffffffffff16815260200190815260200160002060009054906101000a900460ff16905092915050565b600060026000848152602001908152602001600020600201541415610aa2576040517f08c379a0000000000000000000000000000000000000000000000000000000008152600401610a9990611f68565b60405180910390fd5b8015156002600084815260200190815260200160002060060160009054906101000a900460ff1615151415610b0c576040517f08c379a0000000000000000000000000000000000000000000000000000000008152600401610b0390611fc8565b60405180910390fd5b806002600084815260200190815260200160002060060160006101000a81548160ff0219169083151502179055505050565b610b528160006110f390919063ffffffff16565b8073ffffffffffffffffffffffffffffffffffffffff167f0a8eb35e5ca14b3d6f28e4abf2f128dbab231a58b56e89beb5d636115001e16560405160405180910390a250565b610bac81600061104790919063ffffffff16565b8073ffffffffffffffffffffffffffffffffffffffff167f22380c05984257a1cb900161c713dd71d39e74820f1aea43bd3f1bdd2096129960405160405180910390a250565b6000600260008481526020019081526020016000206002015414610c4b576040517f08c379a0000000000000000000000000000000000000000000000000000000008152600401610c4290611fa8565b60405180910390fd5b610c536117df565b610c5c8261119e565b90506060610c69826111cc565b90506000610c8a82600081518110610c7d57fe5b60200260200101516112a3565b9050428111610cce576040517f08c379a0000000000000000000000000000000000000000000000000000000008152600401610cc590611f88565b60405180910390fd5b6000610ced83600181518110610ce057fe5b60200260200101516112a3565b90506000610d0e84600281518110610d0157fe5b60200260200101516112a3565b90506000610d2f85600381518110610d2257fe5b60200260200101516112a3565b90506060610d5086600481518110610d4357fe5b6020026020010151611314565b90506000610d7187600581518110610d6457fe5b60200260200101516112a3565b90506060610d9288600681518110610d8557fe5b60200260200101516111cc565b905060008151905060008090505b81811015610f0d576060610dc6848381518110610db957fe5b60200260200101516111cc565b9050600260008a81526020019081526020016000206005016040518060600160405280610e0684600081518110610df957fe5b60200260200101516112a3565b8152602001610e2884600181518110610e1b57fe5b60200260200101516113a0565b73ffffffffffffffffffffffffffffffffffffffff168152602001610e6084600281518110610e5357fe5b6020026020010151611314565b815250908060018154018082558091505090600182039060005260206000209060030201600090919290919091506000820151816000015560208201518160010160006101000a81548173ffffffffffffffffffffffffffffffffffffffff021916908373ffffffffffffffffffffffffffffffffffffffff1602179055506040820151816002019080519060200190610efb9291906117f9565b50505050508080600101915050610da0565b50610f2c600260008981526020019081526020016000206005016113c3565b87600260008981526020019081526020016000206001018190555086600260008981526020019081526020016000206002018190555083600260008981526020019081526020016000206000019080519060200190610f8c929190611879565b5082600260008981526020019081526020016000206007018190555085600260008981526020019081526020016000206003018190555084600260008981526020019081526020016000206004018190555060016002600089815260200190815260200160002060060160006101000a81548160ff0219169083151502179055506003879080600181540180825580915050906001820390600052602060002001600090919290919091505550505050505050505050505050565b600073ffffffffffffffffffffffffffffffffffffffff168173ffffffffffffffffffffffffffffffffffffffff16141561108157600080fd5b61108b82826109b6565b1561109557600080fd5b60018260000160008373ffffffffffffffffffffffffffffffffffffffff1673ffffffffffffffffffffffffffffffffffffffff16815260200190815260200160002060006101000a81548160ff0219169083151502179055505050565b600073ffffffffffffffffffffffffffffffffffffffff168173ffffffffffffffffffffffffffffffffffffffff16141561112d57600080fd5b61113782826109b6565b61114057600080fd5b60008260000160008373ffffffffffffffffffffffffffffffffffffffff1673ffffffffffffffffffffffffffffffffffffffff16815260200190815260200160002060006101000a81548160ff0219169083151502179055505050565b6111a66117df565b600060208301905060405180604001604052808451815260200182815250915050919050565b60606111d78261149e565b6111e057600080fd5b60006111eb836114ec565b90508060405190808252806020026020018201604052801561122757816020015b6112146118f9565b81526020019060019003908161120c5790505b5091506000611239846020015161155d565b8460200151019050600080600090505b8381101561129a5761125a836115e6565b915060405180604001604052808381526020018481525085828151811061127d57fe5b602002602001018190525081830192508080600101915050611249565b50505050919050565b60008082600001511180156112bd57506021826000015111155b6112c657600080fd5b60006112d5836020015161155d565b9050600081846000015103905060008083866020015101905080519150602083101561130857826020036101000a820491505b81945050505050919050565b6060600082600001511161132757600080fd5b6000611336836020015161155d565b905060008184600001510390506060816040519080825280601f01601f1916602001820160405280156113785781602001600182028038833980820191505090505b5090506000816020019050611394848760200151018285611699565b81945050505050919050565b600060158260000151146113b357600080fd5b6113bc826112a3565b9050919050565b600081805490501161140a576040517f08c379a000000000000000000000000000000000000000000000000000000000815260040161140190611f28565b60405180910390fd5b600081805490509050600080905060008090505b828110156114555783818154811061143257fe5b90600052602060002090600302016000015482019150808060010191505061141e565b5060648114611499576040517f08c379a000000000000000000000000000000000000000000000000000000000815260040161149090611fe8565b60405180910390fd5b505050565b600080826000015114156114b557600090506114e7565b60008083602001519050805160001a915060c060ff168260ff1610156114e0576000925050506114e7565b6001925050505b919050565b600080826000015114156115035760009050611558565b60008090506000611517846020015161155d565b84602001510190506000846000015185602001510190505b8082101561155157611540826115e6565b82019150828060010193505061152f565b8293505050505b919050565b600080825160001a9050608060ff1681101561157d5760009150506115e1565b60b860ff168110806115a2575060c060ff1681101580156115a1575060f860ff1681105b5b156115b15760019150506115e1565b60c060ff168110156115d15760018060b80360ff168203019150506115e1565b60018060f80360ff168203019150505b919050565b600080825160001a9050608060ff16811015611606576001915050611694565b60b860ff16811015611624576001608060ff16820301915050611694565b60c060ff168110156116545760b78103600184019350806020036101000a84510460018201810193505050611692565b60f860ff1681101561167257600160c060ff16820301915050611694565b60f78103600184019350806020036101000a845104600182018101935050505b505b919050565b60008114156116a7576116fb565b5b602060ff1681106116d75782518252602060ff1683019250602060ff1682019150602060ff16810390506116a8565b6000600182602060ff16036101000a03905080198451168184511681811785525050505b505050565b604051806101000160405280606081526020016000815260200160008152602001600081526020016000815260200160608152602001600015158152602001600081525090565b81548183558181111561176e5781836000526020600020918201910161176d9190611913565b5b505050565b50805460018160011615610100020316600290046000825580601f1061179957506117b8565b601f0160209004906000526020600020908101906117b79190611913565b5b50565b50805460008255600302906000526020600020908101906117dc9190611938565b50565b604051806040016040528060008152602001600081525090565b828054600181600116156101000203166002900490600052602060002090601f016020900481019282601f1061183a57805160ff1916838001178555611868565b82800160010185558215611868579182015b8281111561186757825182559160200191906001019061184c565b5b5090506118759190611913565b5090565b828054600181600116156101000203166002900490600052602060002090601f016020900481019282601f106118ba57805160ff19168380011785556118e8565b828001600101855582156118e8579182015b828111156118e75782518255916020019190600101906118cc565b5b5090506118f59190611913565b5090565b604051806040016040528060008152602001600081525090565b61193591905b80821115611931576000816000905550600101611919565b5090565b90565b61199391905b8082111561198f576000808201600090556001820160006101000a81549073ffffffffffffffffffffffffffffffffffffffff02191690556002820160006119869190611773565b5060030161193e565b5090565b90565b60006119a28235612164565b905092915050565b600082601f8301126119bb57600080fd5b81356119ce6119c982612057565b61202a565b915080825260208301602083018583830111156119ea57600080fd5b6119f58382846121a0565b50505092915050565b6000611a0a8235612196565b905092915050565b600060208284031215611a2457600080fd5b6000611a3284828501611996565b91505092915050565b600060208284031215611a4d57600080fd5b6000611a5b848285016119fe565b91505092915050565b60008060408385031215611a7757600080fd5b6000611a85858286016119fe565b925050602083013567ffffffffffffffff811115611aa257600080fd5b611aae858286016119aa565b9150509250929050565b6000611ac48383611dd5565b905092915050565b6000611ad88383611edc565b60208301905092915050565b611aed8161211c565b82525050565b6000611afe8261209d565b611b0881856120d8565b935083602082028501611b1a85612083565b60005b84811015611b53578383038852611b35838351611ab8565b9250611b40826120be565b9150602088019750600181019050611b1d565b508196508694505050505092915050565b6000611b6f826120a8565b611b7981856120e9565b9350611b8483612090565b60005b82811015611bb257611b9a868351611acc565b9550611ba5826120cb565b9150600181019050611b87565b50849250505092915050565b611bc78161212e565b82525050565b611bd68161212e565b82525050565b6000611be7826120b3565b611bf181856120fa565b9350611c018185602086016121af565b611c0a816121e2565b840191505092915050565b6000611c2260098361210b565b91507f6e6f742072756c657300000000000000000000000000000000000000000000006000830152602082019050919050565b6000611c6260098361210b565b91507f6e6f745f657869737400000000000000000000000000000000000000000000006000830152602082019050919050565b6000611ca260098361210b565b91507f6e6f7420657869737400000000000000000000000000000000000000000000006000830152602082019050919050565b6000611ce260078361210b565b91507f65787069726564000000000000000000000000000000000000000000000000006000830152602082019050919050565b6000611d2260058361210b565b91507f65786973740000000000000000000000000000000000000000000000000000006000830152602082019050919050565b6000611d62600b8361210b565b91507f73616d65207374617475730000000000000000000000000000000000000000006000830152602082019050919050565b6000611da260168361210b565b91507f616c6c20616d6f756e74206469737472696275746564000000000000000000006000830152602082019050919050565b6000606083016000830151611ded6000860182611edc565b506020830151611e006020860182611ae4565b5060408301518482036040860152611e188282611bdc565b9150508091505092915050565b6000610100830160008301518482036000860152611e438282611bdc565b9150506020830151611e586020860182611edc565b506040830151611e6b6040860182611edc565b506060830151611e7e6060860182611edc565b506080830151611e916080860182611edc565b5060a083015184820360a0860152611ea98282611af3565b91505060c0830151611ebe60c0860182611bbe565b5060e0830151611ed160e0860182611edc565b508091505092915050565b611ee58161215a565b82525050565b60006020820190508181036000830152611f058184611b64565b905092915050565b6000602082019050611f226000830184611bcd565b92915050565b60006020820190508181036000830152611f4181611c15565b9050919050565b60006020820190508181036000830152611f6181611c55565b9050919050565b60006020820190508181036000830152611f8181611c95565b9050919050565b60006020820190508181036000830152611fa181611cd5565b9050919050565b60006020820190508181036000830152611fc181611d15565b9050919050565b60006020820190508181036000830152611fe181611d55565b9050919050565b6000602082019050818103600083015261200181611d95565b9050919050565b600060208201905081810360008301526120228184611e25565b905092915050565b6000604051905081810181811067ffffffffffffffff8211171561204d57600080fd5b8060405250919050565b600067ffffffffffffffff82111561206e57600080fd5b601f19601f8301169050602081019050919050565b6000602082019050919050565b6000602082019050919050565b600081519050919050565b600081519050919050565b600081519050919050565b6000602082019050919050565b6000602082019050919050565b600082825260208201905092915050565b600082825260208201905092915050565b600082825260208201905092915050565b600082825260208201905092915050565b60006121278261213a565b9050919050565b60008115159050919050565b600073ffffffffffffffffffffffffffffffffffffffff82169050919050565b6000819050919050565b600061216f82612176565b9050919050565b600073ffffffffffffffffffffffffffffffffffffffff82169050919050565b6000819050919050565b82818337600083830152505050565b60005b838110156121cd5780820151818401526020810190506121b2565b838111156121dc576000848401525b50505050565b6000601f19601f830116905091905056fea265627a7a72305820e1f069b0bba92f67305e1645ca84cbc7534ccdb654336c5f597a6a640aefb0236c6578706572696d656e74616cf50037",
  "source": "pragma solidity ^0.5.2;\npragma experimental ABIEncoderV2;\n\nimport \"../../node_modules/solidity-rlp/contracts/RLPReader.sol\";\nimport \"../../node_modules/openzeppelin-solidity/contracts/access/roles/WhitelistedRole.sol\";\n\ncontract Schemas is WhitelistedRole {\n\n  using RLPReader for bytes;\n  using RLPReader for uint;\n  using RLPReader for RLPReader.RLPItem;\n\n  struct Schema {\n    string dappId;   \n    uint expirationDate;\n    uint256 schemaId;\n    uint256 amount;\n    uint256 assetLifeTime;\n    ClearingHouseRule[] clearingHouseRules;\n    bool valid;\n    uint256 topPrice;    \n  }\n\n  struct ClearingHouseRule {  \n    uint percent; \n    address receptor;\n    string description;\n  }\n\n  mapping (uint256 => Schema) private schemas_;\n  uint256[] private schemasArray_ ;\n\n  function getSchema(uint256 _schemaId) public view returns (Schema memory) {\n    require(schemas_[_schemaId].schemaId > 0, \"not_exist\");\n    return (schemas_[_schemaId]);\n  }\n\n  function getSchemas() public view returns (uint256[] memory) {    \n    return (schemasArray_);\n  }\n\n  function createSchema(uint256 _schemaId, bytes memory _data) public onlyWhitelisted  {\n    _createSchema(_schemaId, _data);  \n  }\n\n  function invalidateSchema(uint256 _schemaId) public  onlyWhitelisted {\n    _schemaStatus(_schemaId, false);  \n  }\n\n  function validateSchema(uint256 _schemaId) public onlyWhitelisted  {\n    _schemaStatus(_schemaId, true);  \n  }\n\n  function deleteSchema(uint256 _schemaId) public  onlyWhitelisted {\n    _schemaDelete(_schemaId);  \n  }\n\n  function _createSchema(uint256 _schemaId, bytes memory _in) internal  {\n    // RLP format : [<expirationDate>,<schemaId>,<amount>,<assetLifeTime>,<dappId>,<openPrice?> ,[ [<percent>,<address>,<description>],[<percent>,<address>,<description>]]]\n\n    require(schemas_[_schemaId].schemaId == 0, \"exist\"); \n   \n    RLPReader.RLPItem memory item = _in.toRlpItem();\n    RLPReader.RLPItem[] memory itemList = item.toList();\n\n    uint expirationDate = itemList[0].toUint();\n\n    require(expirationDate > now, \"expired\");\n\n    uint256 schemaId = uint256(itemList[1].toUint());\n    uint256 amount = uint256(itemList[2].toUint());\n    uint256 assetLifeTime = uint256(itemList[3].toUint());\n    string memory dappId = string(itemList[4].toBytes());\n    uint256 topPrice = itemList[5].toUint();\n    \n    RLPReader.RLPItem[] memory clearingHouseRulesItemList = itemList[6].toList();\n    \n    uint listLength = clearingHouseRulesItemList.length;\n    for (uint i = 0; i < listLength; i++) {\n      RLPReader.RLPItem[] memory tempListItem = clearingHouseRulesItemList[i].toList();\n        \n      schemas_[schemaId].clearingHouseRules.push(\n        ClearingHouseRule(tempListItem[0].toUint(),tempListItem[1].toAddress(),string(tempListItem[2].toBytes()))\n      );    \n    }\n    \n    _validateClearingHouseRules(schemas_[schemaId].clearingHouseRules);\n    \n    schemas_[schemaId].expirationDate = expirationDate;\n    schemas_[schemaId].schemaId = schemaId;\n    schemas_[schemaId].dappId = dappId;\n    schemas_[schemaId].topPrice = topPrice;\n    schemas_[schemaId].amount = amount;\n    schemas_[schemaId].assetLifeTime = assetLifeTime;\n    schemas_[schemaId].valid = true;\n    schemasArray_.push(schemaId);\n  }\n\n  function _schemaStatus(uint256 _schemaId, bool _newStatus) internal  {\n    require(schemas_[_schemaId].schemaId != 0, \"not exist\"); \n    require(schemas_[_schemaId].valid != _newStatus , \"same status\");\n    schemas_[_schemaId].valid = _newStatus;\n  }\n\n  function _validateClearingHouseRules(ClearingHouseRule[] storage clearingHouseRules) internal  {\n    require(clearingHouseRules.length > 0, \"not rules\"); \n    uint listLength = clearingHouseRules.length;\n    uint total = 0;\n    for (uint i = 0; i < listLength; i++) {\n      total += clearingHouseRules[i].percent;\n    }\n    require(total == 100, \"all amount distributed\");    \n  }\n\n  function _schemaDelete(uint256 _schemaId) internal  {\n    require(schemas_[_schemaId].schemaId != 0, \"not exist\"); \n\n    // delete from array\n    bool found = false;\n\n    for (uint i=0; i< schemasArray_.length-1; i++) {\n      if (!found){\n        found = schemasArray_[i] == _schemaId;\n      } else {\n        schemasArray_[i] = schemasArray_[i+1];\n      }\n    }\n\n    schemasArray_.length--;\n\n    for (uint i=0; i< schemas_[_schemaId].clearingHouseRules.length; i++) {\n      delete schemas_[_schemaId].clearingHouseRules[i];\n    }\n    delete schemas_[_schemaId].clearingHouseRules;\n    delete schemas_[_schemaId];\n   \n  }\n\n}",
  "sourcePath": "/home/jordi/ws/bloomenio/bloomen-wallet/bloomen-wallet-truffle/contracts/bloomen/Schemas.sol",
  "compiler": {
    "name": "solc",
    "version": "0.5.7+commit.6da8b019.Emscripten.clang"
  },
  "schemaVersion": "3.0.6",
  "updatedAt": "2019-05-29T06:46:06.774Z",
  "devdoc": {
    "methods": {}
  },
  "userdoc": {
    "methods": {}
  }
}