{
  "contractName": "Schemas",
  "abi": [
    {
      "constant": false,
      "inputs": [
        {
          "name": "account",
          "type": "address"
        }
      ],
      "name": "addWhitelisted",
      "outputs": [],
      "payable": false,
      "stateMutability": "nonpayable",
      "type": "function",
      "signature": "0x10154bad"
    },
    {
      "constant": false,
      "inputs": [
        {
          "name": "account",
          "type": "address"
        }
      ],
      "name": "removeWhitelisted",
      "outputs": [],
      "payable": false,
      "stateMutability": "nonpayable",
      "type": "function",
      "signature": "0x291d9549"
    },
    {
      "constant": true,
      "inputs": [
        {
          "name": "account",
          "type": "address"
        }
      ],
      "name": "isWhitelisted",
      "outputs": [
        {
          "name": "",
          "type": "bool"
        }
      ],
      "payable": false,
      "stateMutability": "view",
      "type": "function",
      "signature": "0x3af32abf"
    },
    {
      "constant": false,
      "inputs": [],
      "name": "renounceWhitelistAdmin",
      "outputs": [],
      "payable": false,
      "stateMutability": "nonpayable",
      "type": "function",
      "signature": "0x4c5a628c"
    },
    {
      "constant": false,
      "inputs": [
        {
          "name": "account",
          "type": "address"
        }
      ],
      "name": "addWhitelistAdmin",
      "outputs": [],
      "payable": false,
      "stateMutability": "nonpayable",
      "type": "function",
      "signature": "0x7362d9c8"
    },
    {
      "constant": true,
      "inputs": [
        {
          "name": "account",
          "type": "address"
        }
      ],
      "name": "isWhitelistAdmin",
      "outputs": [
        {
          "name": "",
          "type": "bool"
        }
      ],
      "payable": false,
      "stateMutability": "view",
      "type": "function",
      "signature": "0xbb5f747b"
    },
    {
      "constant": false,
      "inputs": [],
      "name": "renounceWhitelisted",
      "outputs": [],
      "payable": false,
      "stateMutability": "nonpayable",
      "type": "function",
      "signature": "0xd6cd9473"
    },
    {
      "anonymous": false,
      "inputs": [
        {
          "indexed": true,
          "name": "account",
          "type": "address"
        }
      ],
      "name": "WhitelistedAdded",
      "type": "event",
      "signature": "0xee1504a83b6d4a361f4c1dc78ab59bfa30d6a3b6612c403e86bb01ef2984295f"
    },
    {
      "anonymous": false,
      "inputs": [
        {
          "indexed": true,
          "name": "account",
          "type": "address"
        }
      ],
      "name": "WhitelistedRemoved",
      "type": "event",
      "signature": "0x270d9b30cf5b0793bbfd54c9d5b94aeb49462b8148399000265144a8722da6b6"
    },
    {
      "anonymous": false,
      "inputs": [
        {
          "indexed": true,
          "name": "account",
          "type": "address"
        }
      ],
      "name": "WhitelistAdminAdded",
      "type": "event",
      "signature": "0x22380c05984257a1cb900161c713dd71d39e74820f1aea43bd3f1bdd20961299"
    },
    {
      "anonymous": false,
      "inputs": [
        {
          "indexed": true,
          "name": "account",
          "type": "address"
        }
      ],
      "name": "WhitelistAdminRemoved",
      "type": "event",
      "signature": "0x0a8eb35e5ca14b3d6f28e4abf2f128dbab231a58b56e89beb5d636115001e165"
    },
    {
      "constant": true,
      "inputs": [
        {
          "name": "_schemaId",
          "type": "uint256"
        }
      ],
      "name": "getSchema",
      "outputs": [
        {
          "components": [
            {
              "name": "dappId",
              "type": "string"
            },
            {
              "name": "expirationDate",
              "type": "uint256"
            },
            {
              "name": "schemaId",
              "type": "uint256"
            },
            {
              "name": "amount",
              "type": "uint256"
            },
            {
              "name": "assetLifeTime",
              "type": "uint256"
            },
            {
              "components": [
                {
                  "name": "percent",
                  "type": "uint256"
                },
                {
                  "name": "receptor",
                  "type": "address"
                },
                {
                  "name": "description",
                  "type": "string"
                }
              ],
              "name": "clearingHouseRules",
              "type": "tuple[]"
            },
            {
              "name": "valid",
              "type": "bool"
            },
            {
              "name": "topPrice",
              "type": "uint256"
            }
          ],
          "name": "",
          "type": "tuple"
        }
      ],
      "payable": false,
      "stateMutability": "view",
      "type": "function",
      "signature": "0x2b26fb29"
    },
    {
      "constant": true,
      "inputs": [],
      "name": "getSchemas",
      "outputs": [
        {
          "name": "",
          "type": "uint256[]"
        }
      ],
      "payable": false,
      "stateMutability": "view",
      "type": "function",
      "signature": "0x95ba8d18"
    },
    {
      "constant": false,
      "inputs": [
        {
          "name": "_schemaId",
          "type": "uint256"
        },
        {
          "name": "_data",
          "type": "bytes"
        }
      ],
      "name": "createSchema",
      "outputs": [],
      "payable": false,
      "stateMutability": "nonpayable",
      "type": "function",
      "signature": "0xa2086dab"
    },
    {
      "constant": false,
      "inputs": [
        {
          "name": "_schemaId",
          "type": "uint256"
        }
      ],
      "name": "invalidateSchema",
      "outputs": [],
      "payable": false,
      "stateMutability": "nonpayable",
      "type": "function",
      "signature": "0x5a16f5c4"
    },
    {
      "constant": false,
      "inputs": [
        {
          "name": "_schemaId",
          "type": "uint256"
        }
      ],
      "name": "validateSchema",
      "outputs": [],
      "payable": false,
      "stateMutability": "nonpayable",
      "type": "function",
      "signature": "0x4014d468"
    }
  ],
  "bytecode": "0x60806040526200001e3362000024640100000000026401000000009004565b620001e0565b620000488160006200008e6401000000000262000dbe179091906401000000009004565b8073ffffffffffffffffffffffffffffffffffffffff167f22380c05984257a1cb900161c713dd71d39e74820f1aea43bd3f1bdd2096129960405160405180910390a250565b600073ffffffffffffffffffffffffffffffffffffffff168173ffffffffffffffffffffffffffffffffffffffff161415620000c957600080fd5b620000e482826200014d640100000000026401000000009004565b15620000ef57600080fd5b60018260000160008373ffffffffffffffffffffffffffffffffffffffff1673ffffffffffffffffffffffffffffffffffffffff16815260200190815260200160002060006101000a81548160ff0219169083151502179055505050565b60008073ffffffffffffffffffffffffffffffffffffffff168273ffffffffffffffffffffffffffffffffffffffff1614156200018957600080fd5b8260000160008373ffffffffffffffffffffffffffffffffffffffff1673ffffffffffffffffffffffffffffffffffffffff16815260200190815260200160002060009054906101000a900460ff16905092915050565b611eae80620001f06000396000f3fe608060405234801561001057600080fd5b50600436106100d1576000357c0100000000000000000000000000000000000000000000000000000000900480635a16f5c41161008e5780635a16f5c4146101945780637362d9c8146101b057806395ba8d18146101cc578063a2086dab146101ea578063bb5f747b14610206578063d6cd947314610236576100d1565b806310154bad146100d6578063291d9549146100f25780632b26fb291461010e5780633af32abf1461013e5780634014d4681461016e5780634c5a628c1461018a575b600080fd5b6100f060048036036100eb9190810190611693565b610240565b005b61010c60048036036101079190810190611693565b61025e565b005b610128600480360361012391908101906116bc565b61027c565b6040516101359190611c89565b60405180910390f35b61015860048036036101539190810190611693565b610553565b6040516101659190611b8e565b60405180910390f35b610188600480360361018391908101906116bc565b610570565b005b610192610590565b005b6101ae60048036036101a991908101906116bc565b61059b565b005b6101ca60048036036101c59190810190611693565b6105bb565b005b6101d46105d9565b6040516101e19190611b6c565b60405180910390f35b61020460048036036101ff91908101906116e5565b610631565b005b610220600480360361021b9190810190611693565b610651565b60405161022d9190611b8e565b60405180910390f35b61023e61066e565b005b61024933610651565b61025257600080fd5b61025b81610679565b50565b61026733610651565b61027057600080fd5b610279816106d3565b50565b610284611477565b60006002600084815260200190815260200160002060020154116102dd576040517f08c379a00000000000000000000000000000000000000000000000000000000081526004016102d490611bc9565b60405180910390fd5b6002600083815260200190815260200160002060405180610100016040529081600082018054600181600116156101000203166002900480601f0160208091040260200160405190810160405280929190818152602001828054600181600116156101000203166002900480156103955780601f1061036a57610100808354040283529160200191610395565b820191906000526020600020905b81548152906001019060200180831161037857829003601f168201915b505050505081526020016001820154815260200160028201548152602001600382015481526020016004820154815260200160058201805480602002602001604051908101604052809291908181526020016000905b8282101561051f5783829060005260206000209060030201604051806060016040529081600082015481526020016001820160009054906101000a900473ffffffffffffffffffffffffffffffffffffffff1673ffffffffffffffffffffffffffffffffffffffff1673ffffffffffffffffffffffffffffffffffffffff168152602001600282018054600181600116156101000203166002900480601f0160208091040260200160405190810160405280929190818152602001828054600181600116156101000203166002900480156105075780601f106104dc57610100808354040283529160200191610507565b820191906000526020600020905b8154815290600101906020018083116104ea57829003601f168201915b505050505081525050815260200190600101906103eb565b5050505081526020016006820160009054906101000a900460ff161515151581526020016007820154815250509050919050565b600061056982600161072d90919063ffffffff16565b9050919050565b61057933610553565b61058257600080fd5b61058d8160016107bf565b50565b610599336108b5565b565b6105a433610553565b6105ad57600080fd5b6105b88160006107bf565b50565b6105c433610651565b6105cd57600080fd5b6105d68161090f565b50565b6060600380548060200260200160405190810160405280929190818152602001828054801561062757602002820191906000526020600020905b815481526020019060010190808311610613575b5050505050905090565b61063a33610553565b61064357600080fd5b61064d8282610969565b5050565b600061066782600061072d90919063ffffffff16565b9050919050565b610677336106d3565b565b61068d816001610dbe90919063ffffffff16565b8073ffffffffffffffffffffffffffffffffffffffff167fee1504a83b6d4a361f4c1dc78ab59bfa30d6a3b6612c403e86bb01ef2984295f60405160405180910390a250565b6106e7816001610e6a90919063ffffffff16565b8073ffffffffffffffffffffffffffffffffffffffff167f270d9b30cf5b0793bbfd54c9d5b94aeb49462b8148399000265144a8722da6b660405160405180910390a250565b60008073ffffffffffffffffffffffffffffffffffffffff168273ffffffffffffffffffffffffffffffffffffffff16141561076857600080fd5b8260000160008373ffffffffffffffffffffffffffffffffffffffff1673ffffffffffffffffffffffffffffffffffffffff16815260200190815260200160002060009054906101000a900460ff16905092915050565b600060026000848152602001908152602001600020600201541415610819576040517f08c379a000000000000000000000000000000000000000000000000000000000815260040161081090611be9565b60405180910390fd5b8015156002600084815260200190815260200160002060060160009054906101000a900460ff1615151415610883576040517f08c379a000000000000000000000000000000000000000000000000000000000815260040161087a90611c49565b60405180910390fd5b806002600084815260200190815260200160002060060160006101000a81548160ff0219169083151502179055505050565b6108c9816000610e6a90919063ffffffff16565b8073ffffffffffffffffffffffffffffffffffffffff167f0a8eb35e5ca14b3d6f28e4abf2f128dbab231a58b56e89beb5d636115001e16560405160405180910390a250565b610923816000610dbe90919063ffffffff16565b8073ffffffffffffffffffffffffffffffffffffffff167f22380c05984257a1cb900161c713dd71d39e74820f1aea43bd3f1bdd2096129960405160405180910390a250565b60006002600084815260200190815260200160002060020154146109c2576040517f08c379a00000000000000000000000000000000000000000000000000000000081526004016109b990611c29565b60405180910390fd5b6109ca6114be565b6109d382610f15565b905060606109e082610f43565b90506000610a01826000815181106109f457fe5b602002602001015161101a565b9050428111610a45576040517f08c379a0000000000000000000000000000000000000000000000000000000008152600401610a3c90611c09565b60405180910390fd5b6000610a6483600181518110610a5757fe5b602002602001015161101a565b90506000610a8584600281518110610a7857fe5b602002602001015161101a565b90506000610aa685600381518110610a9957fe5b602002602001015161101a565b90506060610ac786600481518110610aba57fe5b602002602001015161108b565b90506000610ae887600581518110610adb57fe5b602002602001015161101a565b90506060610b0988600681518110610afc57fe5b6020026020010151610f43565b905060008151905060008090505b81811015610c84576060610b3d848381518110610b3057fe5b6020026020010151610f43565b9050600260008a81526020019081526020016000206005016040518060600160405280610b7d84600081518110610b7057fe5b602002602001015161101a565b8152602001610b9f84600181518110610b9257fe5b6020026020010151611117565b73ffffffffffffffffffffffffffffffffffffffff168152602001610bd784600281518110610bca57fe5b602002602001015161108b565b815250908060018154018082558091505090600182039060005260206000209060030201600090919290919091506000820151816000015560208201518160010160006101000a81548173ffffffffffffffffffffffffffffffffffffffff021916908373ffffffffffffffffffffffffffffffffffffffff1602179055506040820151816002019080519060200190610c729291906114d8565b50505050508080600101915050610b17565b50610ca36002600089815260200190815260200160002060050161113a565b87600260008981526020019081526020016000206001018190555086600260008981526020019081526020016000206002018190555083600260008981526020019081526020016000206000019080519060200190610d03929190611558565b5082600260008981526020019081526020016000206007018190555085600260008981526020019081526020016000206003018190555084600260008981526020019081526020016000206004018190555060016002600089815260200190815260200160002060060160006101000a81548160ff0219169083151502179055506003879080600181540180825580915050906001820390600052602060002001600090919290919091505550505050505050505050505050565b600073ffffffffffffffffffffffffffffffffffffffff168173ffffffffffffffffffffffffffffffffffffffff161415610df857600080fd5b610e02828261072d565b15610e0c57600080fd5b60018260000160008373ffffffffffffffffffffffffffffffffffffffff1673ffffffffffffffffffffffffffffffffffffffff16815260200190815260200160002060006101000a81548160ff0219169083151502179055505050565b600073ffffffffffffffffffffffffffffffffffffffff168173ffffffffffffffffffffffffffffffffffffffff161415610ea457600080fd5b610eae828261072d565b610eb757600080fd5b60008260000160008373ffffffffffffffffffffffffffffffffffffffff1673ffffffffffffffffffffffffffffffffffffffff16815260200190815260200160002060006101000a81548160ff0219169083151502179055505050565b610f1d6114be565b600060208301905060405180604001604052808451815260200182815250915050919050565b6060610f4e82611215565b610f5757600080fd5b6000610f6283611263565b905080604051908082528060200260200182016040528015610f9e57816020015b610f8b6115d8565b815260200190600190039081610f835790505b5091506000610fb084602001516112d4565b8460200151019050600080600090505b8381101561101157610fd18361135d565b9150604051806040016040528083815260200184815250858281518110610ff457fe5b602002602001018190525081830192508080600101915050610fc0565b50505050919050565b600080826000015111801561103457506021826000015111155b61103d57600080fd5b600061104c83602001516112d4565b9050600081846000015103905060008083866020015101905080519150602083101561107f57826020036101000a820491505b81945050505050919050565b6060600082600001511161109e57600080fd5b60006110ad83602001516112d4565b905060008184600001510390506060816040519080825280601f01601f1916602001820160405280156110ef5781602001600182028038833980820191505090505b509050600081602001905061110b848760200151018285611410565b81945050505050919050565b6000601582600001511461112a57600080fd5b6111338261101a565b9050919050565b6000818054905011611181576040517f08c379a000000000000000000000000000000000000000000000000000000000815260040161117890611ba9565b60405180910390fd5b600081805490509050600080905060008090505b828110156111cc578381815481106111a957fe5b906000526020600020906003020160000154820191508080600101915050611195565b5060648114611210576040517f08c379a000000000000000000000000000000000000000000000000000000000815260040161120790611c69565b60405180910390fd5b505050565b6000808260000151141561122c576000905061125e565b60008083602001519050805160001a915060c060ff168260ff1610156112575760009250505061125e565b6001925050505b919050565b6000808260000151141561127a57600090506112cf565b6000809050600061128e84602001516112d4565b84602001510190506000846000015185602001510190505b808210156112c8576112b78261135d565b8201915082806001019350506112a6565b8293505050505b919050565b600080825160001a9050608060ff168110156112f4576000915050611358565b60b860ff16811080611319575060c060ff168110158015611318575060f860ff1681105b5b15611328576001915050611358565b60c060ff168110156113485760018060b80360ff16820301915050611358565b60018060f80360ff168203019150505b919050565b600080825160001a9050608060ff1681101561137d57600191505061140b565b60b860ff1681101561139b576001608060ff1682030191505061140b565b60c060ff168110156113cb5760b78103600184019350806020036101000a84510460018201810193505050611409565b60f860ff168110156113e957600160c060ff1682030191505061140b565b60f78103600184019350806020036101000a845104600182018101935050505b505b919050565b600081141561141e57611472565b5b602060ff16811061144e5782518252602060ff1683019250602060ff1682019150602060ff168103905061141f565b6000600182602060ff16036101000a03905080198451168184511681811785525050505b505050565b604051806101000160405280606081526020016000815260200160008152602001600081526020016000815260200160608152602001600015158152602001600081525090565b604051806040016040528060008152602001600081525090565b828054600181600116156101000203166002900490600052602060002090601f016020900481019282601f1061151957805160ff1916838001178555611547565b82800160010185558215611547579182015b8281111561154657825182559160200191906001019061152b565b5b50905061155491906115f2565b5090565b828054600181600116156101000203166002900490600052602060002090601f016020900481019282601f1061159957805160ff19168380011785556115c7565b828001600101855582156115c7579182015b828111156115c65782518255916020019190600101906115ab565b5b5090506115d491906115f2565b5090565b604051806040016040528060008152602001600081525090565b61161491905b808211156116105760008160009055506001016115f8565b5090565b90565b60006116238235611de5565b905092915050565b600082601f83011261163c57600080fd5b813561164f61164a82611cd8565b611cab565b9150808252602083016020830185838301111561166b57600080fd5b611676838284611e21565b50505092915050565b600061168b8235611e17565b905092915050565b6000602082840312156116a557600080fd5b60006116b384828501611617565b91505092915050565b6000602082840312156116ce57600080fd5b60006116dc8482850161167f565b91505092915050565b600080604083850312156116f857600080fd5b60006117068582860161167f565b925050602083013567ffffffffffffffff81111561172357600080fd5b61172f8582860161162b565b9150509250929050565b60006117458383611a56565b905092915050565b60006117598383611b5d565b60208301905092915050565b61176e81611d9d565b82525050565b600061177f82611d1e565b6117898185611d59565b93508360208202850161179b85611d04565b60005b848110156117d45783830388526117b6838351611739565b92506117c182611d3f565b915060208801975060018101905061179e565b508196508694505050505092915050565b60006117f082611d29565b6117fa8185611d6a565b935061180583611d11565b60005b828110156118335761181b86835161174d565b955061182682611d4c565b9150600181019050611808565b50849250505092915050565b61184881611daf565b82525050565b61185781611daf565b82525050565b600061186882611d34565b6118728185611d7b565b9350611882818560208601611e30565b61188b81611e63565b840191505092915050565b60006118a3600983611d8c565b91507f6e6f742072756c657300000000000000000000000000000000000000000000006000830152602082019050919050565b60006118e3600983611d8c565b91507f6e6f745f657869737400000000000000000000000000000000000000000000006000830152602082019050919050565b6000611923600983611d8c565b91507f6e6f7420657869737400000000000000000000000000000000000000000000006000830152602082019050919050565b6000611963600783611d8c565b91507f65787069726564000000000000000000000000000000000000000000000000006000830152602082019050919050565b60006119a3600583611d8c565b91507f65786973740000000000000000000000000000000000000000000000000000006000830152602082019050919050565b60006119e3600b83611d8c565b91507f73616d65207374617475730000000000000000000000000000000000000000006000830152602082019050919050565b6000611a23601683611d8c565b91507f616c6c20616d6f756e74206469737472696275746564000000000000000000006000830152602082019050919050565b6000606083016000830151611a6e6000860182611b5d565b506020830151611a816020860182611765565b5060408301518482036040860152611a99828261185d565b9150508091505092915050565b6000610100830160008301518482036000860152611ac4828261185d565b9150506020830151611ad96020860182611b5d565b506040830151611aec6040860182611b5d565b506060830151611aff6060860182611b5d565b506080830151611b126080860182611b5d565b5060a083015184820360a0860152611b2a8282611774565b91505060c0830151611b3f60c086018261183f565b5060e0830151611b5260e0860182611b5d565b508091505092915050565b611b6681611ddb565b82525050565b60006020820190508181036000830152611b8681846117e5565b905092915050565b6000602082019050611ba3600083018461184e565b92915050565b60006020820190508181036000830152611bc281611896565b9050919050565b60006020820190508181036000830152611be2816118d6565b9050919050565b60006020820190508181036000830152611c0281611916565b9050919050565b60006020820190508181036000830152611c2281611956565b9050919050565b60006020820190508181036000830152611c4281611996565b9050919050565b60006020820190508181036000830152611c62816119d6565b9050919050565b60006020820190508181036000830152611c8281611a16565b9050919050565b60006020820190508181036000830152611ca38184611aa6565b905092915050565b6000604051905081810181811067ffffffffffffffff82111715611cce57600080fd5b8060405250919050565b600067ffffffffffffffff821115611cef57600080fd5b601f19601f8301169050602081019050919050565b6000602082019050919050565b6000602082019050919050565b600081519050919050565b600081519050919050565b600081519050919050565b6000602082019050919050565b6000602082019050919050565b600082825260208201905092915050565b600082825260208201905092915050565b600082825260208201905092915050565b600082825260208201905092915050565b6000611da882611dbb565b9050919050565b60008115159050919050565b600073ffffffffffffffffffffffffffffffffffffffff82169050919050565b6000819050919050565b6000611df082611df7565b9050919050565b600073ffffffffffffffffffffffffffffffffffffffff82169050919050565b6000819050919050565b82818337600083830152505050565b60005b83811015611e4e578082015181840152602081019050611e33565b83811115611e5d576000848401525b50505050565b6000601f19601f830116905091905056fea265627a7a72305820db1c13bf9fae1c988ffa221be72a06f0be08e3f75505a9f82eff276a3f3a303c6c6578706572696d656e74616cf50037",
  "source": "pragma solidity ^0.5.2;\npragma experimental ABIEncoderV2;\n\nimport \"../../node_modules/solidity-rlp/contracts/RLPReader.sol\";\nimport \"../../node_modules/openzeppelin-solidity/contracts/access/roles/WhitelistedRole.sol\";\n\ncontract Schemas is WhitelistedRole {\n\n  using RLPReader for bytes;\n  using RLPReader for uint;\n  using RLPReader for RLPReader.RLPItem;\n\n  struct Schema {\n    string dappId;   \n    uint expirationDate;\n    uint256 schemaId;\n    uint256 amount;\n    uint256 assetLifeTime;\n    ClearingHouseRule[] clearingHouseRules;\n    bool valid;\n    uint256 topPrice;    \n  }\n\n  struct ClearingHouseRule {  \n    uint percent; \n    address receptor;\n    string description;\n  }\n\n  mapping (uint256 => Schema) private schemas_;\n  uint256[] private schemasArray_ ;\n\n  function getSchema(uint256 _schemaId) public view returns (Schema memory) {\n    require(schemas_[_schemaId].schemaId > 0, \"not_exist\");\n    return (schemas_[_schemaId]);\n  }\n\n  function getSchemas() public view returns (uint256[] memory) {    \n    return (schemasArray_);\n  }\n\n  function createSchema(uint256 _schemaId, bytes memory _data) public onlyWhitelisted  {\n    _createSchema(_schemaId, _data);  \n  }\n\n  function invalidateSchema(uint256 _schemaId) public  onlyWhitelisted {\n    _schemaStatus(_schemaId, false);  \n  }\n\n  function validateSchema(uint256 _schemaId) public onlyWhitelisted  {\n    _schemaStatus(_schemaId, true);  \n  }\n\n  function _createSchema(uint256 _schemaId, bytes memory _in) internal  {\n    // RLP format : [<expirationDate>,<schemaId>,<amount>,<assetLifeTime>,<dappId>,<openPrice?> ,[ [<percent>,<address>,<description>],[<percent>,<address>,<description>]]]\n\n    require(schemas_[_schemaId].schemaId == 0, \"exist\"); \n   \n    RLPReader.RLPItem memory item = _in.toRlpItem();\n    RLPReader.RLPItem[] memory itemList = item.toList();\n\n    uint expirationDate = itemList[0].toUint();\n\n    require(expirationDate > now, \"expired\");\n\n    uint256 schemaId = uint256(itemList[1].toUint());\n    uint256 amount = uint256(itemList[2].toUint());\n    uint256 assetLifeTime = uint256(itemList[3].toUint());\n    string memory dappId = string(itemList[4].toBytes());\n    uint256 topPrice = itemList[5].toUint();\n    \n    RLPReader.RLPItem[] memory clearingHouseRulesItemList = itemList[6].toList();\n    \n    uint listLength = clearingHouseRulesItemList.length;\n    for (uint i = 0; i < listLength; i++) {\n      RLPReader.RLPItem[] memory tempListItem = clearingHouseRulesItemList[i].toList();\n        \n      schemas_[schemaId].clearingHouseRules.push(\n        ClearingHouseRule(tempListItem[0].toUint(),tempListItem[1].toAddress(),string(tempListItem[2].toBytes()))\n      );    \n    }\n    \n    _validateClearingHouseRules(schemas_[schemaId].clearingHouseRules);\n    \n    schemas_[schemaId].expirationDate = expirationDate;\n    schemas_[schemaId].schemaId = schemaId;\n    schemas_[schemaId].dappId = dappId;\n    schemas_[schemaId].topPrice = topPrice;\n    schemas_[schemaId].amount = amount;\n    schemas_[schemaId].assetLifeTime = assetLifeTime;\n    schemas_[schemaId].valid = true;\n    schemasArray_.push(schemaId);\n  }\n\n  function _schemaStatus(uint256 _schemaId, bool _newStatus) internal  {\n    require(schemas_[_schemaId].schemaId != 0, \"not exist\"); \n    require(schemas_[_schemaId].valid != _newStatus , \"same status\");\n    schemas_[_schemaId].valid = _newStatus;\n  }\n\n  function _validateClearingHouseRules(ClearingHouseRule[] storage clearingHouseRules) internal  {\n    require(clearingHouseRules.length > 0, \"not rules\"); \n    uint listLength = clearingHouseRules.length;\n    uint total = 0;\n    for (uint i = 0; i < listLength; i++) {\n      total += clearingHouseRules[i].percent;\n    }\n    require(total == 100, \"all amount distributed\");    \n  }\n\n}",
  "sourcePath": "/home/jordi/ws/bloomenio/bloomen-wallet/bloomen-wallet-truffle/contracts/bloomen/Schemas.sol",
  "compiler": {
    "name": "solc",
    "version": "0.5.7+commit.6da8b019.Emscripten.clang"
  },
  "schemaVersion": "3.0.6",
  "updatedAt": "2019-04-25T13:21:42.776Z",
  "devdoc": {
    "methods": {}
  },
  "userdoc": {
    "methods": {}
  }
}