{
  "contractName": "Assets",
  "abi": [
    {
      "inputs": [
        {
          "name": "_schemasAddr",
          "type": "address"
        },
        {
          "name": "_erc223Addr",
          "type": "address"
        }
      ],
      "payable": false,
      "stateMutability": "nonpayable",
      "type": "constructor",
      "signature": "constructor"
    },
    {
      "constant": true,
      "inputs": [
        {
          "name": "_assetId",
          "type": "uint256"
        },
        {
          "name": "_schemaId",
          "type": "uint256"
        }
      ],
      "name": "checkOwnership",
      "outputs": [
        {
          "name": "",
          "type": "bool"
        }
      ],
      "payable": false,
      "stateMutability": "view",
      "type": "function",
      "signature": "0x04edae0f"
    },
    {
      "constant": true,
      "inputs": [
        {
          "name": "_target",
          "type": "address"
        },
        {
          "name": "_assetId",
          "type": "uint256"
        },
        {
          "name": "_schemaId",
          "type": "uint256"
        }
      ],
      "name": "checkOwnershipForAddress",
      "outputs": [
        {
          "name": "",
          "type": "bool"
        }
      ],
      "payable": false,
      "stateMutability": "view",
      "type": "function",
      "signature": "0x700651aa"
    },
    {
      "constant": true,
      "inputs": [],
      "name": "getAssetsPageCount",
      "outputs": [
        {
          "name": "",
          "type": "uint256"
        }
      ],
      "payable": false,
      "stateMutability": "view",
      "type": "function",
      "signature": "0x4aa3bfeb"
    },
    {
      "constant": true,
      "inputs": [
        {
          "name": "_page",
          "type": "uint256"
        }
      ],
      "name": "getAssets",
      "outputs": [
        {
          "components": [
            {
              "name": "expirationDate",
              "type": "uint256"
            },
            {
              "name": "assetId",
              "type": "uint256"
            },
            {
              "name": "schemaId",
              "type": "uint256"
            },
            {
              "name": "dappId",
              "type": "string"
            },
            {
              "name": "description",
              "type": "string"
            }
          ],
          "name": "",
          "type": "tuple[]"
        }
      ],
      "payable": false,
      "stateMutability": "view",
      "type": "function",
      "signature": "0xd9212164"
    },
    {
      "constant": false,
      "inputs": [
        {
          "name": "_user",
          "type": "address"
        },
        {
          "name": "_amount",
          "type": "uint256"
        },
        {
          "name": "_data",
          "type": "bytes"
        }
      ],
      "name": "tokenFallback",
      "outputs": [],
      "payable": false,
      "stateMutability": "nonpayable",
      "type": "function",
      "signature": "0xc0ee0b8a"
    },
    {
      "constant": true,
      "inputs": [
        {
          "name": "theNumber",
          "type": "uint256"
        },
        {
          "name": "percentage",
          "type": "uint256"
        }
      ],
      "name": "calculatePercentage",
      "outputs": [
        {
          "name": "",
          "type": "uint256"
        }
      ],
      "payable": false,
      "stateMutability": "view",
      "type": "function",
      "signature": "0x2133e3b9"
    }
  ],
  "bytecode": "0x60806040523480156200001157600080fd5b5060405160408062001d938339810180604052620000339190810190620000d3565b80600260006101000a81548173ffffffffffffffffffffffffffffffffffffffff021916908373ffffffffffffffffffffffffffffffffffffffff16021790555081600160006101000a81548173ffffffffffffffffffffffffffffffffffffffff021916908373ffffffffffffffffffffffffffffffffffffffff160217905550505062000148565b6000620000cb825162000114565b905092915050565b60008060408385031215620000e757600080fd5b6000620000f785828601620000bd565b92505060206200010a85828601620000bd565b9150509250929050565b6000620001218262000128565b9050919050565b600073ffffffffffffffffffffffffffffffffffffffff82169050919050565b611c3b80620001586000396000f3fe608060405234801561001057600080fd5b506004361061007f576000357c01000000000000000000000000000000000000000000000000000000009004806304edae0f146100845780632133e3b9146100b45780634aa3bfeb146100e4578063700651aa14610102578063c0ee0b8a14610132578063d92121641461014e575b600080fd5b61009e6004803603610099919081019061171a565b61017e565b6040516100ab9190611998565b60405180910390f35b6100ce60048036036100c9919081019061171a565b610193565b6040516100db91906119f3565b60405180910390f35b6100ec6101aa565b6040516100f991906119f3565b60405180910390f35b61011c60048036036101179190810190611638565b610265565b6040516101299190611998565b60405180910390f35b61014c600480360361014791908101906115d1565b61027b565b005b610168600480360361016391908101906116f1565b6107b5565b6040516101759190611976565b60405180910390f35b600061018b338484610a8c565b905092915050565b60006064828402816101a157fe5b04905092915050565b600080600a6000803373ffffffffffffffffffffffffffffffffffffffff1673ffffffffffffffffffffffffffffffffffffffff16815260200190815260200160002060000180549050816101fb57fe5b0490506000600a6000803373ffffffffffffffffffffffffffffffffffffffff1673ffffffffffffffffffffffffffffffffffffffff168152602001908152602001600020600001805490508161024e57fe5b06111561025e5780806001019150505b8091505090565b6000610272848484610a8c565b90509392505050565b610283611165565b61028c82610d01565b9050606061029982610d2f565b905060006102ba826000815181106102ad57fe5b6020026020010151610e06565b905060006102db836001815181106102ce57fe5b6020026020010151610e06565b905060606102fc846002815181106102ef57fe5b6020026020010151610e77565b9050606061031d8560038151811061031057fe5b6020026020010151610e77565b905061032761117f565b600160009054906101000a900473ffffffffffffffffffffffffffffffffffffffff1673ffffffffffffffffffffffffffffffffffffffff16632b26fb29856040518263ffffffff167c010000000000000000000000000000000000000000000000000000000002815260040161039e91906119f3565b60006040518083038186803b1580156103b657600080fd5b505afa1580156103ca573d6000803e3d6000fd5b505050506040513d6000823e3d601f19601f820116820180604052506103f391908101906116b0565b90508881606001511461043b576040517f08c379a0000000000000000000000000000000000000000000000000000000008152600401610432906119b3565b60405180910390fd5b6104468a8686610a8c565b15610486576040517f08c379a000000000000000000000000000000000000000000000000000000000815260040161047d906119d3565b60405180910390fd5b600089905060008090505b60018360a0015151038110156105c45760006104c88c8560a0015184815181106104b757fe5b602002602001015160000151610193565b9050600260009054906101000a900473ffffffffffffffffffffffffffffffffffffffff1673ffffffffffffffffffffffffffffffffffffffff1663a9059cbb8560a00151848151811061051857fe5b602002602001015160200151836040518363ffffffff167c010000000000000000000000000000000000000000000000000000000002815260040161055e92919061194d565b602060405180830381600087803b15801561057857600080fd5b505af115801561058c573d6000803e3d6000fd5b505050506040513d601f19601f820116820180604052506105b09190810190611687565b508083039250508080600101915050610491565b50600260009054906101000a900473ffffffffffffffffffffffffffffffffffffffff1673ffffffffffffffffffffffffffffffffffffffff1663a9059cbb8360a0015160018560a0015151038151811061061b57fe5b602002602001015160200151836040518363ffffffff167c010000000000000000000000000000000000000000000000000000000002815260040161066192919061194d565b602060405180830381600087803b15801561067b57600080fd5b505af115801561068f573d6000803e3d6000fd5b505050506040513d601f19601f820116820180604052506106b39190810190611687565b506000808c73ffffffffffffffffffffffffffffffffffffffff1673ffffffffffffffffffffffffffffffffffffffff1681526020019081526020016000206000016040518060a00160405280846080015142018152602001888152602001878152602001868152602001858152509080600181540180825580915050906001820390600052602060002090600502016000909192909190915060008201518160000155602082015181600101556040820151816002015560608201518160030190805190602001906107879291906111c6565b5060808201518160040190805190602001906107a49291906111c6565b505050505050505050505050505050565b60606000600a83600a0203905060606000803373ffffffffffffffffffffffffffffffffffffffff1673ffffffffffffffffffffffffffffffffffffffff168152602001908152602001600020600001805480602002602001604051908101604052809291908181526020016000905b828210156109b957838290600052602060002090600502016040518060a0016040529081600082015481526020016001820154815260200160028201548152602001600382018054600181600116156101000203166002900480601f0160208091040260200160405190810160405280929190818152602001828054600181600116156101000203166002900480156108ff5780601f106108d4576101008083540402835291602001916108ff565b820191906000526020600020905b8154815290600101906020018083116108e257829003601f168201915b50505050508152602001600482018054600181600116156101000203166002900480601f0160208091040260200160405190810160405280929190818152602001828054600181600116156101000203166002900480156109a15780601f10610976576101008083540402835291602001916109a1565b820191906000526020600020905b81548152906001019060200180831161098457829003601f168201915b50505050508152505081526020019060010190610825565b5050505090506000815114806109d25750600181510382115b156109e4576060809350505050610a87565b6060600a604051908082528060200260200182016040528015610a2157816020015b610a0e611246565b815260200190600190039081610a065790505b50905060008090505b85600a02841015610a7f578251841015610a6a57828481518110610a4a57fe5b6020026020010151828281518110610a5e57fe5b60200260200101819052505b80806001019150508380600101945050610a2a565b819450505050505b919050565b600080600090505b6000808673ffffffffffffffffffffffffffffffffffffffff1673ffffffffffffffffffffffffffffffffffffffff16815260200190815260200160002060000180549050811015610cf457610ae8611275565b6000808773ffffffffffffffffffffffffffffffffffffffff1673ffffffffffffffffffffffffffffffffffffffff1681526020019081526020016000206000018281548110610b3457fe5b90600052602060002090600502016040518060a0016040529081600082015481526020016001820154815260200160028201548152602001600382018054600181600116156101000203166002900480601f016020809104026020016040519081016040528092919081815260200182805460018160011615610100020316600290048015610c045780601f10610bd957610100808354040283529160200191610c04565b820191906000526020600020905b815481529060010190602001808311610be757829003601f168201915b50505050508152602001600482018054600181600116156101000203166002900480601f016020809104026020016040519081016040528092919081815260200182805460018160011615610100020316600290048015610ca65780601f10610c7b57610100808354040283529160200191610ca6565b820191906000526020600020905b815481529060010190602001808311610c8957829003601f168201915b5050505050815250509050848160200151148015610cc75750838160400151145b8015610cd65750428160000151115b15610ce657600192505050610cfa565b508080600101915050610a94565b50600090505b9392505050565b610d09611165565b600060208301905060405180604001604052808451815260200182815250915050919050565b6060610d3a82610f03565b610d4357600080fd5b6000610d4e83610f51565b905080604051908082528060200260200182016040528015610d8a57816020015b610d776112a4565b815260200190600190039081610d6f5790505b5091506000610d9c8460200151610fc2565b8460200151019050600080600090505b83811015610dfd57610dbd8361104b565b9150604051806040016040528083815260200184815250858281518110610de057fe5b602002602001018190525081830192508080600101915050610dac565b50505050919050565b6000808260000151118015610e2057506021826000015111155b610e2957600080fd5b6000610e388360200151610fc2565b90506000818460000151039050600080838660200151019050805191506020831015610e6b57826020036101000a820491505b81945050505050919050565b60606000826000015111610e8a57600080fd5b6000610e998360200151610fc2565b905060008184600001510390506060816040519080825280601f01601f191660200182016040528015610edb5781602001600182028038833980820191505090505b5090506000816020019050610ef78487602001510182856110fe565b81945050505050919050565b60008082600001511415610f1a5760009050610f4c565b60008083602001519050805160001a915060c060ff168260ff161015610f4557600092505050610f4c565b6001925050505b919050565b60008082600001511415610f685760009050610fbd565b60008090506000610f7c8460200151610fc2565b84602001510190506000846000015185602001510190505b80821015610fb657610fa58261104b565b820191508280600101935050610f94565b8293505050505b919050565b600080825160001a9050608060ff16811015610fe2576000915050611046565b60b860ff16811080611007575060c060ff168110158015611006575060f860ff1681105b5b15611016576001915050611046565b60c060ff168110156110365760018060b80360ff16820301915050611046565b60018060f80360ff168203019150505b919050565b600080825160001a9050608060ff1681101561106b5760019150506110f9565b60b860ff16811015611089576001608060ff168203019150506110f9565b60c060ff168110156110b95760b78103600184019350806020036101000a845104600182018101935050506110f7565b60f860ff168110156110d757600160c060ff168203019150506110f9565b60f78103600184019350806020036101000a845104600182018101935050505b505b919050565b600081141561110c57611160565b5b602060ff16811061113c5782518252602060ff1683019250602060ff1682019150602060ff168103905061110d565b6000600182602060ff16036101000a03905080198451168184511681811785525050505b505050565b604051806040016040528060008152602001600081525090565b604051806101000160405280606081526020016000815260200160008152602001600081526020016000815260200160608152602001600015158152602001600081525090565b828054600181600116156101000203166002900490600052602060002090601f016020900481019282601f1061120757805160ff1916838001178555611235565b82800160010185558215611235579182015b82811115611234578251825591602001919060010190611219565b5b50905061124291906112be565b5090565b6040518060a0016040528060008152602001600081526020016000815260200160608152602001606081525090565b6040518060a0016040528060008152602001600081526020016000815260200160608152602001606081525090565b604051806040016040528060008152602001600081525090565b6112e091905b808211156112dc5760008160009055506001016112c4565b5090565b90565b60006112ef8235611b66565b905092915050565b60006113038251611b66565b905092915050565b600082601f83011261131c57600080fd5b815161132f61132a82611a3b565b611a0e565b9150818183526020840193506020810190508360005b83811015611375578151860161135b888261143b565b845260208401935060208301925050600181019050611345565b5050505092915050565b600061138b8251611b78565b905092915050565b600082601f8301126113a457600080fd5b81356113b76113b282611a63565b611a0e565b915080825260208301602083018583830111156113d357600080fd5b6113de838284611bae565b50505092915050565b600082601f8301126113f857600080fd5b815161140b61140682611a8f565b611a0e565b9150808252602083016020830185838301111561142757600080fd5b611432838284611bbd565b50505092915050565b60006060828403121561144d57600080fd5b6114576060611a0e565b90506000611467848285016115bd565b600083015250602061147b848285016112f7565b602083015250604082015167ffffffffffffffff81111561149b57600080fd5b6114a7848285016113e7565b60408301525092915050565b600061010082840312156114c657600080fd5b6114d1610100611a0e565b9050600082015167ffffffffffffffff8111156114ed57600080fd5b6114f9848285016113e7565b600083015250602061150d848285016115bd565b6020830152506040611521848285016115bd565b6040830152506060611535848285016115bd565b6060830152506080611549848285016115bd565b60808301525060a082015167ffffffffffffffff81111561156957600080fd5b6115758482850161130b565b60a08301525060c06115898482850161137f565b60c08301525060e061159d848285016115bd565b60e08301525092915050565b60006115b58235611ba4565b905092915050565b60006115c98251611ba4565b905092915050565b6000806000606084860312156115e657600080fd5b60006115f4868287016112e3565b9350506020611605868287016115a9565b925050604084013567ffffffffffffffff81111561162257600080fd5b61162e86828701611393565b9150509250925092565b60008060006060848603121561164d57600080fd5b600061165b868287016112e3565b935050602061166c868287016115a9565b925050604061167d868287016115a9565b9150509250925092565b60006020828403121561169957600080fd5b60006116a78482850161137f565b91505092915050565b6000602082840312156116c257600080fd5b600082015167ffffffffffffffff8111156116dc57600080fd5b6116e8848285016114b3565b91505092915050565b60006020828403121561170357600080fd5b6000611711848285016115a9565b91505092915050565b6000806040838503121561172d57600080fd5b600061173b858286016115a9565b925050602061174c858286016115a9565b9150509250929050565b600061176283836118b2565b905092915050565b61177381611b1e565b82525050565b600061178482611ac8565b61178e8185611aeb565b9350836020820285016117a085611abb565b60005b848110156117d95783830388526117bb838351611756565b92506117c682611ade565b91506020880197506001810190506117a3565b508196508694505050505092915050565b6117f381611b30565b82525050565b600061180482611ad3565b61180e8185611afc565b935061181e818560208601611bbd565b61182781611bf0565b840191505092915050565b600061183f601083611b0d565b91507f696e636f727265637420616d6f756e74000000000000000000000000000000006000830152602082019050919050565b600061187f600a83611b0d565b91507f6475706c696361746564000000000000000000000000000000000000000000006000830152602082019050919050565b600060a0830160008301516118ca600086018261192f565b5060208301516118dd602086018261192f565b5060408301516118f0604086018261192f565b506060830151848203606086015261190882826117f9565b9150506080830151848203608086015261192282826117f9565b9150508091505092915050565b61193881611b5c565b82525050565b61194781611b5c565b82525050565b6000604082019050611962600083018561176a565b61196f602083018461193e565b9392505050565b600060208201905081810360008301526119908184611779565b905092915050565b60006020820190506119ad60008301846117ea565b92915050565b600060208201905081810360008301526119cc81611832565b9050919050565b600060208201905081810360008301526119ec81611872565b9050919050565b6000602082019050611a08600083018461193e565b92915050565b6000604051905081810181811067ffffffffffffffff82111715611a3157600080fd5b8060405250919050565b600067ffffffffffffffff821115611a5257600080fd5b602082029050602081019050919050565b600067ffffffffffffffff821115611a7a57600080fd5b601f19601f8301169050602081019050919050565b600067ffffffffffffffff821115611aa657600080fd5b601f19601f8301169050602081019050919050565b6000602082019050919050565b600081519050919050565b600081519050919050565b6000602082019050919050565b600082825260208201905092915050565b600082825260208201905092915050565b600082825260208201905092915050565b6000611b2982611b3c565b9050919050565b60008115159050919050565b600073ffffffffffffffffffffffffffffffffffffffff82169050919050565b6000819050919050565b6000611b7182611b84565b9050919050565b60008115159050919050565b600073ffffffffffffffffffffffffffffffffffffffff82169050919050565b6000819050919050565b82818337600083830152505050565b60005b83811015611bdb578082015181840152602081019050611bc0565b83811115611bea576000848401525b50505050565b6000601f19601f830116905091905056fea265627a7a72305820977450a127fbc73c60385ee04f4c81bcbcb8c3dfb640790a726b150ace23b49c6c6578706572696d656e74616cf50037",
  "source": "pragma solidity ^0.5.2;\npragma experimental ABIEncoderV2;\n\nimport \"./Schemas.sol\";\nimport \"./token/ERC223ReceivingContract.sol\";\nimport \"./token/ERC223.sol\";\nimport \"../../node_modules/solidity-rlp/contracts/RLPReader.sol\";\nimport \"../../node_modules/openzeppelin-solidity/contracts/math/SafeMath.sol\";\n\ncontract  Assets is ERC223ReceivingContract{\n\n  using SafeMath for uint256;\n  using RLPReader for bytes;\n  using RLPReader for uint;\n  using RLPReader for RLPReader.RLPItem;\n    \n  struct UserAssets {   \n    Asset[] assets;\n  } \n\n  struct Asset {   \n    uint expirationDate;\n    uint256 assetId;\n    uint256 schemaId;\n    string dappId;\n    string description;\n  }\n\n  uint256 constant private PAGE_SIZE = 10;\n\n  mapping (address => UserAssets) private userAssets_; \n\n  Schemas private _schemas;\n  ERC223 private _erc223;\n  \n  constructor (address _schemasAddr, address _erc223Addr) public{\n    _erc223 = ERC223(_erc223Addr);\n    _schemas = Schemas(_schemasAddr);\n  }\n\n  function checkOwnership(uint256 _assetId, uint256 _schemaId) public view returns (bool) {\n    return _checkOwnership(msg.sender, _assetId, _schemaId);  \n  }\n\n  function checkOwnershipForAddress(address _target, uint256 _assetId, uint256 _schemaId) public view returns (bool) {\n    return _checkOwnership(_target, _assetId, _schemaId);  \n  }\n\n  function getAssetsPageCount() public view returns (uint256) {    \n    uint256 pages = userAssets_[msg.sender].assets.length / PAGE_SIZE;\n    if ((userAssets_[msg.sender].assets.length % PAGE_SIZE)>0) {\n      pages++;\n    }\n    return pages;\n  }\n\n  function getAssets(uint256 _page) public view returns (Asset[] memory) {\n    \n    uint256 transferIndex = PAGE_SIZE * _page - PAGE_SIZE;\n    Asset[] memory assets = userAssets_[msg.sender].assets;\n\n    if (assets.length == 0 || transferIndex > assets.length - 1) {\n      Asset[] memory empty;\n      return empty ;\n    }\n\n    Asset[] memory assetsPage = new Asset[](PAGE_SIZE);  \n    uint256 returnCounter = 0;\n\n    for (transferIndex; transferIndex < PAGE_SIZE * _page; transferIndex++) {\n      if (transferIndex < assets.length) {\n        assetsPage[returnCounter] = assets[transferIndex];\n      }\n      returnCounter++;\n    }\n\n    return (assetsPage);\n  }\n\n  function tokenFallback(address _user, uint _amount, bytes memory _data) public {\n\n    RLPReader.RLPItem memory item = _data.toRlpItem();\n    RLPReader.RLPItem[] memory itemList = item.toList();\n\n    uint256 _assetId = uint256(itemList[0].toUint());\n    uint256 _schemaId = uint256(itemList[1].toUint());\n\n    string memory _dappId = string(itemList[2].toBytes());\n    string memory _description = string(itemList[3].toBytes());\n\n    Schemas.Schema memory schema = _schemas.getSchema(_schemaId);\n    require(schema.amount == _amount, \"incorrect amount\");    \n    require(!_checkOwnership(_user, _assetId, _schemaId), \"duplicated\");\n    \n    uint pieValue = _amount;\n\n    for (uint i = 0; i < schema.clearingHouseRules.length-1; i++) {\n      uint tmpValue = calculatePercentage(_amount,schema.clearingHouseRules[i].percent);\n      _erc223.transfer(schema.clearingHouseRules[i].receptor, tmpValue);\n      pieValue -= tmpValue;\n    }\n\n    _erc223.transfer(schema.clearingHouseRules[schema.clearingHouseRules.length-1].receptor, pieValue);\n    // registrar la compra\n    userAssets_[_user].assets.push(Asset(now + schema.assetLifeTime , _assetId, _schemaId, _dappId, _description));\n  }\n\n  function _checkOwnership(address _owner, uint256 _assetId, uint256 _schemaId) internal view returns (bool) {\n    \n    for (uint i = 0; i < userAssets_[_owner].assets.length; i++) {\n      Asset memory asset = userAssets_[_owner].assets[i];\n\n      if ( (asset.assetId == _assetId) && (asset.schemaId == _schemaId) && (asset.expirationDate > now)){\n        return true;\n      }\n    }\n    \n    return false;\n  }\n\n  function calculatePercentage(uint theNumber, uint percentage) public view returns (uint) {\n    return theNumber * percentage / 100 ;\n  }\n    \n}",
  "sourcePath": "/home/jordi/ws/bloomenio/bloomen-wallet/bloomen-wallet-truffle/contracts/bloomen/Assets.sol",
  "compiler": {
    "name": "solc",
    "version": "0.5.7+commit.6da8b019.Emscripten.clang"
  },
  "schemaVersion": "3.0.6",
  "updatedAt": "2019-04-25T13:21:48.901Z",
  "devdoc": {
    "methods": {}
  },
  "userdoc": {
    "methods": {}
  }
}