{
  "contractName": "Devices",
  "abi": [
    {
      "inputs": [
        {
          "name": "_assetsAddr",
          "type": "address"
        }
      ],
      "payable": false,
      "stateMutability": "nonpayable",
      "type": "constructor",
      "signature": "constructor"
    },
    {
      "constant": true,
      "inputs": [
        {
          "name": "_deviceHash",
          "type": "bytes32"
        }
      ],
      "name": "isAllowed",
      "outputs": [
        {
          "name": "",
          "type": "bool"
        }
      ],
      "payable": false,
      "stateMutability": "view",
      "type": "function",
      "signature": "0x78755295"
    },
    {
      "constant": true,
      "inputs": [
        {
          "name": "_target",
          "type": "address"
        },
        {
          "name": "_deviceHash",
          "type": "bytes32"
        }
      ],
      "name": "isAllowedForAddress",
      "outputs": [
        {
          "name": "",
          "type": "bool"
        }
      ],
      "payable": false,
      "stateMutability": "view",
      "type": "function",
      "signature": "0x1d841899"
    },
    {
      "constant": true,
      "inputs": [],
      "name": "getAssetsPageCount",
      "outputs": [
        {
          "name": "",
          "type": "uint256"
        }
      ],
      "payable": false,
      "stateMutability": "view",
      "type": "function",
      "signature": "0x4aa3bfeb"
    },
    {
      "constant": true,
      "inputs": [
        {
          "name": "_page",
          "type": "uint256"
        }
      ],
      "name": "getDevices",
      "outputs": [
        {
          "components": [
            {
              "name": "expirationDate",
              "type": "uint256"
            },
            {
              "name": "assetId",
              "type": "uint256"
            },
            {
              "name": "schemaId",
              "type": "uint256"
            },
            {
              "name": "dappId",
              "type": "string"
            },
            {
              "name": "description",
              "type": "string"
            }
          ],
          "name": "",
          "type": "tuple[]"
        }
      ],
      "payable": false,
      "stateMutability": "view",
      "type": "function",
      "signature": "0x6d9db7ed"
    },
    {
      "constant": true,
      "inputs": [
        {
          "name": "_deviceHash",
          "type": "bytes32"
        }
      ],
      "name": "getAddress",
      "outputs": [
        {
          "name": "",
          "type": "address"
        }
      ],
      "payable": false,
      "stateMutability": "view",
      "type": "function",
      "signature": "0x21f8a721"
    },
    {
      "constant": false,
      "inputs": [
        {
          "name": "_deviceHash",
          "type": "bytes32"
        },
        {
          "name": "_assetId",
          "type": "uint256"
        },
        {
          "name": "_schemaId",
          "type": "uint256"
        },
        {
          "name": "_lifeTime",
          "type": "uint256"
        },
        {
          "name": "_dappId",
          "type": "string"
        }
      ],
      "name": "handshake",
      "outputs": [],
      "payable": false,
      "stateMutability": "nonpayable",
      "type": "function",
      "signature": "0x132c6aa4"
    },
    {
      "constant": false,
      "inputs": [
        {
          "name": "_deviceHash",
          "type": "bytes32"
        },
        {
          "name": "_assetId",
          "type": "uint256"
        },
        {
          "name": "_schemaId",
          "type": "uint256"
        },
        {
          "name": "_lifeTime",
          "type": "uint256"
        },
        {
          "name": "_dappId",
          "type": "string"
        },
        {
          "name": "_description",
          "type": "string"
        }
      ],
      "name": "handshake",
      "outputs": [],
      "payable": false,
      "stateMutability": "nonpayable",
      "type": "function",
      "signature": "0x42b4bed4"
    },
    {
      "constant": false,
      "inputs": [
        {
          "name": "_deviceHash",
          "type": "bytes32"
        }
      ],
      "name": "removeDevice",
      "outputs": [],
      "payable": false,
      "stateMutability": "nonpayable",
      "type": "function",
      "signature": "0x1d266200"
    }
  ],
  "bytecode": "0x60806040523480156200001157600080fd5b5060405160208062001994833981018060405262000033919081019062000091565b80600260006101000a81548173ffffffffffffffffffffffffffffffffffffffff021916908373ffffffffffffffffffffffffffffffffffffffff16021790555050620000f1565b6000620000898251620000bd565b905092915050565b600060208284031215620000a457600080fd5b6000620000b4848285016200007b565b91505092915050565b6000620000ca82620000d1565b9050919050565b600073ffffffffffffffffffffffffffffffffffffffff82169050919050565b61189380620001016000396000f3fe608060405234801561001057600080fd5b50600436106100a5576000357c01000000000000000000000000000000000000000000000000000000009004806342b4bed41161007857806342b4bed4146101425780634aa3bfeb1461015e5780636d9db7ed1461017c57806378755295146101ac576100a5565b8063132c6aa4146100aa5780631d266200146100c65780631d841899146100e257806321f8a72114610112575b600080fd5b6100c460048036036100bf91908101906111fe565b6101dc565b005b6100e060048036036100db91908101906111d5565b610201565b005b6100fc60048036036100f79190810190611170565b61020e565b604051610109919061161a565b60405180910390f35b61012c600480360361012791908101906111d5565b610290565b60405161013991906115a6565b60405180910390f35b61015c6004803603610157919081019061128d565b6102e7565b005b6101666102fe565b6040516101739190611695565b60405180910390f35b61019660048036036101919190810190611346565b6103b9565b6040516101a391906115f8565b60405180910390f35b6101c660048036036101c191908101906111d5565b6106e5565b6040516101d3919061161a565b60405180910390f35b6101fa3386868686866040518060200160405280600081525061077e565b5050505050565b61020b3382610b7d565b50565b6000808373ffffffffffffffffffffffffffffffffffffffff166001600085815260200190815260200160002060009054906101000a900473ffffffffffffffffffffffffffffffffffffffff1673ffffffffffffffffffffffffffffffffffffffff161480156102845750610283836106e5565b5b90508091505092915050565b60008061029c836106e5565b9050600081156102dd576001600085815260200190815260200160002060009054906101000a900473ffffffffffffffffffffffffffffffffffffffff1690505b8092505050919050565b6102f63387878787878761077e565b505050505050565b600080600a6000803373ffffffffffffffffffffffffffffffffffffffff1673ffffffffffffffffffffffffffffffffffffffff168152602001908152602001600020600101805490508161034f57fe5b0490506000600a6000803373ffffffffffffffffffffffffffffffffffffffff1673ffffffffffffffffffffffffffffffffffffffff16815260200190815260200160002060010180549050816103a257fe5b0611156103b25780806001019150505b8091505090565b606080600a6040519080825280602002602001820160405280156103f757816020015b6103e4610f5f565b8152602001906001900390816103dc5790505b5090506000600a84600a0203905060606000803373ffffffffffffffffffffffffffffffffffffffff1673ffffffffffffffffffffffffffffffffffffffff16815260200190815260200160002060010180548060200260200160405190810160405280929190818152602001828054801561049257602002820191906000526020600020905b81548152602001906001019080831161047e575b505050505090506000815114806104ac5750600181510382115b156104bf576060809450505050506106e0565b60008090505b85600a028310156106d85781518310156106c3576000803373ffffffffffffffffffffffffffffffffffffffff1673ffffffffffffffffffffffffffffffffffffffff168152602001908152602001600020600001600083858151811061052857fe5b602002602001015181526020019081526020016000206040518060a0016040529081600082015481526020016001820154815260200160028201548152602001600382018054600181600116156101000203166002900480601f0160208091040260200160405190810160405280929190818152602001828054600181600116156101000203166002900480156106005780601f106105d557610100808354040283529160200191610600565b820191906000526020600020905b8154815290600101906020018083116105e357829003601f168201915b50505050508152602001600482018054600181600116156101000203166002900480601f0160208091040260200160405190810160405280929190818152602001828054600181600116156101000203166002900480156106a25780601f10610677576101008083540402835291602001916106a2565b820191906000526020600020905b81548152906001019060200180831161068557829003601f168201915b5050505050815250508482815181106106b757fe5b60200260200101819052505b808060010191505082806001019350506104c5565b839450505050505b919050565b600080426000806001600087815260200190815260200160002060009054906101000a900473ffffffffffffffffffffffffffffffffffffffff1673ffffffffffffffffffffffffffffffffffffffff1673ffffffffffffffffffffffffffffffffffffffff16815260200190815260200160002060000160008581526020019081526020016000206000015411905080915050919050565b600260009054906101000a900473ffffffffffffffffffffffffffffffffffffffff1673ffffffffffffffffffffffffffffffffffffffff1663700651aa8887876040518463ffffffff167c01000000000000000000000000000000000000000000000000000000000281526004016107f9939291906115c1565b60206040518083038186803b15801561081157600080fd5b505afa158015610825573d6000803e3d6000fd5b505050506040513d601f19601f8201168201806040525061084991908101906111ac565b610888576040517f08c379a000000000000000000000000000000000000000000000000000000000815260040161087f90611635565b60405180910390fd5b600073ffffffffffffffffffffffffffffffffffffffff166001600088815260200190815260200160002060009054906101000a900473ffffffffffffffffffffffffffffffffffffffff1673ffffffffffffffffffffffffffffffffffffffff16141580156108fe57506108fc866106e5565b155b15610941576109406001600088815260200190815260200160002060009054906101000a900473ffffffffffffffffffffffffffffffffffffffff1687610b7d565b5b600073ffffffffffffffffffffffffffffffffffffffff166001600088815260200190815260200160002060009054906101000a900473ffffffffffffffffffffffffffffffffffffffff1673ffffffffffffffffffffffffffffffffffffffff16146109e3576040517f08c379a00000000000000000000000000000000000000000000000000000000081526004016109da90611675565b60405180910390fd5b866001600088815260200190815260200160002060006101000a81548173ffffffffffffffffffffffffffffffffffffffff021916908373ffffffffffffffffffffffffffffffffffffffff1602179055506040518060a00160405280848152602001868152602001858152602001838152602001828152506000808973ffffffffffffffffffffffffffffffffffffffff1673ffffffffffffffffffffffffffffffffffffffff16815260200190815260200160002060000160008881526020019081526020016000206000820151816000015560208201518160010155604082015181600201556060820151816003019080519060200190610ae8929190610f8e565b506080820151816004019080519060200190610b05929190610f8e565b509050506000808873ffffffffffffffffffffffffffffffffffffffff1673ffffffffffffffffffffffffffffffffffffffff16815260200190815260200160002060010186908060018154018082558091505090600182039060005260206000200160009091929091909150555050505050505050565b8173ffffffffffffffffffffffffffffffffffffffff166001600083815260200190815260200160002060009054906101000a900473ffffffffffffffffffffffffffffffffffffffff1673ffffffffffffffffffffffffffffffffffffffff1614610c1e576040517f08c379a0000000000000000000000000000000000000000000000000000000008152600401610c1590611655565b60405180910390fd5b6001600082815260200190815260200160002060006101000a81549073ffffffffffffffffffffffffffffffffffffffff02191690556000808373ffffffffffffffffffffffffffffffffffffffff1673ffffffffffffffffffffffffffffffffffffffff168152602001908152602001600020600001600082815260200190815260200160002060008082016000905560018201600090556002820160009055600382016000610ccf919061100e565b600482016000610cdf919061100e565b5050600080905060008090505b60016000808673ffffffffffffffffffffffffffffffffffffffff1673ffffffffffffffffffffffffffffffffffffffff1681526020019081526020016000206001018054905003811015610e63578115610dfa576000808573ffffffffffffffffffffffffffffffffffffffff1673ffffffffffffffffffffffffffffffffffffffff1681526020019081526020016000206001016001820181548110610d9057fe5b90600052602060002001546000808673ffffffffffffffffffffffffffffffffffffffff1673ffffffffffffffffffffffffffffffffffffffff1681526020019081526020016000206001018281548110610de757fe5b9060005260206000200181905550610e56565b826000808673ffffffffffffffffffffffffffffffffffffffff1673ffffffffffffffffffffffffffffffffffffffff1681526020019081526020016000206001018281548110610e4757fe5b90600052602060002001541491505b8080600101915050610cec565b506000808473ffffffffffffffffffffffffffffffffffffffff1673ffffffffffffffffffffffffffffffffffffffff16815260200190815260200160002060010160016000808673ffffffffffffffffffffffffffffffffffffffff1673ffffffffffffffffffffffffffffffffffffffff168152602001908152602001600020600101805490500381548110610ef757fe5b90600052602060002001600090556000808473ffffffffffffffffffffffffffffffffffffffff1673ffffffffffffffffffffffffffffffffffffffff168152602001908152602001600020600101805480919060019003610f599190611056565b50505050565b6040518060a0016040528060008152602001600081526020016000815260200160608152602001606081525090565b828054600181600116156101000203166002900490600052602060002090601f016020900481019282601f10610fcf57805160ff1916838001178555610ffd565b82800160010185558215610ffd579182015b82811115610ffc578251825591602001919060010190610fe1565b5b50905061100a9190611082565b5090565b50805460018160011615610100020316600290046000825580601f106110345750611053565b601f0160209004906000526020600020908101906110529190611082565b5b50565b81548183558181111561107d5781836000526020600020918201910161107c91906110a7565b5b505050565b6110a491905b808211156110a0576000816000905550600101611088565b5090565b90565b6110c991905b808211156110c55760008160009055506001016110ad565b5090565b90565b60006110d882356117b4565b905092915050565b60006110ec82516117c6565b905092915050565b600061110082356117d2565b905092915050565b600082601f83011261111957600080fd5b813561112c611127826116dd565b6116b0565b9150808252602083016020830185838301111561114857600080fd5b611153838284611806565b50505092915050565b600061116882356117fc565b905092915050565b6000806040838503121561118357600080fd5b6000611191858286016110cc565b92505060206111a2858286016110f4565b9150509250929050565b6000602082840312156111be57600080fd5b60006111cc848285016110e0565b91505092915050565b6000602082840312156111e757600080fd5b60006111f5848285016110f4565b91505092915050565b600080600080600060a0868803121561121657600080fd5b6000611224888289016110f4565b95505060206112358882890161115c565b94505060406112468882890161115c565b93505060606112578882890161115c565b925050608086013567ffffffffffffffff81111561127457600080fd5b61128088828901611108565b9150509295509295909350565b60008060008060008060c087890312156112a657600080fd5b60006112b489828a016110f4565b96505060206112c589828a0161115c565b95505060406112d689828a0161115c565b94505060606112e789828a0161115c565b935050608087013567ffffffffffffffff81111561130457600080fd5b61131089828a01611108565b92505060a087013567ffffffffffffffff81111561132d57600080fd5b61133989828a01611108565b9150509295509295509295565b60006020828403121561135857600080fd5b60006113668482850161115c565b91505092915050565b600061137b838361150b565b905092915050565b61138c8161176c565b82525050565b600061139d82611716565b6113a78185611739565b9350836020820285016113b985611709565b60005b848110156113f25783830388526113d483835161136f565b92506113df8261172c565b91506020880197506001810190506113bc565b508196508694505050505092915050565b61140c8161177e565b82525050565b600061141d82611721565b611427818561174a565b9350611437818560208601611815565b61144081611848565b840191505092915050565b6000611458600b8361175b565b91507f6e6f7420616c6c6f7765640000000000000000000000000000000000000000006000830152602082019050919050565b6000611498600a8361175b565b91507f73616d65206f776e6572000000000000000000000000000000000000000000006000830152602082019050919050565b60006114d8600f8361175b565b91507f6475706c696361746564206861736800000000000000000000000000000000006000830152602082019050919050565b600060a0830160008301516115236000860182611588565b5060208301516115366020860182611588565b5060408301516115496040860182611588565b50606083015184820360608601526115618282611412565b9150506080830151848203608086015261157b8282611412565b9150508091505092915050565b611591816117aa565b82525050565b6115a0816117aa565b82525050565b60006020820190506115bb6000830184611383565b92915050565b60006060820190506115d66000830186611383565b6115e36020830185611597565b6115f06040830184611597565b949350505050565b600060208201905081810360008301526116128184611392565b905092915050565b600060208201905061162f6000830184611403565b92915050565b6000602082019050818103600083015261164e8161144b565b9050919050565b6000602082019050818103600083015261166e8161148b565b9050919050565b6000602082019050818103600083015261168e816114cb565b9050919050565b60006020820190506116aa6000830184611597565b92915050565b6000604051905081810181811067ffffffffffffffff821117156116d357600080fd5b8060405250919050565b600067ffffffffffffffff8211156116f457600080fd5b601f19601f8301169050602081019050919050565b6000602082019050919050565b600081519050919050565b600081519050919050565b6000602082019050919050565b600082825260208201905092915050565b600082825260208201905092915050565b600082825260208201905092915050565b60006117778261178a565b9050919050565b60008115159050919050565b600073ffffffffffffffffffffffffffffffffffffffff82169050919050565b6000819050919050565b60006117bf826117dc565b9050919050565b60008115159050919050565b6000819050919050565b600073ffffffffffffffffffffffffffffffffffffffff82169050919050565b6000819050919050565b82818337600083830152505050565b60005b83811015611833578082015181840152602081019050611818565b83811115611842576000848401525b50505050565b6000601f19601f830116905091905056fea265627a7a7230582012153dfbef879293e74f542b6fb3ccbe6cc74ff729aa91a00a3c5cb3a13780fa6c6578706572696d656e74616cf50037",
  "source": "pragma solidity ^0.5.2;\npragma experimental ABIEncoderV2;\n\nimport \"./Assets.sol\";\n\ncontract Devices {\n\n  struct UserDevices {   \n    mapping (bytes32 => Device) devices;\n    bytes32[] deviceArray;\n  } \n\n  struct Device {   \n    uint256 expirationDate;\n    uint256 assetId;\n    uint256 schemaId;\n    string dappId;\n    string description;\n  }\n\n  uint256 constant private PAGE_SIZE = 10;\n\n  mapping (address => UserDevices) private userDevices_;\n\n  mapping (bytes32 => address) private deviceHashes_;\n \n  Assets private _assets;\n  \n  constructor (address _assetsAddr) public{\n    _assets = Assets(_assetsAddr);    \n  }\n    \n  function isAllowed(bytes32 _deviceHash) public view returns (bool) {\n    bool allowed = userDevices_[deviceHashes_[_deviceHash]].devices[_deviceHash].expirationDate > now ;\n    return allowed;\n  }\n\n  function isAllowedForAddress(address _target, bytes32 _deviceHash) public view returns (bool) {\n    bool allowed =  (deviceHashes_[_deviceHash] == _target) && (isAllowed(_deviceHash));\n    return allowed;\n  }\n\n  function getAssetsPageCount() public view returns (uint256) {    \n    uint256 pages = userDevices_[msg.sender].deviceArray.length / PAGE_SIZE;\n    if ( (userDevices_[msg.sender].deviceArray.length % PAGE_SIZE)>0) {\n      pages++;\n    }\n    return pages;\n  }\n\n  function getDevices(uint256 _page) public view returns (Device[] memory) {\n    Device[] memory devicesPage = new Device[](PAGE_SIZE); \n    uint256 transferIndex = PAGE_SIZE * _page - PAGE_SIZE;\n    bytes32[] memory devices = userDevices_[msg.sender].deviceArray;\n\n    if (devices.length == 0 || transferIndex > devices.length - 1) {\n      Device[] memory empty;\n      return empty;\n    }\n   \n    uint256 returnCounter = 0;\n\n    for (transferIndex; transferIndex < PAGE_SIZE * _page; transferIndex++) {\n      if (transferIndex < devices.length) {\n        devicesPage[returnCounter] = userDevices_[msg.sender].devices[devices[transferIndex]];\n      }\n      returnCounter++;\n    }\n    return devicesPage;\n  }\n\n  function getAddress(bytes32 _deviceHash) public view returns (address) {\n    bool allowed = isAllowed(_deviceHash);\n    address ownerAddress;\n    if (allowed) {\n      ownerAddress = deviceHashes_[_deviceHash];\n    } \n    return ownerAddress;\n  }\n\n  function handshake(bytes32 _deviceHash, uint256 _assetId, uint256 _schemaId, uint256 _lifeTime, string memory _dappId) public {\n    _handshake(msg.sender, _deviceHash, _assetId, _schemaId, _lifeTime, _dappId, \"\");\n  }\n\n  function handshake(bytes32 _deviceHash, uint256 _assetId, uint256 _schemaId, uint256 _lifeTime, string memory _dappId, string memory _description) public {\n    _handshake(msg.sender, _deviceHash, _assetId, _schemaId, _lifeTime, _dappId, _description);\n  }\n\n  function removeDevice(bytes32 _deviceHash) public {\n    _removeDevice(msg.sender, _deviceHash);\n  }\n\n    \n  function _handshake(address _owner, bytes32 _deviceHash, uint256 _assetId, uint256 _schemaId, uint256 _lifeTime, string memory _dappId, string memory _description) internal {\n\n    require(_assets.checkOwnershipForAddress(_owner, _assetId, _schemaId),\"not allowed\");\n\n    if ((deviceHashes_[_deviceHash] != address(0)) && (!isAllowed(_deviceHash))) {\n      _removeDevice(deviceHashes_[_deviceHash], _deviceHash);\n    }\n\n    require(deviceHashes_[_deviceHash] == address(0), \"duplicated hash\");\n    deviceHashes_[_deviceHash] = _owner; \n    userDevices_[_owner].devices[_deviceHash] =  Device(_lifeTime, _assetId, _schemaId, _dappId, _description);\n    userDevices_[_owner].deviceArray.push(_deviceHash);\n  }\n\n  function _removeDevice(address _owner, bytes32 _deviceHash) internal {\n    require(deviceHashes_[_deviceHash] == _owner, \"same owner\");\n    delete deviceHashes_[_deviceHash];\n    delete userDevices_[_owner].devices[_deviceHash];\n    bool found=false;\n    for (uint i = 0; i < userDevices_[_owner].deviceArray.length-1;i++){\n      if(found){\n        userDevices_[_owner].deviceArray[i] = userDevices_[_owner].deviceArray[i+1];\n      } else {\n        found = userDevices_[_owner].deviceArray[i] == _deviceHash;\n      }\n    }\n    delete userDevices_[_owner].deviceArray[userDevices_[_owner].deviceArray.length-1];\n    userDevices_[_owner].deviceArray.length--;\n  }\n\n}",
  "sourcePath": "/home/jordi/ws/jordiescudero/bloomen-wallet/bloomen-wallet-truffle/contracts/bloomen/Devices.sol",
  "compiler": {
    "name": "solc",
    "version": "0.5.7+commit.6da8b019.Emscripten.clang"
  },
  "schemaVersion": "3.0.6",
  "updatedAt": "2019-04-24T09:23:22.440Z",
  "devdoc": {
    "methods": {}
  },
  "userdoc": {
    "methods": {}
  }
}