{
  "contractName": "Devices",
  "abi": [
    {
      "constant": true,
      "inputs": [
        {
          "name": "_assetId",
          "type": "uint256"
        },
        {
          "name": "_schemaId",
          "type": "uint256"
        }
      ],
      "name": "checkOwnership",
      "outputs": [
        {
          "name": "",
          "type": "bool"
        }
      ],
      "payable": false,
      "stateMutability": "view",
      "type": "function"
    },
    {
      "constant": true,
      "inputs": [],
      "name": "name",
      "outputs": [
        {
          "name": "",
          "type": "string"
        }
      ],
      "payable": false,
      "stateMutability": "view",
      "type": "function"
    },
    {
      "constant": false,
      "inputs": [
        {
          "name": "_assetId",
          "type": "uint256"
        },
        {
          "name": "_schemaId",
          "type": "uint256"
        },
        {
          "name": "_amount",
          "type": "uint256"
        },
        {
          "name": "_dappId",
          "type": "string"
        },
        {
          "name": "_description",
          "type": "string"
        }
      ],
      "name": "buy",
      "outputs": [],
      "payable": false,
      "stateMutability": "nonpayable",
      "type": "function"
    },
    {
      "constant": false,
      "inputs": [
        {
          "name": "_to",
          "type": "address"
        },
        {
          "name": "_value",
          "type": "uint256"
        },
        {
          "name": "_data",
          "type": "uint256"
        }
      ],
      "name": "transfer",
      "outputs": [],
      "payable": false,
      "stateMutability": "nonpayable",
      "type": "function"
    },
    {
      "constant": false,
      "inputs": [
        {
          "name": "spender",
          "type": "address"
        },
        {
          "name": "value",
          "type": "uint256"
        }
      ],
      "name": "approve",
      "outputs": [
        {
          "name": "",
          "type": "bool"
        }
      ],
      "payable": false,
      "stateMutability": "nonpayable",
      "type": "function"
    },
    {
      "constant": true,
      "inputs": [
        {
          "name": "_page",
          "type": "int256"
        }
      ],
      "name": "getMovements",
      "outputs": [
        {
          "components": [
            {
              "name": "amount",
              "type": "int256"
            },
            {
              "name": "description",
              "type": "string"
            },
            {
              "name": "date",
              "type": "uint256"
            },
            {
              "name": "to",
              "type": "address"
            }
          ],
          "name": "",
          "type": "tuple[]"
        }
      ],
      "payable": false,
      "stateMutability": "view",
      "type": "function"
    },
    {
      "constant": true,
      "inputs": [],
      "name": "totalSupply",
      "outputs": [
        {
          "name": "",
          "type": "uint256"
        }
      ],
      "payable": false,
      "stateMutability": "view",
      "type": "function"
    },
    {
      "constant": true,
      "inputs": [
        {
          "name": "theNumber",
          "type": "uint256"
        },
        {
          "name": "percentage",
          "type": "uint256"
        }
      ],
      "name": "calculatePercentage",
      "outputs": [
        {
          "name": "",
          "type": "uint256"
        }
      ],
      "payable": false,
      "stateMutability": "view",
      "type": "function"
    },
    {
      "constant": false,
      "inputs": [
        {
          "name": "from",
          "type": "address"
        },
        {
          "name": "to",
          "type": "address"
        },
        {
          "name": "value",
          "type": "uint256"
        }
      ],
      "name": "transferFrom",
      "outputs": [
        {
          "name": "",
          "type": "bool"
        }
      ],
      "payable": false,
      "stateMutability": "nonpayable",
      "type": "function"
    },
    {
      "constant": true,
      "inputs": [
        {
          "name": "_schemaId",
          "type": "uint256"
        }
      ],
      "name": "getSchema",
      "outputs": [
        {
          "components": [
            {
              "name": "expirationDate",
              "type": "uint256"
            },
            {
              "name": "schemaId",
              "type": "uint256"
            },
            {
              "name": "amount",
              "type": "uint256"
            },
            {
              "name": "assetLifeTime",
              "type": "uint256"
            },
            {
              "components": [
                {
                  "name": "percent",
                  "type": "uint256"
                },
                {
                  "name": "receptor",
                  "type": "address"
                },
                {
                  "name": "description",
                  "type": "string"
                }
              ],
              "name": "clearingHouseRules",
              "type": "tuple[]"
            },
            {
              "name": "valid",
              "type": "bool"
            }
          ],
          "name": "",
          "type": "tuple"
        }
      ],
      "payable": false,
      "stateMutability": "view",
      "type": "function"
    },
    {
      "constant": true,
      "inputs": [],
      "name": "decimals",
      "outputs": [
        {
          "name": "",
          "type": "uint8"
        }
      ],
      "payable": false,
      "stateMutability": "view",
      "type": "function"
    },
    {
      "constant": false,
      "inputs": [
        {
          "name": "spender",
          "type": "address"
        },
        {
          "name": "addedValue",
          "type": "uint256"
        }
      ],
      "name": "increaseAllowance",
      "outputs": [
        {
          "name": "",
          "type": "bool"
        }
      ],
      "payable": false,
      "stateMutability": "nonpayable",
      "type": "function"
    },
    {
      "constant": false,
      "inputs": [
        {
          "name": "_schemaId",
          "type": "uint256"
        }
      ],
      "name": "validateSchema",
      "outputs": [],
      "payable": false,
      "stateMutability": "nonpayable",
      "type": "function"
    },
    {
      "constant": false,
      "inputs": [
        {
          "name": "to",
          "type": "address"
        },
        {
          "name": "value",
          "type": "uint256"
        }
      ],
      "name": "mint",
      "outputs": [
        {
          "name": "",
          "type": "bool"
        }
      ],
      "payable": false,
      "stateMutability": "nonpayable",
      "type": "function"
    },
    {
      "constant": false,
      "inputs": [
        {
          "name": "value",
          "type": "uint256"
        }
      ],
      "name": "burn",
      "outputs": [],
      "payable": false,
      "stateMutability": "nonpayable",
      "type": "function"
    },
    {
      "constant": true,
      "inputs": [],
      "name": "getAssetsPageCount",
      "outputs": [
        {
          "name": "",
          "type": "uint256"
        }
      ],
      "payable": false,
      "stateMutability": "view",
      "type": "function"
    },
    {
      "constant": false,
      "inputs": [
        {
          "name": "_from",
          "type": "address"
        },
        {
          "name": "_value",
          "type": "uint256"
        },
        {
          "name": "_schemaId",
          "type": "uint256"
        }
      ],
      "name": "tokenFallback",
      "outputs": [],
      "payable": false,
      "stateMutability": "nonpayable",
      "type": "function"
    },
    {
      "constant": false,
      "inputs": [
        {
          "name": "_schemaId",
          "type": "uint256"
        }
      ],
      "name": "invalidateSchema",
      "outputs": [],
      "payable": false,
      "stateMutability": "nonpayable",
      "type": "function"
    },
    {
      "constant": true,
      "inputs": [
        {
          "name": "_target",
          "type": "address"
        },
        {
          "name": "_assetId",
          "type": "uint256"
        },
        {
          "name": "_schemaId",
          "type": "uint256"
        }
      ],
      "name": "checkOwnershipForAddress",
      "outputs": [
        {
          "name": "",
          "type": "bool"
        }
      ],
      "payable": false,
      "stateMutability": "view",
      "type": "function"
    },
    {
      "constant": true,
      "inputs": [
        {
          "name": "owner",
          "type": "address"
        }
      ],
      "name": "balanceOf",
      "outputs": [
        {
          "name": "",
          "type": "uint256"
        }
      ],
      "payable": false,
      "stateMutability": "view",
      "type": "function"
    },
    {
      "constant": false,
      "inputs": [],
      "name": "renounceOwnership",
      "outputs": [],
      "payable": false,
      "stateMutability": "nonpayable",
      "type": "function"
    },
    {
      "constant": false,
      "inputs": [
        {
          "name": "from",
          "type": "address"
        },
        {
          "name": "value",
          "type": "uint256"
        }
      ],
      "name": "burnFrom",
      "outputs": [],
      "payable": false,
      "stateMutability": "nonpayable",
      "type": "function"
    },
    {
      "constant": false,
      "inputs": [
        {
          "name": "_assetId",
          "type": "uint256"
        },
        {
          "name": "_schemaId",
          "type": "uint256"
        },
        {
          "name": "_amount",
          "type": "uint256"
        },
        {
          "name": "_dappId",
          "type": "string"
        }
      ],
      "name": "buy",
      "outputs": [],
      "payable": false,
      "stateMutability": "nonpayable",
      "type": "function"
    },
    {
      "constant": false,
      "inputs": [
        {
          "name": "_amount",
          "type": "int256"
        },
        {
          "name": "_description",
          "type": "string"
        },
        {
          "name": "_to",
          "type": "address"
        }
      ],
      "name": "addMovement",
      "outputs": [],
      "payable": false,
      "stateMutability": "nonpayable",
      "type": "function"
    },
    {
      "constant": true,
      "inputs": [],
      "name": "owner",
      "outputs": [
        {
          "name": "",
          "type": "address"
        }
      ],
      "payable": false,
      "stateMutability": "view",
      "type": "function"
    },
    {
      "constant": true,
      "inputs": [],
      "name": "isOwner",
      "outputs": [
        {
          "name": "",
          "type": "bool"
        }
      ],
      "payable": false,
      "stateMutability": "view",
      "type": "function"
    },
    {
      "constant": true,
      "inputs": [],
      "name": "getSchemas",
      "outputs": [
        {
          "name": "",
          "type": "uint256[]"
        }
      ],
      "payable": false,
      "stateMutability": "view",
      "type": "function"
    },
    {
      "constant": true,
      "inputs": [],
      "name": "symbol",
      "outputs": [
        {
          "name": "",
          "type": "string"
        }
      ],
      "payable": false,
      "stateMutability": "view",
      "type": "function"
    },
    {
      "constant": false,
      "inputs": [
        {
          "name": "account",
          "type": "address"
        }
      ],
      "name": "addMinter",
      "outputs": [],
      "payable": false,
      "stateMutability": "nonpayable",
      "type": "function"
    },
    {
      "constant": false,
      "inputs": [],
      "name": "renounceMinter",
      "outputs": [],
      "payable": false,
      "stateMutability": "nonpayable",
      "type": "function"
    },
    {
      "constant": false,
      "inputs": [
        {
          "name": "_schemaId",
          "type": "uint256"
        },
        {
          "name": "_data",
          "type": "bytes"
        }
      ],
      "name": "createSchema",
      "outputs": [],
      "payable": false,
      "stateMutability": "nonpayable",
      "type": "function"
    },
    {
      "constant": false,
      "inputs": [
        {
          "name": "spender",
          "type": "address"
        },
        {
          "name": "subtractedValue",
          "type": "uint256"
        }
      ],
      "name": "decreaseAllowance",
      "outputs": [
        {
          "name": "",
          "type": "bool"
        }
      ],
      "payable": false,
      "stateMutability": "nonpayable",
      "type": "function"
    },
    {
      "constant": false,
      "inputs": [
        {
          "name": "_to",
          "type": "address"
        },
        {
          "name": "_value",
          "type": "uint256"
        }
      ],
      "name": "transfer",
      "outputs": [
        {
          "name": "",
          "type": "bool"
        }
      ],
      "payable": false,
      "stateMutability": "nonpayable",
      "type": "function"
    },
    {
      "constant": true,
      "inputs": [
        {
          "name": "account",
          "type": "address"
        }
      ],
      "name": "isMinter",
      "outputs": [
        {
          "name": "",
          "type": "bool"
        }
      ],
      "payable": false,
      "stateMutability": "view",
      "type": "function"
    },
    {
      "constant": true,
      "inputs": [
        {
          "name": "_page",
          "type": "uint256"
        }
      ],
      "name": "getAssets",
      "outputs": [
        {
          "components": [
            {
              "name": "expirationDate",
              "type": "uint256"
            },
            {
              "name": "assetId",
              "type": "uint256"
            },
            {
              "name": "schemaId",
              "type": "uint256"
            },
            {
              "name": "dappId",
              "type": "string"
            },
            {
              "name": "description",
              "type": "string"
            }
          ],
          "name": "",
          "type": "tuple[]"
        }
      ],
      "payable": false,
      "stateMutability": "view",
      "type": "function"
    },
    {
      "constant": true,
      "inputs": [
        {
          "name": "owner",
          "type": "address"
        },
        {
          "name": "spender",
          "type": "address"
        }
      ],
      "name": "allowance",
      "outputs": [
        {
          "name": "",
          "type": "uint256"
        }
      ],
      "payable": false,
      "stateMutability": "view",
      "type": "function"
    },
    {
      "constant": false,
      "inputs": [
        {
          "name": "newOwner",
          "type": "address"
        }
      ],
      "name": "transferOwnership",
      "outputs": [],
      "payable": false,
      "stateMutability": "nonpayable",
      "type": "function"
    },
    {
      "anonymous": false,
      "inputs": [
        {
          "indexed": true,
          "name": "account",
          "type": "address"
        }
      ],
      "name": "MinterAdded",
      "type": "event"
    },
    {
      "anonymous": false,
      "inputs": [
        {
          "indexed": true,
          "name": "account",
          "type": "address"
        }
      ],
      "name": "MinterRemoved",
      "type": "event"
    },
    {
      "anonymous": false,
      "inputs": [
        {
          "indexed": true,
          "name": "from",
          "type": "address"
        },
        {
          "indexed": true,
          "name": "to",
          "type": "address"
        },
        {
          "indexed": false,
          "name": "value",
          "type": "uint256"
        }
      ],
      "name": "Transfer",
      "type": "event"
    },
    {
      "anonymous": false,
      "inputs": [
        {
          "indexed": true,
          "name": "owner",
          "type": "address"
        },
        {
          "indexed": true,
          "name": "spender",
          "type": "address"
        },
        {
          "indexed": false,
          "name": "value",
          "type": "uint256"
        }
      ],
      "name": "Approval",
      "type": "event"
    },
    {
      "anonymous": false,
      "inputs": [
        {
          "indexed": true,
          "name": "previousOwner",
          "type": "address"
        },
        {
          "indexed": true,
          "name": "newOwner",
          "type": "address"
        }
      ],
      "name": "OwnershipTransferred",
      "type": "event"
    },
    {
      "constant": true,
      "inputs": [
        {
          "name": "_deviceHash",
          "type": "bytes32"
        }
      ],
      "name": "isAllowed",
      "outputs": [
        {
          "name": "",
          "type": "bool"
        }
      ],
      "payable": false,
      "stateMutability": "view",
      "type": "function"
    },
    {
      "constant": true,
      "inputs": [
        {
          "name": "_target",
          "type": "address"
        },
        {
          "name": "_deviceHash",
          "type": "bytes32"
        }
      ],
      "name": "isAllowedForAddress",
      "outputs": [
        {
          "name": "",
          "type": "bool"
        }
      ],
      "payable": false,
      "stateMutability": "view",
      "type": "function"
    },
    {
      "constant": true,
      "inputs": [],
      "name": "getDevicesPageCount",
      "outputs": [
        {
          "name": "",
          "type": "uint256"
        }
      ],
      "payable": false,
      "stateMutability": "view",
      "type": "function"
    },
    {
      "constant": true,
      "inputs": [
        {
          "name": "_page",
          "type": "uint256"
        }
      ],
      "name": "getDevices",
      "outputs": [
        {
          "components": [
            {
              "name": "expirationDate",
              "type": "uint256"
            },
            {
              "name": "assetId",
              "type": "uint256"
            },
            {
              "name": "schemaId",
              "type": "uint256"
            },
            {
              "name": "dappId",
              "type": "string"
            },
            {
              "name": "description",
              "type": "string"
            }
          ],
          "name": "",
          "type": "tuple[]"
        }
      ],
      "payable": false,
      "stateMutability": "view",
      "type": "function"
    },
    {
      "constant": true,
      "inputs": [
        {
          "name": "_deviceHash",
          "type": "bytes32"
        }
      ],
      "name": "getAddress",
      "outputs": [
        {
          "name": "",
          "type": "address"
        }
      ],
      "payable": false,
      "stateMutability": "view",
      "type": "function"
    },
    {
      "constant": false,
      "inputs": [
        {
          "name": "_deviceHash",
          "type": "bytes32"
        },
        {
          "name": "_assetId",
          "type": "uint256"
        },
        {
          "name": "_schemaId",
          "type": "uint256"
        },
        {
          "name": "_lifeTime",
          "type": "uint256"
        },
        {
          "name": "_dappId",
          "type": "string"
        }
      ],
      "name": "handshake",
      "outputs": [],
      "payable": false,
      "stateMutability": "nonpayable",
      "type": "function"
    },
    {
      "constant": false,
      "inputs": [
        {
          "name": "_deviceHash",
          "type": "bytes32"
        },
        {
          "name": "_assetId",
          "type": "uint256"
        },
        {
          "name": "_schemaId",
          "type": "uint256"
        },
        {
          "name": "_lifeTime",
          "type": "uint256"
        },
        {
          "name": "_dappId",
          "type": "string"
        },
        {
          "name": "_description",
          "type": "string"
        }
      ],
      "name": "handshake",
      "outputs": [],
      "payable": false,
      "stateMutability": "nonpayable",
      "type": "function"
    },
    {
      "constant": false,
      "inputs": [
        {
          "name": "_deviceHash",
          "type": "bytes32"
        }
      ],
      "name": "removeDevice",
      "outputs": [],
      "payable": false,
      "stateMutability": "nonpayable",
      "type": "function"
    }
  ],
  "bytecode": "0x600b60809081527f426c6f6f6d656e436f696e00000000000000000000000000000000000000000060a0526101006040819052600360c09081527f424c4f000000000000000000000000000000000000000000000000000000000060e05260008054600160a060020a03191633178082559192600292859285928592600160a060020a031691907f8be0079c531659141344cd1fd0a4f28419497f9722a3daafe3b4186f6b6457e0908290a38251620000c0906006906020860190620001f0565b508151620000d6906007906020850190620001f0565b506008805460ff191660ff9290921691909117905550620001029050336401000000006200010b810204565b50505062000295565b6200012660098264010000000062002bca6200015d82021704565b604051600160a060020a038216907f6ae172837ea30b801fbfcdd4108aa1d5bf8ff775444fd70256b44e6bf3dfc3f690600090a250565b600160a060020a03811615156200017357600080fd5b620001888282640100000000620001b8810204565b156200019357600080fd5b600160a060020a0316600090815260209190915260409020805460ff19166001179055565b6000600160a060020a0382161515620001d057600080fd5b50600160a060020a03166000908152602091909152604090205460ff1690565b828054600181600116156101000203166002900490600052602060002090601f016020900481019282601f106200023357805160ff191683800117855562000263565b8280016001018555821562000263579182015b828111156200026357825182559160200191906001019062000246565b506200027192915062000275565b5090565b6200029291905b808211156200027157600081556001016200027c565b90565b613fe080620002a56000396000f3006080604052600436106102245763ffffffff7c010000000000000000000000000000000000000000000000000000000060003504166304edae0f811461022957806306fdde031461025f578063080e688714610281578063095bcdb6146102a3578063095ea7b3146102c3578063132c6aa4146102e357806317b1b4981461030357806318160ddd146103305780631d266200146103525780631d841899146103725780632133e3b91461039257806321f8a721146103b257806323b872dd146103df5780632b26fb29146103ff578063313ce5671461042c578063395093511461044e5780634014d4681461046e57806340c10f191461048e57806342966c68146104ae57806342b4bed4146104ce5780634aa3bfeb146104ee5780634f4ee353146105035780635a16f5c4146105235780636d9db7ed14610543578063700651aa1461057057806370a0823114610590578063715018a6146105b057806378755295146105c557806379cc6790146105e55780637de3b0ed1461060557806386b00ad5146106255780638da5cb5b146106455780638f32d59b1461065a57806395ba8d181461066f57806395d89b4114610691578063983b2d56146106a657806398650275146106c6578063a2086dab146106db578063a457c2d7146106fb578063a9059cbb1461071b578063aa271e1a1461073b578063c8c2eb661461075b578063d921216414610770578063dd62ed3e1461079d578063f2fde38b146107bd575b600080fd5b34801561023557600080fd5b506102496102443660046135a9565b6107dd565b6040516102569190613da8565b60405180910390f35b34801561026b57600080fd5b506102746107f3565b6040516102569190613db6565b34801561028d57600080fd5b506102a161029c366004613641565b61088a565b005b3480156102af57600080fd5b506102a16102be366004613372565b61089f565b3480156102cf57600080fd5b506102496102de366004613342565b6108bb565b3480156102ef57600080fd5b506102a16102fe3660046133c2565b61093d565b34801561030f57600080fd5b5061032361031e3660046133a4565b61095c565b6040516102569190613d86565b34801561033c57600080fd5b50610345610bad565b6040516102569190613eb8565b34801561035e57600080fd5b506102a161036d3660046133a4565b610bb3565b34801561037e57600080fd5b5061024961038d366004613342565b610bc0565b34801561039e57600080fd5b506103456103ad3660046135a9565b610bf7565b3480156103be57600080fd5b506103d26103cd3660046133a4565b610bff565b6040516102569190613d2e565b3480156103eb57600080fd5b506102496103fa3660046132f5565b610c3a565b34801561040b57600080fd5b5061041f61041a3660046133a4565b610cd7565b6040516102569190613ea7565b34801561043857600080fd5b50610441610e6d565b6040516102569190613ec6565b34801561045a57600080fd5b50610249610469366004613342565b610e76565b34801561047a57600080fd5b506102a16104893660046133a4565b610f19565b34801561049a57600080fd5b506102496104a9366004613342565b610f37565b3480156104ba57600080fd5b506102a16104c93660046133a4565b610f60565b3480156104da57600080fd5b506102a16104e936600461344f565b610f6a565b3480156104fa57600080fd5b50610345610f81565b34801561050f57600080fd5b506102a161051e366004613372565b610f9b565b34801561052f57600080fd5b506102a161053e3660046133a4565b611067565b34801561054f57600080fd5b5061056361055e3660046133a4565b611085565b6040516102569190613d75565b34801561057c57600080fd5b5061024961058b366004613372565b61131c565b34801561059c57600080fd5b506103456105ab36600461329d565b611329565b3480156105bc57600080fd5b506102a1611344565b3480156105d157600080fd5b506102496105e03660046133a4565b6113a1565b3480156105f157600080fd5b506102a1610600366004613342565b6113d8565b34801561061157600080fd5b506102a16106203660046135c8565b6113e6565b34801561063157600080fd5b506102a1610640366004613506565b61140a565b34801561065157600080fd5b506103d2611416565b34801561066657600080fd5b50610249611425565b34801561067b57600080fd5b50610684611436565b6040516102569190613d97565b34801561069d57600080fd5b5061027461148d565b3480156106b257600080fd5b506102a16106c136600461329d565b6114ee565b3480156106d257600080fd5b506102a161150b565b3480156106e757600080fd5b506102a16106f6366004613561565b611516565b34801561070757600080fd5b50610249610716366004613342565b611533565b34801561072757600080fd5b50610249610736366004613342565b61157e565b34801561074757600080fd5b5061024961075636600461329d565b611598565b34801561076757600080fd5b506103456115ab565b34801561077c57600080fd5b5061079061078b3660046133a4565b6115c6565b6040516102569190613d64565b3480156107a957600080fd5b506103456107b83660046132bb565b611840565b3480156107c957600080fd5b506102a16107d836600461329d565b61186b565b60006107ea338484611887565b90505b92915050565b60068054604080516020601f600260001961010060018816150201909516949094049384018190048102820181019092528281526060939092909183018282801561087f5780601f106108545761010080835404028352916020019161087f565b820191906000526020600020905b81548152906001019060200180831161086257829003601f168201915b505050505090505b90565b610898338686868686611a94565b5050505050565b6108aa338484611bc0565b6108b633848484611c51565b505050565b6000600160a060020a03831615156108d257600080fd5b336000818152600460209081526040808320600160a060020a03881680855292529182902085905590519091907f8c5be1e5ebec7d5bd14f71427d1e84f3dd0314c0f7b2291e5b200ac8c7c3b9259061092c908690613eb8565b60405180910390a350600192915050565b6108983386868686866020604051908101604052806000815250611d20565b606060006060806000806000871380156109775750600a8713155b15156109a15760405160e560020a62461bcd02815260040161099890613dc7565b60405180910390fd5b336000908152600a6020818152604080842080548251818502810185019093528083526000198d019094029950909390929184015b82821015610ad857838290600052602060002090600402016080604051908101604052908160008201548152602001600182018054600181600116156101000203166002900480601f016020809104026020016040519081016040528092919081815260200182805460018160011615610100020316600290048015610a9d5780601f10610a7257610100808354040283529160200191610a9d565b820191906000526020600020905b815481529060010190602001808311610a8057829003601f168201915b50505091835250506002820154602080830191909152600390920154600160a060020a031660409091015290825260019290920191016109d6565b505050509350848451111515610aed57610ba3565b60408051600a808252610160820190925290816020015b610b0c61307f565b815260200190600190039081610b04579050509250600091505b600a821215610b9f5750336000908152600b602052604081205485900382900390811215610b6457606484511015610b6057829550610ba3565b6064015b8381815181101515610b7257fe5b906020019060200201518383815181101515610b8a57fe5b60209081029091010152600190910190610b26565b8295505b5050505050919050565b60055490565b610bbd3382611ebc565b50565b6000818152600e60205260408120548190600160a060020a038581169116148015610bef5750610bef836113a1565b949350505050565b606491020490565b6000806000610c0d846113a1565b91508115610c2f57506000838152600e6020526040902054600160a060020a03165b8092505b5050919050565b600160a060020a0383166000908152600460209081526040808320338452909152812054821115610c6a57600080fd5b600160a060020a0384166000908152600460209081526040808320338452909152902054610c9e908363ffffffff6120ae16565b600160a060020a0385166000908152600460209081526040808320338452909152902055610ccd848484611bc0565b5060019392505050565b610cdf6130b1565b60008281526001602081905260408220015411610d115760405160e560020a62461bcd02815260040161099890613df7565b6000828152600160208181526040808420815160c081018352815481529381015484840152600281015484830152600381015460608501526004810180548351818602810186019094528084529495919460808701949192909184015b82821015610e4e576000848152602090819020604080516060810182526003860290920180548352600180820154600160a060020a0316848601526002808301805485516101009482161594909402600019011691909104601f8101879004870283018701855280835294959294938601939192909190830182828015610e365780601f10610e0b57610100808354040283529160200191610e36565b820191906000526020600020905b815481529060010190602001808311610e1957829003601f168201915b50505050508152505081526020019060010190610d6e565b505050908252506005919091015460ff16151560209091015292915050565b60085460ff1690565b6000600160a060020a0383161515610e8d57600080fd5b336000908152600460209081526040808320600160a060020a0387168452909152902054610ec1908363ffffffff6120c516565b336000818152600460209081526040808320600160a060020a038916808552925291829020849055905190927f8c5be1e5ebec7d5bd14f71427d1e84f3dd0314c0f7b2291e5b200ac8c7c3b9259161092c9190613eb8565b610f21611425565b1515610f2c57600080fd5b610bbd8160016120de565b6000610f4233611598565b1515610f4d57600080fd5b610f578383612170565b50600192915050565b610bbd338261220d565b610f7933878787878787611d20565b505050505050565b336000908152600c6020526040812054600a905b04905090565b610fa36130b1565b6000806000610fb185610cd7565b9350859250600091505b60018460800151510382101561102e57610ff186856080015184815181101515610fe157fe5b6020908102909101015151610bf7565b905061101e84608001518381518110151561100857fe5b906020019060200201516020015182600061089f565b9182900391600190910190610fbb565b6080840151805161105e9190600019810190811061104857fe5b906020019060200201516020015184600061089f565b50505050505050565b61106f611425565b151561107a57600080fd5b610bbd8160006120de565b60408051600a8082526101608201909252606091829160009183918391816020015b6110af6130ea565b8152602001906001900390816110a7575050336000908152600d60209081526040918290206001018054835181840281018401909452808452939750600a8a0260091901965091929083018282801561112857602002820191906000526020600020905b81548152600190910190602001808311611113575b505050505091508151600014806111425750600182510383115b1561114c57611313565b5060005b85600a0283101561130f57815183101561130357336000908152600d60205260408120835190919084908690811061118457fe5b6020908102919091018101518252818101929092526040908101600020815160a08101835281548152600180830154828601526002808401548386015260038401805486516000199482161561010002949094011691909104601f810187900487028301870190955284825291949293606086019391929183018282801561124d5780601f106112225761010080835404028352916020019161124d565b820191906000526020600020905b81548152906001019060200180831161123057829003601f168201915b505050918352505060048201805460408051602060026001851615610100026000190190941693909304601f81018490048402820184019092528181529382019392918301828280156112e15780601f106112b6576101008083540402835291602001916112e1565b820191906000526020600020905b8154815290600101906020018083116112c457829003601f168201915b50505050508152505084828151811015156112f857fe5b602090810290910101525b60019283019201611150565b8394505b50505050919050565b6000610bef848484611887565b600160a060020a031660009081526003602052604090205490565b61134c611425565b151561135757600080fd5b60008054604051600160a060020a03909116907f8be0079c531659141344cd1fd0a4f28419497f9722a3daafe3b4186f6b6457e0908390a360008054600160a060020a0319169055565b6000818152600e6020908152604080832054600160a060020a03168352600d82528083208484529091529020544210805b50919050565b6113e282826122c0565b5050565b61140433858585856020604051908101604052806000815250611a94565b50505050565b6108b683833384612352565b600054600160a060020a031690565b600054600160a060020a0316331490565b6060600280548060200260200160405190810160405280929190818152602001828054801561087f57602002820191906000526020600020905b815481526020019060010190808311611470575050505050905090565b60078054604080516020601f600260001961010060018816150201909516949094049384018190048102820181019092528281526060939092909183018282801561087f5780601f106108545761010080835404028352916020019161087f565b6114f733611598565b151561150257600080fd5b610bbd816125e8565b61151433612630565b565b61151e611425565b151561152957600080fd5b6113e28282612678565b6000600160a060020a038316151561154a57600080fd5b336000908152600460209081526040808320600160a060020a0387168452909152902054610ec1908363ffffffff6120ae16565b600061158b338484611bc0565b610f573384846000611c51565b60006107ed60098363ffffffff612a3616565b336000908152600d6020526040812060010154600a90610f95565b336000908152600c602090815260408083208054825181850281018501909352808352606094600919600a88020194869485949293909291849084015b8282101561178a578382906000526020600020906005020160a06040519081016040529081600082015481526020016001820154815260200160028201548152602001600382018054600181600116156101000203166002900480601f0160208091040260200160405190810160405280929190818152602001828054600181600116156101000203166002900480156116de5780601f106116b3576101008083540402835291602001916116de565b820191906000526020600020905b8154815290600101906020018083116116c157829003601f168201915b505050918352505060048201805460408051602060026001851615610100026000190190941693909304601f81018490048402820184019092528181529382019392918301828280156117725780601f1061174757610100808354040283529160200191611772565b820191906000526020600020905b81548152906001019060200180831161175557829003601f168201915b50505050508152505081526020019060010190611603565b5050505092508251600014806117a35750600183510384115b156117ad57611313565b60408051600a808252610160820190925290816020015b6117cc6130ea565b8152602001906001900390816117c4579050509150600090505b85600a0284101561183757825184101561182b57828481518110151561180857fe5b90602001906020020151828281518110151561182057fe5b602090810290910101525b600193840193016117e6565b50949350505050565b600160a060020a03918216600090815260046020908152604080832093909416825291909152205490565b611873611425565b151561187e57600080fd5b610bbd81612a6d565b6000806118926130ea565b600091505b600160a060020a0386166000908152600c6020526040902054821015611a8657600160a060020a0386166000908152600c602052604090208054839081106118db57fe5b906000526020600020906005020160a06040519081016040529081600082015481526020016001820154815260200160028201548152602001600382018054600181600116156101000203166002900480601f0160208091040260200160405190810160405280929190818152602001828054600181600116156101000203166002900480156119ac5780601f10611981576101008083540402835291602001916119ac565b820191906000526020600020905b81548152906001019060200180831161198f57829003601f168201915b505050918352505060048201805460408051602060026001851615610100026000190190941693909304601f8101849004840282018401909252818152938201939291830182828015611a405780601f10611a1557610100808354040283529160200191611a40565b820191906000526020600020905b815481529060010190602001808311611a2357829003601f168201915b5050505050815250509050848160200151148015611a615750838160400151145b8015611a6d5750805142105b15611a7b5760019250611a8b565b600190910190611897565b600092505b50509392505050565b611a9c6130b1565b611aa585610cd7565b60408101519091508414611ace5760405160e560020a62461bcd02815260040161099890613e57565b611ad9878787611887565b15611af95760405160e560020a62461bcd02815260040161099890613e77565b6000841115611b0d57611b0d30858761089f565b600160a060020a0387166000908152600c60209081526040808320815160a081018352606080870151420182528185018c81529382018b8152908201898152608083018990528354600181810180875595895297879020845160059092020190815594519685019690965551600284015593518051919493611b979260038501929091019061311a565b5060808201518051611bb391600484019160209091019061311a565b5050505050505050505050565b611c0581600019026040805190810160405280600481526020017f73656e64000000000000000000000000000000000000000000000000000000008152508585612352565b611c46816040805190810160405280600781526020017f72656365697665000000000000000000000000000000000000000000000000008152508486612352565b6108b6838383612add565b6000611c5c84612bc2565b15611ce057506040517f4f4ee3530000000000000000000000000000000000000000000000000000000081528390600160a060020a03821690634f4ee35390611cad90889087908790600401613d3c565b600060405180830381600087803b158015611cc757600080fd5b505af1158015611cdb573d6000803e3d6000fd5b505050505b83600160a060020a031685600160a060020a0316600080516020613f8783398151915285604051611d119190613eb8565b60405180910390a35050505050565b611d2b878686611887565b1515611d4c5760405160e560020a62461bcd02815260040161099890613e07565b6000868152600e6020526040902054600160a060020a031615801590611d785750611d76866113a1565b155b15611d9f576000868152600e6020526040902054611d9f90600160a060020a031687611ebc565b6000868152600e6020526040902054600160a060020a031615611dd75760405160e560020a62461bcd02815260040161099890613e97565b6000868152600e602090815260408083208054600160a060020a031916600160a060020a038c16908117909155815160a0810183528781528084018a81528184018a81526060830189815260808401899052938752600d86528487208d8852865293909520815181559451600186015591516002850155518051919392611e669260038501929091019061311a565b5060808201518051611e8291600484019160209091019061311a565b505050600160a060020a039096166000908152600d6020908152604082206001908101805491820181558352912001949094555050505050565b6000818152600e60205260408120548190600160a060020a03858116911614611efa5760405160e560020a62461bcd02815260040161099890613e37565b6000838152600e602090815260408083208054600160a060020a0319169055600160a060020a0387168352600d82528083208684529091528120818155600181018290556002810182905590611f536003830182613198565b611f61600483016000613198565b505060009150600090505b600160a060020a0384166000908152600d60205260409020600101546000190181101561204b57811561200957600160a060020a0384166000908152600d602052604090206001908101805490918301908110611fc557fe5b6000918252602080832090910154600160a060020a0387168352600d9091526040909120600101805483908110611ff857fe5b600091825260209091200155612043565b600160a060020a0384166000908152600d6020526040902060010180548491908390811061203357fe5b6000918252602090912001541491505b600101611f6c565b600160a060020a0384166000908152600d602052604090206001018054600019810190811061207657fe5b60009182526020808320909101829055600160a060020a0386168252600d9052604090206001018054906108989060001983016131dc565b600080838311156120be57600080fd5b5050900390565b6000828201838110156120d757600080fd5b9392505050565b6000828152600160208190526040909120015415156121125760405160e560020a62461bcd02815260040161099890613e17565b60008281526001602052604090206005015460ff161515811515141561214d5760405160e560020a62461bcd02815260040161099890613e67565b600091825260016020526040909120600501805460ff1916911515919091179055565b600160a060020a038216151561218557600080fd5b600554612198908263ffffffff6120c516565b600555600160a060020a0382166000908152600360205260409020546121c4908263ffffffff6120c516565b600160a060020a038316600081815260036020526040808220939093559151909190600080516020613f8783398151915290612201908590613eb8565b60405180910390a35050565b600160a060020a038216151561222257600080fd5b600160a060020a03821660009081526003602052604090205481111561224757600080fd5b60055461225a908263ffffffff6120ae16565b600555600160a060020a038216600090815260036020526040902054612286908263ffffffff6120ae16565b600160a060020a038316600081815260036020526040808220939093559151600080516020613f8783398151915290612201908590613eb8565b600160a060020a03821660009081526004602090815260408083203384529091529020548111156122f057600080fd5b600160a060020a0382166000908152600460209081526040808320338452909152902054612324908263ffffffff6120ae16565b600160a060020a03831660009081526004602090815260408083203384529091529020556113e2828261220d565b600160a060020a0382166000908152600a60205260409020546064111561243e57600160a060020a038083166000908152600a60209081526040808320815160808101835289815280840189815242938201939093529486166060860152805460018181018084559286529484902086516004909202019081559151805191959492936123e49385019291019061311a565b50604082810151600283015560609092015160039091018054600160a060020a031916600160a060020a0392831617905584166000908152600a602090815282822054600b90915291902060001991909101905550611404565b600160a060020a0382166000908152600b60205260409020546063141561251f57600160a060020a038083166000818152600b60209081526040808320839055805160808101825289815280830189905242818301529486166060860152928252600a9052908120805490919081106124b357fe5b90600052602060002090600402016000820151816000015560208201518160010190805190602001906124e792919061311a565b506040820151600282015560609091015160039091018054600160a060020a031916600160a060020a03909216919091179055611404565b600160a060020a038083166000818152600b6020818152604080842080546001019081905581516080810183528b81528084018b905242818401529688166060880152948452600a825290922091528054909190811061257b57fe5b90600052602060002090600402016000820151816000015560208201518160010190805190602001906125af92919061311a565b506040820151600282015560609091015160039091018054600160a060020a031916600160a060020a0390921691909117905550505050565b6125f960098263ffffffff612bca16565b604051600160a060020a038216907f6ae172837ea30b801fbfcdd4108aa1d5bf8ff775444fd70256b44e6bf3dfc3f690600090a250565b61264160098263ffffffff612c1816565b604051600160a060020a038216907fe94479a9f7e1952cc78f2d6baab678adc1b772d936c6583def489e524cb6669290600090a250565b612680613200565b606060008060008060606000806060600160008d81526020019081526020016000206001015460001415156126ca5760405160e560020a62461bcd02815260040161099890613e47565b6126d38b612c64565b99506126de8a612cb2565b98506127018960008151811015156126f257fe5b90602001906020020151612d7c565b97504288116127255760405160e560020a62461bcd02815260040161099890613e27565b6127378960018151811015156126f257fe5b965061274b8960028151811015156126f257fe5b955061275f8960038151811015156126f257fe5b945061278289600481518110151561277357fe5b90602001906020020151612cb2565b935083519250600091505b828210156128a3576127a6848381518110151561277357fe5b9050600160008881526020019081526020016000206004016060604051908101604052806127dc8460008151811015156126f257fe5b81526020016128028460018151811015156127f357fe5b90602001906020020151612db2565b600160a060020a0316815260200161283184600281518110151561282257fe5b90602001906020020151612de3565b90528154600180820180855560009485526020948590208451600390940201928355838501519183018054600160a060020a031916600160a060020a03909316929092179091556040830151805191946128939260028501929091019061311a565b50506001909301925061278d9050565b6129c560016000898152602001908152602001600020600401805480602002602001604051908101604052809291908181526020016000905b828210156129bc576000848152602090819020604080516060810182526003860290920180548352600180820154600160a060020a0316848601526002808301805485516101009482161594909402600019011691909104601f81018790048702830187018552808352949592949386019391929091908301828280156129a45780601f10612979576101008083540402835291602001916129a4565b820191906000526020600020905b81548152906001019060200180831161298757829003601f168201915b505050505081525050815260200190600101906128dc565b50505050612e4c565b5050506000848152600160208190526040822096875586810186905560028088019590955560038701939093556005909501805460ff191683179055508154908101825592527f405787fa12a823e0f2b7631cc41b3ba8828b3321ca811111fa75cd3aa3bb5ace9091015550505050565b6000600160a060020a0382161515612a4d57600080fd5b50600160a060020a03166000908152602091909152604090205460ff1690565b600160a060020a0381161515612a8257600080fd5b60008054604051600160a060020a03808516939216917f8be0079c531659141344cd1fd0a4f28419497f9722a3daafe3b4186f6b6457e091a360008054600160a060020a031916600160a060020a0392909216919091179055565b600160a060020a038316600090815260036020526040902054811115612b0257600080fd5b600160a060020a0382161515612b1757600080fd5b600160a060020a038316600090815260036020526040902054612b40908263ffffffff6120ae16565b600160a060020a038085166000908152600360205260408082209390935590841681522054612b75908263ffffffff6120c516565b600160a060020a038084166000818152600360205260409081902093909355915190851690600080516020613f8783398151915290612bb5908590613eb8565b60405180910390a3505050565b6000903b1190565b600160a060020a0381161515612bdf57600080fd5b612be98282612a36565b15612bf357600080fd5b600160a060020a0316600090815260209190915260409020805460ff19166001179055565b600160a060020a0381161515612c2d57600080fd5b612c378282612a36565b1515612c4257600080fd5b600160a060020a0316600090815260209190915260409020805460ff19169055565b612c6c613200565b6000825160001415612c9357604080518082019091526000808252602082015291506113d2565b5050604080518082019091528151815260209182019181019190915290565b6060600080600080612cc386612ed1565b1515612cce57600080fd5b612cd786612ef4565b935083604051908082528060200260200182016040528015612d1357816020015b612d00613200565b815260200190600190039081612cf85790505b509450612d238660200151612f44565b8660200151019250600090505b8381101561131357612d4183612fa7565b91506040805190810160405280838152602001848152508582815181101515612d6657fe5b6020908102909101015291810191600101612d30565b6000806000806000612d918660200151612f44565b86516020978801518201519190039096036101000a90950495945050505050565b805160009060151015612dda5760405160e560020a62461bcd02815260040161099890613de7565b6107ed82612d7c565b606060008060606000612df98660200151612f44565b9350838660000151039250826040519080825280601f01601f191660200182016040528015612e32578160200160208202803883390190505b509150816020019050611837848760200151018285613038565b6000806000808451111515612e765760405160e560020a62461bcd02815260040161099890613dd7565b5050815190506000805b82811015612eae578381815181101515612e9657fe5b60209081029091010151519190910190600101612e80565b606482146114045760405160e560020a62461bcd02815260040161099890613e87565b6020810151805160009190821a9060c060ff83161015610ccd5760009250610c33565b60008060008060009250612f0b8560200151612f44565b6020860151865191810193500190505b80821015612f3b57612f2c82612fa7565b60019093019290910190612f1b565b50909392505050565b8051600090811a6080811015612f5d57600091506113d2565b60b8811080612f78575060c08110801590612f78575060f881105b15612f8657600191506113d2565b60c0811015612f9b5760b519810191506113d2565b60f519810191506113d2565b8051600090811a6080811015612fc057600191506113d2565b60b8811015612fd557607e19810191506113d2565b60c08110156130025760b78103600184019350806020036101000a845104600182018101935050506113d2565b60f88110156130175760be19810191506113d2565b60019290920151602083900360f7016101000a900490910160f51901919050565b60005b6020821061305d578351835260209384019390920191601f199091019061303b565b50915181516020939093036101000a6000190180199091169216919091179052565b6080604051908101604052806000815260200160608152602001600081526020016000600160a060020a031681525090565b60c06040519081016040528060008152602001600081526020016000815260200160008152602001606081526020016000151581525090565b60a06040519081016040528060008152602001600081526020016000815260200160608152602001606081525090565b828054600181600116156101000203166002900490600052602060002090601f016020900481019282601f1061315b57805160ff1916838001178555613188565b82800160010185558215613188579182015b8281111561318857825182559160200191906001019061316d565b50613194929150613217565b5090565b50805460018160011615610100020316600290046000825580601f106131be5750610bbd565b601f016020900490600052602060002090810190610bbd9190613217565b8154818355818111156108b6576000838152602090206108b6918101908301613217565b604080518082019091526000808252602082015290565b61088791905b80821115613194576000815560010161321d565b60006107ea8235613f2d565b60006107ea8235610887565b6000601f8201831361325a57600080fd5b813561326d61326882613efb565b613ed4565b9150808252602083016020830185838301111561328957600080fd5b613294838284613f44565b50505092915050565b6000602082840312156132af57600080fd5b6000610bef8484613231565b600080604083850312156132ce57600080fd5b60006132da8585613231565b92505060206132eb85828601613231565b9150509250929050565b60008060006060848603121561330a57600080fd5b60006133168686613231565b935050602061332786828701613231565b92505060406133388682870161323d565b9150509250925092565b6000806040838503121561335557600080fd5b60006133618585613231565b92505060206132eb8582860161323d565b60008060006060848603121561338757600080fd5b60006133938686613231565b93505060206133278682870161323d565b6000602082840312156133b657600080fd5b6000610bef848461323d565b600080600080600060a086880312156133da57600080fd5b60006133e6888861323d565b95505060206133f78882890161323d565b94505060406134088882890161323d565b93505060606134198882890161323d565b925050608086013567ffffffffffffffff81111561343657600080fd5b61344288828901613249565b9150509295509295909350565b60008060008060008060c0878903121561346857600080fd5b6000613474898961323d565b965050602061348589828a0161323d565b955050604061349689828a0161323d565b94505060606134a789828a0161323d565b935050608087013567ffffffffffffffff8111156134c457600080fd5b6134d089828a01613249565b92505060a087013567ffffffffffffffff8111156134ed57600080fd5b6134f989828a01613249565b9150509295509295509295565b60008060006060848603121561351b57600080fd5b6000613527868661323d565b935050602084013567ffffffffffffffff81111561354457600080fd5b61355086828701613249565b925050604061333886828701613231565b6000806040838503121561357457600080fd5b6000613580858561323d565b925050602083013567ffffffffffffffff81111561359d57600080fd5b6132eb85828601613249565b600080604083850312156135bc57600080fd5b6000613361858561323d565b600080600080608085870312156135de57600080fd5b60006135ea878761323d565b94505060206135fb8782880161323d565b935050604061360c8782880161323d565b925050606085013567ffffffffffffffff81111561362957600080fd5b61363587828801613249565b91505092959194509250565b600080600080600060a0868803121561365957600080fd5b6000613665888861323d565b95505060206136768882890161323d565b94505060406136878882890161323d565b935050606086013567ffffffffffffffff8111156136a457600080fd5b61341988828901613249565b6136b981613f2d565b82525050565b60006136ca82613f29565b808452602084019350836020820285016136e385613f23565b60005b8481101561371a5783830388526136fe838351613b9b565b925061370982613f23565b6020989098019791506001016136e6565b50909695505050505050565b600061373182613f29565b8084526020840193508360208202850161374a85613f23565b60005b8481101561371a578383038852613765838351613c10565b925061377082613f23565b60209890980197915060010161374d565b600061378c82613f29565b808452602084019350836020820285016137a585613f23565b60005b8481101561371a5783830388526137c0838351613b9b565b92506137cb82613f23565b6020989098019791506001016137a8565b60006137e782613f29565b8084526020840193508360208202850161380085613f23565b60005b8481101561371a57838303885261381b838351613c4f565b925061382682613f23565b602098909801979150600101613803565b600061384282613f29565b80845260208401935061385483613f23565b60005b828110156138845761386a868351613897565b61387382613f23565b602096909601959150600101613857565b5093949350505050565b6136b981613f39565b6136b981610887565b60006138ab82613f29565b8084526138bf816020860160208601613f50565b6138c881613f7c565b9093016020019392505050565b600d81527f496e76616c696420706167652e00000000000000000000000000000000000000602082015260400190565b600981527f6e6f742072756c65730000000000000000000000000000000000000000000000602082015260400190565b603a81527f496e76616c696420524c504974656d2e2041646472657373657320617265206560208201527f6e636f64656420696e203230206279746573206f72206c657373000000000000604082015260600190565b600981527f6e6f745f65786973740000000000000000000000000000000000000000000000602082015260400190565b600b81527f6e6f7420616c6c6f776564000000000000000000000000000000000000000000602082015260400190565b600981527f6e6f742065786973740000000000000000000000000000000000000000000000602082015260400190565b600781527f6578706972656400000000000000000000000000000000000000000000000000602082015260400190565b600a81527f73616d65206f776e657200000000000000000000000000000000000000000000602082015260400190565b600581527f6578697374000000000000000000000000000000000000000000000000000000602082015260400190565b601081527f696e636f727265637420616d6f756e7400000000000000000000000000000000602082015260400190565b600b81527f73616d6520737461747573000000000000000000000000000000000000000000602082015260400190565b600a81527f6475706c69636174656400000000000000000000000000000000000000000000602082015260400190565b601681527f616c6c20616d6f756e7420646973747269627574656400000000000000000000602082015260400190565b600f81527f6475706c69636174656420686173680000000000000000000000000000000000602082015260400190565b805160009060a0840190613baf8582613897565b506020830151613bc26020860182613897565b506040830151613bd56040860182613897565b5060608301518482036060860152613bed82826138a0565b91505060808301518482036080860152613c0782826138a0565b95945050505050565b80516000906060840190613c248582613897565b506020830151613c3760208601826136b0565b5060408301518482036040860152613c0782826138a0565b80516000906080840190613c638582613897565b5060208301518482036020860152613c7b82826138a0565b9150506040830151613c906040860182613897565b506060830151613ca360608601826136b0565b509392505050565b805160009060c0840190613cbf8582613897565b506020830151613cd26020860182613897565b506040830151613ce56040860182613897565b506060830151613cf86060860182613897565b5060808301518482036080860152613d108282613726565b91505060a0830151613ca360a086018261388e565b6136b981613f3e565b602081016107ed82846136b0565b60608101613d4a82866136b0565b613d576020830185613897565b610bef6040830184613897565b602080825281016107ea81846136bf565b602080825281016107ea8184613781565b602080825281016107ea81846137dc565b602080825281016107ea8184613837565b602081016107ed828461388e565b602080825281016107ea81846138a0565b602080825281016107ed816138d5565b602080825281016107ed81613905565b602080825281016107ed81613935565b602080825281016107ed8161398b565b602080825281016107ed816139bb565b602080825281016107ed816139eb565b602080825281016107ed81613a1b565b602080825281016107ed81613a4b565b602080825281016107ed81613a7b565b602080825281016107ed81613aab565b602080825281016107ed81613adb565b602080825281016107ed81613b0b565b602080825281016107ed81613b3b565b602080825281016107ed81613b6b565b602080825281016107ea8184613cab565b602081016107ed8284613897565b602081016107ed8284613d25565b60405181810167ffffffffffffffff81118282101715613ef357600080fd5b604052919050565b600067ffffffffffffffff821115613f1257600080fd5b506020601f91909101601f19160190565b60200190565b5190565b600160a060020a031690565b151590565b60ff1690565b82818337506000910152565b60005b83811015613f6b578181015183820152602001613f53565b838111156114045750506000910152565b601f01601f1916905600ddf252ad1be2c89b69c2b068fc378daa952ba7f163c4a11628f55a4df523b3efa265627a7a72305820991a93cdfad8100fe6e89f32f12d2216288181f635a546dc1a75086013138ce86c6578706572696d656e74616cf50037",
  "source": "pragma solidity 0.4.24;\npragma experimental ABIEncoderV2;\n\nimport \"./Assets.sol\";\n\ncontract Devices  is Assets {\n\n  struct UserDevices {   \n    mapping (bytes32 => Device) devices;\n    bytes32[] deviceArray;\n  } \n\n  struct Device {   \n    uint256 expirationDate;\n    uint256 assetId;\n    uint256 schemaId;\n    string dappId;\n    string description;\n  }\n\n  uint256 constant private PAGE_SIZE = 10;\n\n  mapping (address => UserDevices) private userDevices_;\n\n  mapping (bytes32 => address) private deviceHashes_;\n    \n  function isAllowed(bytes32 _deviceHash) public view returns (bool) {\n    bool allowed = userDevices_[deviceHashes_[_deviceHash]].devices[_deviceHash].expirationDate > now ;\n    return allowed;\n  }\n\n  function isAllowedForAddress(address _target, bytes32 _deviceHash) public view returns (bool) {\n    bool allowed =  (deviceHashes_[_deviceHash] == _target) && (isAllowed(_deviceHash));\n    return allowed;\n  }\n   \n  function getDevicesPageCount() public view returns (uint256) {\n    return userDevices_[msg.sender].deviceArray.length / PAGE_SIZE;\n  }\n\n  function getDevices(uint256 _page) public view returns (Device[] memory) {\n    Device[] memory devicesPage = new Device[](PAGE_SIZE); \n    uint256 transferIndex = PAGE_SIZE * _page - PAGE_SIZE;\n    bytes32[] memory devices = userDevices_[msg.sender].deviceArray;\n\n    if (devices.length == 0 || transferIndex > devices.length - 1) {\n      return;\n    }\n   \n    uint256 returnCounter = 0;\n\n    for (transferIndex; transferIndex < PAGE_SIZE * _page; transferIndex++) {\n      if (transferIndex < devices.length) {\n        devicesPage[returnCounter] = userDevices_[msg.sender].devices[devices[transferIndex]];\n      }\n      returnCounter++;\n    }\n    return devicesPage;\n  }\n\n  function getAddress(bytes32 _deviceHash) public view returns (address) {\n    bool allowed = isAllowed(_deviceHash);\n    address ownerAddress;\n    if (allowed) {\n      ownerAddress = deviceHashes_[_deviceHash];\n    } \n    return ownerAddress;\n  }\n\n  function handshake(bytes32 _deviceHash, uint256 _assetId, uint256 _schemaId, uint256 _lifeTime, string _dappId) public {\n    _handshake(msg.sender, _deviceHash, _assetId, _schemaId, _lifeTime, _dappId, \"\");\n  }\n\n  function handshake(bytes32 _deviceHash, uint256 _assetId, uint256 _schemaId, uint256 _lifeTime, string _dappId, string _description) public {\n    _handshake(msg.sender, _deviceHash, _assetId, _schemaId, _lifeTime, _dappId, _description);\n  }\n\n  function removeDevice(bytes32 _deviceHash) public {\n    _removeDevice(msg.sender, _deviceHash);\n  }\n\n    \n  function _handshake(address _owner, bytes32 _deviceHash, uint256 _assetId, uint256 _schemaId, uint256 _lifeTime, string _dappId, string _description) internal {\n\n    require(Assets._checkOwnership(_owner, _assetId, _schemaId),\"not allowed\");\n\n    if ((deviceHashes_[_deviceHash] != address(0)) && (!isAllowed(_deviceHash))) {\n      _removeDevice(deviceHashes_[_deviceHash], _deviceHash);\n    }\n\n    require(deviceHashes_[_deviceHash] == address(0), \"duplicated hash\");\n    deviceHashes_[_deviceHash] = _owner; \n    userDevices_[_owner].devices[_deviceHash] =  Device(_lifeTime, _assetId, _schemaId, _dappId, _description);\n    userDevices_[_owner].deviceArray.push(_deviceHash);\n  }\n\n  function _removeDevice(address _owner, bytes32 _deviceHash) internal {\n    require(deviceHashes_[_deviceHash] == _owner, \"same owner\");\n    delete deviceHashes_[_deviceHash];\n    delete userDevices_[_owner].devices[_deviceHash];\n    bool found=false;\n    for (uint i = 0; i < userDevices_[_owner].deviceArray.length-1;i++){\n      if(found){\n        userDevices_[_owner].deviceArray[i] = userDevices_[_owner].deviceArray[i+1];\n      } else {\n        found = userDevices_[_owner].deviceArray[i] == _deviceHash;\n      }\n    }\n    delete userDevices_[_owner].deviceArray[userDevices_[_owner].deviceArray.length-1];\n    userDevices_[_owner].deviceArray.length--;\n  }\n\n}",
  "sourcePath": "/home/jordi/ws/bloomenApp/bloomen-wallet-truffle/contracts/bloomen/Devices.sol",
  "compiler": {
    "name": "solc",
    "version": "0.4.24+commit.e67f0147.Emscripten.clang"
  },
  "schemaVersion": "2.0.1",
  "updatedAt": "2019-04-17T13:16:01.479Z"
}