{
  "contractName": "Devices",
  "abi": [
    {
      "inputs": [
        {
          "name": "_assetsAddr",
          "type": "address"
        }
      ],
      "payable": false,
      "stateMutability": "nonpayable",
      "type": "constructor",
      "signature": "constructor"
    },
    {
      "constant": false,
      "inputs": [
        {
          "name": "_deviceHash",
          "type": "bytes32"
        },
        {
          "name": "dappId",
          "type": "string"
        }
      ],
      "name": "isAllowed",
      "outputs": [
        {
          "name": "",
          "type": "bool"
        }
      ],
      "payable": false,
      "stateMutability": "nonpayable",
      "type": "function",
      "signature": "0x18de1d87"
    },
    {
      "constant": false,
      "inputs": [
        {
          "name": "_target",
          "type": "address"
        },
        {
          "name": "_deviceHash",
          "type": "bytes32"
        },
        {
          "name": "dappId",
          "type": "string"
        }
      ],
      "name": "isAllowedForAddress",
      "outputs": [
        {
          "name": "",
          "type": "bool"
        }
      ],
      "payable": false,
      "stateMutability": "nonpayable",
      "type": "function",
      "signature": "0x12e3b03c"
    },
    {
      "constant": false,
      "inputs": [
        {
          "name": "_deviceHash",
          "type": "bytes32"
        },
        {
          "name": "_assetIds",
          "type": "uint256[]"
        },
        {
          "name": "dappId",
          "type": "string"
        }
      ],
      "name": "checkOwnershipForDeviceMultipleAssets",
      "outputs": [
        {
          "name": "",
          "type": "bool[]"
        }
      ],
      "payable": false,
      "stateMutability": "nonpayable",
      "type": "function",
      "signature": "0x4f17b818"
    },
    {
      "constant": false,
      "inputs": [
        {
          "name": "_deviceHash",
          "type": "bytes32"
        },
        {
          "name": "_assetId",
          "type": "uint256"
        },
        {
          "name": "dappId",
          "type": "string"
        }
      ],
      "name": "checkOwnershipOneAssetForDevice",
      "outputs": [
        {
          "name": "",
          "type": "bool"
        }
      ],
      "payable": false,
      "stateMutability": "nonpayable",
      "type": "function",
      "signature": "0xf5264c52"
    },
    {
      "constant": false,
      "inputs": [
        {
          "name": "dappId",
          "type": "string"
        }
      ],
      "name": "getDevicesPageCount",
      "outputs": [
        {
          "name": "",
          "type": "uint256"
        }
      ],
      "payable": false,
      "stateMutability": "nonpayable",
      "type": "function",
      "signature": "0xdce65418"
    },
    {
      "constant": false,
      "inputs": [
        {
          "name": "_page",
          "type": "uint256"
        },
        {
          "name": "dappId",
          "type": "string"
        }
      ],
      "name": "getDevices",
      "outputs": [
        {
          "components": [
            {
              "name": "expirationDate",
              "type": "uint256"
            },
            {
              "name": "assetId",
              "type": "uint256"
            },
            {
              "name": "schemaId",
              "type": "uint256"
            },
            {
              "name": "dappId",
              "type": "string"
            },
            {
              "name": "description",
              "type": "string"
            }
          ],
          "name": "",
          "type": "tuple[]"
        }
      ],
      "payable": false,
      "stateMutability": "nonpayable",
      "type": "function",
      "signature": "0x44a57ff5"
    },
    {
      "constant": false,
      "inputs": [
        {
          "name": "_deviceHash",
          "type": "bytes32"
        },
        {
          "name": "dappId",
          "type": "string"
        }
      ],
      "name": "getAddress",
      "outputs": [
        {
          "name": "",
          "type": "address"
        }
      ],
      "payable": false,
      "stateMutability": "nonpayable",
      "type": "function",
      "signature": "0x6795dbcd"
    },
    {
      "constant": false,
      "inputs": [
        {
          "name": "_deviceHash",
          "type": "bytes32"
        },
        {
          "name": "_assetId",
          "type": "uint256"
        },
        {
          "name": "_schemaId",
          "type": "uint256"
        },
        {
          "name": "_lifeTime",
          "type": "uint256"
        },
        {
          "name": "_dappId",
          "type": "string"
        }
      ],
      "name": "handshake",
      "outputs": [],
      "payable": false,
      "stateMutability": "nonpayable",
      "type": "function",
      "signature": "0x132c6aa4"
    },
    {
      "constant": false,
      "inputs": [
        {
          "name": "_deviceHash",
          "type": "bytes32"
        },
        {
          "name": "_assetId",
          "type": "uint256"
        },
        {
          "name": "_schemaId",
          "type": "uint256"
        },
        {
          "name": "_lifeTime",
          "type": "uint256"
        },
        {
          "name": "_dappId",
          "type": "string"
        },
        {
          "name": "_description",
          "type": "string"
        }
      ],
      "name": "handshake",
      "outputs": [],
      "payable": false,
      "stateMutability": "nonpayable",
      "type": "function",
      "signature": "0x42b4bed4"
    },
    {
      "constant": false,
      "inputs": [
        {
          "name": "_deviceHash",
          "type": "bytes32"
        },
        {
          "name": "_dappId",
          "type": "string"
        }
      ],
      "name": "removeDevice",
      "outputs": [],
      "payable": false,
      "stateMutability": "nonpayable",
      "type": "function",
      "signature": "0xa2da6a9a"
    }
  ],
  "bytecode": "0x60806040523480156200001157600080fd5b5060405160208062002c94833981018060405262000033919081019062000091565b80600260006101000a81548173ffffffffffffffffffffffffffffffffffffffff021916908373ffffffffffffffffffffffffffffffffffffffff16021790555050620000f1565b6000620000898251620000bd565b905092915050565b600060208284031215620000a457600080fd5b6000620000b4848285016200007b565b91505092915050565b6000620000ca82620000d1565b9050919050565b600073ffffffffffffffffffffffffffffffffffffffff82169050919050565b612b9380620001016000396000f3fe608060405234801561001057600080fd5b50600436106100bb576000357c0100000000000000000000000000000000000000000000000000000000900480634f17b818116100835780634f17b818146101885780636795dbcd146101b8578063a2da6a9a146101e8578063dce6541814610204578063f5264c5214610234576100bb565b806312e3b03c146100c0578063132c6aa4146100f057806318de1d871461010c57806342b4bed41461013c57806344a57ff514610158575b600080fd5b6100da60048036036100d59190810190611e24565b610264565b6040516100e79190612801565b60405180910390f35b61010a6004803603610105919081019061202f565b6102f8565b005b61012660048036036101219190810190611f74565b61031d565b6040516101339190612801565b60405180910390f35b610156600480360361015191908101906120be565b6103ca565b005b610172600480360361016d91908101906121b8565b6103e1565b60405161017f91906127df565b60405180910390f35b6101a2600480360361019d9190810190611ef5565b610724565b6040516101af91906127bd565b60405180910390f35b6101d260048036036101cd9190810190611f74565b610b39565b6040516101df91906126b7565b60405180910390f35b61020260048036036101fd9190810190611f74565b610ba2565b005b61021e60048036036102199190810190612177565b610bb1565b60405161022b91906128bc565b60405180910390f35b61024e60048036036102499190810190611fc8565b610c82565b60405161025b9190612801565b60405180910390f35b60008061027083610ed9565b905060008573ffffffffffffffffffffffffffffffffffffffff1682600201600087815260200190815260200160002060009054906101000a900473ffffffffffffffffffffffffffffffffffffffff1673ffffffffffffffffffffffffffffffffffffffff161480156102ea57506102e9858561031d565b5b905080925050509392505050565b61031633868686868660405180602001604052806000815250611166565b5050505050565b60008061032983610ed9565b905060004282600101600084600201600089815260200190815260200160002060009054906101000a900473ffffffffffffffffffffffffffffffffffffffff1673ffffffffffffffffffffffffffffffffffffffff1673ffffffffffffffffffffffffffffffffffffffff168152602001908152602001600020600001600087815260200190815260200160002060000154119050809250505092915050565b6103d933878787878787611166565b505050505050565b606060006103ee83610ed9565b90506060600a60405190808252806020026020018201604052801561042d57816020015b61041a611ac4565b8152602001906001900390816104125790505b5090506000600a86600a0203905060608360010160003373ffffffffffffffffffffffffffffffffffffffff1673ffffffffffffffffffffffffffffffffffffffff1681526020019081526020016000206001018054806020026020016040519081016040528092919081815260200182805480156104cb57602002820191906000526020600020905b8154815260200190600101908083116104b7575b505050505090506000815114806104e55750600181510382115b156104f9576060809550505050505061071e565b60008090505b87600a02831015610715578151831015610700578460010160003373ffffffffffffffffffffffffffffffffffffffff1673ffffffffffffffffffffffffffffffffffffffff168152602001908152602001600020600001600083858151811061056557fe5b602002602001015181526020019081526020016000206040518060a0016040529081600082015481526020016001820154815260200160028201548152602001600382018054600181600116156101000203166002900480601f01602080910402602001604051908101604052809291908181526020018280546001816001161561010002031660029004801561063d5780601f106106125761010080835404028352916020019161063d565b820191906000526020600020905b81548152906001019060200180831161062057829003601f168201915b50505050508152602001600482018054600181600116156101000203166002900480601f0160208091040260200160405190810160405280929190818152602001828054600181600116156101000203166002900480156106df5780601f106106b4576101008083540402835291602001916106df565b820191906000526020600020905b8154815290600101906020018083116106c257829003601f168201915b5050505050815250508482815181106106f457fe5b60200260200101819052505b808060010191505082806001019350506104ff565b83955050505050505b92915050565b6060600061073183610ed9565b9050600073ffffffffffffffffffffffffffffffffffffffff1681600201600087815260200190815260200160002060009054906101000a900473ffffffffffffffffffffffffffffffffffffffff1673ffffffffffffffffffffffffffffffffffffffff1614156107d8576040517f08c379a00000000000000000000000000000000000000000000000000000000081526004016107cf9061285c565b60405180910390fd5b600084511161081c576040517f08c379a00000000000000000000000000000000000000000000000000000000081526004016108139061281c565b60405180910390fd5b610824611af3565b81600101600083600201600089815260200190815260200160002060009054906101000a900473ffffffffffffffffffffffffffffffffffffffff1673ffffffffffffffffffffffffffffffffffffffff1673ffffffffffffffffffffffffffffffffffffffff16815260200190815260200160002060000160008781526020019081526020016000206040518060a0016040529081600082015481526020016001820154815260200160028201548152602001600382018054600181600116156101000203166002900480601f0160208091040260200160405190810160405280929190818152602001828054600181600116156101000203166002900480156109705780601f1061094557610100808354040283529160200191610970565b820191906000526020600020905b81548152906001019060200180831161095357829003601f168201915b50505050508152602001600482018054600181600116156101000203166002900480601f016020809104026020016040519081016040528092919081815260200182805460018160011615610100020316600290048015610a125780601f106109e757610100808354040283529160200191610a12565b820191906000526020600020905b8154815290600101906020018083116109f557829003601f168201915b5050505050815250509050600260009054906101000a900473ffffffffffffffffffffffffffffffffffffffff1673ffffffffffffffffffffffffffffffffffffffff1663e02d5a0383600201600089815260200190815260200160002060009054906101000a900473ffffffffffffffffffffffffffffffffffffffff1687846040015185606001516040518563ffffffff167c0100000000000000000000000000000000000000000000000000000000028152600401610ad794939291906126d2565b600060405180830381600087803b158015610af157600080fd5b505af1158015610b05573d6000803e3d6000fd5b505050506040513d6000823e3d601f19601f82011682018060405250610b2e9190810190611e8b565b925050509392505050565b600080610b4583610ed9565b90506000610b53858561031d565b905060008115610b965782600201600087815260200190815260200160002060009054906101000a900473ffffffffffffffffffffffffffffffffffffffff1690505b80935050505092915050565b610bad338383611587565b5050565b600080610bbd83610ed9565b90506000600a8260010160003373ffffffffffffffffffffffffffffffffffffffff1673ffffffffffffffffffffffffffffffffffffffff1681526020019081526020016000206001018054905081610c1257fe5b0490506000600a8360010160003373ffffffffffffffffffffffffffffffffffffffff1673ffffffffffffffffffffffffffffffffffffffff1681526020019081526020016000206001018054905081610c6857fe5b061115610c785780806001019150505b8092505050919050565b600080610c8e83610ed9565b9050600073ffffffffffffffffffffffffffffffffffffffff1681600201600087815260200190815260200160002060009054906101000a900473ffffffffffffffffffffffffffffffffffffffff1673ffffffffffffffffffffffffffffffffffffffff161415610d35576040517f08c379a0000000000000000000000000000000000000000000000000000000008152600401610d2c9061285c565b60405180910390fd5b600081600101600083600201600089815260200190815260200160002060009054906101000a900473ffffffffffffffffffffffffffffffffffffffff1673ffffffffffffffffffffffffffffffffffffffff1673ffffffffffffffffffffffffffffffffffffffff16815260200190815260200160002060000160008781526020019081526020016000209050600260009054906101000a900473ffffffffffffffffffffffffffffffffffffffff1673ffffffffffffffffffffffffffffffffffffffff166325c6e6a883600201600089815260200190815260200160002060009054906101000a900473ffffffffffffffffffffffffffffffffffffffff16878460020154856003016040518563ffffffff167c0100000000000000000000000000000000000000000000000000000000028152600401610e7c9493929190612771565b602060405180830381600087803b158015610e9657600080fd5b505af1158015610eaa573d6000803e3d6000fd5b505050506040513d601f19601f82011682018060405250610ece9190810190611ecc565b925050509392505050565b600080828051906020012090506060600080838152602001908152602001600020805480602002602001604051908101604052809291908181526020018280548015610f4457602002820191906000526020600020905b815481526020019060010190808311610f30575b5050505050905060008151111561109c5760008090505b815181101561109a576110506110396001848481518110610f7857fe5b602002602001015181548110610f8a57fe5b90600052602060002090600302016000018054600181600116156101000203166002900480601f01602080910402602001604051908101604052809291908181526020018280546001816001161561010002031660029004801561102f5780601f106110045761010080835404028352916020019161102f565b820191906000526020600020905b81548152906001019060200180831161101257829003601f168201915b5050505050611994565b61104287611994565b6119c290919063ffffffff16565b1561108d57600182828151811061106357fe5b60200260200101518154811061107557fe5b90600052602060002090600302019350505050611161565b8080600101915050610f5b565b505b60016040518060200160405280868152509080600181540180825580915050906001820390600052602060002090600302016000909192909190915060008201518160000190805190602001906110f4929190611b22565b505050506000600180805490500390506000808481526020019081526020016000208190806001815401808255809150509060018203906000526020600020016000909192909190915055506001818154811061114d57fe5b906000526020600020906003020193505050505b919050565b600260009054906101000a900473ffffffffffffffffffffffffffffffffffffffff1673ffffffffffffffffffffffffffffffffffffffff166325c6e6a8888787866040518563ffffffff167c01000000000000000000000000000000000000000000000000000000000281526004016111e39493929190612725565b602060405180830381600087803b1580156111fd57600080fd5b505af1158015611211573d6000803e3d6000fd5b505050506040513d601f19601f820116820180604052506112359190810190611ecc565b611274576040517f08c379a000000000000000000000000000000000000000000000000000000000815260040161126b9061283c565b60405180910390fd5b600061127f83610ed9565b9050600073ffffffffffffffffffffffffffffffffffffffff1681600201600089815260200190815260200160002060009054906101000a900473ffffffffffffffffffffffffffffffffffffffff1673ffffffffffffffffffffffffffffffffffffffff16141580156112fa57506112f8878461031d565b155b156113405761133f81600201600089815260200190815260200160002060009054906101000a900473ffffffffffffffffffffffffffffffffffffffff168885611587565b5b600073ffffffffffffffffffffffffffffffffffffffff1681600201600089815260200190815260200160002060009054906101000a900473ffffffffffffffffffffffffffffffffffffffff1673ffffffffffffffffffffffffffffffffffffffff16146113e4576040517f08c379a00000000000000000000000000000000000000000000000000000000081526004016113db9061289c565b60405180910390fd5b8781600201600089815260200190815260200160002060006101000a81548173ffffffffffffffffffffffffffffffffffffffff021916908373ffffffffffffffffffffffffffffffffffffffff1602179055506040518060a00160405280858152602001878152602001868152602001848152602001838152508160010160008a73ffffffffffffffffffffffffffffffffffffffff1673ffffffffffffffffffffffffffffffffffffffff168152602001908152602001600020600001600089815260200190815260200160002060008201518160000155602082015181600101556040820151816002015560608201518160030190805190602001906114ee929190611b22565b50608082015181600401908051906020019061150b929190611b22565b509050508060010160008973ffffffffffffffffffffffffffffffffffffffff1673ffffffffffffffffffffffffffffffffffffffff1681526020019081526020016000206001018790806001815401808255809150509060018203906000526020600020016000909192909190915055505050505050505050565b600061159282610ed9565b90508373ffffffffffffffffffffffffffffffffffffffff1681600201600085815260200190815260200160002060009054906101000a900473ffffffffffffffffffffffffffffffffffffffff1673ffffffffffffffffffffffffffffffffffffffff1614611637576040517f08c379a000000000000000000000000000000000000000000000000000000000815260040161162e9061287c565b60405180910390fd5b80600201600084815260200190815260200160002060006101000a81549073ffffffffffffffffffffffffffffffffffffffff02191690558060010160008573ffffffffffffffffffffffffffffffffffffffff1673ffffffffffffffffffffffffffffffffffffffff1681526020019081526020016000206000016000848152602001908152602001600020600080820160009055600182016000905560028201600090556003820160006116ed9190611ba2565b6004820160006116fd9190611ba2565b5050600080905060008090505b60018360010160008873ffffffffffffffffffffffffffffffffffffffff1673ffffffffffffffffffffffffffffffffffffffff168152602001908152602001600020600101805490500381101561188d578115611821578260010160008773ffffffffffffffffffffffffffffffffffffffff1673ffffffffffffffffffffffffffffffffffffffff16815260200190815260200160002060010160018201815481106117b457fe5b90600052602060002001548360010160008873ffffffffffffffffffffffffffffffffffffffff1673ffffffffffffffffffffffffffffffffffffffff168152602001908152602001600020600101828154811061180e57fe5b9060005260206000200181905550611880565b848360010160008873ffffffffffffffffffffffffffffffffffffffff1673ffffffffffffffffffffffffffffffffffffffff168152602001908152602001600020600101828154811061187157fe5b90600052602060002001541491505b808060010191505061170a565b508160010160008673ffffffffffffffffffffffffffffffffffffffff1673ffffffffffffffffffffffffffffffffffffffff16815260200190815260200160002060010160018360010160008873ffffffffffffffffffffffffffffffffffffffff1673ffffffffffffffffffffffffffffffffffffffff16815260200190815260200160002060010180549050038154811061192757fe5b90600052602060002001600090558160010160008673ffffffffffffffffffffffffffffffffffffffff1673ffffffffffffffffffffffffffffffffffffffff16815260200190815260200160002060010180548091906001900361198c9190611bea565b505050505050565b61199c611c16565b600060208301905060405180604001604052808451815260200182815250915050919050565b6000806119cf84846119d8565b14905092915050565b600080836000015190508360000151836000015110156119fa57826000015190505b60008460200151905060008460200151905060008090505b83811015611aac576000808451915083519050808214611a935760007fffffffffffffffffffffffffffffffffffffffffffffffffffffffffffffffff90506020871015611a6d57600184886020030160080260020a031990505b600081831682851603905060008114611a90578098505050505050505050611abe565b50505b6020850194506020840193505050602081019050611a12565b50846000015186600001510393505050505b92915050565b6040518060a0016040528060008152602001600081526020016000815260200160608152602001606081525090565b6040518060a0016040528060008152602001600081526020016000815260200160608152602001606081525090565b828054600181600116156101000203166002900490600052602060002090601f016020900481019282601f10611b6357805160ff1916838001178555611b91565b82800160010185558215611b91579182015b82811115611b90578251825591602001919060010190611b75565b5b509050611b9e9190611c30565b5090565b50805460018160011615610100020316600290046000825580601f10611bc85750611be7565b601f016020900490600052602060002090810190611be69190611c30565b5b50565b815481835581811115611c1157818360005260206000209182019101611c109190611c55565b5b505050565b604051806040016040528060008152602001600081525090565b611c5291905b80821115611c4e576000816000905550600101611c36565b5090565b90565b611c7791905b80821115611c73576000816000905550600101611c5b565b5090565b90565b6000611c868235612ab4565b905092915050565b600082601f830112611c9f57600080fd5b8151611cb2611cad82612904565b6128d7565b91508181835260208401935060208101905083856020840282011115611cd757600080fd5b60005b83811015611d075781611ced8882611d94565b845260208401935060208301925050600181019050611cda565b5050505092915050565b600082601f830112611d2257600080fd5b8135611d35611d308261292c565b6128d7565b91508181835260208401935060208101905083856020840282011115611d5a57600080fd5b60005b83811015611d8a5781611d708882611e10565b845260208401935060208301925050600181019050611d5d565b5050505092915050565b6000611da08251612ac6565b905092915050565b6000611db48235612ad2565b905092915050565b600082601f830112611dcd57600080fd5b8135611de0611ddb82612954565b6128d7565b91508082526020830160208301858383011115611dfc57600080fd5b611e07838284612b06565b50505092915050565b6000611e1c8235612afc565b905092915050565b600080600060608486031215611e3957600080fd5b6000611e4786828701611c7a565b9350506020611e5886828701611da8565b925050604084013567ffffffffffffffff811115611e7557600080fd5b611e8186828701611dbc565b9150509250925092565b600060208284031215611e9d57600080fd5b600082015167ffffffffffffffff811115611eb757600080fd5b611ec384828501611c8e565b91505092915050565b600060208284031215611ede57600080fd5b6000611eec84828501611d94565b91505092915050565b600080600060608486031215611f0a57600080fd5b6000611f1886828701611da8565b935050602084013567ffffffffffffffff811115611f3557600080fd5b611f4186828701611d11565b925050604084013567ffffffffffffffff811115611f5e57600080fd5b611f6a86828701611dbc565b9150509250925092565b60008060408385031215611f8757600080fd5b6000611f9585828601611da8565b925050602083013567ffffffffffffffff811115611fb257600080fd5b611fbe85828601611dbc565b9150509250929050565b600080600060608486031215611fdd57600080fd5b6000611feb86828701611da8565b9350506020611ffc86828701611e10565b925050604084013567ffffffffffffffff81111561201957600080fd5b61202586828701611dbc565b9150509250925092565b600080600080600060a0868803121561204757600080fd5b600061205588828901611da8565b955050602061206688828901611e10565b945050604061207788828901611e10565b935050606061208888828901611e10565b925050608086013567ffffffffffffffff8111156120a557600080fd5b6120b188828901611dbc565b9150509295509295909350565b60008060008060008060c087890312156120d757600080fd5b60006120e589828a01611da8565b96505060206120f689828a01611e10565b955050604061210789828a01611e10565b945050606061211889828a01611e10565b935050608087013567ffffffffffffffff81111561213557600080fd5b61214189828a01611dbc565b92505060a087013567ffffffffffffffff81111561215e57600080fd5b61216a89828a01611dbc565b9150509295509295509295565b60006020828403121561218957600080fd5b600082013567ffffffffffffffff8111156121a357600080fd5b6121af84828501611dbc565b91505092915050565b600080604083850312156121cb57600080fd5b60006121d985828601611e10565b925050602083013567ffffffffffffffff8111156121f657600080fd5b61220285828601611dbc565b9150509250929050565b60006122188383612384565b60208301905092915050565b6000612230838361261c565b905092915050565b60006122448383612699565b60208301905092915050565b61225981612a6c565b82525050565b600061226a826129b9565b6122748185612a17565b935061227f83612980565b60005b828110156122ad5761229586835161220c565b95506122a0826129f0565b9150600181019050612282565b50849250505092915050565b60006122c4826129c4565b6122ce8185612a28565b9350836020820285016122e08561298d565b60005b848110156123195783830388526122fb838351612224565b9250612306826129fd565b91506020880197506001810190506122e3565b508196508694505050505092915050565b6000612335826129cf565b61233f8185612a39565b935061234a8361299a565b60005b8281101561237857612360868351612238565b955061236b82612a0a565b915060018101905061234d565b50849250505092915050565b61238d81612a7e565b82525050565b61239c81612a7e565b82525050565b60006123ad826129e5565b6123b78185612a5b565b93506123c7818560208601612b15565b6123d081612b48565b840191505092915050565b60006123e6826129da565b6123f08185612a4a565b9350612400818560208601612b15565b61240981612b48565b840191505092915050565b600061241f826129da565b6124298185612a5b565b9350612439818560208601612b15565b61244281612b48565b840191505092915050565b60008154600181166000811461246a5760018114612490576124d4565b607f600283041661247b8187612a5b565b955060ff1983168652602086019350506124d4565b6002820461249e8187612a5b565b95506124a9856129a7565b60005b828110156124cb578154818901526001820191506020810190506124ac565b80880195505050505b505092915050565b60006124e9600c83612a5b565b91507f656d7074792061737365747300000000000000000000000000000000000000006000830152602082019050919050565b6000612529600b83612a5b565b91507f6e6f7420616c6c6f7765640000000000000000000000000000000000000000006000830152602082019050919050565b6000612569600983612a5b565b91507f6e6f7420657869737400000000000000000000000000000000000000000000006000830152602082019050919050565b60006125a9600a83612a5b565b91507f73616d65206f776e6572000000000000000000000000000000000000000000006000830152602082019050919050565b60006125e9600f83612a5b565b91507f6475706c696361746564206861736800000000000000000000000000000000006000830152602082019050919050565b600060a0830160008301516126346000860182612699565b5060208301516126476020860182612699565b50604083015161265a6040860182612699565b506060830151848203606086015261267282826123db565b9150506080830151848203608086015261268c82826123db565b9150508091505092915050565b6126a281612aaa565b82525050565b6126b181612aaa565b82525050565b60006020820190506126cc6000830184612250565b92915050565b60006080820190506126e76000830187612250565b81810360208301526126f9818661232a565b905061270860408301856126a8565b818103606083015261271a8184612414565b905095945050505050565b600060808201905061273a6000830187612250565b61274760208301866126a8565b61275460408301856126a8565b818103606083015261276681846123a2565b905095945050505050565b60006080820190506127866000830187612250565b61279360208301866126a8565b6127a060408301856126a8565b81810360608301526127b2818461244d565b905095945050505050565b600060208201905081810360008301526127d7818461225f565b905092915050565b600060208201905081810360008301526127f981846122b9565b905092915050565b60006020820190506128166000830184612393565b92915050565b60006020820190508181036000830152612835816124dc565b9050919050565b600060208201905081810360008301526128558161251c565b9050919050565b600060208201905081810360008301526128758161255c565b9050919050565b600060208201905081810360008301526128958161259c565b9050919050565b600060208201905081810360008301526128b5816125dc565b9050919050565b60006020820190506128d160008301846126a8565b92915050565b6000604051905081810181811067ffffffffffffffff821117156128fa57600080fd5b8060405250919050565b600067ffffffffffffffff82111561291b57600080fd5b602082029050602081019050919050565b600067ffffffffffffffff82111561294357600080fd5b602082029050602081019050919050565b600067ffffffffffffffff82111561296b57600080fd5b601f19601f8301169050602081019050919050565b6000602082019050919050565b6000602082019050919050565b6000602082019050919050565b60008160005260206000209050919050565b600081519050919050565b600081519050919050565b600081519050919050565b600081519050919050565b600081519050919050565b6000602082019050919050565b6000602082019050919050565b6000602082019050919050565b600082825260208201905092915050565b600082825260208201905092915050565b600082825260208201905092915050565b600082825260208201905092915050565b600082825260208201905092915050565b6000612a7782612a8a565b9050919050565b60008115159050919050565b600073ffffffffffffffffffffffffffffffffffffffff82169050919050565b6000819050919050565b6000612abf82612adc565b9050919050565b60008115159050919050565b6000819050919050565b600073ffffffffffffffffffffffffffffffffffffffff82169050919050565b6000819050919050565b82818337600083830152505050565b60005b83811015612b33578082015181840152602081019050612b18565b83811115612b42576000848401525b50505050565b6000601f19601f830116905091905056fea265627a7a72305820392af4bb0799bcb39c1a89d85b154fe7b0d4db0f3c96407fc1e3cdb6a5a069336c6578706572696d656e74616cf50037",
  "source": "pragma solidity ^0.5.2;\npragma experimental ABIEncoderV2;\n\nimport \"./Assets.sol\";\n\ncontract Devices {\n\n  using Strings for *;\n\n  struct DappCtx {\n    string dappID;\n    mapping (address => UserDevices)  userDevices_;\n    mapping (bytes32 => address)  deviceHashes_;\n  }\n\n  struct UserDevices {   \n    mapping (bytes32 => Device) devices;\n    bytes32[] deviceArray;\n  } \n\n  struct Device {   \n    uint256 expirationDate;\n    uint256 assetId;\n    uint256 schemaId;\n    string dappId;\n    string description;\n  }\n\n  uint256 constant private PAGE_SIZE = 10;\n\n  mapping (bytes32 => uint[]) private dappCtxhashIndexMap_;\n  DappCtx[] private dappCtxs_;\n\n  Assets private _assets;\n  \n  constructor (address _assetsAddr) public{\n    _assets = Assets(_assetsAddr);    \n  }\n    \n  function isAllowed(bytes32 _deviceHash, string memory dappId) public  returns (bool) {\n    DappCtx storage ctx = _getDappCtx(dappId);\n    bool allowed = ctx.userDevices_[ctx.deviceHashes_[_deviceHash]].devices[_deviceHash].expirationDate > now ;\n    return allowed;\n  }\n\n  function isAllowedForAddress(address _target, bytes32 _deviceHash, string memory dappId) public  returns (bool) {\n    DappCtx storage ctx = _getDappCtx(dappId);\n    bool allowed =  (ctx.deviceHashes_[_deviceHash] == _target) && (isAllowed(_deviceHash,dappId));\n    return allowed;\n  }\n\n  function checkOwnershipForDeviceMultipleAssets(bytes32 _deviceHash, uint256[] memory _assetIds, string memory dappId) public  returns (bool[] memory) {\n    DappCtx storage ctx = _getDappCtx(dappId);\n    require(ctx.deviceHashes_[_deviceHash] != address(0), \"not exist\");\n    require(_assetIds.length > 0, \"empty assets\");\n    \n    Device memory device = ctx.userDevices_[ctx.deviceHashes_[_deviceHash]].devices[_deviceHash];\n\n    return _assets.checkOwnershipMultipleAssetsForAddress(ctx.deviceHashes_[_deviceHash],_assetIds,device.schemaId,device.dappId);\n  }\n\n  function checkOwnershipOneAssetForDevice(bytes32 _deviceHash, uint256 _assetId, string memory dappId) public  returns (bool) {\n    DappCtx storage ctx = _getDappCtx(dappId);\n    require(ctx.deviceHashes_[_deviceHash] != address(0), \"not exist\");\n    \n    Device storage device = ctx.userDevices_[ctx.deviceHashes_[_deviceHash]].devices[_deviceHash];\n\n    return _assets.checkOwnershipOneAssetForAddress(ctx.deviceHashes_[_deviceHash],_assetId,device.schemaId,device.dappId);\n  }\n\n  function getDevicesPageCount(string memory dappId) public  returns (uint256) {\n    DappCtx storage ctx = _getDappCtx(dappId);    \n    uint256 pages = ctx.userDevices_[msg.sender].deviceArray.length / PAGE_SIZE;\n    if ( (ctx.userDevices_[msg.sender].deviceArray.length % PAGE_SIZE)>0) {\n      pages++;\n    }\n    return pages;\n  }\n\n  function getDevices(uint256 _page, string memory dappId) public  returns (Device[] memory) {\n    DappCtx storage ctx = _getDappCtx(dappId); \n    Device[] memory devicesPage = new Device[](PAGE_SIZE); \n    uint256 transferIndex = PAGE_SIZE * _page - PAGE_SIZE;\n    bytes32[] memory devices = ctx.userDevices_[msg.sender].deviceArray;\n\n    if (devices.length == 0 || transferIndex > devices.length - 1) {\n      Device[] memory empty;\n      return empty;\n    }\n   \n    uint256 returnCounter = 0;\n\n    for (transferIndex; transferIndex < PAGE_SIZE * _page; transferIndex++) {\n      if (transferIndex < devices.length) {\n        devicesPage[returnCounter] = ctx.userDevices_[msg.sender].devices[devices[transferIndex]];\n      }\n      returnCounter++;\n    }\n    return devicesPage;\n  }\n\n  function getAddress(bytes32 _deviceHash, string memory dappId) public  returns (address) {\n    DappCtx storage ctx = _getDappCtx(dappId);\n    bool allowed = isAllowed(_deviceHash,dappId);\n    address ownerAddress;\n    if (allowed) {\n      ownerAddress = ctx.deviceHashes_[_deviceHash];\n    } \n    return ownerAddress;\n  }\n\n  function handshake(bytes32 _deviceHash, uint256 _assetId, uint256 _schemaId, uint256 _lifeTime, string memory _dappId) public {\n    _handshake(msg.sender, _deviceHash, _assetId, _schemaId, _lifeTime, _dappId, \"\");\n  }\n\n  function handshake(bytes32 _deviceHash, uint256 _assetId, uint256 _schemaId, uint256 _lifeTime, string memory _dappId, string memory _description) public {\n    _handshake(msg.sender, _deviceHash, _assetId, _schemaId, _lifeTime, _dappId, _description);\n  }\n\n  function removeDevice(bytes32 _deviceHash, string memory _dappId) public {\n    _removeDevice(msg.sender, _deviceHash,_dappId);\n  }\n\n    \n  function _handshake(address _owner, bytes32 _deviceHash, uint256 _assetId, uint256 _schemaId, uint256 _lifeTime, string memory _dappId, string memory _description) internal {\n    require(_assets.checkOwnershipOneAssetForAddress(_owner, _assetId, _schemaId, _dappId),\"not allowed\");\n    DappCtx storage ctx = _getDappCtx(_dappId);\n\n    if ((ctx.deviceHashes_[_deviceHash] != address(0)) && (!isAllowed(_deviceHash,_dappId))) {\n      _removeDevice(ctx.deviceHashes_[_deviceHash], _deviceHash,_dappId);\n    }\n\n    require(ctx.deviceHashes_[_deviceHash] == address(0), \"duplicated hash\");\n    ctx.deviceHashes_[_deviceHash] = _owner; \n    ctx.userDevices_[_owner].devices[_deviceHash] =  Device(_lifeTime, _assetId, _schemaId, _dappId, _description);\n    ctx.userDevices_[_owner].deviceArray.push(_deviceHash);\n  }\n\n  function _removeDevice(address _owner, bytes32 _deviceHash, string memory _dappId) internal {\n    DappCtx storage ctx = _getDappCtx(_dappId);\n    require(ctx.deviceHashes_[_deviceHash] == _owner, \"same owner\");\n    delete ctx.deviceHashes_[_deviceHash];\n    delete ctx.userDevices_[_owner].devices[_deviceHash];\n    bool found=false;\n    for (uint i = 0; i < ctx.userDevices_[_owner].deviceArray.length-1;i++){\n      if(found){\n        ctx.userDevices_[_owner].deviceArray[i] = ctx.userDevices_[_owner].deviceArray[i+1];\n      } else {\n        found = ctx.userDevices_[_owner].deviceArray[i] == _deviceHash;\n      }\n    }\n    delete ctx.userDevices_[_owner].deviceArray[ctx.userDevices_[_owner].deviceArray.length-1];\n    ctx.userDevices_[_owner].deviceArray.length--;\n  }\n\n  function _getDappCtx(string memory dappId) internal returns (DappCtx storage) {\n    bytes32 dappIdHash = keccak256(bytes(dappId));\n    uint[] memory indexArray = dappCtxhashIndexMap_[dappIdHash];\n\n    if (indexArray.length > 0) {\n      // hash collision check\n      for (uint i = 0 ; i < indexArray.length ; i++) {\n        if (dappId.toSlice().equals(dappCtxs_[indexArray[i]].dappID.toSlice())) {\n          return dappCtxs_[indexArray[i]];\n        }\n      }\n    }\n\n    dappCtxs_.push(DappCtx(dappId));\n    uint dappIndex = dappCtxs_.length-1;\n\n    dappCtxhashIndexMap_[dappIdHash].push(dappIndex);\n\n    return dappCtxs_[dappIndex];\n  }\n\n}",
  "sourcePath": "/home/jordi/ws/bloomenio/bloomen-wallet/bloomen-wallet-truffle/contracts/bloomen/Devices.sol",
  "compiler": {
    "name": "solc",
    "version": "0.5.7+commit.6da8b019.Emscripten.clang"
  },
  "schemaVersion": "3.0.6",
  "updatedAt": "2019-04-29T12:49:09.668Z",
  "devdoc": {
    "methods": {}
  },
  "userdoc": {
    "methods": {}
  }
}