{
  "contractName": "JsonContainerFactory",
  "abi": [
    {
      "inputs": [],
      "payable": false,
      "stateMutability": "nonpayable",
      "type": "constructor",
      "signature": "constructor"
    },
    {
      "constant": true,
      "inputs": [],
      "name": "isOwner",
      "outputs": [
        {
          "name": "",
          "type": "bool"
        }
      ],
      "payable": false,
      "stateMutability": "view",
      "type": "function",
      "signature": "0x8f32d59b"
    },
    {
      "constant": false,
      "inputs": [
        {
          "name": "_in",
          "type": "bytes"
        },
        {
          "name": "_name",
          "type": "string"
        }
      ],
      "name": "createContainer",
      "outputs": [],
      "payable": false,
      "stateMutability": "nonpayable",
      "type": "function",
      "signature": "0x6416e44d"
    },
    {
      "constant": true,
      "inputs": [],
      "name": "getContainers",
      "outputs": [
        {
          "components": [
            {
              "name": "addr",
              "type": "address"
            },
            {
              "name": "name",
              "type": "string"
            }
          ],
          "name": "",
          "type": "tuple[]"
        }
      ],
      "payable": false,
      "stateMutability": "view",
      "type": "function",
      "signature": "0x959a17f8"
    }
  ],
  "bytecode": "0x608060405234801561001057600080fd5b5032600160006101000a81548173ffffffffffffffffffffffffffffffffffffffff021916908373ffffffffffffffffffffffffffffffffffffffff160217905550612cf3806100616000396000f3fe608060405234801561001057600080fd5b506004361061005e576000357c0100000000000000000000000000000000000000000000000000000000900480636416e44d146100635780638f32d59b1461007f578063959a17f81461009d575b600080fd5b61007d60048036036100789190810190610b1e565b6100bb565b005b6100876103ac565b6040516100949190610dca565b60405180910390f35b6100a5610404565b6040516100b29190610d86565b60405180910390f35b6100c36103ac565b6100cc57600080fd5b6100d461094e565b6100dd8361055b565b905060606100ea82610589565b905060008151905060608160405190808252806020026020018201604052801561012e57816020015b61011b610968565b8152602001906001900390816101135790505b50905060008090505b8281101561022f57610147610989565b604051806060016040528061018a61017188868151811061016457fe5b6020026020010151610589565b60008151811061017d57fe5b6020026020010151610660565b81526020016101c76101ae8886815181106101a157fe5b6020026020010151610589565b6001815181106101ba57fe5b6020026020010151610660565b81526020016102046101eb8886815181106101de57fe5b6020026020010151610589565b6002815181106101f757fe5b6020026020010151610660565b81525090508083838151811061021657fe5b6020026020010181905250508080600101915050610137565b50600060405161023e906109aa565b604051809103906000f08015801561025a573d6000803e3d6000fd5b5090508073ffffffffffffffffffffffffffffffffffffffff166309d2213a836040518263ffffffff167c01000000000000000000000000000000000000000000000000000000000281526004016102b29190610da8565b600060405180830381600087803b1580156102cc57600080fd5b505af11580156102e0573d6000803e3d6000fd5b50505050600060405180604001604052808373ffffffffffffffffffffffffffffffffffffffff168152602001888152509080600181540180825580915050906001820390600052602060002090600202016000909192909190915060008201518160000160006101000a81548173ffffffffffffffffffffffffffffffffffffffff021916908373ffffffffffffffffffffffffffffffffffffffff160217905550602082015181600101908051906020019061039f9291906109b7565b5050505050505050505050565b6000600160009054906101000a900473ffffffffffffffffffffffffffffffffffffffff1673ffffffffffffffffffffffffffffffffffffffff163273ffffffffffffffffffffffffffffffffffffffff1614905090565b60606000805480602002602001604051908101604052809291908181526020016000905b8282101561055257838290600052602060002090600202016040518060400160405290816000820160009054906101000a900473ffffffffffffffffffffffffffffffffffffffff1673ffffffffffffffffffffffffffffffffffffffff1673ffffffffffffffffffffffffffffffffffffffff168152602001600182018054600181600116156101000203166002900480601f01602080910402602001604051908101604052809291908181526020018280546001816001161561010002031660029004801561053a5780601f1061050f5761010080835404028352916020019161053a565b820191906000526020600020905b81548152906001019060200180831161051d57829003601f168201915b50505050508152505081526020019060010190610428565b50505050905090565b61056361094e565b600060208301905060405180604001604052808451815260200182815250915050919050565b6060610594826106ec565b61059d57600080fd5b60006105a88361073a565b9050806040519080825280602002602001820160405280156105e457816020015b6105d1610a37565b8152602001906001900390816105c95790505b50915060006105f684602001516107ab565b8460200151019050600080600090505b838110156106575761061783610834565b915060405180604001604052808381526020018481525085828151811061063a57fe5b602002602001018190525081830192508080600101915050610606565b50505050919050565b6060600082600001511161067357600080fd5b600061068283602001516107ab565b905060008184600001510390506060816040519080825280601f01601f1916602001820160405280156106c45781602001600182028038833980820191505090505b50905060008160200190506106e08487602001510182856108e7565b81945050505050919050565b600080826000015114156107035760009050610735565b60008083602001519050805160001a915060c060ff168260ff16101561072e57600092505050610735565b6001925050505b919050565b6000808260000151141561075157600090506107a6565b6000809050600061076584602001516107ab565b84602001510190506000846000015185602001510190505b8082101561079f5761078e82610834565b82019150828060010193505061077d565b8293505050505b919050565b600080825160001a9050608060ff168110156107cb57600091505061082f565b60b860ff168110806107f0575060c060ff1681101580156107ef575060f860ff1681105b5b156107ff57600191505061082f565b60c060ff1681101561081f5760018060b80360ff1682030191505061082f565b60018060f80360ff168203019150505b919050565b600080825160001a9050608060ff168110156108545760019150506108e2565b60b860ff16811015610872576001608060ff168203019150506108e2565b60c060ff168110156108a25760b78103600184019350806020036101000a845104600182018101935050506108e0565b60f860ff168110156108c057600160c060ff168203019150506108e2565b60f78103600184019350806020036101000a845104600182018101935050505b505b919050565b60008114156108f557610949565b5b602060ff1681106109255782518252602060ff1683019250602060ff1682019150602060ff16810390506108f6565b6000600182602060ff16036101000a03905080198451168184511681811785525050505b505050565b604051806040016040528060008152602001600081525090565b60405180606001604052806060815260200160608152602001606081525090565b60405180606001604052806060815260200160608152602001606081525090565b611d3680610f8483390190565b828054600181600116156101000203166002900490600052602060002090601f016020900481019282601f106109f857805160ff1916838001178555610a26565b82800160010185558215610a26579182015b82811115610a25578251825591602001919060010190610a0a565b5b509050610a339190610a51565b5090565b604051806040016040528060008152602001600081525090565b610a7391905b80821115610a6f576000816000905550600101610a57565b5090565b90565b600082601f830112610a8757600080fd5b8135610a9a610a9582610e12565b610de5565b91508082526020830160208301858383011115610ab657600080fd5b610ac1838284610f30565b50505092915050565b600082601f830112610adb57600080fd5b8135610aee610ae982610e3e565b610de5565b91508082526020830160208301858383011115610b0a57600080fd5b610b15838284610f30565b50505092915050565b60008060408385031215610b3157600080fd5b600083013567ffffffffffffffff811115610b4b57600080fd5b610b5785828601610a76565b925050602083013567ffffffffffffffff811115610b7457600080fd5b610b8085828601610aca565b9150509250929050565b6000610b968383610ceb565b905092915050565b6000610baa8383610d28565b905092915050565b610bbb81610ef2565b82525050565b6000610bcc82610e84565b610bd68185610ebf565b935083602082028501610be885610e6a565b60005b84811015610c21578383038852610c03838351610b8a565b9250610c0e82610ea5565b9150602088019750600181019050610beb565b508196508694505050505092915050565b6000610c3d82610e8f565b610c478185610ed0565b935083602082028501610c5985610e77565b60005b84811015610c92578383038852610c74838351610b9e565b9250610c7f82610eb2565b9150602088019750600181019050610c5c565b508196508694505050505092915050565b610cac81610f04565b82525050565b6000610cbd82610e9a565b610cc78185610ee1565b9350610cd7818560208601610f3f565b610ce081610f72565b840191505092915050565b6000604083016000830151610d036000860182610bb2565b5060208301518482036020860152610d1b8282610cb2565b9150508091505092915050565b60006060830160008301518482036000860152610d458282610cb2565b91505060208301518482036020860152610d5f8282610cb2565b91505060408301518482036040860152610d798282610cb2565b9150508091505092915050565b60006020820190508181036000830152610da08184610bc1565b905092915050565b60006020820190508181036000830152610dc28184610c32565b905092915050565b6000602082019050610ddf6000830184610ca3565b92915050565b6000604051905081810181811067ffffffffffffffff82111715610e0857600080fd5b8060405250919050565b600067ffffffffffffffff821115610e2957600080fd5b601f19601f8301169050602081019050919050565b600067ffffffffffffffff821115610e5557600080fd5b601f19601f8301169050602081019050919050565b6000602082019050919050565b6000602082019050919050565b600081519050919050565b600081519050919050565b600081519050919050565b6000602082019050919050565b6000602082019050919050565b600082825260208201905092915050565b600082825260208201905092915050565b600082825260208201905092915050565b6000610efd82610f10565b9050919050565b60008115159050919050565b600073ffffffffffffffffffffffffffffffffffffffff82169050919050565b82818337600083830152505050565b60005b83811015610f5d578082015181840152602081019050610f42565b83811115610f6c576000848401525b50505050565b6000601f19601f830116905091905056fe608060405234801561001057600080fd5b5032600260006101000a81548173ffffffffffffffffffffffffffffffffffffffff021916908373ffffffffffffffffffffffffffffffffffffffff160217905550611cd5806100616000396000f3fe608060405234801561001057600080fd5b5060043610610069576000357c01000000000000000000000000000000000000000000000000000000009004806309d2213a1461006e5780633bc5de301461008a5780638f32d59b146100a8578063c43ed2c8146100c6575b600080fd5b61008860048036036100839190810190611882565b6100e2565b005b61009261014f565b60405161009f9190611aaf565b60405180910390f35b6100b0610394565b6040516100bd9190611ad1565b60405180910390f35b6100e060048036036100db91908101906118c3565b6103ec565b005b6100ea610394565b6100f357600080fd5b60008151905060008090505b8181101561014a5761010f611541565b83828151811061011b57fe5b6020026020010151905061013c816000015182602001518360400151610640565b5080806001019150506100ff565b505050565b60606001805480602002602001604051908101604052809291908181526020016000905b8282101561038b5783829060005260206000209060030201604051806060016040529081600082018054600181600116156101000203166002900480601f01602080910402602001604051908101604052809291908181526020018280546001816001161561010002031660029004801561022f5780601f106102045761010080835404028352916020019161022f565b820191906000526020600020905b81548152906001019060200180831161021257829003601f168201915b50505050508152602001600182018054600181600116156101000203166002900480601f0160208091040260200160405190810160405280929190818152602001828054600181600116156101000203166002900480156102d15780601f106102a6576101008083540402835291602001916102d1565b820191906000526020600020905b8154815290600101906020018083116102b457829003601f168201915b50505050508152602001600282018054600181600116156101000203166002900480601f0160208091040260200160405190810160405280929190818152602001828054600181600116156101000203166002900480156103735780601f1061034857610100808354040283529160200191610373565b820191906000526020600020905b81548152906001019060200180831161035657829003601f168201915b50505050508152505081526020019060010190610173565b50505050905090565b6000600260009054906101000a900473ffffffffffffffffffffffffffffffffffffffff1673ffffffffffffffffffffffffffffffffffffffff163273ffffffffffffffffffffffffffffffffffffffff1614905090565b6103f4610394565b6103fd57600080fd5b610405611562565b61040e82610ac5565b9050606061041b82610af3565b905060008151905060008090505b8181101561063957600061046b61045285848151811061044557fe5b6020026020010151610af3565b60038151811061045e57fe5b6020026020010151610bca565b9050600081141561052b576105266104b161049886858151811061048b57fe5b6020026020010151610af3565b6000815181106104a457fe5b6020026020010151610c3b565b6104e96104d08786815181106104c357fe5b6020026020010151610af3565b6001815181106104dc57fe5b6020026020010151610c3b565b6105216105088887815181106104fb57fe5b6020026020010151610af3565b60028151811061051457fe5b6020026020010151610c3b565b610640565b61062b565b60018114156105795761057461056f61055686858151811061054957fe5b6020026020010151610af3565b60008151811061056257fe5b6020026020010151610c3b565b610cc7565b61062a565b6106296105b461059b86858151811061058e57fe5b6020026020010151610af3565b6000815181106105a757fe5b6020026020010151610c3b565b6105ec6105d38786815181106105c657fe5b6020026020010151610af3565b6001815181106105df57fe5b6020026020010151610c3b565b61062461060b8887815181106105fe57fe5b6020026020010151610af3565b60028151811061061757fe5b6020026020010151610c3b565b610f1b565b5b5b508080600101915050610429565b5050505050565b60008380519060200120905060606000808381526020019081526020016000208054806020026020016040519081016040528092919081815260200182805480156106aa57602002820191906000526020600020905b815481526020019060010190808311610696575b505050505090506000815111156108115760008151905060008090505b8181101561080e57606060018483815181106106df57fe5b6020026020010151815481106106f157fe5b90600052602060002090600302016000018054600181600116156101000203166002900480601f0160208091040260200160405190810160405280929190818152602001828054600181600116156101000203166002900480156107965780601f1061076b57610100808354040283529160200191610796565b820191906000526020600020905b81548152906001019060200180831161077957829003601f168201915b505050505090506107c06107a98961119f565b6107b28361119f565b6111cd90919063ffffffff16565b15610800576040517f08c379a00000000000000000000000000000000000000000000000000000000081526004016107f790611aec565b60405180910390fd5b5080806001019150506106c7565b50505b610819611541565b60405180606001604052808781526020018681526020018581525090506000600180549050905060008090505b818160ff1610156109ef5761091b61091660018360ff168154811061086757fe5b90600052602060002090600302016000018054600181600116156101000203166002900480601f01602080910402602001604051908101604052809291908181526020018280546001816001161561010002031660029004801561090c5780601f106108e15761010080835404028352916020019161090c565b820191906000526020600020905b8154815290600101906020018083116108ef57829003601f168201915b505050505061119f565b6111e3565b156109e2578260018260ff168154811061093157fe5b9060005260206000209060030201600082015181600001908051906020019061095b92919061157c565b50602082015181600101908051906020019061097892919061157c565b50604082015181600201908051906020019061099592919061157c565b50905050600080868152602001908152602001600020819080600181540180825580915050906001820390600052602060002001600090919260ff16909190915055505050505050610ac0565b8080600101915050610846565b50600182908060018154018082558091505090600182039060005260206000209060030201600090919290919091506000820151816000019080519060200190610a3a92919061157c565b506020820151816001019080519060200190610a5792919061157c565b506040820151816002019080519060200190610a7492919061157c565b5050505060008085815260200190815260200160002060018080549050039080600181540180825580915050906001820390600052602060002001600090919290919091505550505050505b505050565b610acd611562565b600060208301905060405180604001604052808451815260200182815250915050919050565b6060610afe826111f3565b610b0757600080fd5b6000610b1283611241565b905080604051908082528060200260200182016040528015610b4e57816020015b610b3b6115fc565b815260200190600190039081610b335790505b5091506000610b6084602001516112b2565b8460200151019050600080600090505b83811015610bc157610b818361133b565b9150604051806040016040528083815260200184815250858281518110610ba457fe5b602002602001018190525081830192508080600101915050610b70565b50505050919050565b6000808260000151118015610be457506021826000015111155b610bed57600080fd5b6000610bfc83602001516112b2565b90506000818460000151039050600080838660200151019050805191506020831015610c2f57826020036101000a820491505b81945050505050919050565b60606000826000015111610c4e57600080fd5b6000610c5d83602001516112b2565b905060008184600001510390506060816040519080825280601f01601f191660200182016040528015610c9f5781602001600182028038833980820191505090505b5090506000816020019050610cbb8487602001510182856113ee565b81945050505050919050565b6000818051906020012090506060600080838152602001908152602001600020805480602002602001604051908101604052809291908181526020018280548015610d3157602002820191906000526020600020905b815481526020019060010190808311610d1d575b505050505090506000815111610d7c576040517f08c379a0000000000000000000000000000000000000000000000000000000008152600401610d7390611b0c565b60405180910390fd5b60008151905060008090505b81811015610f145760606001848381518110610da057fe5b602002602001015181548110610db257fe5b90600052602060002090600302016000018054600181600116156101000203166002900480601f016020809104026020016040519081016040528092919081815260200182805460018160011615610100020316600290048015610e575780601f10610e2c57610100808354040283529160200191610e57565b820191906000526020600020905b815481529060010190602001808311610e3a57829003601f168201915b50505050509050610e81610e6a8761119f565b610e738361119f565b6111cd90919063ffffffff16565b15610f06576001848381518110610e9457fe5b602002602001015181548110610ea657fe5b906000526020600020906003020160008082016000610ec59190611616565b600182016000610ed59190611616565b600282016000610ee59190611616565b50506000808681526020019081526020016000206000610f05919061165e565b5b508080600101915050610d88565b5050505050565b6000838051906020012090506060600080838152602001908152602001600020805480602002602001604051908101604052809291908181526020018280548015610f8557602002820191906000526020600020905b815481526020019060010190808311610f71575b505050505090506000815111610fd0576040517f08c379a0000000000000000000000000000000000000000000000000000000008152600401610fc790611b0c565b60405180910390fd5b60008151905060008090505b818110156111955760606001848381518110610ff457fe5b60200260200101518154811061100657fe5b90600052602060002090600302016000018054600181600116156101000203166002900480601f0160208091040260200160405190810160405280929190818152602001828054600181600116156101000203166002900480156110ab5780601f10611080576101008083540402835291602001916110ab565b820191906000526020600020905b81548152906001019060200180831161108e57829003601f168201915b505050505090506110d56110be8961119f565b6110c78361119f565b6111cd90919063ffffffff16565b1561118757604051806060016040528089815260200188815260200187815250600185848151811061110357fe5b60200260200101518154811061111557fe5b9060005260206000209060030201600082015181600001908051906020019061113f92919061157c565b50602082015181600101908051906020019061115c92919061157c565b50604082015181600201908051906020019061117992919061157c565b50905050505050505061119a565b508080600101915050610fdc565b505050505b505050565b6111a761167f565b600060208301905060405180604001604052808451815260200182815250915050919050565b6000806111da8484611455565b14905092915050565b6000808260000151149050919050565b6000808260000151141561120a576000905061123c565b60008083602001519050805160001a915060c060ff168260ff1610156112355760009250505061123c565b6001925050505b919050565b6000808260000151141561125857600090506112ad565b6000809050600061126c84602001516112b2565b84602001510190506000846000015185602001510190505b808210156112a6576112958261133b565b820191508280600101935050611284565b8293505050505b919050565b600080825160001a9050608060ff168110156112d2576000915050611336565b60b860ff168110806112f7575060c060ff1681101580156112f6575060f860ff1681105b5b15611306576001915050611336565b60c060ff168110156113265760018060b80360ff16820301915050611336565b60018060f80360ff168203019150505b919050565b600080825160001a9050608060ff1681101561135b5760019150506113e9565b60b860ff16811015611379576001608060ff168203019150506113e9565b60c060ff168110156113a95760b78103600184019350806020036101000a845104600182018101935050506113e7565b60f860ff168110156113c757600160c060ff168203019150506113e9565b60f78103600184019350806020036101000a845104600182018101935050505b505b919050565b60008114156113fc57611450565b5b602060ff16811061142c5782518252602060ff1683019250602060ff1682019150602060ff16810390506113fd565b6000600182602060ff16036101000a03905080198451168184511681811785525050505b505050565b6000808360000151905083600001518360000151101561147757826000015190505b60008460200151905060008460200151905060008090505b838110156115295760008084519150835190508082146115105760007fffffffffffffffffffffffffffffffffffffffffffffffffffffffffffffffff905060208710156114ea57600184886020030160080260020a031990505b60008183168285160390506000811461150d57809850505050505050505061153b565b50505b602085019450602084019350505060208101905061148f565b50846000015186600001510393505050505b92915050565b60405180606001604052806060815260200160608152602001606081525090565b604051806040016040528060008152602001600081525090565b828054600181600116156101000203166002900490600052602060002090601f016020900481019282601f106115bd57805160ff19168380011785556115eb565b828001600101855582156115eb579182015b828111156115ea5782518255916020019190600101906115cf565b5b5090506115f89190611699565b5090565b604051806040016040528060008152602001600081525090565b50805460018160011615610100020316600290046000825580601f1061163c575061165b565b601f01602090049060005260206000209081019061165a9190611699565b5b50565b508054600082559060005260206000209081019061167c9190611699565b50565b604051806040016040528060008152602001600081525090565b6116bb91905b808211156116b757600081600090555060010161169f565b5090565b90565b600082601f8301126116cf57600080fd5b81356116e26116dd82611b59565b611b2c565b9150818183526020840193506020810190508360005b83811015611728578135860161170e88826117da565b8452602084019350602083019250506001810190506116f8565b5050505092915050565b600082601f83011261174357600080fd5b813561175661175182611b81565b611b2c565b9150808252602083016020830185838301111561177257600080fd5b61177d838284611c48565b50505092915050565b600082601f83011261179757600080fd5b81356117aa6117a582611bad565b611b2c565b915080825260208301602083018583830111156117c657600080fd5b6117d1838284611c48565b50505092915050565b6000606082840312156117ec57600080fd5b6117f66060611b2c565b9050600082013567ffffffffffffffff81111561181257600080fd5b61181e84828501611786565b600083015250602082013567ffffffffffffffff81111561183e57600080fd5b61184a84828501611786565b602083015250604082013567ffffffffffffffff81111561186a57600080fd5b61187684828501611786565b60408301525092915050565b60006020828403121561189457600080fd5b600082013567ffffffffffffffff8111156118ae57600080fd5b6118ba848285016116be565b91505092915050565b6000602082840312156118d557600080fd5b600082013567ffffffffffffffff8111156118ef57600080fd5b6118fb84828501611732565b91505092915050565b60006119108383611a51565b905092915050565b600061192382611be6565b61192d8185611c09565b93508360208202850161193f85611bd9565b60005b8481101561197857838303885261195a838351611904565b925061196582611bfc565b9150602088019750600181019050611942565b508196508694505050505092915050565b61199281611c3c565b82525050565b60006119a382611bf1565b6119ad8185611c1a565b93506119bd818560208601611c57565b6119c681611c8a565b840191505092915050565b60006119de601b83611c2b565b91507f4572726f723a207061746820616c7265616479206578697374732e00000000006000830152602082019050919050565b6000611a1e601c83611c2b565b91507f4572726f723a207061746820646f6573206e6f74206578697374732e000000006000830152602082019050919050565b60006060830160008301518482036000860152611a6e8282611998565b91505060208301518482036020860152611a888282611998565b91505060408301518482036040860152611aa28282611998565b9150508091505092915050565b60006020820190508181036000830152611ac98184611918565b905092915050565b6000602082019050611ae66000830184611989565b92915050565b60006020820190508181036000830152611b05816119d1565b9050919050565b60006020820190508181036000830152611b2581611a11565b9050919050565b6000604051905081810181811067ffffffffffffffff82111715611b4f57600080fd5b8060405250919050565b600067ffffffffffffffff821115611b7057600080fd5b602082029050602081019050919050565b600067ffffffffffffffff821115611b9857600080fd5b601f19601f8301169050602081019050919050565b600067ffffffffffffffff821115611bc457600080fd5b601f19601f8301169050602081019050919050565b6000602082019050919050565b600081519050919050565b600081519050919050565b6000602082019050919050565b600082825260208201905092915050565b600082825260208201905092915050565b600082825260208201905092915050565b60008115159050919050565b82818337600083830152505050565b60005b83811015611c75578082015181840152602081019050611c5a565b83811115611c84576000848401525b50505050565b6000601f19601f830116905091905056fea265627a7a7230582032fe14fb38b910cf59d757309a2c1f24bc793c9909c4090216b8058de1a19b8c6c6578706572696d656e74616cf50037a265627a7a723058207a68187996ddc03aef827fb72a27a896e8d9c70b640d8c9bda248b4142cb03166c6578706572696d656e74616cf50037",
  "source": "pragma solidity ^0.5.2;\npragma experimental ABIEncoderV2;\n\nimport \"./lib/Structs.sol\";\nimport \"./JsonContainer.sol\";\nimport \"../../node_modules/solidity-rlp/contracts/RLPReader.sol\";\n\n\ncontract JsonContainerFactory is Structs {\n\n  using RLPReader for bytes;\n  using RLPReader for uint;\n  using RLPReader for RLPReader.RLPItem;\n\n\n\n  Container[] private containers_;\n\n\n  address private _owner;\n\n  constructor() public {\n    _owner = tx.origin;\n  }\n\n  modifier onlyOwner() {\n    require(isOwner());\n    _;\n  }\n\n  function isOwner() public view returns(bool) {\n    return tx.origin == _owner;\n  }\n\n  function createContainer(bytes memory _in, string memory _name) onlyOwner public {\n    RLPReader.RLPItem memory item = _in.toRlpItem();\n    RLPReader.RLPItem[] memory itemList = item.toList();\n\n    uint listLength = itemList.length;\n    PathValue[] memory data = new PathValue[](listLength);\n    for (uint i = 0; i < listLength; i++) {\n      PathValue memory pathValue = PathValue(\n        string(itemList[i].toList()[0].toBytes()),\n        string(itemList[i].toList()[1].toBytes()),\n        string(itemList[i].toList()[2].toBytes())\n      );\n      data[i] = pathValue;\n    } \n\n    JsonContainer container = new JsonContainer();\n    container.initialize(data);\n    containers_.push(Container(address(container), _name));\n    \n  }\n\n  function getContainers() public view returns (Container[] memory) {\n    return containers_;\n  }\n\n    \n}",
  "sourcePath": "/home/jordi/ws/jordiescudero/bloomen-wallet/bloomen-wallet-truffle/contracts/jsw/JsonContainerFactory.sol",
  "compiler": {
    "name": "solc",
    "version": "0.5.7+commit.6da8b019.Emscripten.clang"
  },
  "schemaVersion": "3.0.6",
  "updatedAt": "2019-04-17T08:24:27.399Z",
  "devdoc": {
    "methods": {}
  },
  "userdoc": {
    "methods": {}
  }
}