{
  "contractName": "JsonContainer",
  "abi": [
    {
      "inputs": [],
      "payable": false,
      "stateMutability": "nonpayable",
      "type": "constructor"
    },
    {
      "constant": true,
      "inputs": [],
      "name": "isOwner",
      "outputs": [
        {
          "name": "",
          "type": "bool"
        }
      ],
      "payable": false,
      "stateMutability": "view",
      "type": "function"
    },
    {
      "constant": true,
      "inputs": [],
      "name": "getData",
      "outputs": [
        {
          "components": [
            {
              "name": "path",
              "type": "string"
            },
            {
              "name": "value",
              "type": "string"
            },
            {
              "name": "valueType",
              "type": "string"
            }
          ],
          "name": "",
          "type": "tuple[]"
        }
      ],
      "payable": false,
      "stateMutability": "view",
      "type": "function"
    },
    {
      "constant": false,
      "inputs": [
        {
          "name": "_in",
          "type": "bytes"
        }
      ],
      "name": "update",
      "outputs": [],
      "payable": false,
      "stateMutability": "nonpayable",
      "type": "function"
    },
    {
      "constant": false,
      "inputs": [
        {
          "components": [
            {
              "name": "path",
              "type": "string"
            },
            {
              "name": "value",
              "type": "string"
            },
            {
              "name": "valueType",
              "type": "string"
            }
          ],
          "name": "_data",
          "type": "tuple[]"
        }
      ],
      "name": "initialize",
      "outputs": [],
      "payable": false,
      "stateMutability": "nonpayable",
      "type": "function"
    }
  ],
  "bytecode": "0x608060405234801561001057600080fd5b5032600260006101000a81548173ffffffffffffffffffffffffffffffffffffffff021916908373ffffffffffffffffffffffffffffffffffffffff160217905550611cd5806100616000396000f3fe608060405234801561001057600080fd5b5060043610610069576000357c01000000000000000000000000000000000000000000000000000000009004806309d2213a1461006e5780633bc5de301461008a5780638f32d59b146100a8578063c43ed2c8146100c6575b600080fd5b61008860048036036100839190810190611882565b6100e2565b005b61009261014f565b60405161009f9190611aaf565b60405180910390f35b6100b0610394565b6040516100bd9190611ad1565b60405180910390f35b6100e060048036036100db91908101906118c3565b6103ec565b005b6100ea610394565b6100f357600080fd5b60008151905060008090505b8181101561014a5761010f611541565b83828151811061011b57fe5b6020026020010151905061013c816000015182602001518360400151610640565b5080806001019150506100ff565b505050565b60606001805480602002602001604051908101604052809291908181526020016000905b8282101561038b5783829060005260206000209060030201604051806060016040529081600082018054600181600116156101000203166002900480601f01602080910402602001604051908101604052809291908181526020018280546001816001161561010002031660029004801561022f5780601f106102045761010080835404028352916020019161022f565b820191906000526020600020905b81548152906001019060200180831161021257829003601f168201915b50505050508152602001600182018054600181600116156101000203166002900480601f0160208091040260200160405190810160405280929190818152602001828054600181600116156101000203166002900480156102d15780601f106102a6576101008083540402835291602001916102d1565b820191906000526020600020905b8154815290600101906020018083116102b457829003601f168201915b50505050508152602001600282018054600181600116156101000203166002900480601f0160208091040260200160405190810160405280929190818152602001828054600181600116156101000203166002900480156103735780601f1061034857610100808354040283529160200191610373565b820191906000526020600020905b81548152906001019060200180831161035657829003601f168201915b50505050508152505081526020019060010190610173565b50505050905090565b6000600260009054906101000a900473ffffffffffffffffffffffffffffffffffffffff1673ffffffffffffffffffffffffffffffffffffffff163273ffffffffffffffffffffffffffffffffffffffff1614905090565b6103f4610394565b6103fd57600080fd5b610405611562565b61040e82610ac5565b9050606061041b82610af3565b905060008151905060008090505b8181101561063957600061046b61045285848151811061044557fe5b6020026020010151610af3565b60038151811061045e57fe5b6020026020010151610bca565b9050600081141561052b576105266104b161049886858151811061048b57fe5b6020026020010151610af3565b6000815181106104a457fe5b6020026020010151610c3b565b6104e96104d08786815181106104c357fe5b6020026020010151610af3565b6001815181106104dc57fe5b6020026020010151610c3b565b6105216105088887815181106104fb57fe5b6020026020010151610af3565b60028151811061051457fe5b6020026020010151610c3b565b610640565b61062b565b60018114156105795761057461056f61055686858151811061054957fe5b6020026020010151610af3565b60008151811061056257fe5b6020026020010151610c3b565b610cc7565b61062a565b6106296105b461059b86858151811061058e57fe5b6020026020010151610af3565b6000815181106105a757fe5b6020026020010151610c3b565b6105ec6105d38786815181106105c657fe5b6020026020010151610af3565b6001815181106105df57fe5b6020026020010151610c3b565b61062461060b8887815181106105fe57fe5b6020026020010151610af3565b60028151811061061757fe5b6020026020010151610c3b565b610f1b565b5b5b508080600101915050610429565b5050505050565b60008380519060200120905060606000808381526020019081526020016000208054806020026020016040519081016040528092919081815260200182805480156106aa57602002820191906000526020600020905b815481526020019060010190808311610696575b505050505090506000815111156108115760008151905060008090505b8181101561080e57606060018483815181106106df57fe5b6020026020010151815481106106f157fe5b90600052602060002090600302016000018054600181600116156101000203166002900480601f0160208091040260200160405190810160405280929190818152602001828054600181600116156101000203166002900480156107965780601f1061076b57610100808354040283529160200191610796565b820191906000526020600020905b81548152906001019060200180831161077957829003601f168201915b505050505090506107c06107a98961119f565b6107b28361119f565b6111cd90919063ffffffff16565b15610800576040517f08c379a00000000000000000000000000000000000000000000000000000000081526004016107f790611aec565b60405180910390fd5b5080806001019150506106c7565b50505b610819611541565b60405180606001604052808781526020018681526020018581525090506000600180549050905060008090505b818160ff1610156109ef5761091b61091660018360ff168154811061086757fe5b90600052602060002090600302016000018054600181600116156101000203166002900480601f01602080910402602001604051908101604052809291908181526020018280546001816001161561010002031660029004801561090c5780601f106108e15761010080835404028352916020019161090c565b820191906000526020600020905b8154815290600101906020018083116108ef57829003601f168201915b505050505061119f565b6111e3565b156109e2578260018260ff168154811061093157fe5b9060005260206000209060030201600082015181600001908051906020019061095b92919061157c565b50602082015181600101908051906020019061097892919061157c565b50604082015181600201908051906020019061099592919061157c565b50905050600080868152602001908152602001600020819080600181540180825580915050906001820390600052602060002001600090919260ff16909190915055505050505050610ac0565b8080600101915050610846565b50600182908060018154018082558091505090600182039060005260206000209060030201600090919290919091506000820151816000019080519060200190610a3a92919061157c565b506020820151816001019080519060200190610a5792919061157c565b506040820151816002019080519060200190610a7492919061157c565b5050505060008085815260200190815260200160002060018080549050039080600181540180825580915050906001820390600052602060002001600090919290919091505550505050505b505050565b610acd611562565b600060208301905060405180604001604052808451815260200182815250915050919050565b6060610afe826111f3565b610b0757600080fd5b6000610b1283611241565b905080604051908082528060200260200182016040528015610b4e57816020015b610b3b6115fc565b815260200190600190039081610b335790505b5091506000610b6084602001516112b2565b8460200151019050600080600090505b83811015610bc157610b818361133b565b9150604051806040016040528083815260200184815250858281518110610ba457fe5b602002602001018190525081830192508080600101915050610b70565b50505050919050565b6000808260000151118015610be457506021826000015111155b610bed57600080fd5b6000610bfc83602001516112b2565b90506000818460000151039050600080838660200151019050805191506020831015610c2f57826020036101000a820491505b81945050505050919050565b60606000826000015111610c4e57600080fd5b6000610c5d83602001516112b2565b905060008184600001510390506060816040519080825280601f01601f191660200182016040528015610c9f5781602001600182028038833980820191505090505b5090506000816020019050610cbb8487602001510182856113ee565b81945050505050919050565b6000818051906020012090506060600080838152602001908152602001600020805480602002602001604051908101604052809291908181526020018280548015610d3157602002820191906000526020600020905b815481526020019060010190808311610d1d575b505050505090506000815111610d7c576040517f08c379a0000000000000000000000000000000000000000000000000000000008152600401610d7390611b0c565b60405180910390fd5b60008151905060008090505b81811015610f145760606001848381518110610da057fe5b602002602001015181548110610db257fe5b90600052602060002090600302016000018054600181600116156101000203166002900480601f016020809104026020016040519081016040528092919081815260200182805460018160011615610100020316600290048015610e575780601f10610e2c57610100808354040283529160200191610e57565b820191906000526020600020905b815481529060010190602001808311610e3a57829003601f168201915b50505050509050610e81610e6a8761119f565b610e738361119f565b6111cd90919063ffffffff16565b15610f06576001848381518110610e9457fe5b602002602001015181548110610ea657fe5b906000526020600020906003020160008082016000610ec59190611616565b600182016000610ed59190611616565b600282016000610ee59190611616565b50506000808681526020019081526020016000206000610f05919061165e565b5b508080600101915050610d88565b5050505050565b6000838051906020012090506060600080838152602001908152602001600020805480602002602001604051908101604052809291908181526020018280548015610f8557602002820191906000526020600020905b815481526020019060010190808311610f71575b505050505090506000815111610fd0576040517f08c379a0000000000000000000000000000000000000000000000000000000008152600401610fc790611b0c565b60405180910390fd5b60008151905060008090505b818110156111955760606001848381518110610ff457fe5b60200260200101518154811061100657fe5b90600052602060002090600302016000018054600181600116156101000203166002900480601f0160208091040260200160405190810160405280929190818152602001828054600181600116156101000203166002900480156110ab5780601f10611080576101008083540402835291602001916110ab565b820191906000526020600020905b81548152906001019060200180831161108e57829003601f168201915b505050505090506110d56110be8961119f565b6110c78361119f565b6111cd90919063ffffffff16565b1561118757604051806060016040528089815260200188815260200187815250600185848151811061110357fe5b60200260200101518154811061111557fe5b9060005260206000209060030201600082015181600001908051906020019061113f92919061157c565b50602082015181600101908051906020019061115c92919061157c565b50604082015181600201908051906020019061117992919061157c565b50905050505050505061119a565b508080600101915050610fdc565b505050505b505050565b6111a761167f565b600060208301905060405180604001604052808451815260200182815250915050919050565b6000806111da8484611455565b14905092915050565b6000808260000151149050919050565b6000808260000151141561120a576000905061123c565b60008083602001519050805160001a915060c060ff168260ff1610156112355760009250505061123c565b6001925050505b919050565b6000808260000151141561125857600090506112ad565b6000809050600061126c84602001516112b2565b84602001510190506000846000015185602001510190505b808210156112a6576112958261133b565b820191508280600101935050611284565b8293505050505b919050565b600080825160001a9050608060ff168110156112d2576000915050611336565b60b860ff168110806112f7575060c060ff1681101580156112f6575060f860ff1681105b5b15611306576001915050611336565b60c060ff168110156113265760018060b80360ff16820301915050611336565b60018060f80360ff168203019150505b919050565b600080825160001a9050608060ff1681101561135b5760019150506113e9565b60b860ff16811015611379576001608060ff168203019150506113e9565b60c060ff168110156113a95760b78103600184019350806020036101000a845104600182018101935050506113e7565b60f860ff168110156113c757600160c060ff168203019150506113e9565b60f78103600184019350806020036101000a845104600182018101935050505b505b919050565b60008114156113fc57611450565b5b602060ff16811061142c5782518252602060ff1683019250602060ff1682019150602060ff16810390506113fd565b6000600182602060ff16036101000a03905080198451168184511681811785525050505b505050565b6000808360000151905083600001518360000151101561147757826000015190505b60008460200151905060008460200151905060008090505b838110156115295760008084519150835190508082146115105760007fffffffffffffffffffffffffffffffffffffffffffffffffffffffffffffffff905060208710156114ea57600184886020030160080260020a031990505b60008183168285160390506000811461150d57809850505050505050505061153b565b50505b602085019450602084019350505060208101905061148f565b50846000015186600001510393505050505b92915050565b60405180606001604052806060815260200160608152602001606081525090565b604051806040016040528060008152602001600081525090565b828054600181600116156101000203166002900490600052602060002090601f016020900481019282601f106115bd57805160ff19168380011785556115eb565b828001600101855582156115eb579182015b828111156115ea5782518255916020019190600101906115cf565b5b5090506115f89190611699565b5090565b604051806040016040528060008152602001600081525090565b50805460018160011615610100020316600290046000825580601f1061163c575061165b565b601f01602090049060005260206000209081019061165a9190611699565b5b50565b508054600082559060005260206000209081019061167c9190611699565b50565b604051806040016040528060008152602001600081525090565b6116bb91905b808211156116b757600081600090555060010161169f565b5090565b90565b600082601f8301126116cf57600080fd5b81356116e26116dd82611b59565b611b2c565b9150818183526020840193506020810190508360005b83811015611728578135860161170e88826117da565b8452602084019350602083019250506001810190506116f8565b5050505092915050565b600082601f83011261174357600080fd5b813561175661175182611b81565b611b2c565b9150808252602083016020830185838301111561177257600080fd5b61177d838284611c48565b50505092915050565b600082601f83011261179757600080fd5b81356117aa6117a582611bad565b611b2c565b915080825260208301602083018583830111156117c657600080fd5b6117d1838284611c48565b50505092915050565b6000606082840312156117ec57600080fd5b6117f66060611b2c565b9050600082013567ffffffffffffffff81111561181257600080fd5b61181e84828501611786565b600083015250602082013567ffffffffffffffff81111561183e57600080fd5b61184a84828501611786565b602083015250604082013567ffffffffffffffff81111561186a57600080fd5b61187684828501611786565b60408301525092915050565b60006020828403121561189457600080fd5b600082013567ffffffffffffffff8111156118ae57600080fd5b6118ba848285016116be565b91505092915050565b6000602082840312156118d557600080fd5b600082013567ffffffffffffffff8111156118ef57600080fd5b6118fb84828501611732565b91505092915050565b60006119108383611a51565b905092915050565b600061192382611be6565b61192d8185611c09565b93508360208202850161193f85611bd9565b60005b8481101561197857838303885261195a838351611904565b925061196582611bfc565b9150602088019750600181019050611942565b508196508694505050505092915050565b61199281611c3c565b82525050565b60006119a382611bf1565b6119ad8185611c1a565b93506119bd818560208601611c57565b6119c681611c8a565b840191505092915050565b60006119de601b83611c2b565b91507f4572726f723a207061746820616c7265616479206578697374732e00000000006000830152602082019050919050565b6000611a1e601c83611c2b565b91507f4572726f723a207061746820646f6573206e6f74206578697374732e000000006000830152602082019050919050565b60006060830160008301518482036000860152611a6e8282611998565b91505060208301518482036020860152611a888282611998565b91505060408301518482036040860152611aa28282611998565b9150508091505092915050565b60006020820190508181036000830152611ac98184611918565b905092915050565b6000602082019050611ae66000830184611989565b92915050565b60006020820190508181036000830152611b05816119d1565b9050919050565b60006020820190508181036000830152611b2581611a11565b9050919050565b6000604051905081810181811067ffffffffffffffff82111715611b4f57600080fd5b8060405250919050565b600067ffffffffffffffff821115611b7057600080fd5b602082029050602081019050919050565b600067ffffffffffffffff821115611b9857600080fd5b601f19601f8301169050602081019050919050565b600067ffffffffffffffff821115611bc457600080fd5b601f19601f8301169050602081019050919050565b6000602082019050919050565b600081519050919050565b600081519050919050565b6000602082019050919050565b600082825260208201905092915050565b600082825260208201905092915050565b600082825260208201905092915050565b60008115159050919050565b82818337600083830152505050565b60005b83811015611c75578082015181840152602081019050611c5a565b83811115611c84576000848401525b50505050565b6000601f19601f830116905091905056fea265627a7a7230582032fe14fb38b910cf59d757309a2c1f24bc793c9909c4090216b8058de1a19b8c6c6578706572696d656e74616cf50037",
  "source": "pragma solidity ^0.5.2;\npragma experimental ABIEncoderV2;\n\nimport \"./lib/Strings.sol\";\nimport \"./lib/Structs.sol\";\nimport \"../../node_modules/solidity-rlp/contracts/RLPReader.sol\";\n\n\ncontract JsonContainer is Structs {\n\n  using Strings for *;\n  using RLPReader for bytes;\n  using RLPReader for uint;\n  using RLPReader for RLPReader.RLPItem;\n\n  mapping (bytes32 => uint[]) private hashIndexMap_;\n\n  PathValue[] private data_;\n\n  address private _owner;\n\n  constructor() public {\n    _owner = tx.origin;\n  }\n\n  modifier onlyOwner() {\n    require(isOwner());\n    _;\n  }\n\n  function isOwner() public view returns(bool) {\n    return tx.origin == _owner;\n  }\n\n  function getData() public view returns (PathValue[] memory) {\n    return data_;\n  }\n\n  function update(bytes memory _in) onlyOwner public {\n    RLPReader.RLPItem memory item = _in.toRlpItem();\n    RLPReader.RLPItem[] memory itemList = item.toList();\n    uint listLength = itemList.length;\n    for (uint i = 0; i < listLength; i++) {\n      uint difference = itemList[i].toList()[3].toUint();\n      if (difference == 0) { //addition\n        _addPath(string(itemList[i].toList()[0].toBytes()), string(itemList[i].toList()[1].toBytes()), string(itemList[i].toList()[2].toBytes()));\n      } else if (difference == 1) { //deletion\n        _deletePath(string(itemList[i].toList()[0].toBytes()));\n      } else { //modification\n        _modifyPath(string(itemList[i].toList()[0].toBytes()), string(itemList[i].toList()[1].toBytes()), string(itemList[i].toList()[2].toBytes()));\n      }\n    }\n  }\n\n  function initialize(PathValue[] memory _data) onlyOwner  public {\n    uint dataLength = _data.length;\n    for (uint i = 0;i < dataLength; i++) {\n      PathValue memory pathValue = _data[i];\n      _addPath(pathValue.path, pathValue.value, pathValue.valueType);\n    }\n  }\n\n  function _addPath(string memory _path, string memory _value, string memory _valueType) internal {\n    bytes32 pathHash = keccak256(bytes(_path));\n    uint[] memory indexArray = hashIndexMap_[pathHash];\n    if (indexArray.length > 0) {\n      uint indexLength = indexArray.length;\n      for (uint i = 0; i < indexLength; i++) {\n        string memory storedPath = data_[indexArray[i]].path;\n        require(!storedPath.toSlice().equals(_path.toSlice()), \"Error: path already exists.\");\n      }\n    }\n    PathValue memory pathValue = PathValue(_path, _value, _valueType);\n    uint dataLength = data_.length;\n    for (uint8 i = 0; i < dataLength; i++) {\n      if (data_[i].path.toSlice().empty()) {\n        data_[i] = pathValue;\n        hashIndexMap_[pathHash].push(i);\n        return;\n      }\n    }\n    data_.push(pathValue);\n    hashIndexMap_[pathHash].push(data_.length - 1); \n  }\n\n  function _deletePath(string memory _path) internal {\n    bytes32 pathHash = keccak256(bytes(_path));\n    uint[] memory indexArray = hashIndexMap_[pathHash];\n    require(indexArray.length > 0, \"Error: path does not exists.\");\n    uint indexLength = indexArray.length;\n    for (uint i = 0; i < indexLength; i++) {\n      string memory storedPath = data_[indexArray[i]].path;\n      if (storedPath.toSlice().equals(_path.toSlice())) {\n        delete data_[indexArray[i]];\n        delete hashIndexMap_[pathHash];\n      }\n    }\n  }\n\n  function _modifyPath(string memory _path, string memory _value, string memory _valueType) internal {\n    bytes32 pathHash = keccak256(bytes(_path));\n    uint[] memory indexArray = hashIndexMap_[pathHash];\n    require(indexArray.length > 0, \"Error: path does not exists.\");\n    uint indexLength = indexArray.length;\n    for (uint i = 0; i < indexLength; i++) {\n      string memory storedPath = data_[indexArray[i]].path;\n      if (storedPath.toSlice().equals(_path.toSlice())) {\n        data_[indexArray[i]] = PathValue(_path, _value, _valueType);\n        return;\n      }\n    }\n  }\n\n}",
  "sourcePath": "/home/jordi/ws/jordiescudero/bloomen-wallet/bloomen-wallet-truffle/contracts/jsw/JsonContainer.sol",
  "compiler": {
    "name": "solc",
    "version": "0.5.7+commit.6da8b019.Emscripten.clang"
  },
  "schemaVersion": "3.0.6",
  "updatedAt": "2019-04-16T14:50:38.983Z",
  "devdoc": {
    "methods": {}
  },
  "userdoc": {
    "methods": {}
  }
}