{
  "contractName": "Assets",
  "abi": [
    {
      "constant": false,
      "inputs": [
        {
          "name": "account",
          "type": "address"
        }
      ],
      "name": "addWhitelisted",
      "outputs": [],
      "payable": false,
      "stateMutability": "nonpayable",
      "type": "function",
      "signature": "0x10154bad"
    },
    {
      "constant": false,
      "inputs": [
        {
          "name": "account",
          "type": "address"
        }
      ],
      "name": "removeWhitelisted",
      "outputs": [],
      "payable": false,
      "stateMutability": "nonpayable",
      "type": "function",
      "signature": "0x291d9549"
    },
    {
      "constant": true,
      "inputs": [
        {
          "name": "account",
          "type": "address"
        }
      ],
      "name": "isWhitelisted",
      "outputs": [
        {
          "name": "",
          "type": "bool"
        }
      ],
      "payable": false,
      "stateMutability": "view",
      "type": "function",
      "signature": "0x3af32abf"
    },
    {
      "constant": false,
      "inputs": [],
      "name": "renounceWhitelistAdmin",
      "outputs": [],
      "payable": false,
      "stateMutability": "nonpayable",
      "type": "function",
      "signature": "0x4c5a628c"
    },
    {
      "constant": false,
      "inputs": [
        {
          "name": "account",
          "type": "address"
        }
      ],
      "name": "addWhitelistAdmin",
      "outputs": [],
      "payable": false,
      "stateMutability": "nonpayable",
      "type": "function",
      "signature": "0x7362d9c8"
    },
    {
      "constant": true,
      "inputs": [
        {
          "name": "account",
          "type": "address"
        }
      ],
      "name": "isWhitelistAdmin",
      "outputs": [
        {
          "name": "",
          "type": "bool"
        }
      ],
      "payable": false,
      "stateMutability": "view",
      "type": "function",
      "signature": "0xbb5f747b"
    },
    {
      "constant": false,
      "inputs": [],
      "name": "renounceWhitelisted",
      "outputs": [],
      "payable": false,
      "stateMutability": "nonpayable",
      "type": "function",
      "signature": "0xd6cd9473"
    },
    {
      "inputs": [
        {
          "name": "_schemasAddr",
          "type": "address"
        },
        {
          "name": "_erc223Addr",
          "type": "address"
        }
      ],
      "payable": false,
      "stateMutability": "nonpayable",
      "type": "constructor",
      "signature": "constructor"
    },
    {
      "anonymous": false,
      "inputs": [
        {
          "indexed": true,
          "name": "account",
          "type": "address"
        }
      ],
      "name": "WhitelistedAdded",
      "type": "event",
      "signature": "0xee1504a83b6d4a361f4c1dc78ab59bfa30d6a3b6612c403e86bb01ef2984295f"
    },
    {
      "anonymous": false,
      "inputs": [
        {
          "indexed": true,
          "name": "account",
          "type": "address"
        }
      ],
      "name": "WhitelistedRemoved",
      "type": "event",
      "signature": "0x270d9b30cf5b0793bbfd54c9d5b94aeb49462b8148399000265144a8722da6b6"
    },
    {
      "anonymous": false,
      "inputs": [
        {
          "indexed": true,
          "name": "account",
          "type": "address"
        }
      ],
      "name": "WhitelistAdminAdded",
      "type": "event",
      "signature": "0x22380c05984257a1cb900161c713dd71d39e74820f1aea43bd3f1bdd20961299"
    },
    {
      "anonymous": false,
      "inputs": [
        {
          "indexed": true,
          "name": "account",
          "type": "address"
        }
      ],
      "name": "WhitelistAdminRemoved",
      "type": "event",
      "signature": "0x0a8eb35e5ca14b3d6f28e4abf2f128dbab231a58b56e89beb5d636115001e165"
    },
    {
      "constant": false,
      "inputs": [
        {
          "name": "assetId",
          "type": "uint256"
        },
        {
          "name": "_dappId",
          "type": "string"
        }
      ],
      "name": "removeAsset",
      "outputs": [],
      "payable": false,
      "stateMutability": "nonpayable",
      "type": "function",
      "signature": "0x772ee231"
    },
    {
      "constant": false,
      "inputs": [
        {
          "name": "_assetId",
          "type": "uint256"
        },
        {
          "name": "_schemaId",
          "type": "uint256"
        },
        {
          "name": "dappId",
          "type": "string"
        }
      ],
      "name": "checkOwnershipOneAsset",
      "outputs": [
        {
          "name": "",
          "type": "bool"
        }
      ],
      "payable": false,
      "stateMutability": "nonpayable",
      "type": "function",
      "signature": "0xc2a81a21"
    },
    {
      "constant": false,
      "inputs": [
        {
          "name": "_assetsIds",
          "type": "uint256[]"
        },
        {
          "name": "_schemaId",
          "type": "uint256"
        },
        {
          "name": "dappId",
          "type": "string"
        }
      ],
      "name": "checkOwnershipMultipleAssets",
      "outputs": [
        {
          "name": "",
          "type": "bool[]"
        }
      ],
      "payable": false,
      "stateMutability": "nonpayable",
      "type": "function",
      "signature": "0x8d188b63"
    },
    {
      "constant": false,
      "inputs": [
        {
          "name": "_target",
          "type": "address"
        },
        {
          "name": "_assetId",
          "type": "uint256"
        },
        {
          "name": "_schemaId",
          "type": "uint256"
        },
        {
          "name": "dappId",
          "type": "string"
        }
      ],
      "name": "checkOwnershipOneAssetForAddress",
      "outputs": [
        {
          "name": "",
          "type": "bool"
        }
      ],
      "payable": false,
      "stateMutability": "nonpayable",
      "type": "function",
      "signature": "0x25c6e6a8"
    },
    {
      "constant": false,
      "inputs": [
        {
          "name": "_target",
          "type": "address"
        },
        {
          "name": "_assetsIds",
          "type": "uint256[]"
        },
        {
          "name": "_schemaId",
          "type": "uint256"
        },
        {
          "name": "dappId",
          "type": "string"
        }
      ],
      "name": "checkOwnershipMultipleAssetsForAddress",
      "outputs": [
        {
          "name": "",
          "type": "bool[]"
        }
      ],
      "payable": false,
      "stateMutability": "nonpayable",
      "type": "function",
      "signature": "0xe02d5a03"
    },
    {
      "constant": false,
      "inputs": [
        {
          "name": "dappId",
          "type": "string"
        }
      ],
      "name": "getAssetsPageCount",
      "outputs": [
        {
          "name": "",
          "type": "uint256"
        }
      ],
      "payable": false,
      "stateMutability": "nonpayable",
      "type": "function",
      "signature": "0x9891bcf4"
    },
    {
      "constant": false,
      "inputs": [
        {
          "name": "_page",
          "type": "uint256"
        },
        {
          "name": "dappId",
          "type": "string"
        }
      ],
      "name": "getAssets",
      "outputs": [
        {
          "components": [
            {
              "name": "expirationDate",
              "type": "uint256"
            },
            {
              "name": "assetId",
              "type": "uint256"
            },
            {
              "name": "schemaId",
              "type": "uint256"
            },
            {
              "name": "dappId",
              "type": "string"
            },
            {
              "name": "description",
              "type": "string"
            }
          ],
          "name": "",
          "type": "tuple[]"
        }
      ],
      "payable": false,
      "stateMutability": "nonpayable",
      "type": "function",
      "signature": "0x3c42bf33"
    },
    {
      "constant": false,
      "inputs": [
        {
          "name": "_user",
          "type": "address"
        },
        {
          "name": "_amount",
          "type": "uint256"
        },
        {
          "name": "_data",
          "type": "bytes"
        }
      ],
      "name": "tokenFallback",
      "outputs": [],
      "payable": false,
      "stateMutability": "nonpayable",
      "type": "function",
      "signature": "0xc0ee0b8a"
    }
  ],
  "bytecode": "0x60806040523480156200001157600080fd5b50604051604080620037178339810180604052620000339190810190620002a9565b6200004d33620000d7640100000000026401000000009004565b80600560006101000a81548173ffffffffffffffffffffffffffffffffffffffff021916908373ffffffffffffffffffffffffffffffffffffffff16021790555081600460006101000a81548173ffffffffffffffffffffffffffffffffffffffff021916908373ffffffffffffffffffffffffffffffffffffffff16021790555050506200031e565b620000fb816000620001416401000000000262001e3a179091906401000000009004565b8073ffffffffffffffffffffffffffffffffffffffff167f22380c05984257a1cb900161c713dd71d39e74820f1aea43bd3f1bdd2096129960405160405180910390a250565b600073ffffffffffffffffffffffffffffffffffffffff168173ffffffffffffffffffffffffffffffffffffffff1614156200017c57600080fd5b62000197828262000200640100000000026401000000009004565b15620001a257600080fd5b60018260000160008373ffffffffffffffffffffffffffffffffffffffff1673ffffffffffffffffffffffffffffffffffffffff16815260200190815260200160002060006101000a81548160ff0219169083151502179055505050565b60008073ffffffffffffffffffffffffffffffffffffffff168273ffffffffffffffffffffffffffffffffffffffff1614156200023c57600080fd5b8260000160008373ffffffffffffffffffffffffffffffffffffffff1673ffffffffffffffffffffffffffffffffffffffff16815260200190815260200160002060009054906101000a900460ff16905092915050565b6000620002a18251620002ea565b905092915050565b60008060408385031215620002bd57600080fd5b6000620002cd8582860162000293565b9250506020620002e08582860162000293565b9150509250929050565b6000620002f782620002fe565b9050919050565b600073ffffffffffffffffffffffffffffffffffffffff82169050919050565b6133e9806200032e6000396000f3fe608060405234801561001057600080fd5b5060043610610112576000357c010000000000000000000000000000000000000000000000000000000090048063772ee231116100b4578063c0ee0b8a11610083578063c0ee0b8a146102b1578063c2a81a21146102cd578063d6cd9473146102fd578063e02d5a031461030757610112565b8063772ee231146102055780638d188b63146102215780639891bcf414610251578063bb5f747b1461028157610112565b80633af32abf116100f05780633af32abf1461017f5780633c42bf33146101af5780634c5a628c146101df5780637362d9c8146101e957610112565b806310154bad1461011757806325c6e6a814610133578063291d954914610163575b600080fd5b610131600480360361012c9190810190612994565b610337565b005b61014d60048036036101489190810190612ab7565b610355565b60405161015a919061307c565b60405180910390f35b61017d60048036036101789190810190612994565b61036d565b005b61019960048036036101949190810190612994565b61038b565b6040516101a6919061307c565b60405180910390f35b6101c960048036036101c49190810190612c5c565b6103a8565b6040516101d6919061305a565b60405180910390f35b6101e7610692565b005b61020360048036036101fe9190810190612994565b61069d565b005b61021f600480360361021a9190810190612c5c565b6106bb565b005b61023b60048036036102369190810190612b32565b6106ca565b6040516102489190613038565b60405180910390f35b61026b60048036036102669190810190612bda565b6106e1565b6040516102789190613117565b60405180910390f35b61029b60048036036102969190810190612994565b6107b2565b6040516102a8919061307c565b60405180910390f35b6102cb60048036036102c69190810190612a50565b6107cf565b005b6102e760048036036102e29190810190612cb0565b610ea1565b6040516102f4919061307c565b60405180910390f35b610305610eb8565b005b610321600480360361031c91908101906129bd565b610ec3565b60405161032e9190613038565b60405180910390f35b610340336107b2565b61034957600080fd5b61035281610edb565b50565b600061036385858585610f35565b9050949350505050565b610376336107b2565b61037f57600080fd5b61038881611231565b50565b60006103a182600161128b90919063ffffffff16565b9050919050565b606060006103b58361131d565b90506000600a85600a0203905060608260010160003373ffffffffffffffffffffffffffffffffffffffff1673ffffffffffffffffffffffffffffffffffffffff168152602001908152602001600020600101805480602002602001604051908101604052809291908181526020016000905b828210156105bc57838290600052602060002090600502016040518060a0016040529081600082015481526020016001820154815260200160028201548152602001600382018054600181600116156101000203166002900480601f0160208091040260200160405190810160405280929190818152602001828054600181600116156101000203166002900480156105025780601f106104d757610100808354040283529160200191610502565b820191906000526020600020905b8154815290600101906020018083116104e557829003601f168201915b50505050508152602001600482018054600181600116156101000203166002900480601f0160208091040260200160405190810160405280929190818152602001828054600181600116156101000203166002900480156105a45780601f10610579576101008083540402835291602001916105a4565b820191906000526020600020905b81548152906001019060200180831161058757829003601f168201915b50505050508152505081526020019060010190610428565b5050505090506000815114806105d55750600181510382115b156105e85760608094505050505061068c565b6060600a60405190808252806020026020018201604052801561062557816020015b6106126122df565b81526020019060019003908161060a5790505b50905060008090505b87600a0284101561068357825184101561066e5782848151811061064e57fe5b602002602001015182828151811061066257fe5b60200260200101819052505b8080600101915050838060010194505061062e565b81955050505050505b92915050565b61069b336115ad565b565b6106a6336107b2565b6106af57600080fd5b6106b881611607565b50565b6106c6338383611661565b5050565b60606106d833858585611b41565b90509392505050565b6000806106ed8361131d565b90506000600a8260010160003373ffffffffffffffffffffffffffffffffffffffff1673ffffffffffffffffffffffffffffffffffffffff168152602001908152602001600020600101805490508161074257fe5b0490506000600a8360010160003373ffffffffffffffffffffffffffffffffffffffff1673ffffffffffffffffffffffffffffffffffffffff168152602001908152602001600020600101805490508161079857fe5b0611156107a85780806001019150505b8092505050919050565b60006107c882600061128b90919063ffffffff16565b9050919050565b6107d83361038b565b6107e157600080fd5b6107e961230e565b6107f282611bdd565b905060606107ff82611c0b565b905060006108208260008151811061081357fe5b6020026020010151611ce2565b905060006108418360018151811061083457fe5b6020026020010151611ce2565b905060606108628460028151811061085557fe5b6020026020010151611d53565b9050600061086f8261131d565b905060606108908660038151811061088357fe5b6020026020010151611d53565b905061089a612328565b600460009054906101000a900473ffffffffffffffffffffffffffffffffffffffff1673ffffffffffffffffffffffffffffffffffffffff16632b26fb29866040518263ffffffff167c01000000000000000000000000000000000000000000000000000000000281526004016109119190613117565b60006040518083038186803b15801561092957600080fd5b505afa15801561093d573d6000803e3d6000fd5b505050506040513d6000823e3d601f19601f820116820180604052506109669190810190612c1b565b905089816060015111156109af576040517f08c379a00000000000000000000000000000000000000000000000000000000081526004016109a6906130d7565b60405180910390fd5b898160e0015110156109f6576040517f08c379a00000000000000000000000000000000000000000000000000000000081526004016109ed906130d7565b60405180910390fd5b610a1d610a0285611ddf565b610a0f8360000151611ddf565b611e0d90919063ffffffff16565b610a5c576040517f08c379a0000000000000000000000000000000000000000000000000000000008152600401610a53906130b7565b60405180910390fd5b8060e0015181606001511415610ab957610a788b878787610f35565b15610ab8576040517f08c379a0000000000000000000000000000000000000000000000000000000008152600401610aaf906130f7565b60405180910390fd5b5b60008a905060008090505b60018360a001515103811015610bf7576000610afb8d8560a001518481518110610aea57fe5b602002602001015160000151611e23565b9050600560009054906101000a900473ffffffffffffffffffffffffffffffffffffffff1673ffffffffffffffffffffffffffffffffffffffff1663a9059cbb8560a001518481518110610b4b57fe5b602002602001015160200151836040518363ffffffff167c0100000000000000000000000000000000000000000000000000000000028152600401610b9192919061300f565b602060405180830381600087803b158015610bab57600080fd5b505af1158015610bbf573d6000803e3d6000fd5b505050506040513d601f19601f82011682018060405250610be39190810190612bb1565b508083039250508080600101915050610ac4565b50600560009054906101000a900473ffffffffffffffffffffffffffffffffffffffff1673ffffffffffffffffffffffffffffffffffffffff1663a9059cbb8360a0015160018560a00151510381518110610c4e57fe5b602002602001015160200151836040518363ffffffff167c0100000000000000000000000000000000000000000000000000000000028152600401610c9492919061300f565b602060405180830381600087803b158015610cae57600080fd5b505af1158015610cc2573d6000803e3d6000fd5b505050506040513d601f19601f82011682018060405250610ce69190810190612bb1565b508160e0015182606001511415610e93578360010160008d73ffffffffffffffffffffffffffffffffffffffff1673ffffffffffffffffffffffffffffffffffffffff1681526020019081526020016000206001016040518060a0016040528084608001514201815260200189815260200188815260200187815260200185815250908060018154018082558091505090600182039060005260206000209060050201600090919290919091506000820151816000015560208201518160010155604082015181600201556060820151816003019080519060200190610dcd92919061236f565b506080820151816004019080519060200190610dea92919061236f565b5050505060018460010160008e73ffffffffffffffffffffffffffffffffffffffff1673ffffffffffffffffffffffffffffffffffffffff16815260200190815260200160002060010180549050038460010160008e73ffffffffffffffffffffffffffffffffffffffff1673ffffffffffffffffffffffffffffffffffffffff1681526020019081526020016000206000016000898152602001908152602001600020819055505b505050505050505050505050565b6000610eaf33858585610f35565b90509392505050565b610ec133611231565b565b6060610ed185858585611b41565b9050949350505050565b610eef816001611e3a90919063ffffffff16565b8073ffffffffffffffffffffffffffffffffffffffff167fee1504a83b6d4a361f4c1dc78ab59bfa30d6a3b6612c403e86bb01ef2984295f60405160405180910390a250565b600080610f418361131d565b905060008160010160008873ffffffffffffffffffffffffffffffffffffffff1673ffffffffffffffffffffffffffffffffffffffff168152602001908152602001600020600101805490501415610f9d576000915050611229565b60008160010160008873ffffffffffffffffffffffffffffffffffffffff1673ffffffffffffffffffffffffffffffffffffffff1681526020019081526020016000206000016000878152602001908152602001600020549050610fff6123ef565b8260010160008973ffffffffffffffffffffffffffffffffffffffff1673ffffffffffffffffffffffffffffffffffffffff168152602001908152602001600020600101828154811061104e57fe5b90600052602060002090600502016040518060a0016040529081600082015481526020016001820154815260200160028201548152602001600382018054600181600116156101000203166002900480601f01602080910402602001604051908101604052809291908181526020018280546001816001161561010002031660029004801561111e5780601f106110f35761010080835404028352916020019161111e565b820191906000526020600020905b81548152906001019060200180831161110157829003601f168201915b50505050508152602001600482018054600181600116156101000203166002900480601f0160208091040260200160405190810160405280929190818152602001828054600181600116156101000203166002900480156111c05780601f10611195576101008083540402835291602001916111c0565b820191906000526020600020905b8154815290600101906020018083116111a357829003601f168201915b50505050508152505090504281600001511180156111e15750868160200151145b8015611210575061120f6111f88260600151611ddf565b61120187611ddf565b611e0d90919063ffffffff16565b5b156112215760019350505050611229565b600093505050505b949350505050565b611245816001611ee690919063ffffffff16565b8073ffffffffffffffffffffffffffffffffffffffff167f270d9b30cf5b0793bbfd54c9d5b94aeb49462b8148399000265144a8722da6b660405160405180910390a250565b60008073ffffffffffffffffffffffffffffffffffffffff168273ffffffffffffffffffffffffffffffffffffffff1614156112c657600080fd5b8260000160008373ffffffffffffffffffffffffffffffffffffffff1673ffffffffffffffffffffffffffffffffffffffff16815260200190815260200160002060009054906101000a900460ff16905092915050565b6000808280519060200120905060606002600083815260200190815260200160002080548060200260200160405190810160405280929190818152602001828054801561138957602002820191906000526020600020905b815481526020019060010190808311611375575b505050505090506000815111156114e15760008090505b81518110156114df5761149561147e60038484815181106113bd57fe5b6020026020010151815481106113cf57fe5b90600052602060002090600202016000018054600181600116156101000203166002900480601f0160208091040260200160405190810160405280929190818152602001828054600181600116156101000203166002900480156114745780601f1061144957610100808354040283529160200191611474565b820191906000526020600020905b81548152906001019060200180831161145757829003601f168201915b5050505050611ddf565b61148787611ddf565b611e0d90919063ffffffff16565b156114d25760038282815181106114a857fe5b6020026020010151815481106114ba57fe5b906000526020600020906002020193505050506115a8565b80806001019150506113a0565b505b600360405180602001604052808681525090806001815401808255809150509060018203906000526020600020906002020160009091929091909150600082015181600001908051906020019061153992919061236f565b5050505060006001600380549050039050600260008481526020019081526020016000208190806001815401808255809150509060018203906000526020600020016000909192909190915055506003818154811061159457fe5b906000526020600020906002020193505050505b919050565b6115c1816000611ee690919063ffffffff16565b8073ffffffffffffffffffffffffffffffffffffffff167f0a8eb35e5ca14b3d6f28e4abf2f128dbab231a58b56e89beb5d636115001e16560405160405180910390a250565b61161b816000611e3a90919063ffffffff16565b8073ffffffffffffffffffffffffffffffffffffffff167f22380c05984257a1cb900161c713dd71d39e74820f1aea43bd3f1bdd2096129960405160405180910390a250565b600061166c8261131d565b905060008160010160008673ffffffffffffffffffffffffffffffffffffffff1673ffffffffffffffffffffffffffffffffffffffff16815260200190815260200160002060010180549050116116f8576040517f08c379a00000000000000000000000000000000000000000000000000000000081526004016116ef90613097565b60405180910390fd5b60008160010160008673ffffffffffffffffffffffffffffffffffffffff1673ffffffffffffffffffffffffffffffffffffffff16815260200190815260200160002060000160008581526020019081526020016000205490508160010160008673ffffffffffffffffffffffffffffffffffffffff1673ffffffffffffffffffffffffffffffffffffffff1681526020019081526020016000206000016000858152602001908152602001600020600090558160010160008673ffffffffffffffffffffffffffffffffffffffff1673ffffffffffffffffffffffffffffffffffffffff16815260200190815260200160002060010181815481106117fa57fe5b906000526020600020906005020160008082016000905560018201600090556002820160009055600382016000611831919061241e565b600482016000611841919061241e565b505060008190505b60018360010160008873ffffffffffffffffffffffffffffffffffffffff1673ffffffffffffffffffffffffffffffffffffffff1681526020019081526020016000206001018054905003811015611a90578260010160008773ffffffffffffffffffffffffffffffffffffffff1673ffffffffffffffffffffffffffffffffffffffff16815260200190815260200160002060010160018201815481106118ed57fe5b90600052602060002090600502018360010160008873ffffffffffffffffffffffffffffffffffffffff1673ffffffffffffffffffffffffffffffffffffffff168152602001908152602001600020600101828154811061194a57fe5b90600052602060002090600502016000820154816000015560018201548160010155600282015481600201556003820181600301908054600181600116156101000203166002900461199d929190612466565b50600482018160040190805460018160011615610100020316600290046119c5929190612466565b50905050808360010160008873ffffffffffffffffffffffffffffffffffffffff1673ffffffffffffffffffffffffffffffffffffffff16815260200190815260200160002060000160008560010160008a73ffffffffffffffffffffffffffffffffffffffff1673ffffffffffffffffffffffffffffffffffffffff1681526020019081526020016000206001018481548110611a5f57fe5b9060005260206000209060050201600101548152602001908152602001600020819055508080600101915050611849565b5060008260010160008773ffffffffffffffffffffffffffffffffffffffff1673ffffffffffffffffffffffffffffffffffffffff168152602001908152602001600020600101805490501115611b3a578160010160008673ffffffffffffffffffffffffffffffffffffffff1673ffffffffffffffffffffffffffffffffffffffff168152602001908152602001600020600101805480919060019003611b3891906124ed565b505b5050505050565b6060808451604051908082528060200260200182016040528015611b745781602001602082028038833980820191505090505b50905060008090505b8551811015611bd057611ba587878381518110611b9657fe5b60200260200101518787610f35565b828281518110611bb157fe5b6020026020010190151590811515815250508080600101915050611b7d565b5080915050949350505050565b611be561230e565b600060208301905060405180604001604052808451815260200182815250915050919050565b6060611c1682611f91565b611c1f57600080fd5b6000611c2a83611fdf565b905080604051908082528060200260200182016040528015611c6657816020015b611c5361251f565b815260200190600190039081611c4b5790505b5091506000611c788460200151612050565b8460200151019050600080600090505b83811015611cd957611c99836120d9565b9150604051806040016040528083815260200184815250858281518110611cbc57fe5b602002602001018190525081830192508080600101915050611c88565b50505050919050565b6000808260000151118015611cfc57506021826000015111155b611d0557600080fd5b6000611d148360200151612050565b90506000818460000151039050600080838660200151019050805191506020831015611d4757826020036101000a820491505b81945050505050919050565b60606000826000015111611d6657600080fd5b6000611d758360200151612050565b905060008184600001510390506060816040519080825280601f01601f191660200182016040528015611db75781602001600182028038833980820191505090505b5090506000816020019050611dd384876020015101828561218c565b81945050505050919050565b611de7612539565b600060208301905060405180604001604052808451815260200182815250915050919050565b600080611e1a84846121f3565b14905092915050565b6000606482840281611e3157fe5b04905092915050565b600073ffffffffffffffffffffffffffffffffffffffff168173ffffffffffffffffffffffffffffffffffffffff161415611e7457600080fd5b611e7e828261128b565b15611e8857600080fd5b60018260000160008373ffffffffffffffffffffffffffffffffffffffff1673ffffffffffffffffffffffffffffffffffffffff16815260200190815260200160002060006101000a81548160ff0219169083151502179055505050565b600073ffffffffffffffffffffffffffffffffffffffff168173ffffffffffffffffffffffffffffffffffffffff161415611f2057600080fd5b611f2a828261128b565b611f3357600080fd5b60008260000160008373ffffffffffffffffffffffffffffffffffffffff1673ffffffffffffffffffffffffffffffffffffffff16815260200190815260200160002060006101000a81548160ff0219169083151502179055505050565b60008082600001511415611fa85760009050611fda565b60008083602001519050805160001a915060c060ff168260ff161015611fd357600092505050611fda565b6001925050505b919050565b60008082600001511415611ff6576000905061204b565b6000809050600061200a8460200151612050565b84602001510190506000846000015185602001510190505b8082101561204457612033826120d9565b820191508280600101935050612022565b8293505050505b919050565b600080825160001a9050608060ff168110156120705760009150506120d4565b60b860ff16811080612095575060c060ff168110158015612094575060f860ff1681105b5b156120a45760019150506120d4565b60c060ff168110156120c45760018060b80360ff168203019150506120d4565b60018060f80360ff168203019150505b919050565b600080825160001a9050608060ff168110156120f9576001915050612187565b60b860ff16811015612117576001608060ff16820301915050612187565b60c060ff168110156121475760b78103600184019350806020036101000a84510460018201810193505050612185565b60f860ff1681101561216557600160c060ff16820301915050612187565b60f78103600184019350806020036101000a845104600182018101935050505b505b919050565b600081141561219a576121ee565b5b602060ff1681106121ca5782518252602060ff1683019250602060ff1682019150602060ff168103905061219b565b6000600182602060ff16036101000a03905080198451168184511681811785525050505b505050565b6000808360000151905083600001518360000151101561221557826000015190505b60008460200151905060008460200151905060008090505b838110156122c75760008084519150835190508082146122ae5760007fffffffffffffffffffffffffffffffffffffffffffffffffffffffffffffffff9050602087101561228857600184886020030160080260020a031990505b6000818316828516039050600081146122ab5780985050505050505050506122d9565b50505b602085019450602084019350505060208101905061222d565b50846000015186600001510393505050505b92915050565b6040518060a0016040528060008152602001600081526020016000815260200160608152602001606081525090565b604051806040016040528060008152602001600081525090565b604051806101000160405280606081526020016000815260200160008152602001600081526020016000815260200160608152602001600015158152602001600081525090565b828054600181600116156101000203166002900490600052602060002090601f016020900481019282601f106123b057805160ff19168380011785556123de565b828001600101855582156123de579182015b828111156123dd5782518255916020019190600101906123c2565b5b5090506123eb9190612553565b5090565b6040518060a0016040528060008152602001600081526020016000815260200160608152602001606081525090565b50805460018160011615610100020316600290046000825580601f106124445750612463565b601f0160209004906000526020600020908101906124629190612553565b5b50565b828054600181600116156101000203166002900490600052602060002090601f016020900481019282601f1061249f57805485556124dc565b828001600101855582156124dc57600052602060002091601f016020900482015b828111156124db5782548255916001019190600101906124c0565b5b5090506124e99190612553565b5090565b81548183558181111561251a576005028160050283600052602060002091820191016125199190612578565b5b505050565b604051806040016040528060008152602001600081525090565b604051806040016040528060008152602001600081525090565b61257591905b80821115612571576000816000905550600101612559565b5090565b90565b6125cc91905b808211156125c857600080820160009055600182016000905560028201600090556003820160006125af919061241e565b6004820160006125bf919061241e565b5060050161257e565b5090565b90565b60006125db8235613314565b905092915050565b60006125ef8251613314565b905092915050565b600082601f83011261260857600080fd5b815161261b6126168261315f565b613132565b9150818183526020840193506020810190508360005b83811015612661578151860161264788826127fe565b845260208401935060208301925050600181019050612631565b5050505092915050565b600082601f83011261267c57600080fd5b813561268f61268a82613187565b613132565b915081818352602084019350602081019050838560208402820111156126b457600080fd5b60005b838110156126e457816126ca888261296c565b8452602084019350602083019250506001810190506126b7565b5050505092915050565b60006126fa8251613326565b905092915050565b600082601f83011261271357600080fd5b8135612726612721826131af565b613132565b9150808252602083016020830185838301111561274257600080fd5b61274d83828461335c565b50505092915050565b600082601f83011261276757600080fd5b815161277a612775826131db565b613132565b9150808252602083016020830185838301111561279657600080fd5b6127a183828461336b565b50505092915050565b600082601f8301126127bb57600080fd5b81356127ce6127c982613207565b613132565b915080825260208301602083018583830111156127ea57600080fd5b6127f583828461335c565b50505092915050565b60006060828403121561281057600080fd5b61281a6060613132565b9050600061282a84828501612980565b600083015250602061283e848285016125e3565b602083015250604082015167ffffffffffffffff81111561285e57600080fd5b61286a84828501612756565b60408301525092915050565b6000610100828403121561288957600080fd5b612894610100613132565b9050600082015167ffffffffffffffff8111156128b057600080fd5b6128bc84828501612756565b60008301525060206128d084828501612980565b60208301525060406128e484828501612980565b60408301525060606128f884828501612980565b606083015250608061290c84828501612980565b60808301525060a082015167ffffffffffffffff81111561292c57600080fd5b612938848285016125f7565b60a08301525060c061294c848285016126ee565b60c08301525060e061296084828501612980565b60e08301525092915050565b60006129788235613352565b905092915050565b600061298c8251613352565b905092915050565b6000602082840312156129a657600080fd5b60006129b4848285016125cf565b91505092915050565b600080600080608085870312156129d357600080fd5b60006129e1878288016125cf565b945050602085013567ffffffffffffffff8111156129fe57600080fd5b612a0a8782880161266b565b9350506040612a1b8782880161296c565b925050606085013567ffffffffffffffff811115612a3857600080fd5b612a44878288016127aa565b91505092959194509250565b600080600060608486031215612a6557600080fd5b6000612a73868287016125cf565b9350506020612a848682870161296c565b925050604084013567ffffffffffffffff811115612aa157600080fd5b612aad86828701612702565b9150509250925092565b60008060008060808587031215612acd57600080fd5b6000612adb878288016125cf565b9450506020612aec8782880161296c565b9350506040612afd8782880161296c565b925050606085013567ffffffffffffffff811115612b1a57600080fd5b612b26878288016127aa565b91505092959194509250565b600080600060608486031215612b4757600080fd5b600084013567ffffffffffffffff811115612b6157600080fd5b612b6d8682870161266b565b9350506020612b7e8682870161296c565b925050604084013567ffffffffffffffff811115612b9b57600080fd5b612ba7868287016127aa565b9150509250925092565b600060208284031215612bc357600080fd5b6000612bd1848285016126ee565b91505092915050565b600060208284031215612bec57600080fd5b600082013567ffffffffffffffff811115612c0657600080fd5b612c12848285016127aa565b91505092915050565b600060208284031215612c2d57600080fd5b600082015167ffffffffffffffff811115612c4757600080fd5b612c5384828501612876565b91505092915050565b60008060408385031215612c6f57600080fd5b6000612c7d8582860161296c565b925050602083013567ffffffffffffffff811115612c9a57600080fd5b612ca6858286016127aa565b9150509250929050565b600080600060608486031215612cc557600080fd5b6000612cd38682870161296c565b9350506020612ce48682870161296c565b925050604084013567ffffffffffffffff811115612d0157600080fd5b612d0d868287016127aa565b9150509250925092565b6000612d238383612e1d565b60208301905092915050565b6000612d3b8383612f74565b905092915050565b612d4c816132cc565b82525050565b6000612d5d8261324d565b612d678185613288565b9350612d7283613233565b60005b82811015612da057612d88868351612d17565b9550612d938261326e565b9150600181019050612d75565b50849250505092915050565b6000612db782613258565b612dc18185613299565b935083602082028501612dd385613240565b60005b84811015612e0c578383038852612dee838351612d2f565b9250612df98261327b565b9150602088019750600181019050612dd6565b508196508694505050505092915050565b612e26816132de565b82525050565b612e35816132de565b82525050565b6000612e4682613263565b612e5081856132aa565b9350612e6081856020860161336b565b612e698161339e565b840191505092915050565b6000612e81600a836132bb565b91507f656d7074792075736572000000000000000000000000000000000000000000006000830152602082019050919050565b6000612ec16010836132bb565b91507f696e636f727265637420646170704964000000000000000000000000000000006000830152602082019050919050565b6000612f016010836132bb565b91507f696e636f727265637420616d6f756e74000000000000000000000000000000006000830152602082019050919050565b6000612f41600a836132bb565b91507f6475706c696361746564000000000000000000000000000000000000000000006000830152602082019050919050565b600060a083016000830151612f8c6000860182612ff1565b506020830151612f9f6020860182612ff1565b506040830151612fb26040860182612ff1565b5060608301518482036060860152612fca8282612e3b565b91505060808301518482036080860152612fe48282612e3b565b9150508091505092915050565b612ffa8161330a565b82525050565b6130098161330a565b82525050565b60006040820190506130246000830185612d43565b6130316020830184613000565b9392505050565b600060208201905081810360008301526130528184612d52565b905092915050565b600060208201905081810360008301526130748184612dac565b905092915050565b60006020820190506130916000830184612e2c565b92915050565b600060208201905081810360008301526130b081612e74565b9050919050565b600060208201905081810360008301526130d081612eb4565b9050919050565b600060208201905081810360008301526130f081612ef4565b9050919050565b6000602082019050818103600083015261311081612f34565b9050919050565b600060208201905061312c6000830184613000565b92915050565b6000604051905081810181811067ffffffffffffffff8211171561315557600080fd5b8060405250919050565b600067ffffffffffffffff82111561317657600080fd5b602082029050602081019050919050565b600067ffffffffffffffff82111561319e57600080fd5b602082029050602081019050919050565b600067ffffffffffffffff8211156131c657600080fd5b601f19601f8301169050602081019050919050565b600067ffffffffffffffff8211156131f257600080fd5b601f19601f8301169050602081019050919050565b600067ffffffffffffffff82111561321e57600080fd5b601f19601f8301169050602081019050919050565b6000602082019050919050565b6000602082019050919050565b600081519050919050565b600081519050919050565b600081519050919050565b6000602082019050919050565b6000602082019050919050565b600082825260208201905092915050565b600082825260208201905092915050565b600082825260208201905092915050565b600082825260208201905092915050565b60006132d7826132ea565b9050919050565b60008115159050919050565b600073ffffffffffffffffffffffffffffffffffffffff82169050919050565b6000819050919050565b600061331f82613332565b9050919050565b60008115159050919050565b600073ffffffffffffffffffffffffffffffffffffffff82169050919050565b6000819050919050565b82818337600083830152505050565b60005b8381101561338957808201518184015260208101905061336e565b83811115613398576000848401525b50505050565b6000601f19601f830116905091905056fea265627a7a7230582036defc37ca2538c829851b3a0986c50030ee80e2d9b6144420ea51d90603b9a46c6578706572696d656e74616cf50037",
  "source": "pragma solidity ^0.5.2;\npragma experimental ABIEncoderV2;\n\nimport \"bloomen-token/contracts/ERC223ReceivingContract.sol\";\nimport \"bloomen-token/contracts/ERC223.sol\";\nimport \"solidity-rlp/contracts/RLPReader.sol\";\nimport \"openzeppelin-solidity/contracts/math/SafeMath.sol\";\nimport \"./Schemas.sol\";\nimport \"./dapp/lib/Strings.sol\";\n\ncontract  Assets is ERC223ReceivingContract, WhitelistedRole {\n  \n  using Strings for *;\n  using SafeMath for uint256;\n  using RLPReader for bytes;\n  using RLPReader for uint;\n  using RLPReader for RLPReader.RLPItem;\n\n  struct DappCtx {\n    string dappID;\n    mapping (address => UserAssets)  userAssets_;    \n  }\n\n  struct UserAssets { \n    mapping (uint256 => uint) assetsIdx;  \n    Asset[] assets;\n  } \n  \n  struct Asset {   \n    uint expirationDate;\n    uint256 assetId;\n    uint256 schemaId;\n    string dappId;\n    string description;\n  }\n\n  uint256 constant private PAGE_SIZE = 10;\n\n  mapping (bytes32 => uint[]) private dappCtxhashIndexMap_;\n  DappCtx[] private dappCtxs_;\n\n  Schemas private _schemas;\n  ERC223 private _erc223;\n  \n  constructor (address _schemasAddr, address _erc223Addr) public{\n    _erc223 = ERC223(_erc223Addr);\n    _schemas = Schemas(_schemasAddr);\n  }\n\n  function removeAsset(uint256 assetId, string memory _dappId) public {\n    _removeAsset(msg.sender, assetId,_dappId);\n  }\n\n  function checkOwnershipOneAsset(uint256 _assetId, uint256 _schemaId, string memory dappId) public  returns (bool) {\n    return _checkOwnershipOneAsset(msg.sender, _assetId, _schemaId, dappId);  \n  }\n\n  function checkOwnershipMultipleAssets(uint256[] memory _assetsIds, uint256 _schemaId, string memory dappId) public  returns (bool[] memory) {\n    return _checkOwnershipMultipleAssets(msg.sender, _assetsIds, _schemaId, dappId);  \n  }\n\n  function checkOwnershipOneAssetForAddress(address _target, uint256 _assetId, uint256 _schemaId, string memory dappId) public  returns (bool) {\n    return _checkOwnershipOneAsset(_target, _assetId, _schemaId, dappId);  \n  }\n\n  function checkOwnershipMultipleAssetsForAddress(address _target, uint256[] memory _assetsIds, uint256 _schemaId, string memory dappId) public  returns (bool[] memory) {\n    return _checkOwnershipMultipleAssets(_target, _assetsIds, _schemaId, dappId);  \n  }\n\n  function getAssetsPageCount(string memory dappId) public  returns (uint256) {  \n    DappCtx storage ctx = _getDappCtx(dappId);  \n    uint256 pages = ctx.userAssets_[msg.sender].assets.length / PAGE_SIZE;\n    if ((ctx.userAssets_[msg.sender].assets.length % PAGE_SIZE)>0) {\n      pages++;\n    }\n    return pages;\n  }\n\n  function getAssets(uint256 _page, string memory dappId) public  returns (Asset[] memory) {\n    DappCtx storage ctx = _getDappCtx(dappId);  \n    uint256 transferIndex = PAGE_SIZE * _page - PAGE_SIZE;\n    Asset[] memory assets = ctx.userAssets_[msg.sender].assets;\n\n    if (assets.length == 0 || transferIndex > assets.length - 1) {\n      Asset[] memory empty;\n      return empty ;\n    }\n\n    Asset[] memory assetsPage = new Asset[](PAGE_SIZE);  \n    uint256 returnCounter = 0;\n\n    for (transferIndex; transferIndex < PAGE_SIZE * _page; transferIndex++) {\n      if (transferIndex < assets.length) {\n        assetsPage[returnCounter] = assets[transferIndex];\n      }\n      returnCounter++;\n    }\n\n    return (assetsPage);\n  }\n\n  function tokenFallback(address _user, uint _amount, bytes memory _data) onlyWhitelisted public {\n\n    RLPReader.RLPItem memory item = _data.toRlpItem();\n    RLPReader.RLPItem[] memory itemList = item.toList();\n\n    uint256 _assetId = uint256(itemList[0].toUint());\n    uint256 _schemaId = uint256(itemList[1].toUint());\n\n    string memory _dappId = string(itemList[2].toBytes());\n\n    DappCtx storage ctx = _getDappCtx(_dappId); \n\n    string memory _description = string(itemList[3].toBytes());\n\n    Schemas.Schema memory schema = _schemas.getSchema(_schemaId);\n    require(schema.amount <= _amount, \"incorrect amount\");    \n    require(schema.topPrice >= _amount, \"incorrect amount\");    \n    require(schema.dappId.toSlice().equals(_dappId.toSlice()),\"incorrect dappId\"); \n\n    if (schema.amount == schema.topPrice){\n      // is not a tip\n      require(!_checkOwnershipOneAsset(_user, _assetId, _schemaId,_dappId), \"duplicated\");\n    }\n\n    uint pieValue = _amount;\n\n    for (uint i = 0; i < schema.clearingHouseRules.length-1; i++) {\n      uint tmpValue = _calculatePercentage(_amount,schema.clearingHouseRules[i].percent);\n      _erc223.transfer(schema.clearingHouseRules[i].receptor, tmpValue);\n      pieValue -= tmpValue;\n    }\n\n    _erc223.transfer(schema.clearingHouseRules[schema.clearingHouseRules.length-1].receptor, pieValue);\n\n    if (schema.amount == schema.topPrice){\n      // is not a tip\n      //  purchase registry\n      ctx.userAssets_[_user].assets.push(Asset(now + schema.assetLifeTime , _assetId, _schemaId, _dappId, _description));\n      ctx.userAssets_[_user].assetsIdx[_assetId] = ctx.userAssets_[_user].assets.length - 1 ;\n    }\n  }\n\n  function _checkOwnershipMultipleAssets(address _owner, uint256[] memory _assetsIds, uint256 _schemaId, string memory _dappId) internal  returns (bool[] memory) {\n        \n    bool[] memory assetOwnerShip  = new bool[](_assetsIds.length);    \n\n    for (uint i = 0; i < _assetsIds.length; i++) {\n      assetOwnerShip[i] = _checkOwnershipOneAsset(_owner, _assetsIds[i] ,_schemaId, _dappId);\n    }\n\n    return assetOwnerShip;\n  }\n\n  function _checkOwnershipOneAsset(address _owner, uint256 _assetId, uint256 _schemaId, string memory _dappId) internal  returns (bool) {\n    DappCtx storage ctx = _getDappCtx(_dappId);  \n    \n    if(ctx.userAssets_[_owner].assets.length == 0){\n      return false;\n    }\n\n    uint idx = ctx.userAssets_[_owner].assetsIdx[_assetId];\n    Asset memory asset = ctx.userAssets_[_owner].assets[idx];\n    \n    if ((asset.expirationDate > now) && (asset.assetId == _assetId) && (_dappId.toSlice().equals(asset.dappId.toSlice()))){\n      return true;\n    }\n    else {\n      return false;\n    } \n  }\n\n  function _calculatePercentage(uint theNumber, uint percentage) internal  returns (uint) {\n    return theNumber * percentage / 100 ;\n  }\n\n  function _getDappCtx(string memory dappId) internal returns (DappCtx storage) {\n    bytes32 dappIdHash = keccak256(bytes(dappId));\n    uint[] memory indexArray = dappCtxhashIndexMap_[dappIdHash];\n\n    if (indexArray.length > 0) {\n      // hash collision check\n      for (uint i = 0 ; i < indexArray.length ; i++) {\n        if (dappId.toSlice().equals(dappCtxs_[indexArray[i]].dappID.toSlice())) {\n          return dappCtxs_[indexArray[i]];\n        }\n      }\n    }\n\n    dappCtxs_.push(DappCtx(dappId));\n    uint dappIndex = dappCtxs_.length-1;\n\n    dappCtxhashIndexMap_[dappIdHash].push(dappIndex);\n\n    return dappCtxs_[dappIndex];\n  }\n\n  function _removeAsset(address _owner, uint256 assetId, string memory _dappId) internal {\n    DappCtx storage ctx = _getDappCtx(_dappId);\n    require(ctx.userAssets_[_owner].assets.length>0, \"empty user\");\n    uint assetIdx = ctx.userAssets_[_owner].assetsIdx[assetId];\n    delete ctx.userAssets_[_owner].assetsIdx[assetId];\n\n    delete ctx.userAssets_[_owner].assets[assetIdx];\n\n    for (uint i = assetIdx; i < ctx.userAssets_[_owner].assets.length-1 ; i++) {\n      ctx.userAssets_[_owner].assets[i] = ctx.userAssets_[_owner].assets[i+1];\n      // update the new index\n      ctx.userAssets_[_owner].assetsIdx[ctx.userAssets_[_owner].assets[i].assetId] = i;\n    }\n    if (ctx.userAssets_[_owner].assets.length > 0) ctx.userAssets_[_owner].assets.length--;\n  }\n\n}",
  "sourcePath": "/home/jordi/ws/bloomenio/bloomen-wallet/bloomen-wallet-truffle/contracts/bloomen/Assets.sol",
  "compiler": {
    "name": "solc",
    "version": "0.5.7+commit.6da8b019.Emscripten.clang"
  },
  "schemaVersion": "3.0.6",
  "updatedAt": "2019-10-10T07:28:07.238Z",
  "devdoc": {
    "methods": {}
  },
  "userdoc": {
    "methods": {}
  }
}